{
	"contracts/transientStorage.sol": {
		"TestTransientStorage": {
			"abi": [
				{
					"inputs": [],
					"name": "test",
					"outputs": [],
					"stateMutability": "nonpayable",
					"type": "function"
				},
				{
					"inputs": [],
					"name": "val",
					"outputs": [
						{
							"internalType": "uint256",
							"name": "v",
							"type": "uint256"
						}
					],
					"stateMutability": "view",
					"type": "function"
				}
			],
			"devdoc": {
				"kind": "dev",
				"methods": {},
				"version": 1
			},
			"evm": {
				"assembly": "    /* \"contracts/transientStorage.sol\":557:906  contract TestTransientStorage {... */\n  mstore(0x40, 0x80)\n  callvalue\n  dup1\n  iszero\n  tag_1\n  jumpi\n  revert(0x00, 0x00)\ntag_1:\n  pop\n  dataSize(sub_0)\n  dup1\n  dataOffset(sub_0)\n  0x00\n  codecopy\n  0x00\n  return\nstop\n\nsub_0: assembly {\n        /* \"contracts/transientStorage.sol\":557:906  contract TestTransientStorage {... */\n      mstore(0x40, 0x80)\n      callvalue\n      dup1\n      iszero\n      tag_1\n      jumpi\n      revert(0x00, 0x00)\n    tag_1:\n      pop\n      jumpi(tag_2, lt(calldatasize, 0x04))\n      shr(0xe0, calldataload(0x00))\n      dup1\n      0x3c6bb436\n      eq\n      tag_3\n      jumpi\n      dup1\n      0xf8a8fd6d\n      eq\n      tag_4\n      jumpi\n    tag_2:\n      revert(0x00, 0x00)\n        /* \"contracts/transientStorage.sol\":788:903  function val() public view returns(uint256 v) {... */\n    tag_3:\n      tag_5\n      tag_6\n      jump\t// in\n    tag_5:\n      mload(0x40)\n      tag_7\n      swap2\n      swap1\n      tag_8\n      jump\t// in\n    tag_7:\n      mload(0x40)\n      dup1\n      swap2\n      sub\n      swap1\n      return\n        /* \"contracts/transientStorage.sol\":628:780  function test() public {... */\n    tag_4:\n      tag_9\n      tag_10\n      jump\t// in\n    tag_9:\n      stop\n        /* \"contracts/transientStorage.sol\":788:903  function val() public view returns(uint256 v) {... */\n    tag_6:\n        /* \"contracts/transientStorage.sol\":823:832  uint256 v */\n      0x00\n        /* \"contracts/transientStorage.sol\":880:884  SLOT */\n      0x00\n        /* \"contracts/transientStorage.sol\":874:885  tload(SLOT) */\n      tload\n        /* \"contracts/transientStorage.sol\":869:885  v := tload(SLOT) */\n      swap1\n      pop\n        /* \"contracts/transientStorage.sol\":788:903  function val() public view returns(uint256 v) {... */\n      swap1\n      jump\t// out\n        /* \"contracts/transientStorage.sol\":628:780  function test() public {... */\n    tag_10:\n        /* \"contracts/transientStorage.sol\":699:702  321 */\n      0x0141\n        /* \"contracts/transientStorage.sol\":693:697  SLOT */\n      0x00\n        /* \"contracts/transientStorage.sol\":686:703  tstore(SLOT, 321) */\n      tstore\n        /* \"contracts/transientStorage.sol\":724:738  bytes memory b */\n      0x00\n        /* \"contracts/transientStorage.sol\":724:743  bytes memory b = \"\" */\n      mload(0x40)\n      dup1\n      0x20\n      add\n      0x40\n      mstore\n      dup1\n      0x00\n      dup2\n      mstore\n      pop\n      swap1\n      pop\n        /* \"contracts/transientStorage.sol\":754:764  msg.sender */\n      caller\n        /* \"contracts/transientStorage.sol\":754:769  msg.sender.call */\n      0xffffffffffffffffffffffffffffffffffffffff\n      and\n        /* \"contracts/transientStorage.sol\":770:771  b */\n      dup2\n        /* \"contracts/transientStorage.sol\":754:772  msg.sender.call(b) */\n      mload(0x40)\n      tag_13\n      swap2\n      swap1\n      tag_14\n      jump\t// in\n    tag_13:\n      0x00\n      mload(0x40)\n      dup1\n      dup4\n      sub\n      dup2\n      0x00\n      dup7\n      gas\n      call\n      swap2\n      pop\n      pop\n      returndatasize\n      dup1\n      0x00\n      dup2\n      eq\n      tag_17\n      jumpi\n      mload(0x40)\n      swap2\n      pop\n      and(add(returndatasize, 0x3f), not(0x1f))\n      dup3\n      add\n      0x40\n      mstore\n      returndatasize\n      dup3\n      mstore\n      returndatasize\n      0x00\n      0x20\n      dup5\n      add\n      returndatacopy\n      jump(tag_16)\n    tag_17:\n      0x60\n      swap2\n      pop\n    tag_16:\n      pop\n      pop\n      pop\n        /* \"contracts/transientStorage.sol\":651:780  {... */\n      pop\n        /* \"contracts/transientStorage.sol\":628:780  function test() public {... */\n      jump\t// out\n        /* \"#utility.yul\":7:84   */\n    tag_18:\n        /* \"#utility.yul\":44:51   */\n      0x00\n        /* \"#utility.yul\":73:78   */\n      dup2\n        /* \"#utility.yul\":62:78   */\n      swap1\n      pop\n        /* \"#utility.yul\":7:84   */\n      swap2\n      swap1\n      pop\n      jump\t// out\n        /* \"#utility.yul\":90:208   */\n    tag_19:\n        /* \"#utility.yul\":177:201   */\n      tag_27\n        /* \"#utility.yul\":195:200   */\n      dup2\n        /* \"#utility.yul\":177:201   */\n      tag_18\n      jump\t// in\n    tag_27:\n        /* \"#utility.yul\":172:175   */\n      dup3\n        /* \"#utility.yul\":165:202   */\n      mstore\n        /* \"#utility.yul\":90:208   */\n      pop\n      pop\n      jump\t// out\n        /* \"#utility.yul\":214:436   */\n    tag_8:\n        /* \"#utility.yul\":307:311   */\n      0x00\n        /* \"#utility.yul\":345:347   */\n      0x20\n        /* \"#utility.yul\":334:343   */\n      dup3\n        /* \"#utility.yul\":330:348   */\n      add\n        /* \"#utility.yul\":322:348   */\n      swap1\n      pop\n        /* \"#utility.yul\":358:429   */\n      tag_29\n        /* \"#utility.yul\":426:427   */\n      0x00\n        /* \"#utility.yul\":415:424   */\n      dup4\n        /* \"#utility.yul\":411:428   */\n      add\n        /* \"#utility.yul\":402:408   */\n      dup5\n        /* \"#utility.yul\":358:429   */\n      tag_19\n      jump\t// in\n    tag_29:\n        /* \"#utility.yul\":214:436   */\n      swap3\n      swap2\n      pop\n      pop\n      jump\t// out\n        /* \"#utility.yul\":442:540   */\n    tag_20:\n        /* \"#utility.yul\":493:499   */\n      0x00\n        /* \"#utility.yul\":527:532   */\n      dup2\n        /* \"#utility.yul\":521:533   */\n      mload\n        /* \"#utility.yul\":511:533   */\n      swap1\n      pop\n        /* \"#utility.yul\":442:540   */\n      swap2\n      swap1\n      pop\n      jump\t// out\n        /* \"#utility.yul\":546:693   */\n    tag_21:\n        /* \"#utility.yul\":647:658   */\n      0x00\n        /* \"#utility.yul\":684:687   */\n      dup2\n        /* \"#utility.yul\":669:687   */\n      swap1\n      pop\n        /* \"#utility.yul\":546:693   */\n      swap3\n      swap2\n      pop\n      pop\n      jump\t// out\n        /* \"#utility.yul\":699:838   */\n    tag_22:\n        /* \"#utility.yul\":788:794   */\n      dup3\n        /* \"#utility.yul\":783:786   */\n      dup2\n        /* \"#utility.yul\":778:781   */\n      dup4\n        /* \"#utility.yul\":772:795   */\n      mcopy\n        /* \"#utility.yul\":829:830   */\n      0x00\n        /* \"#utility.yul\":820:826   */\n      dup4\n        /* \"#utility.yul\":815:818   */\n      dup4\n        /* \"#utility.yul\":811:827   */\n      add\n        /* \"#utility.yul\":804:831   */\n      mstore\n        /* \"#utility.yul\":699:838   */\n      pop\n      pop\n      pop\n      jump\t// out\n        /* \"#utility.yul\":844:1230   */\n    tag_23:\n        /* \"#utility.yul\":948:951   */\n      0x00\n        /* \"#utility.yul\":976:1014   */\n      tag_34\n        /* \"#utility.yul\":1008:1013   */\n      dup3\n        /* \"#utility.yul\":976:1014   */\n      tag_20\n      jump\t// in\n    tag_34:\n        /* \"#utility.yul\":1030:1118   */\n      tag_35\n        /* \"#utility.yul\":1111:1117   */\n      dup2\n        /* \"#utility.yul\":1106:1109   */\n      dup6\n        /* \"#utility.yul\":1030:1118   */\n      tag_21\n      jump\t// in\n    tag_35:\n        /* \"#utility.yul\":1023:1118   */\n      swap4\n      pop\n        /* \"#utility.yul\":1127:1192   */\n      tag_36\n        /* \"#utility.yul\":1185:1191   */\n      dup2\n        /* \"#utility.yul\":1180:1183   */\n      dup6\n        /* \"#utility.yul\":1173:1177   */\n      0x20\n        /* \"#utility.yul\":1166:1171   */\n      dup7\n        /* \"#utility.yul\":1162:1178   */\n      add\n        /* \"#utility.yul\":1127:1192   */\n      tag_22\n      jump\t// in\n    tag_36:\n        /* \"#utility.yul\":1217:1223   */\n      dup1\n        /* \"#utility.yul\":1212:1215   */\n      dup5\n        /* \"#utility.yul\":1208:1224   */\n      add\n        /* \"#utility.yul\":1201:1224   */\n      swap2\n      pop\n        /* \"#utility.yul\":952:1230   */\n      pop\n        /* \"#utility.yul\":844:1230   */\n      swap3\n      swap2\n      pop\n      pop\n      jump\t// out\n        /* \"#utility.yul\":1236:1507   */\n    tag_14:\n        /* \"#utility.yul\":1366:1369   */\n      0x00\n        /* \"#utility.yul\":1388:1481   */\n      tag_38\n        /* \"#utility.yul\":1477:1480   */\n      dup3\n        /* \"#utility.yul\":1468:1474   */\n      dup5\n        /* \"#utility.yul\":1388:1481   */\n      tag_23\n      jump\t// in\n    tag_38:\n        /* \"#utility.yul\":1381:1481   */\n      swap2\n      pop\n        /* \"#utility.yul\":1498:1501   */\n      dup2\n        /* \"#utility.yul\":1491:1501   */\n      swap1\n      pop\n        /* \"#utility.yul\":1236:1507   */\n      swap3\n      swap2\n      pop\n      pop\n      jump\t// out\n\n    auxdata: 0xa26469706673582212208d477e975035f316ba19e0ec47480b8f4a5c08c0622f6f59766e05a0dfed048964736f6c634300081b0033\n}\n",
				"bytecode": {
					"linkReferences": {},
					"object": "6080604052348015600e575f5ffd5b506101b78061001c5f395ff3fe608060405234801561000f575f5ffd5b5060043610610034575f3560e01c80633c6bb43614610038578063f8a8fd6d14610056575b5f5ffd5b610040610060565b60405161004d9190610100565b60405180910390f35b61005e610068565b005b5f5f5c905090565b6101415f5d5f60405180602001604052805f81525090503373ffffffffffffffffffffffffffffffffffffffff16816040516100a4919061016b565b5f604051808303815f865af19150503d805f81146100dd576040519150601f19603f3d011682016040523d82523d5f602084013e6100e2565b606091505b50505050565b5f819050919050565b6100fa816100e8565b82525050565b5f6020820190506101135f8301846100f1565b92915050565b5f81519050919050565b5f81905092915050565b8281835e5f83830152505050565b5f61014582610119565b61014f8185610123565b935061015f81856020860161012d565b80840191505092915050565b5f610176828461013b565b91508190509291505056fea26469706673582212208d477e975035f316ba19e0ec47480b8f4a5c08c0622f6f59766e05a0dfed048964736f6c634300081b0033",
					"opcodes": "PUSH1 0x80 PUSH1 0x40 MSTORE CALLVALUE DUP1 ISZERO PUSH1 0xE JUMPI PUSH0 PUSH0 REVERT JUMPDEST POP PUSH2 0x1B7 DUP1 PUSH2 0x1C PUSH0 CODECOPY PUSH0 RETURN INVALID PUSH1 0x80 PUSH1 0x40 MSTORE CALLVALUE DUP1 ISZERO PUSH2 0xF JUMPI PUSH0 PUSH0 REVERT JUMPDEST POP PUSH1 0x4 CALLDATASIZE LT PUSH2 0x34 JUMPI PUSH0 CALLDATALOAD PUSH1 0xE0 SHR DUP1 PUSH4 0x3C6BB436 EQ PUSH2 0x38 JUMPI DUP1 PUSH4 0xF8A8FD6D EQ PUSH2 0x56 JUMPI JUMPDEST PUSH0 PUSH0 REVERT JUMPDEST PUSH2 0x40 PUSH2 0x60 JUMP JUMPDEST PUSH1 0x40 MLOAD PUSH2 0x4D SWAP2 SWAP1 PUSH2 0x100 JUMP JUMPDEST PUSH1 0x40 MLOAD DUP1 SWAP2 SUB SWAP1 RETURN JUMPDEST PUSH2 0x5E PUSH2 0x68 JUMP JUMPDEST STOP JUMPDEST PUSH0 PUSH0 TLOAD SWAP1 POP SWAP1 JUMP JUMPDEST PUSH2 0x141 PUSH0 TSTORE PUSH0 PUSH1 0x40 MLOAD DUP1 PUSH1 0x20 ADD PUSH1 0x40 MSTORE DUP1 PUSH0 DUP2 MSTORE POP SWAP1 POP CALLER PUSH20 0xFFFFFFFFFFFFFFFFFFFFFFFFFFFFFFFFFFFFFFFF AND DUP2 PUSH1 0x40 MLOAD PUSH2 0xA4 SWAP2 SWAP1 PUSH2 0x16B JUMP JUMPDEST PUSH0 PUSH1 0x40 MLOAD DUP1 DUP4 SUB DUP2 PUSH0 DUP7 GAS CALL SWAP2 POP POP RETURNDATASIZE DUP1 PUSH0 DUP2 EQ PUSH2 0xDD JUMPI PUSH1 0x40 MLOAD SWAP2 POP PUSH1 0x1F NOT PUSH1 0x3F RETURNDATASIZE ADD AND DUP3 ADD PUSH1 0x40 MSTORE RETURNDATASIZE DUP3 MSTORE RETURNDATASIZE PUSH0 PUSH1 0x20 DUP5 ADD RETURNDATACOPY PUSH2 0xE2 JUMP JUMPDEST PUSH1 0x60 SWAP2 POP JUMPDEST POP POP POP POP JUMP JUMPDEST PUSH0 DUP2 SWAP1 POP SWAP2 SWAP1 POP JUMP JUMPDEST PUSH2 0xFA DUP2 PUSH2 0xE8 JUMP JUMPDEST DUP3 MSTORE POP POP JUMP JUMPDEST PUSH0 PUSH1 0x20 DUP3 ADD SWAP1 POP PUSH2 0x113 PUSH0 DUP4 ADD DUP5 PUSH2 0xF1 JUMP JUMPDEST SWAP3 SWAP2 POP POP JUMP JUMPDEST PUSH0 DUP2 MLOAD SWAP1 POP SWAP2 SWAP1 POP JUMP JUMPDEST PUSH0 DUP2 SWAP1 POP SWAP3 SWAP2 POP POP JUMP JUMPDEST DUP3 DUP2 DUP4 MCOPY PUSH0 DUP4 DUP4 ADD MSTORE POP POP POP JUMP JUMPDEST PUSH0 PUSH2 0x145 DUP3 PUSH2 0x119 JUMP JUMPDEST PUSH2 0x14F DUP2 DUP6 PUSH2 0x123 JUMP JUMPDEST SWAP4 POP PUSH2 0x15F DUP2 DUP6 PUSH1 0x20 DUP7 ADD PUSH2 0x12D JUMP JUMPDEST DUP1 DUP5 ADD SWAP2 POP POP SWAP3 SWAP2 POP POP JUMP JUMPDEST PUSH0 PUSH2 0x176 DUP3 DUP5 PUSH2 0x13B JUMP JUMPDEST SWAP2 POP DUP2 SWAP1 POP SWAP3 SWAP2 POP POP JUMP INVALID LOG2 PUSH5 0x6970667358 0x22 SLT KECCAK256 DUP14 SELFBALANCE PUSH31 0x975035F316BA19E0EC47480B8F4A5C08C0622F6F59766E05A0DFED04896473 PUSH16 0x6C634300081B00330000000000000000 "
				},
				"gasEstimates": {
					"creation": {
						"codeDepositCost": "87800",
						"executionCost": "133",
						"totalCost": "87933"
					},
					"external": {
						"test()": "infinite",
						"val()": "409"
					}
				},
				"methodIdentifiers": {
					"test()": "f8a8fd6d",
					"val()": "3c6bb436"
				}
			},
			"storageLayout": {
				"storage": [],
				"types": null
			},
			"userdoc": {
				"kind": "user",
				"methods": {},
				"version": 1
			}
		}
	}
}