{
	"contracts/function.sol": {
		"Function": {
			"abi": [
				{
					"inputs": [
						{
							"internalType": "uint256",
							"name": "",
							"type": "uint256"
						}
					],
					"name": "arr",
					"outputs": [
						{
							"internalType": "uint256",
							"name": "",
							"type": "uint256"
						}
					],
					"stateMutability": "view",
					"type": "function"
				},
				{
					"inputs": [
						{
							"internalType": "uint256[]",
							"name": "_arr",
							"type": "uint256[]"
						}
					],
					"name": "arrayInput",
					"outputs": [],
					"stateMutability": "nonpayable",
					"type": "function"
				},
				{
					"inputs": [],
					"name": "arrayOutInput",
					"outputs": [
						{
							"internalType": "uint256[]",
							"name": "",
							"type": "uint256[]"
						}
					],
					"stateMutability": "view",
					"type": "function"
				},
				{
					"inputs": [],
					"name": "assigned",
					"outputs": [
						{
							"internalType": "uint256",
							"name": "x",
							"type": "uint256"
						},
						{
							"internalType": "bool",
							"name": "b",
							"type": "bool"
						},
						{
							"internalType": "uint256",
							"name": "y",
							"type": "uint256"
						}
					],
					"stateMutability": "pure",
					"type": "function"
				},
				{
					"inputs": [],
					"name": "destructuringAssignments",
					"outputs": [
						{
							"internalType": "uint256",
							"name": "",
							"type": "uint256"
						},
						{
							"internalType": "bool",
							"name": "",
							"type": "bool"
						},
						{
							"internalType": "uint256",
							"name": "",
							"type": "uint256"
						},
						{
							"internalType": "uint256",
							"name": "",
							"type": "uint256"
						},
						{
							"internalType": "uint256",
							"name": "",
							"type": "uint256"
						}
					],
					"stateMutability": "pure",
					"type": "function"
				},
				{
					"inputs": [],
					"name": "named",
					"outputs": [
						{
							"internalType": "uint256",
							"name": "x",
							"type": "uint256"
						},
						{
							"internalType": "bool",
							"name": "b",
							"type": "bool"
						},
						{
							"internalType": "uint256",
							"name": "z",
							"type": "uint256"
						}
					],
					"stateMutability": "pure",
					"type": "function"
				},
				{
					"inputs": [],
					"name": "returnMany",
					"outputs": [
						{
							"internalType": "uint256",
							"name": "",
							"type": "uint256"
						},
						{
							"internalType": "bool",
							"name": "",
							"type": "bool"
						},
						{
							"internalType": "uint256",
							"name": "",
							"type": "uint256"
						}
					],
					"stateMutability": "pure",
					"type": "function"
				}
			],
			"devdoc": {
				"kind": "dev",
				"methods": {},
				"version": 1
			},
			"evm": {
				"assembly": "    /* \"contracts/function.sol\":61:887  contract Function {... */\n  mstore(0x40, 0x80)\n  callvalue\n  dup1\n  iszero\n  tag_1\n  jumpi\n  revert(0x00, 0x00)\ntag_1:\n  pop\n  dataSize(sub_0)\n  dup1\n  dataOffset(sub_0)\n  0x00\n  codecopy\n  0x00\n  return\nstop\n\nsub_0: assembly {\n        /* \"contracts/function.sol\":61:887  contract Function {... */\n      mstore(0x40, 0x80)\n      callvalue\n      dup1\n      iszero\n      tag_1\n      jumpi\n      revert(0x00, 0x00)\n    tag_1:\n      pop\n      jumpi(tag_2, lt(calldatasize, 0x04))\n      shr(0xe0, calldataload(0x00))\n      dup1\n      0x86887544\n      gt\n      tag_10\n      jumpi\n      dup1\n      0x86887544\n      eq\n      tag_6\n      jumpi\n      dup1\n      0xadb4d990\n      eq\n      tag_7\n      jumpi\n      dup1\n      0xf4bb6e6b\n      eq\n      tag_8\n      jumpi\n      dup1\n      0xf63932d5\n      eq\n      tag_9\n      jumpi\n      jump(tag_2)\n    tag_10:\n      dup1\n      0x45f907a8\n      eq\n      tag_3\n      jumpi\n      dup1\n      0x68873440\n      eq\n      tag_4\n      jumpi\n      dup1\n      0x71e5ee5f\n      eq\n      tag_5\n      jumpi\n    tag_2:\n      revert(0x00, 0x00)\n        /* \"contracts/function.sol\":203:308  function named() public pure returns(uint256 x, bool b, uint256 z) {... */\n    tag_3:\n      tag_11\n      tag_12\n      jump\t// in\n    tag_11:\n      mload(0x40)\n      tag_13\n      swap4\n      swap3\n      swap2\n      swap1\n      tag_14\n      jump\t// in\n    tag_13:\n      mload(0x40)\n      dup1\n      swap2\n      sub\n      swap1\n      return\n        /* \"contracts/function.sol\":454:693  function destructuringAssignments() public pure returns (uint256, bool, uint256, uint256, uint256){... */\n    tag_4:\n      tag_15\n      tag_16\n      jump\t// in\n    tag_15:\n      mload(0x40)\n      tag_17\n      swap6\n      swap5\n      swap4\n      swap3\n      swap2\n      swap1\n      tag_18\n      jump\t// in\n    tag_17:\n      mload(0x40)\n      dup1\n      swap2\n      sub\n      swap1\n      return\n        /* \"contracts/function.sol\":761:781  uint256[] public arr */\n    tag_5:\n      tag_19\n      0x04\n      dup1\n      calldatasize\n      sub\n      dup2\n      add\n      swap1\n      tag_20\n      swap2\n      swap1\n      tag_21\n      jump\t// in\n    tag_20:\n      tag_22\n      jump\t// in\n    tag_19:\n      mload(0x40)\n      tag_23\n      swap2\n      swap1\n      tag_24\n      jump\t// in\n    tag_23:\n      mload(0x40)\n      dup1\n      swap2\n      sub\n      swap1\n      return\n        /* \"contracts/function.sol\":90:195  function returnMany() public pure returns (uint256, bool, uint256) {... */\n    tag_6:\n      tag_25\n      tag_26\n      jump\t// in\n    tag_25:\n      mload(0x40)\n      tag_27\n      swap4\n      swap3\n      swap2\n      swap1\n      tag_14\n      jump\t// in\n    tag_27:\n      mload(0x40)\n      dup1\n      swap2\n      sub\n      swap1\n      return\n        /* \"contracts/function.sol\":316:446  function assigned() public pure returns(uint256 x, bool b, uint256 y) {... */\n    tag_7:\n      tag_28\n      tag_29\n      jump\t// in\n    tag_28:\n      mload(0x40)\n      tag_30\n      swap4\n      swap3\n      swap2\n      swap1\n      tag_14\n      jump\t// in\n    tag_30:\n      mload(0x40)\n      dup1\n      swap2\n      sub\n      swap1\n      return\n        /* \"contracts/function.sol\":701:753  function arrayInput(uint256[] memory _arr) public {} */\n    tag_8:\n      tag_31\n      0x04\n      dup1\n      calldatasize\n      sub\n      dup2\n      add\n      swap1\n      tag_32\n      swap2\n      swap1\n      tag_33\n      jump\t// in\n    tag_32:\n      tag_34\n      jump\t// in\n    tag_31:\n      stop\n        /* \"contracts/function.sol\":790:882  function arrayOutInput() public view returns(uint256[] memory) {... */\n    tag_9:\n      tag_35\n      tag_36\n      jump\t// in\n    tag_35:\n      mload(0x40)\n      tag_37\n      swap2\n      swap1\n      tag_38\n      jump\t// in\n    tag_37:\n      mload(0x40)\n      dup1\n      swap2\n      sub\n      swap1\n      return\n        /* \"contracts/function.sol\":203:308  function named() public pure returns(uint256 x, bool b, uint256 z) {... */\n    tag_12:\n        /* \"contracts/function.sol\":240:249  uint256 x */\n      0x00\n        /* \"contracts/function.sol\":251:257  bool b */\n      0x00\n        /* \"contracts/function.sol\":259:268  uint256 z */\n      0x00\n        /* \"contracts/function.sol\":289:290  1 */\n      0x01\n        /* \"contracts/function.sol\":292:296  true */\n      dup1\n        /* \"contracts/function.sol\":298:299  2 */\n      0x02\n        /* \"contracts/function.sol\":281:300  return (1, true, 2) */\n      swap3\n      pop\n      swap3\n      pop\n      swap3\n      pop\n        /* \"contracts/function.sol\":203:308  function named() public pure returns(uint256 x, bool b, uint256 z) {... */\n      swap1\n      swap2\n      swap3\n      jump\t// out\n        /* \"contracts/function.sol\":454:693  function destructuringAssignments() public pure returns (uint256, bool, uint256, uint256, uint256){... */\n    tag_16:\n        /* \"contracts/function.sol\":511:518  uint256 */\n      0x00\n        /* \"contracts/function.sol\":520:524  bool */\n      0x00\n        /* \"contracts/function.sol\":526:533  uint256 */\n      0x00\n        /* \"contracts/function.sol\":535:542  uint256 */\n      0x00\n        /* \"contracts/function.sol\":544:551  uint256 */\n      0x00\n        /* \"contracts/function.sol\":564:573  uint256 i */\n      0x00\n        /* \"contracts/function.sol\":575:581  bool b */\n      0x00\n        /* \"contracts/function.sol\":583:592  uint256 j */\n      0x00\n        /* \"contracts/function.sol\":596:608  returnMany() */\n      tag_41\n        /* \"contracts/function.sol\":596:606  returnMany */\n      tag_26\n        /* \"contracts/function.sol\":596:608  returnMany() */\n      jump\t// in\n    tag_41:\n        /* \"contracts/function.sol\":563:608  (uint256 i, bool b, uint256 j) = returnMany() */\n      swap3\n      pop\n      swap3\n      pop\n      swap3\n      pop\n        /* \"contracts/function.sol\":620:629  uint256 x */\n      0x00\n        /* \"contracts/function.sol\":632:641  uint256 y */\n      0x00\n        /* \"contracts/function.sol\":646:647  4 */\n      0x04\n        /* \"contracts/function.sol\":649:650  5 */\n      0x05\n        /* \"contracts/function.sol\":652:653  6 */\n      0x06\n        /* \"contracts/function.sol\":619:654  (uint256 x,, uint256 y) = (4, 5, 6) */\n      swap3\n      pop\n      pop\n      swap2\n      pop\n        /* \"contracts/function.sol\":673:674  i */\n      dup5\n        /* \"contracts/function.sol\":676:677  b */\n      dup5\n        /* \"contracts/function.sol\":679:680  j */\n      dup5\n        /* \"contracts/function.sol\":681:682  x */\n      dup5\n        /* \"contracts/function.sol\":683:684  y */\n      dup5\n        /* \"contracts/function.sol\":665:685  return (i, b, j,x,y) */\n      swap10\n      pop\n      swap10\n      pop\n      swap10\n      pop\n      swap10\n      pop\n      swap10\n      pop\n      pop\n      pop\n      pop\n      pop\n      pop\n        /* \"contracts/function.sol\":454:693  function destructuringAssignments() public pure returns (uint256, bool, uint256, uint256, uint256){... */\n      swap1\n      swap2\n      swap3\n      swap4\n      swap5\n      jump\t// out\n        /* \"contracts/function.sol\":761:781  uint256[] public arr */\n    tag_22:\n      0x00\n      dup2\n      dup2\n      sload\n      dup2\n      lt\n      tag_42\n      jumpi\n      0x00\n      dup1\n      revert\n    tag_42:\n      swap1\n      0x00\n      mstore\n      keccak256(0x00, 0x20)\n      add\n      0x00\n      swap2\n      pop\n      swap1\n      pop\n      sload\n      dup2\n      jump\t// out\n        /* \"contracts/function.sol\":90:195  function returnMany() public pure returns (uint256, bool, uint256) {... */\n    tag_26:\n        /* \"contracts/function.sol\":133:140  uint256 */\n      0x00\n        /* \"contracts/function.sol\":142:146  bool */\n      0x00\n        /* \"contracts/function.sol\":148:155  uint256 */\n      0x00\n        /* \"contracts/function.sol\":176:177  1 */\n      0x01\n        /* \"contracts/function.sol\":179:183  true */\n      dup1\n        /* \"contracts/function.sol\":185:186  2 */\n      0x02\n        /* \"contracts/function.sol\":168:187  return (1, true, 2) */\n      swap3\n      pop\n      swap3\n      pop\n      swap3\n      pop\n        /* \"contracts/function.sol\":90:195  function returnMany() public pure returns (uint256, bool, uint256) {... */\n      swap1\n      swap2\n      swap3\n      jump\t// out\n        /* \"contracts/function.sol\":316:446  function assigned() public pure returns(uint256 x, bool b, uint256 y) {... */\n    tag_29:\n        /* \"contracts/function.sol\":356:365  uint256 x */\n      0x00\n        /* \"contracts/function.sol\":367:373  bool b */\n      0x00\n        /* \"contracts/function.sol\":375:384  uint256 y */\n      0x00\n        /* \"contracts/function.sol\":401:402  1 */\n      0x01\n        /* \"contracts/function.sol\":397:402  x = 1 */\n      swap3\n      pop\n        /* \"contracts/function.sol\":417:422  false */\n      0x00\n        /* \"contracts/function.sol\":413:422  b = false */\n      swap2\n      pop\n        /* \"contracts/function.sol\":437:438  2 */\n      0x02\n        /* \"contracts/function.sol\":433:438  y = 2 */\n      swap1\n      pop\n        /* \"contracts/function.sol\":316:446  function assigned() public pure returns(uint256 x, bool b, uint256 y) {... */\n      swap1\n      swap2\n      swap3\n      jump\t// out\n        /* \"contracts/function.sol\":701:753  function arrayInput(uint256[] memory _arr) public {} */\n    tag_34:\n      pop\n      jump\t// out\n        /* \"contracts/function.sol\":790:882  function arrayOutInput() public view returns(uint256[] memory) {... */\n    tag_36:\n        /* \"contracts/function.sol\":835:851  uint256[] memory */\n      0x60\n        /* \"contracts/function.sol\":871:874  arr */\n      0x00\n        /* \"contracts/function.sol\":864:874  return arr */\n      dup1\n      sload\n      dup1\n      0x20\n      mul\n      0x20\n      add\n      mload(0x40)\n      swap1\n      dup2\n      add\n      0x40\n      mstore\n      dup1\n      swap3\n      swap2\n      swap1\n      dup2\n      dup2\n      mstore\n      0x20\n      add\n      dup3\n      dup1\n      sload\n      dup1\n      iszero\n      tag_48\n      jumpi\n      0x20\n      mul\n      dup3\n      add\n      swap2\n      swap1\n      0x00\n      mstore\n      keccak256(0x00, 0x20)\n      swap1\n    tag_49:\n      dup2\n      sload\n      dup2\n      mstore\n      0x20\n      add\n      swap1\n      0x01\n      add\n      swap1\n      dup1\n      dup4\n      gt\n      tag_49\n      jumpi\n    tag_48:\n      pop\n      pop\n      pop\n      pop\n      pop\n      swap1\n      pop\n        /* \"contracts/function.sol\":790:882  function arrayOutInput() public view returns(uint256[] memory) {... */\n      swap1\n      jump\t// out\n        /* \"#utility.yul\":7:84   */\n    tag_50:\n        /* \"#utility.yul\":44:51   */\n      0x00\n        /* \"#utility.yul\":73:78   */\n      dup2\n        /* \"#utility.yul\":62:78   */\n      swap1\n      pop\n        /* \"#utility.yul\":7:84   */\n      swap2\n      swap1\n      pop\n      jump\t// out\n        /* \"#utility.yul\":90:208   */\n    tag_51:\n        /* \"#utility.yul\":177:201   */\n      tag_78\n        /* \"#utility.yul\":195:200   */\n      dup2\n        /* \"#utility.yul\":177:201   */\n      tag_50\n      jump\t// in\n    tag_78:\n        /* \"#utility.yul\":172:175   */\n      dup3\n        /* \"#utility.yul\":165:202   */\n      mstore\n        /* \"#utility.yul\":90:208   */\n      pop\n      pop\n      jump\t// out\n        /* \"#utility.yul\":214:304   */\n    tag_52:\n        /* \"#utility.yul\":248:255   */\n      0x00\n        /* \"#utility.yul\":291:296   */\n      dup2\n        /* \"#utility.yul\":284:297   */\n      iszero\n        /* \"#utility.yul\":277:298   */\n      iszero\n        /* \"#utility.yul\":266:298   */\n      swap1\n      pop\n        /* \"#utility.yul\":214:304   */\n      swap2\n      swap1\n      pop\n      jump\t// out\n        /* \"#utility.yul\":310:419   */\n    tag_53:\n        /* \"#utility.yul\":391:412   */\n      tag_81\n        /* \"#utility.yul\":406:411   */\n      dup2\n        /* \"#utility.yul\":391:412   */\n      tag_52\n      jump\t// in\n    tag_81:\n        /* \"#utility.yul\":386:389   */\n      dup3\n        /* \"#utility.yul\":379:413   */\n      mstore\n        /* \"#utility.yul\":310:419   */\n      pop\n      pop\n      jump\t// out\n        /* \"#utility.yul\":425:855   */\n    tag_14:\n        /* \"#utility.yul\":568:572   */\n      0x00\n        /* \"#utility.yul\":606:608   */\n      0x60\n        /* \"#utility.yul\":595:604   */\n      dup3\n        /* \"#utility.yul\":591:609   */\n      add\n        /* \"#utility.yul\":583:609   */\n      swap1\n      pop\n        /* \"#utility.yul\":619:690   */\n      tag_83\n        /* \"#utility.yul\":687:688   */\n      0x00\n        /* \"#utility.yul\":676:685   */\n      dup4\n        /* \"#utility.yul\":672:689   */\n      add\n        /* \"#utility.yul\":663:669   */\n      dup7\n        /* \"#utility.yul\":619:690   */\n      tag_51\n      jump\t// in\n    tag_83:\n        /* \"#utility.yul\":700:766   */\n      tag_84\n        /* \"#utility.yul\":762:764   */\n      0x20\n        /* \"#utility.yul\":751:760   */\n      dup4\n        /* \"#utility.yul\":747:765   */\n      add\n        /* \"#utility.yul\":738:744   */\n      dup6\n        /* \"#utility.yul\":700:766   */\n      tag_53\n      jump\t// in\n    tag_84:\n        /* \"#utility.yul\":776:848   */\n      tag_85\n        /* \"#utility.yul\":844:846   */\n      0x40\n        /* \"#utility.yul\":833:842   */\n      dup4\n        /* \"#utility.yul\":829:847   */\n      add\n        /* \"#utility.yul\":820:826   */\n      dup5\n        /* \"#utility.yul\":776:848   */\n      tag_51\n      jump\t// in\n    tag_85:\n        /* \"#utility.yul\":425:855   */\n      swap5\n      swap4\n      pop\n      pop\n      pop\n      pop\n      jump\t// out\n        /* \"#utility.yul\":861:1513   */\n    tag_18:\n        /* \"#utility.yul\":1060:1064   */\n      0x00\n        /* \"#utility.yul\":1098:1101   */\n      0xa0\n        /* \"#utility.yul\":1087:1096   */\n      dup3\n        /* \"#utility.yul\":1083:1102   */\n      add\n        /* \"#utility.yul\":1075:1102   */\n      swap1\n      pop\n        /* \"#utility.yul\":1112:1183   */\n      tag_87\n        /* \"#utility.yul\":1180:1181   */\n      0x00\n        /* \"#utility.yul\":1169:1178   */\n      dup4\n        /* \"#utility.yul\":1165:1182   */\n      add\n        /* \"#utility.yul\":1156:1162   */\n      dup9\n        /* \"#utility.yul\":1112:1183   */\n      tag_51\n      jump\t// in\n    tag_87:\n        /* \"#utility.yul\":1193:1259   */\n      tag_88\n        /* \"#utility.yul\":1255:1257   */\n      0x20\n        /* \"#utility.yul\":1244:1253   */\n      dup4\n        /* \"#utility.yul\":1240:1258   */\n      add\n        /* \"#utility.yul\":1231:1237   */\n      dup8\n        /* \"#utility.yul\":1193:1259   */\n      tag_53\n      jump\t// in\n    tag_88:\n        /* \"#utility.yul\":1269:1341   */\n      tag_89\n        /* \"#utility.yul\":1337:1339   */\n      0x40\n        /* \"#utility.yul\":1326:1335   */\n      dup4\n        /* \"#utility.yul\":1322:1340   */\n      add\n        /* \"#utility.yul\":1313:1319   */\n      dup7\n        /* \"#utility.yul\":1269:1341   */\n      tag_51\n      jump\t// in\n    tag_89:\n        /* \"#utility.yul\":1351:1423   */\n      tag_90\n        /* \"#utility.yul\":1419:1421   */\n      0x60\n        /* \"#utility.yul\":1408:1417   */\n      dup4\n        /* \"#utility.yul\":1404:1422   */\n      add\n        /* \"#utility.yul\":1395:1401   */\n      dup6\n        /* \"#utility.yul\":1351:1423   */\n      tag_51\n      jump\t// in\n    tag_90:\n        /* \"#utility.yul\":1433:1506   */\n      tag_91\n        /* \"#utility.yul\":1501:1504   */\n      0x80\n        /* \"#utility.yul\":1490:1499   */\n      dup4\n        /* \"#utility.yul\":1486:1505   */\n      add\n        /* \"#utility.yul\":1477:1483   */\n      dup5\n        /* \"#utility.yul\":1433:1506   */\n      tag_51\n      jump\t// in\n    tag_91:\n        /* \"#utility.yul\":861:1513   */\n      swap7\n      swap6\n      pop\n      pop\n      pop\n      pop\n      pop\n      pop\n      jump\t// out\n        /* \"#utility.yul\":1519:1594   */\n    tag_54:\n        /* \"#utility.yul\":1552:1558   */\n      0x00\n        /* \"#utility.yul\":1585:1587   */\n      0x40\n        /* \"#utility.yul\":1579:1588   */\n      mload\n        /* \"#utility.yul\":1569:1588   */\n      swap1\n      pop\n        /* \"#utility.yul\":1519:1594   */\n      swap1\n      jump\t// out\n        /* \"#utility.yul\":1600:1717   */\n    tag_55:\n        /* \"#utility.yul\":1709:1710   */\n      0x00\n        /* \"#utility.yul\":1706:1707   */\n      0x00\n        /* \"#utility.yul\":1699:1711   */\n      revert\n        /* \"#utility.yul\":1723:1840   */\n    tag_56:\n        /* \"#utility.yul\":1832:1833   */\n      0x00\n        /* \"#utility.yul\":1829:1830   */\n      0x00\n        /* \"#utility.yul\":1822:1834   */\n      revert\n        /* \"#utility.yul\":1846:1968   */\n    tag_57:\n        /* \"#utility.yul\":1919:1943   */\n      tag_96\n        /* \"#utility.yul\":1937:1942   */\n      dup2\n        /* \"#utility.yul\":1919:1943   */\n      tag_50\n      jump\t// in\n    tag_96:\n        /* \"#utility.yul\":1912:1917   */\n      dup2\n        /* \"#utility.yul\":1909:1944   */\n      eq\n        /* \"#utility.yul\":1899:1962   */\n      tag_97\n      jumpi\n        /* \"#utility.yul\":1958:1959   */\n      0x00\n        /* \"#utility.yul\":1955:1956   */\n      0x00\n        /* \"#utility.yul\":1948:1960   */\n      revert\n        /* \"#utility.yul\":1899:1962   */\n    tag_97:\n        /* \"#utility.yul\":1846:1968   */\n      pop\n      jump\t// out\n        /* \"#utility.yul\":1974:2113   */\n    tag_58:\n        /* \"#utility.yul\":2020:2025   */\n      0x00\n        /* \"#utility.yul\":2058:2064   */\n      dup2\n        /* \"#utility.yul\":2045:2065   */\n      calldataload\n        /* \"#utility.yul\":2036:2065   */\n      swap1\n      pop\n        /* \"#utility.yul\":2074:2107   */\n      tag_99\n        /* \"#utility.yul\":2101:2106   */\n      dup2\n        /* \"#utility.yul\":2074:2107   */\n      tag_57\n      jump\t// in\n    tag_99:\n        /* \"#utility.yul\":1974:2113   */\n      swap3\n      swap2\n      pop\n      pop\n      jump\t// out\n        /* \"#utility.yul\":2119:2448   */\n    tag_21:\n        /* \"#utility.yul\":2178:2184   */\n      0x00\n        /* \"#utility.yul\":2227:2229   */\n      0x20\n        /* \"#utility.yul\":2215:2224   */\n      dup3\n        /* \"#utility.yul\":2206:2213   */\n      dup5\n        /* \"#utility.yul\":2202:2225   */\n      sub\n        /* \"#utility.yul\":2198:2230   */\n      slt\n        /* \"#utility.yul\":2195:2314   */\n      iszero\n      tag_101\n      jumpi\n        /* \"#utility.yul\":2233:2312   */\n      tag_102\n      tag_55\n      jump\t// in\n    tag_102:\n        /* \"#utility.yul\":2195:2314   */\n    tag_101:\n        /* \"#utility.yul\":2353:2354   */\n      0x00\n        /* \"#utility.yul\":2378:2431   */\n      tag_103\n        /* \"#utility.yul\":2423:2430   */\n      dup5\n        /* \"#utility.yul\":2414:2420   */\n      dup3\n        /* \"#utility.yul\":2403:2412   */\n      dup6\n        /* \"#utility.yul\":2399:2421   */\n      add\n        /* \"#utility.yul\":2378:2431   */\n      tag_58\n      jump\t// in\n    tag_103:\n        /* \"#utility.yul\":2368:2431   */\n      swap2\n      pop\n        /* \"#utility.yul\":2324:2441   */\n      pop\n        /* \"#utility.yul\":2119:2448   */\n      swap3\n      swap2\n      pop\n      pop\n      jump\t// out\n        /* \"#utility.yul\":2454:2676   */\n    tag_24:\n        /* \"#utility.yul\":2547:2551   */\n      0x00\n        /* \"#utility.yul\":2585:2587   */\n      0x20\n        /* \"#utility.yul\":2574:2583   */\n      dup3\n        /* \"#utility.yul\":2570:2588   */\n      add\n        /* \"#utility.yul\":2562:2588   */\n      swap1\n      pop\n        /* \"#utility.yul\":2598:2669   */\n      tag_105\n        /* \"#utility.yul\":2666:2667   */\n      0x00\n        /* \"#utility.yul\":2655:2664   */\n      dup4\n        /* \"#utility.yul\":2651:2668   */\n      add\n        /* \"#utility.yul\":2642:2648   */\n      dup5\n        /* \"#utility.yul\":2598:2669   */\n      tag_51\n      jump\t// in\n    tag_105:\n        /* \"#utility.yul\":2454:2676   */\n      swap3\n      swap2\n      pop\n      pop\n      jump\t// out\n        /* \"#utility.yul\":2682:2799   */\n    tag_59:\n        /* \"#utility.yul\":2791:2792   */\n      0x00\n        /* \"#utility.yul\":2788:2789   */\n      0x00\n        /* \"#utility.yul\":2781:2793   */\n      revert\n        /* \"#utility.yul\":2805:2907   */\n    tag_60:\n        /* \"#utility.yul\":2846:2852   */\n      0x00\n        /* \"#utility.yul\":2897:2899   */\n      0x1f\n        /* \"#utility.yul\":2893:2900   */\n      not\n        /* \"#utility.yul\":2888:2890   */\n      0x1f\n        /* \"#utility.yul\":2881:2886   */\n      dup4\n        /* \"#utility.yul\":2877:2891   */\n      add\n        /* \"#utility.yul\":2873:2901   */\n      and\n        /* \"#utility.yul\":2863:2901   */\n      swap1\n      pop\n        /* \"#utility.yul\":2805:2907   */\n      swap2\n      swap1\n      pop\n      jump\t// out\n        /* \"#utility.yul\":2913:3093   */\n    tag_61:\n        /* \"#utility.yul\":2961:3038   */\n      0x4e487b7100000000000000000000000000000000000000000000000000000000\n        /* \"#utility.yul\":2958:2959   */\n      0x00\n        /* \"#utility.yul\":2951:3039   */\n      mstore\n        /* \"#utility.yul\":3058:3062   */\n      0x41\n        /* \"#utility.yul\":3055:3056   */\n      0x04\n        /* \"#utility.yul\":3048:3063   */\n      mstore\n        /* \"#utility.yul\":3082:3086   */\n      0x24\n        /* \"#utility.yul\":3079:3080   */\n      0x00\n        /* \"#utility.yul\":3072:3087   */\n      revert\n        /* \"#utility.yul\":3099:3380   */\n    tag_62:\n        /* \"#utility.yul\":3182:3209   */\n      tag_110\n        /* \"#utility.yul\":3204:3208   */\n      dup3\n        /* \"#utility.yul\":3182:3209   */\n      tag_60\n      jump\t// in\n    tag_110:\n        /* \"#utility.yul\":3174:3180   */\n      dup2\n        /* \"#utility.yul\":3170:3210   */\n      add\n        /* \"#utility.yul\":3312:3318   */\n      dup2\n        /* \"#utility.yul\":3300:3310   */\n      dup2\n        /* \"#utility.yul\":3297:3319   */\n      lt\n        /* \"#utility.yul\":3276:3294   */\n      0xffffffffffffffff\n        /* \"#utility.yul\":3264:3274   */\n      dup3\n        /* \"#utility.yul\":3261:3295   */\n      gt\n        /* \"#utility.yul\":3258:3320   */\n      or\n        /* \"#utility.yul\":3255:3343   */\n      iszero\n      tag_111\n      jumpi\n        /* \"#utility.yul\":3323:3341   */\n      tag_112\n      tag_61\n      jump\t// in\n    tag_112:\n        /* \"#utility.yul\":3255:3343   */\n    tag_111:\n        /* \"#utility.yul\":3363:3373   */\n      dup1\n        /* \"#utility.yul\":3359:3361   */\n      0x40\n        /* \"#utility.yul\":3352:3374   */\n      mstore\n        /* \"#utility.yul\":3142:3380   */\n      pop\n        /* \"#utility.yul\":3099:3380   */\n      pop\n      pop\n      jump\t// out\n        /* \"#utility.yul\":3386:3515   */\n    tag_63:\n        /* \"#utility.yul\":3420:3426   */\n      0x00\n        /* \"#utility.yul\":3447:3467   */\n      tag_114\n      tag_54\n      jump\t// in\n    tag_114:\n        /* \"#utility.yul\":3437:3467   */\n      swap1\n      pop\n        /* \"#utility.yul\":3476:3509   */\n      tag_115\n        /* \"#utility.yul\":3504:3508   */\n      dup3\n        /* \"#utility.yul\":3496:3502   */\n      dup3\n        /* \"#utility.yul\":3476:3509   */\n      tag_62\n      jump\t// in\n    tag_115:\n        /* \"#utility.yul\":3386:3515   */\n      swap2\n      swap1\n      pop\n      jump\t// out\n        /* \"#utility.yul\":3521:3832   */\n    tag_64:\n        /* \"#utility.yul\":3598:3602   */\n      0x00\n        /* \"#utility.yul\":3688:3706   */\n      0xffffffffffffffff\n        /* \"#utility.yul\":3680:3686   */\n      dup3\n        /* \"#utility.yul\":3677:3707   */\n      gt\n        /* \"#utility.yul\":3674:3730   */\n      iszero\n      tag_117\n      jumpi\n        /* \"#utility.yul\":3710:3728   */\n      tag_118\n      tag_61\n      jump\t// in\n    tag_118:\n        /* \"#utility.yul\":3674:3730   */\n    tag_117:\n        /* \"#utility.yul\":3760:3764   */\n      0x20\n        /* \"#utility.yul\":3752:3758   */\n      dup3\n        /* \"#utility.yul\":3748:3765   */\n      mul\n        /* \"#utility.yul\":3740:3765   */\n      swap1\n      pop\n        /* \"#utility.yul\":3820:3824   */\n      0x20\n        /* \"#utility.yul\":3814:3818   */\n      dup2\n        /* \"#utility.yul\":3810:3825   */\n      add\n        /* \"#utility.yul\":3802:3825   */\n      swap1\n      pop\n        /* \"#utility.yul\":3521:3832   */\n      swap2\n      swap1\n      pop\n      jump\t// out\n        /* \"#utility.yul\":3838:3955   */\n    tag_65:\n        /* \"#utility.yul\":3947:3948   */\n      0x00\n        /* \"#utility.yul\":3944:3945   */\n      0x00\n        /* \"#utility.yul\":3937:3949   */\n      revert\n        /* \"#utility.yul\":3978:4688   */\n    tag_66:\n        /* \"#utility.yul\":4074:4079   */\n      0x00\n        /* \"#utility.yul\":4099:4180   */\n      tag_121\n        /* \"#utility.yul\":4115:4179   */\n      tag_122\n        /* \"#utility.yul\":4172:4178   */\n      dup5\n        /* \"#utility.yul\":4115:4179   */\n      tag_64\n      jump\t// in\n    tag_122:\n        /* \"#utility.yul\":4099:4180   */\n      tag_63\n      jump\t// in\n    tag_121:\n        /* \"#utility.yul\":4090:4180   */\n      swap1\n      pop\n        /* \"#utility.yul\":4200:4205   */\n      dup1\n        /* \"#utility.yul\":4229:4235   */\n      dup4\n        /* \"#utility.yul\":4222:4227   */\n      dup3\n        /* \"#utility.yul\":4215:4236   */\n      mstore\n        /* \"#utility.yul\":4263:4267   */\n      0x20\n        /* \"#utility.yul\":4256:4261   */\n      dup3\n        /* \"#utility.yul\":4252:4268   */\n      add\n        /* \"#utility.yul\":4245:4268   */\n      swap1\n      pop\n        /* \"#utility.yul\":4316:4320   */\n      0x20\n        /* \"#utility.yul\":4308:4314   */\n      dup5\n        /* \"#utility.yul\":4304:4321   */\n      mul\n        /* \"#utility.yul\":4296:4302   */\n      dup4\n        /* \"#utility.yul\":4292:4322   */\n      add\n        /* \"#utility.yul\":4345:4348   */\n      dup6\n        /* \"#utility.yul\":4337:4343   */\n      dup2\n        /* \"#utility.yul\":4334:4349   */\n      gt\n        /* \"#utility.yul\":4331:4453   */\n      iszero\n      tag_123\n      jumpi\n        /* \"#utility.yul\":4364:4443   */\n      tag_124\n      tag_65\n      jump\t// in\n    tag_124:\n        /* \"#utility.yul\":4331:4453   */\n    tag_123:\n        /* \"#utility.yul\":4479:4485   */\n      dup4\n        /* \"#utility.yul\":4462:4682   */\n    tag_125:\n        /* \"#utility.yul\":4496:4502   */\n      dup2\n        /* \"#utility.yul\":4491:4494   */\n      dup2\n        /* \"#utility.yul\":4488:4503   */\n      lt\n        /* \"#utility.yul\":4462:4682   */\n      iszero\n      tag_127\n      jumpi\n        /* \"#utility.yul\":4571:4574   */\n      dup1\n        /* \"#utility.yul\":4600:4637   */\n      tag_128\n        /* \"#utility.yul\":4633:4636   */\n      dup9\n        /* \"#utility.yul\":4621:4631   */\n      dup3\n        /* \"#utility.yul\":4600:4637   */\n      tag_58\n      jump\t// in\n    tag_128:\n        /* \"#utility.yul\":4595:4598   */\n      dup5\n        /* \"#utility.yul\":4588:4638   */\n      mstore\n        /* \"#utility.yul\":4667:4671   */\n      0x20\n        /* \"#utility.yul\":4662:4665   */\n      dup5\n        /* \"#utility.yul\":4658:4672   */\n      add\n        /* \"#utility.yul\":4651:4672   */\n      swap4\n      pop\n        /* \"#utility.yul\":4538:4682   */\n      pop\n        /* \"#utility.yul\":4522:4526   */\n      0x20\n        /* \"#utility.yul\":4517:4520   */\n      dup2\n        /* \"#utility.yul\":4513:4527   */\n      add\n        /* \"#utility.yul\":4506:4527   */\n      swap1\n      pop\n        /* \"#utility.yul\":4462:4682   */\n      jump(tag_125)\n    tag_127:\n        /* \"#utility.yul\":4466:4487   */\n      pop\n        /* \"#utility.yul\":4080:4688   */\n      pop\n      pop\n        /* \"#utility.yul\":3978:4688   */\n      swap4\n      swap3\n      pop\n      pop\n      pop\n      jump\t// out\n        /* \"#utility.yul\":4711:5081   */\n    tag_67:\n        /* \"#utility.yul\":4782:4787   */\n      0x00\n        /* \"#utility.yul\":4831:4834   */\n      dup3\n        /* \"#utility.yul\":4824:4828   */\n      0x1f\n        /* \"#utility.yul\":4816:4822   */\n      dup4\n        /* \"#utility.yul\":4812:4829   */\n      add\n        /* \"#utility.yul\":4808:4835   */\n      slt\n        /* \"#utility.yul\":4798:4920   */\n      tag_130\n      jumpi\n        /* \"#utility.yul\":4839:4918   */\n      tag_131\n      tag_59\n      jump\t// in\n    tag_131:\n        /* \"#utility.yul\":4798:4920   */\n    tag_130:\n        /* \"#utility.yul\":4956:4962   */\n      dup2\n        /* \"#utility.yul\":4943:4963   */\n      calldataload\n        /* \"#utility.yul\":4981:5075   */\n      tag_132\n        /* \"#utility.yul\":5071:5074   */\n      dup5\n        /* \"#utility.yul\":5063:5069   */\n      dup3\n        /* \"#utility.yul\":5056:5060   */\n      0x20\n        /* \"#utility.yul\":5048:5054   */\n      dup7\n        /* \"#utility.yul\":5044:5061   */\n      add\n        /* \"#utility.yul\":4981:5075   */\n      tag_66\n      jump\t// in\n    tag_132:\n        /* \"#utility.yul\":4972:5075   */\n      swap2\n      pop\n        /* \"#utility.yul\":4788:5081   */\n      pop\n        /* \"#utility.yul\":4711:5081   */\n      swap3\n      swap2\n      pop\n      pop\n      jump\t// out\n        /* \"#utility.yul\":5087:5626   */\n    tag_33:\n        /* \"#utility.yul\":5171:5177   */\n      0x00\n        /* \"#utility.yul\":5220:5222   */\n      0x20\n        /* \"#utility.yul\":5208:5217   */\n      dup3\n        /* \"#utility.yul\":5199:5206   */\n      dup5\n        /* \"#utility.yul\":5195:5218   */\n      sub\n        /* \"#utility.yul\":5191:5223   */\n      slt\n        /* \"#utility.yul\":5188:5307   */\n      iszero\n      tag_134\n      jumpi\n        /* \"#utility.yul\":5226:5305   */\n      tag_135\n      tag_55\n      jump\t// in\n    tag_135:\n        /* \"#utility.yul\":5188:5307   */\n    tag_134:\n        /* \"#utility.yul\":5374:5375   */\n      0x00\n        /* \"#utility.yul\":5363:5372   */\n      dup3\n        /* \"#utility.yul\":5359:5376   */\n      add\n        /* \"#utility.yul\":5346:5377   */\n      calldataload\n        /* \"#utility.yul\":5404:5422   */\n      0xffffffffffffffff\n        /* \"#utility.yul\":5396:5402   */\n      dup2\n        /* \"#utility.yul\":5393:5423   */\n      gt\n        /* \"#utility.yul\":5390:5507   */\n      iszero\n      tag_136\n      jumpi\n        /* \"#utility.yul\":5426:5505   */\n      tag_137\n      tag_56\n      jump\t// in\n    tag_137:\n        /* \"#utility.yul\":5390:5507   */\n    tag_136:\n        /* \"#utility.yul\":5531:5609   */\n      tag_138\n        /* \"#utility.yul\":5601:5608   */\n      dup5\n        /* \"#utility.yul\":5592:5598   */\n      dup3\n        /* \"#utility.yul\":5581:5590   */\n      dup6\n        /* \"#utility.yul\":5577:5599   */\n      add\n        /* \"#utility.yul\":5531:5609   */\n      tag_67\n      jump\t// in\n    tag_138:\n        /* \"#utility.yul\":5521:5609   */\n      swap2\n      pop\n        /* \"#utility.yul\":5317:5619   */\n      pop\n        /* \"#utility.yul\":5087:5626   */\n      swap3\n      swap2\n      pop\n      pop\n      jump\t// out\n        /* \"#utility.yul\":5632:5746   */\n    tag_68:\n        /* \"#utility.yul\":5699:5705   */\n      0x00\n        /* \"#utility.yul\":5733:5738   */\n      dup2\n        /* \"#utility.yul\":5727:5739   */\n      mload\n        /* \"#utility.yul\":5717:5739   */\n      swap1\n      pop\n        /* \"#utility.yul\":5632:5746   */\n      swap2\n      swap1\n      pop\n      jump\t// out\n        /* \"#utility.yul\":5752:5936   */\n    tag_69:\n        /* \"#utility.yul\":5851:5862   */\n      0x00\n        /* \"#utility.yul\":5885:5891   */\n      dup3\n        /* \"#utility.yul\":5880:5883   */\n      dup3\n        /* \"#utility.yul\":5873:5892   */\n      mstore\n        /* \"#utility.yul\":5925:5929   */\n      0x20\n        /* \"#utility.yul\":5920:5923   */\n      dup3\n        /* \"#utility.yul\":5916:5930   */\n      add\n        /* \"#utility.yul\":5901:5930   */\n      swap1\n      pop\n        /* \"#utility.yul\":5752:5936   */\n      swap3\n      swap2\n      pop\n      pop\n      jump\t// out\n        /* \"#utility.yul\":5942:6074   */\n    tag_70:\n        /* \"#utility.yul\":6009:6013   */\n      0x00\n        /* \"#utility.yul\":6032:6035   */\n      dup2\n        /* \"#utility.yul\":6024:6035   */\n      swap1\n      pop\n        /* \"#utility.yul\":6062:6066   */\n      0x20\n        /* \"#utility.yul\":6057:6060   */\n      dup3\n        /* \"#utility.yul\":6053:6067   */\n      add\n        /* \"#utility.yul\":6045:6067   */\n      swap1\n      pop\n        /* \"#utility.yul\":5942:6074   */\n      swap2\n      swap1\n      pop\n      jump\t// out\n        /* \"#utility.yul\":6080:6188   */\n    tag_71:\n        /* \"#utility.yul\":6157:6181   */\n      tag_143\n        /* \"#utility.yul\":6175:6180   */\n      dup2\n        /* \"#utility.yul\":6157:6181   */\n      tag_50\n      jump\t// in\n    tag_143:\n        /* \"#utility.yul\":6152:6155   */\n      dup3\n        /* \"#utility.yul\":6145:6182   */\n      mstore\n        /* \"#utility.yul\":6080:6188   */\n      pop\n      pop\n      jump\t// out\n        /* \"#utility.yul\":6194:6373   */\n    tag_72:\n        /* \"#utility.yul\":6263:6273   */\n      0x00\n        /* \"#utility.yul\":6284:6330   */\n      tag_145\n        /* \"#utility.yul\":6326:6329   */\n      dup4\n        /* \"#utility.yul\":6318:6324   */\n      dup4\n        /* \"#utility.yul\":6284:6330   */\n      tag_71\n      jump\t// in\n    tag_145:\n        /* \"#utility.yul\":6362:6366   */\n      0x20\n        /* \"#utility.yul\":6357:6360   */\n      dup4\n        /* \"#utility.yul\":6353:6367   */\n      add\n        /* \"#utility.yul\":6339:6367   */\n      swap1\n      pop\n        /* \"#utility.yul\":6194:6373   */\n      swap3\n      swap2\n      pop\n      pop\n      jump\t// out\n        /* \"#utility.yul\":6379:6492   */\n    tag_73:\n        /* \"#utility.yul\":6449:6453   */\n      0x00\n        /* \"#utility.yul\":6481:6485   */\n      0x20\n        /* \"#utility.yul\":6476:6479   */\n      dup3\n        /* \"#utility.yul\":6472:6486   */\n      add\n        /* \"#utility.yul\":6464:6486   */\n      swap1\n      pop\n        /* \"#utility.yul\":6379:6492   */\n      swap2\n      swap1\n      pop\n      jump\t// out\n        /* \"#utility.yul\":6528:7260   */\n    tag_74:\n        /* \"#utility.yul\":6647:6650   */\n      0x00\n        /* \"#utility.yul\":6676:6730   */\n      tag_148\n        /* \"#utility.yul\":6724:6729   */\n      dup3\n        /* \"#utility.yul\":6676:6730   */\n      tag_68\n      jump\t// in\n    tag_148:\n        /* \"#utility.yul\":6746:6832   */\n      tag_149\n        /* \"#utility.yul\":6825:6831   */\n      dup2\n        /* \"#utility.yul\":6820:6823   */\n      dup6\n        /* \"#utility.yul\":6746:6832   */\n      tag_69\n      jump\t// in\n    tag_149:\n        /* \"#utility.yul\":6739:6832   */\n      swap4\n      pop\n        /* \"#utility.yul\":6856:6912   */\n      tag_150\n        /* \"#utility.yul\":6906:6911   */\n      dup4\n        /* \"#utility.yul\":6856:6912   */\n      tag_70\n      jump\t// in\n    tag_150:\n        /* \"#utility.yul\":6935:6942   */\n      dup1\n        /* \"#utility.yul\":6966:6967   */\n      0x00\n        /* \"#utility.yul\":6951:7235   */\n    tag_151:\n        /* \"#utility.yul\":6976:6982   */\n      dup4\n        /* \"#utility.yul\":6973:6974   */\n      dup2\n        /* \"#utility.yul\":6970:6983   */\n      lt\n        /* \"#utility.yul\":6951:7235   */\n      iszero\n      tag_153\n      jumpi\n        /* \"#utility.yul\":7052:7058   */\n      dup2\n        /* \"#utility.yul\":7046:7059   */\n      mload\n        /* \"#utility.yul\":7079:7142   */\n      tag_154\n        /* \"#utility.yul\":7138:7141   */\n      dup9\n        /* \"#utility.yul\":7123:7136   */\n      dup3\n        /* \"#utility.yul\":7079:7142   */\n      tag_72\n      jump\t// in\n    tag_154:\n        /* \"#utility.yul\":7072:7142   */\n      swap8\n      pop\n        /* \"#utility.yul\":7165:7225   */\n      tag_155\n        /* \"#utility.yul\":7218:7224   */\n      dup4\n        /* \"#utility.yul\":7165:7225   */\n      tag_73\n      jump\t// in\n    tag_155:\n        /* \"#utility.yul\":7155:7225   */\n      swap3\n      pop\n        /* \"#utility.yul\":7011:7235   */\n      pop\n        /* \"#utility.yul\":6998:6999   */\n      0x01\n        /* \"#utility.yul\":6995:6996   */\n      dup2\n        /* \"#utility.yul\":6991:7000   */\n      add\n        /* \"#utility.yul\":6986:7000   */\n      swap1\n      pop\n        /* \"#utility.yul\":6951:7235   */\n      jump(tag_151)\n    tag_153:\n        /* \"#utility.yul\":6955:6969   */\n      pop\n        /* \"#utility.yul\":7251:7254   */\n      dup6\n        /* \"#utility.yul\":7244:7254   */\n      swap4\n      pop\n        /* \"#utility.yul\":6652:7260   */\n      pop\n      pop\n      pop\n        /* \"#utility.yul\":6528:7260   */\n      swap3\n      swap2\n      pop\n      pop\n      jump\t// out\n        /* \"#utility.yul\":7266:7639   */\n    tag_38:\n        /* \"#utility.yul\":7409:7413   */\n      0x00\n        /* \"#utility.yul\":7447:7449   */\n      0x20\n        /* \"#utility.yul\":7436:7445   */\n      dup3\n        /* \"#utility.yul\":7432:7450   */\n      add\n        /* \"#utility.yul\":7424:7450   */\n      swap1\n      pop\n        /* \"#utility.yul\":7496:7505   */\n      dup2\n        /* \"#utility.yul\":7490:7494   */\n      dup2\n        /* \"#utility.yul\":7486:7506   */\n      sub\n        /* \"#utility.yul\":7482:7483   */\n      0x00\n        /* \"#utility.yul\":7471:7480   */\n      dup4\n        /* \"#utility.yul\":7467:7484   */\n      add\n        /* \"#utility.yul\":7460:7507   */\n      mstore\n        /* \"#utility.yul\":7524:7632   */\n      tag_157\n        /* \"#utility.yul\":7627:7631   */\n      dup2\n        /* \"#utility.yul\":7618:7624   */\n      dup5\n        /* \"#utility.yul\":7524:7632   */\n      tag_74\n      jump\t// in\n    tag_157:\n        /* \"#utility.yul\":7516:7632   */\n      swap1\n      pop\n        /* \"#utility.yul\":7266:7639   */\n      swap3\n      swap2\n      pop\n      pop\n      jump\t// out\n\n    auxdata: 0xa2646970667358221220d506af2af1d007dd5828f292ccd2af68738af21963506e484beb033cca44709964736f6c634300081b0033\n}\n",
				"bytecode": {
					"linkReferences": {},
					"object": "6080604052348015600e575f5ffd5b506106348061001c5f395ff3fe608060405234801561000f575f5ffd5b506004361061007b575f3560e01c8063868875441161005957806386887544146100f1578063adb4d99014610111578063f4bb6e6b14610131578063f63932d51461014d5761007b565b806345f907a81461007f578063688734401461009f57806371e5ee5f146100c1575b5f5ffd5b61008761016b565b6040516100969392919061028b565b60405180910390f35b6100a761017e565b6040516100b89594939291906102c0565b60405180910390f35b6100db60048036038101906100d6919061034c565b6101bc565b6040516100e89190610377565b60405180910390f35b6100f96101db565b6040516101089392919061028b565b60405180910390f35b6101196101ee565b6040516101289392919061028b565b60405180910390f35b61014b600480360381019061014691906104e0565b610201565b005b610155610204565b60405161016291906105de565b60405180910390f35b5f5f5f6001806002925092509250909192565b5f5f5f5f5f5f5f5f61018e6101db565b9250925092505f5f600460056006925050915084848484849950995099509950995050505050509091929394565b5f81815481106101ca575f80fd5b905f5260205f20015f915090505481565b5f5f5f6001806002925092509250909192565b5f5f5f600192505f915060029050909192565b50565b60605f80548060200260200160405190810160405280929190818152602001828054801561024f57602002820191905f5260205f20905b81548152602001906001019080831161023b575b5050505050905090565b5f819050919050565b61026b81610259565b82525050565b5f8115159050919050565b61028581610271565b82525050565b5f60608201905061029e5f830186610262565b6102ab602083018561027c565b6102b86040830184610262565b949350505050565b5f60a0820190506102d35f830188610262565b6102e0602083018761027c565b6102ed6040830186610262565b6102fa6060830185610262565b6103076080830184610262565b9695505050505050565b5f604051905090565b5f5ffd5b5f5ffd5b61032b81610259565b8114610335575f5ffd5b50565b5f8135905061034681610322565b92915050565b5f602082840312156103615761036061031a565b5b5f61036e84828501610338565b91505092915050565b5f60208201905061038a5f830184610262565b92915050565b5f5ffd5b5f601f19601f8301169050919050565b7f4e487b71000000000000000000000000000000000000000000000000000000005f52604160045260245ffd5b6103da82610394565b810181811067ffffffffffffffff821117156103f9576103f86103a4565b5b80604052505050565b5f61040b610311565b905061041782826103d1565b919050565b5f67ffffffffffffffff821115610436576104356103a4565b5b602082029050602081019050919050565b5f5ffd5b5f61045d6104588461041c565b610402565b905080838252602082019050602084028301858111156104805761047f610447565b5b835b818110156104a957806104958882610338565b845260208401935050602081019050610482565b5050509392505050565b5f82601f8301126104c7576104c6610390565b5b81356104d784826020860161044b565b91505092915050565b5f602082840312156104f5576104f461031a565b5b5f82013567ffffffffffffffff8111156105125761051161031e565b5b61051e848285016104b3565b91505092915050565b5f81519050919050565b5f82825260208201905092915050565b5f819050602082019050919050565b61055981610259565b82525050565b5f61056a8383610550565b60208301905092915050565b5f602082019050919050565b5f61058c82610527565b6105968185610531565b93506105a183610541565b805f5b838110156105d15781516105b8888261055f565b97506105c383610576565b9250506001810190506105a4565b5085935050505092915050565b5f6020820190508181035f8301526105f68184610582565b90509291505056fea2646970667358221220d506af2af1d007dd5828f292ccd2af68738af21963506e484beb033cca44709964736f6c634300081b0033",
					"opcodes": "PUSH1 0x80 PUSH1 0x40 MSTORE CALLVALUE DUP1 ISZERO PUSH1 0xE JUMPI PUSH0 PUSH0 REVERT JUMPDEST POP PUSH2 0x634 DUP1 PUSH2 0x1C PUSH0 CODECOPY PUSH0 RETURN INVALID PUSH1 0x80 PUSH1 0x40 MSTORE CALLVALUE DUP1 ISZERO PUSH2 0xF JUMPI PUSH0 PUSH0 REVERT JUMPDEST POP PUSH1 0x4 CALLDATASIZE LT PUSH2 0x7B JUMPI PUSH0 CALLDATALOAD PUSH1 0xE0 SHR DUP1 PUSH4 0x86887544 GT PUSH2 0x59 JUMPI DUP1 PUSH4 0x86887544 EQ PUSH2 0xF1 JUMPI DUP1 PUSH4 0xADB4D990 EQ PUSH2 0x111 JUMPI DUP1 PUSH4 0xF4BB6E6B EQ PUSH2 0x131 JUMPI DUP1 PUSH4 0xF63932D5 EQ PUSH2 0x14D JUMPI PUSH2 0x7B JUMP JUMPDEST DUP1 PUSH4 0x45F907A8 EQ PUSH2 0x7F JUMPI DUP1 PUSH4 0x68873440 EQ PUSH2 0x9F JUMPI DUP1 PUSH4 0x71E5EE5F EQ PUSH2 0xC1 JUMPI JUMPDEST PUSH0 PUSH0 REVERT JUMPDEST PUSH2 0x87 PUSH2 0x16B JUMP JUMPDEST PUSH1 0x40 MLOAD PUSH2 0x96 SWAP4 SWAP3 SWAP2 SWAP1 PUSH2 0x28B JUMP JUMPDEST PUSH1 0x40 MLOAD DUP1 SWAP2 SUB SWAP1 RETURN JUMPDEST PUSH2 0xA7 PUSH2 0x17E JUMP JUMPDEST PUSH1 0x40 MLOAD PUSH2 0xB8 SWAP6 SWAP5 SWAP4 SWAP3 SWAP2 SWAP1 PUSH2 0x2C0 JUMP JUMPDEST PUSH1 0x40 MLOAD DUP1 SWAP2 SUB SWAP1 RETURN JUMPDEST PUSH2 0xDB PUSH1 0x4 DUP1 CALLDATASIZE SUB DUP2 ADD SWAP1 PUSH2 0xD6 SWAP2 SWAP1 PUSH2 0x34C JUMP JUMPDEST PUSH2 0x1BC JUMP JUMPDEST PUSH1 0x40 MLOAD PUSH2 0xE8 SWAP2 SWAP1 PUSH2 0x377 JUMP JUMPDEST PUSH1 0x40 MLOAD DUP1 SWAP2 SUB SWAP1 RETURN JUMPDEST PUSH2 0xF9 PUSH2 0x1DB JUMP JUMPDEST PUSH1 0x40 MLOAD PUSH2 0x108 SWAP4 SWAP3 SWAP2 SWAP1 PUSH2 0x28B JUMP JUMPDEST PUSH1 0x40 MLOAD DUP1 SWAP2 SUB SWAP1 RETURN JUMPDEST PUSH2 0x119 PUSH2 0x1EE JUMP JUMPDEST PUSH1 0x40 MLOAD PUSH2 0x128 SWAP4 SWAP3 SWAP2 SWAP1 PUSH2 0x28B JUMP JUMPDEST PUSH1 0x40 MLOAD DUP1 SWAP2 SUB SWAP1 RETURN JUMPDEST PUSH2 0x14B PUSH1 0x4 DUP1 CALLDATASIZE SUB DUP2 ADD SWAP1 PUSH2 0x146 SWAP2 SWAP1 PUSH2 0x4E0 JUMP JUMPDEST PUSH2 0x201 JUMP JUMPDEST STOP JUMPDEST PUSH2 0x155 PUSH2 0x204 JUMP JUMPDEST PUSH1 0x40 MLOAD PUSH2 0x162 SWAP2 SWAP1 PUSH2 0x5DE JUMP JUMPDEST PUSH1 0x40 MLOAD DUP1 SWAP2 SUB SWAP1 RETURN JUMPDEST PUSH0 PUSH0 PUSH0 PUSH1 0x1 DUP1 PUSH1 0x2 SWAP3 POP SWAP3 POP SWAP3 POP SWAP1 SWAP2 SWAP3 JUMP JUMPDEST PUSH0 PUSH0 PUSH0 PUSH0 PUSH0 PUSH0 PUSH0 PUSH0 PUSH2 0x18E PUSH2 0x1DB JUMP JUMPDEST SWAP3 POP SWAP3 POP SWAP3 POP PUSH0 PUSH0 PUSH1 0x4 PUSH1 0x5 PUSH1 0x6 SWAP3 POP POP SWAP2 POP DUP5 DUP5 DUP5 DUP5 DUP5 SWAP10 POP SWAP10 POP SWAP10 POP SWAP10 POP SWAP10 POP POP POP POP POP POP SWAP1 SWAP2 SWAP3 SWAP4 SWAP5 JUMP JUMPDEST PUSH0 DUP2 DUP2 SLOAD DUP2 LT PUSH2 0x1CA JUMPI PUSH0 DUP1 REVERT JUMPDEST SWAP1 PUSH0 MSTORE PUSH1 0x20 PUSH0 KECCAK256 ADD PUSH0 SWAP2 POP SWAP1 POP SLOAD DUP2 JUMP JUMPDEST PUSH0 PUSH0 PUSH0 PUSH1 0x1 DUP1 PUSH1 0x2 SWAP3 POP SWAP3 POP SWAP3 POP SWAP1 SWAP2 SWAP3 JUMP JUMPDEST PUSH0 PUSH0 PUSH0 PUSH1 0x1 SWAP3 POP PUSH0 SWAP2 POP PUSH1 0x2 SWAP1 POP SWAP1 SWAP2 SWAP3 JUMP JUMPDEST POP JUMP JUMPDEST PUSH1 0x60 PUSH0 DUP1 SLOAD DUP1 PUSH1 0x20 MUL PUSH1 0x20 ADD PUSH1 0x40 MLOAD SWAP1 DUP2 ADD PUSH1 0x40 MSTORE DUP1 SWAP3 SWAP2 SWAP1 DUP2 DUP2 MSTORE PUSH1 0x20 ADD DUP3 DUP1 SLOAD DUP1 ISZERO PUSH2 0x24F JUMPI PUSH1 0x20 MUL DUP3 ADD SWAP2 SWAP1 PUSH0 MSTORE PUSH1 0x20 PUSH0 KECCAK256 SWAP1 JUMPDEST DUP2 SLOAD DUP2 MSTORE PUSH1 0x20 ADD SWAP1 PUSH1 0x1 ADD SWAP1 DUP1 DUP4 GT PUSH2 0x23B JUMPI JUMPDEST POP POP POP POP POP SWAP1 POP SWAP1 JUMP JUMPDEST PUSH0 DUP2 SWAP1 POP SWAP2 SWAP1 POP JUMP JUMPDEST PUSH2 0x26B DUP2 PUSH2 0x259 JUMP JUMPDEST DUP3 MSTORE POP POP JUMP JUMPDEST PUSH0 DUP2 ISZERO ISZERO SWAP1 POP SWAP2 SWAP1 POP JUMP JUMPDEST PUSH2 0x285 DUP2 PUSH2 0x271 JUMP JUMPDEST DUP3 MSTORE POP POP JUMP JUMPDEST PUSH0 PUSH1 0x60 DUP3 ADD SWAP1 POP PUSH2 0x29E PUSH0 DUP4 ADD DUP7 PUSH2 0x262 JUMP JUMPDEST PUSH2 0x2AB PUSH1 0x20 DUP4 ADD DUP6 PUSH2 0x27C JUMP JUMPDEST PUSH2 0x2B8 PUSH1 0x40 DUP4 ADD DUP5 PUSH2 0x262 JUMP JUMPDEST SWAP5 SWAP4 POP POP POP POP JUMP JUMPDEST PUSH0 PUSH1 0xA0 DUP3 ADD SWAP1 POP PUSH2 0x2D3 PUSH0 DUP4 ADD DUP9 PUSH2 0x262 JUMP JUMPDEST PUSH2 0x2E0 PUSH1 0x20 DUP4 ADD DUP8 PUSH2 0x27C JUMP JUMPDEST PUSH2 0x2ED PUSH1 0x40 DUP4 ADD DUP7 PUSH2 0x262 JUMP JUMPDEST PUSH2 0x2FA PUSH1 0x60 DUP4 ADD DUP6 PUSH2 0x262 JUMP JUMPDEST PUSH2 0x307 PUSH1 0x80 DUP4 ADD DUP5 PUSH2 0x262 JUMP JUMPDEST SWAP7 SWAP6 POP POP POP POP POP POP JUMP JUMPDEST PUSH0 PUSH1 0x40 MLOAD SWAP1 POP SWAP1 JUMP JUMPDEST PUSH0 PUSH0 REVERT JUMPDEST PUSH0 PUSH0 REVERT JUMPDEST PUSH2 0x32B DUP2 PUSH2 0x259 JUMP JUMPDEST DUP2 EQ PUSH2 0x335 JUMPI PUSH0 PUSH0 REVERT JUMPDEST POP JUMP JUMPDEST PUSH0 DUP2 CALLDATALOAD SWAP1 POP PUSH2 0x346 DUP2 PUSH2 0x322 JUMP JUMPDEST SWAP3 SWAP2 POP POP JUMP JUMPDEST PUSH0 PUSH1 0x20 DUP3 DUP5 SUB SLT ISZERO PUSH2 0x361 JUMPI PUSH2 0x360 PUSH2 0x31A JUMP JUMPDEST JUMPDEST PUSH0 PUSH2 0x36E DUP5 DUP3 DUP6 ADD PUSH2 0x338 JUMP JUMPDEST SWAP2 POP POP SWAP3 SWAP2 POP POP JUMP JUMPDEST PUSH0 PUSH1 0x20 DUP3 ADD SWAP1 POP PUSH2 0x38A PUSH0 DUP4 ADD DUP5 PUSH2 0x262 JUMP JUMPDEST SWAP3 SWAP2 POP POP JUMP JUMPDEST PUSH0 PUSH0 REVERT JUMPDEST PUSH0 PUSH1 0x1F NOT PUSH1 0x1F DUP4 ADD AND SWAP1 POP SWAP2 SWAP1 POP JUMP JUMPDEST PUSH32 0x4E487B7100000000000000000000000000000000000000000000000000000000 PUSH0 MSTORE PUSH1 0x41 PUSH1 0x4 MSTORE PUSH1 0x24 PUSH0 REVERT JUMPDEST PUSH2 0x3DA DUP3 PUSH2 0x394 JUMP JUMPDEST DUP2 ADD DUP2 DUP2 LT PUSH8 0xFFFFFFFFFFFFFFFF DUP3 GT OR ISZERO PUSH2 0x3F9 JUMPI PUSH2 0x3F8 PUSH2 0x3A4 JUMP JUMPDEST JUMPDEST DUP1 PUSH1 0x40 MSTORE POP POP POP JUMP JUMPDEST PUSH0 PUSH2 0x40B PUSH2 0x311 JUMP JUMPDEST SWAP1 POP PUSH2 0x417 DUP3 DUP3 PUSH2 0x3D1 JUMP JUMPDEST SWAP2 SWAP1 POP JUMP JUMPDEST PUSH0 PUSH8 0xFFFFFFFFFFFFFFFF DUP3 GT ISZERO PUSH2 0x436 JUMPI PUSH2 0x435 PUSH2 0x3A4 JUMP JUMPDEST JUMPDEST PUSH1 0x20 DUP3 MUL SWAP1 POP PUSH1 0x20 DUP2 ADD SWAP1 POP SWAP2 SWAP1 POP JUMP JUMPDEST PUSH0 PUSH0 REVERT JUMPDEST PUSH0 PUSH2 0x45D PUSH2 0x458 DUP5 PUSH2 0x41C JUMP JUMPDEST PUSH2 0x402 JUMP JUMPDEST SWAP1 POP DUP1 DUP4 DUP3 MSTORE PUSH1 0x20 DUP3 ADD SWAP1 POP PUSH1 0x20 DUP5 MUL DUP4 ADD DUP6 DUP2 GT ISZERO PUSH2 0x480 JUMPI PUSH2 0x47F PUSH2 0x447 JUMP JUMPDEST JUMPDEST DUP4 JUMPDEST DUP2 DUP2 LT ISZERO PUSH2 0x4A9 JUMPI DUP1 PUSH2 0x495 DUP9 DUP3 PUSH2 0x338 JUMP JUMPDEST DUP5 MSTORE PUSH1 0x20 DUP5 ADD SWAP4 POP POP PUSH1 0x20 DUP2 ADD SWAP1 POP PUSH2 0x482 JUMP JUMPDEST POP POP POP SWAP4 SWAP3 POP POP POP JUMP JUMPDEST PUSH0 DUP3 PUSH1 0x1F DUP4 ADD SLT PUSH2 0x4C7 JUMPI PUSH2 0x4C6 PUSH2 0x390 JUMP JUMPDEST JUMPDEST DUP2 CALLDATALOAD PUSH2 0x4D7 DUP5 DUP3 PUSH1 0x20 DUP7 ADD PUSH2 0x44B JUMP JUMPDEST SWAP2 POP POP SWAP3 SWAP2 POP POP JUMP JUMPDEST PUSH0 PUSH1 0x20 DUP3 DUP5 SUB SLT ISZERO PUSH2 0x4F5 JUMPI PUSH2 0x4F4 PUSH2 0x31A JUMP JUMPDEST JUMPDEST PUSH0 DUP3 ADD CALLDATALOAD PUSH8 0xFFFFFFFFFFFFFFFF DUP2 GT ISZERO PUSH2 0x512 JUMPI PUSH2 0x511 PUSH2 0x31E JUMP JUMPDEST JUMPDEST PUSH2 0x51E DUP5 DUP3 DUP6 ADD PUSH2 0x4B3 JUMP JUMPDEST SWAP2 POP POP SWAP3 SWAP2 POP POP JUMP JUMPDEST PUSH0 DUP2 MLOAD SWAP1 POP SWAP2 SWAP1 POP JUMP JUMPDEST PUSH0 DUP3 DUP3 MSTORE PUSH1 0x20 DUP3 ADD SWAP1 POP SWAP3 SWAP2 POP POP JUMP JUMPDEST PUSH0 DUP2 SWAP1 POP PUSH1 0x20 DUP3 ADD SWAP1 POP SWAP2 SWAP1 POP JUMP JUMPDEST PUSH2 0x559 DUP2 PUSH2 0x259 JUMP JUMPDEST DUP3 MSTORE POP POP JUMP JUMPDEST PUSH0 PUSH2 0x56A DUP4 DUP4 PUSH2 0x550 JUMP JUMPDEST PUSH1 0x20 DUP4 ADD SWAP1 POP SWAP3 SWAP2 POP POP JUMP JUMPDEST PUSH0 PUSH1 0x20 DUP3 ADD SWAP1 POP SWAP2 SWAP1 POP JUMP JUMPDEST PUSH0 PUSH2 0x58C DUP3 PUSH2 0x527 JUMP JUMPDEST PUSH2 0x596 DUP2 DUP6 PUSH2 0x531 JUMP JUMPDEST SWAP4 POP PUSH2 0x5A1 DUP4 PUSH2 0x541 JUMP JUMPDEST DUP1 PUSH0 JUMPDEST DUP4 DUP2 LT ISZERO PUSH2 0x5D1 JUMPI DUP2 MLOAD PUSH2 0x5B8 DUP9 DUP3 PUSH2 0x55F JUMP JUMPDEST SWAP8 POP PUSH2 0x5C3 DUP4 PUSH2 0x576 JUMP JUMPDEST SWAP3 POP POP PUSH1 0x1 DUP2 ADD SWAP1 POP PUSH2 0x5A4 JUMP JUMPDEST POP DUP6 SWAP4 POP POP POP POP SWAP3 SWAP2 POP POP JUMP JUMPDEST PUSH0 PUSH1 0x20 DUP3 ADD SWAP1 POP DUP2 DUP2 SUB PUSH0 DUP4 ADD MSTORE PUSH2 0x5F6 DUP2 DUP5 PUSH2 0x582 JUMP JUMPDEST SWAP1 POP SWAP3 SWAP2 POP POP JUMP INVALID LOG2 PUSH5 0x6970667358 0x22 SLT KECCAK256 0xD5 MOD 0xAF 0x2A CALL 0xD0 SMOD 0xDD PC 0x28 CALLCODE SWAP3 0xCC 0xD2 0xAF PUSH9 0x738AF21963506E484B 0xEB SUB EXTCODECOPY 0xCA PREVRANDAO PUSH17 0x9964736F6C634300081B00330000000000 "
				},
				"gasEstimates": {
					"creation": {
						"codeDepositCost": "317600",
						"executionCost": "353",
						"totalCost": "317953"
					},
					"external": {
						"arr(uint256)": "infinite",
						"arrayInput(uint256[])": "infinite",
						"arrayOutInput()": "infinite",
						"assigned()": "infinite",
						"destructuringAssignments()": "infinite",
						"named()": "infinite",
						"returnMany()": "infinite"
					}
				},
				"methodIdentifiers": {
					"arr(uint256)": "71e5ee5f",
					"arrayInput(uint256[])": "f4bb6e6b",
					"arrayOutInput()": "f63932d5",
					"assigned()": "adb4d990",
					"destructuringAssignments()": "68873440",
					"named()": "45f907a8",
					"returnMany()": "86887544"
				}
			},
			"storageLayout": {
				"storage": [
					{
						"astId": 102,
						"contract": "contracts/function.sol:Function",
						"label": "arr",
						"offset": 0,
						"slot": "0",
						"type": "t_array(t_uint256)dyn_storage"
					}
				],
				"types": {
					"t_array(t_uint256)dyn_storage": {
						"base": "t_uint256",
						"encoding": "dynamic_array",
						"label": "uint256[]",
						"numberOfBytes": "32"
					},
					"t_uint256": {
						"encoding": "inplace",
						"label": "uint256",
						"numberOfBytes": "32"
					}
				}
			},
			"userdoc": {
				"kind": "user",
				"methods": {},
				"version": 1
			}
		}
	}
}