{
	"contracts/多钱包.sol": {
		"MultiSigWallet": {
			"abi": [
				{
					"inputs": [
						{
							"internalType": "address[]",
							"name": "_owners",
							"type": "address[]"
						},
						{
							"internalType": "uint256",
							"name": "_required",
							"type": "uint256"
						}
					],
					"stateMutability": "nonpayable",
					"type": "constructor"
				},
				{
					"anonymous": false,
					"inputs": [
						{
							"indexed": true,
							"internalType": "address",
							"name": "owner",
							"type": "address"
						},
						{
							"indexed": true,
							"internalType": "uint256",
							"name": "txId",
							"type": "uint256"
						}
					],
					"name": "Approve",
					"type": "event"
				},
				{
					"anonymous": false,
					"inputs": [
						{
							"indexed": true,
							"internalType": "address",
							"name": "sender",
							"type": "address"
						},
						{
							"indexed": false,
							"internalType": "uint256",
							"name": "amount",
							"type": "uint256"
						}
					],
					"name": "Deposit",
					"type": "event"
				},
				{
					"anonymous": false,
					"inputs": [
						{
							"indexed": true,
							"internalType": "uint256",
							"name": "txId",
							"type": "uint256"
						}
					],
					"name": "Execute",
					"type": "event"
				},
				{
					"anonymous": false,
					"inputs": [
						{
							"indexed": true,
							"internalType": "address",
							"name": "owner",
							"type": "address"
						},
						{
							"indexed": true,
							"internalType": "uint256",
							"name": "txId",
							"type": "uint256"
						}
					],
					"name": "Revoke",
					"type": "event"
				},
				{
					"anonymous": false,
					"inputs": [
						{
							"indexed": true,
							"internalType": "uint256",
							"name": "txId",
							"type": "uint256"
						}
					],
					"name": "Submit",
					"type": "event"
				},
				{
					"inputs": [
						{
							"internalType": "uint256",
							"name": "_txId",
							"type": "uint256"
						}
					],
					"name": "approve",
					"outputs": [],
					"stateMutability": "nonpayable",
					"type": "function"
				},
				{
					"inputs": [
						{
							"internalType": "uint256",
							"name": "",
							"type": "uint256"
						},
						{
							"internalType": "address",
							"name": "",
							"type": "address"
						}
					],
					"name": "approved",
					"outputs": [
						{
							"internalType": "bool",
							"name": "",
							"type": "bool"
						}
					],
					"stateMutability": "view",
					"type": "function"
				},
				{
					"inputs": [
						{
							"internalType": "uint256",
							"name": "_txId",
							"type": "uint256"
						}
					],
					"name": "getApprovalCount",
					"outputs": [
						{
							"internalType": "uint256",
							"name": "count",
							"type": "uint256"
						}
					],
					"stateMutability": "view",
					"type": "function"
				},
				{
					"inputs": [],
					"name": "getBalance",
					"outputs": [
						{
							"internalType": "uint256",
							"name": "",
							"type": "uint256"
						}
					],
					"stateMutability": "view",
					"type": "function"
				},
				{
					"inputs": [
						{
							"internalType": "address",
							"name": "",
							"type": "address"
						}
					],
					"name": "isOwner",
					"outputs": [
						{
							"internalType": "bool",
							"name": "",
							"type": "bool"
						}
					],
					"stateMutability": "view",
					"type": "function"
				},
				{
					"inputs": [
						{
							"internalType": "uint256",
							"name": "",
							"type": "uint256"
						}
					],
					"name": "owners",
					"outputs": [
						{
							"internalType": "address",
							"name": "",
							"type": "address"
						}
					],
					"stateMutability": "view",
					"type": "function"
				},
				{
					"inputs": [],
					"name": "required",
					"outputs": [
						{
							"internalType": "uint256",
							"name": "",
							"type": "uint256"
						}
					],
					"stateMutability": "view",
					"type": "function"
				},
				{
					"inputs": [
						{
							"internalType": "uint256",
							"name": "_txId",
							"type": "uint256"
						}
					],
					"name": "revoke",
					"outputs": [],
					"stateMutability": "nonpayable",
					"type": "function"
				},
				{
					"inputs": [
						{
							"internalType": "address",
							"name": "_to",
							"type": "address"
						},
						{
							"internalType": "uint256",
							"name": "_value",
							"type": "uint256"
						},
						{
							"internalType": "bytes",
							"name": "_data",
							"type": "bytes"
						}
					],
					"name": "submit",
					"outputs": [
						{
							"internalType": "uint256",
							"name": "",
							"type": "uint256"
						}
					],
					"stateMutability": "nonpayable",
					"type": "function"
				},
				{
					"inputs": [
						{
							"internalType": "uint256",
							"name": "",
							"type": "uint256"
						}
					],
					"name": "transactions",
					"outputs": [
						{
							"internalType": "address",
							"name": "to",
							"type": "address"
						},
						{
							"internalType": "uint256",
							"name": "value",
							"type": "uint256"
						},
						{
							"internalType": "bytes",
							"name": "data",
							"type": "bytes"
						},
						{
							"internalType": "bool",
							"name": "exected",
							"type": "bool"
						}
					],
					"stateMutability": "view",
					"type": "function"
				},
				{
					"stateMutability": "payable",
					"type": "receive"
				}
			],
			"devdoc": {
				"kind": "dev",
				"methods": {},
				"version": 1
			},
			"evm": {
				"assembly": "    /* \"contracts/\\xe5\\xa4\\x9a\\xe9\\x92\\xb1\\xe5\\x8c\\x85.sol\":59:3222  contract MultiSigWallet {... */\n  mstore(0x40, 0x80)\n    /* \"contracts/\\xe5\\xa4\\x9a\\xe9\\x92\\xb1\\xe5\\x8c\\x85.sol\":1276:1847  constructor(address[] memory _owners, uint256 _required) {... */\n  callvalue\n  dup1\n  iszero\n  tag_1\n  jumpi\n  0x00\n  dup1\n  revert\ntag_1:\n  pop\n  mload(0x40)\n  sub(codesize, bytecodeSize)\n  dup1\n  bytecodeSize\n  dup4\n  codecopy\n  dup2\n  dup2\n  add\n  0x40\n  mstore\n  dup2\n  add\n  swap1\n  tag_2\n  swap2\n  swap1\n  tag_3\n  jump\t// in\ntag_2:\n    /* \"contracts/\\xe5\\xa4\\x9a\\xe9\\x92\\xb1\\xe5\\x8c\\x85.sol\":1369:1370  0 */\n  0x00\n    /* \"contracts/\\xe5\\xa4\\x9a\\xe9\\x92\\xb1\\xe5\\x8c\\x85.sol\":1352:1359  _owners */\n  dup3\n    /* \"contracts/\\xe5\\xa4\\x9a\\xe9\\x92\\xb1\\xe5\\x8c\\x85.sol\":1352:1366  _owners.length */\n  mload\n    /* \"contracts/\\xe5\\xa4\\x9a\\xe9\\x92\\xb1\\xe5\\x8c\\x85.sol\":1352:1370  _owners.length > 0 */\n  gt\n    /* \"contracts/\\xe5\\xa4\\x9a\\xe9\\x92\\xb1\\xe5\\x8c\\x85.sol\":1344:1389  require(_owners.length > 0, \"owner required\") */\n  tag_6\n  jumpi\n  mload(0x40)\n  0x08c379a000000000000000000000000000000000000000000000000000000000\n  dup2\n  mstore\n  0x04\n  add\n  tag_7\n  swap1\n  tag_8\n  jump\t// in\ntag_7:\n  mload(0x40)\n  dup1\n  swap2\n  sub\n  swap1\n  revert\ntag_6:\n    /* \"contracts/\\xe5\\xa4\\x9a\\xe9\\x92\\xb1\\xe5\\x8c\\x85.sol\":1420:1421  0 */\n  0x00\n    /* \"contracts/\\xe5\\xa4\\x9a\\xe9\\x92\\xb1\\xe5\\x8c\\x85.sol\":1408:1417  _required */\n  dup2\n    /* \"contracts/\\xe5\\xa4\\x9a\\xe9\\x92\\xb1\\xe5\\x8c\\x85.sol\":1408:1421  _required > 0 */\n  gt\n    /* \"contracts/\\xe5\\xa4\\x9a\\xe9\\x92\\xb1\\xe5\\x8c\\x85.sol\":1408:1452  _required > 0 && _required <= _owners.length */\n  dup1\n  iszero\n  tag_9\n  jumpi\n  pop\n    /* \"contracts/\\xe5\\xa4\\x9a\\xe9\\x92\\xb1\\xe5\\x8c\\x85.sol\":1438:1445  _owners */\n  dup2\n    /* \"contracts/\\xe5\\xa4\\x9a\\xe9\\x92\\xb1\\xe5\\x8c\\x85.sol\":1438:1452  _owners.length */\n  mload\n    /* \"contracts/\\xe5\\xa4\\x9a\\xe9\\x92\\xb1\\xe5\\x8c\\x85.sol\":1425:1434  _required */\n  dup2\n    /* \"contracts/\\xe5\\xa4\\x9a\\xe9\\x92\\xb1\\xe5\\x8c\\x85.sol\":1425:1452  _required <= _owners.length */\n  gt\n  iszero\n    /* \"contracts/\\xe5\\xa4\\x9a\\xe9\\x92\\xb1\\xe5\\x8c\\x85.sol\":1408:1452  _required > 0 && _required <= _owners.length */\ntag_9:\n    /* \"contracts/\\xe5\\xa4\\x9a\\xe9\\x92\\xb1\\xe5\\x8c\\x85.sol\":1400:1490  require(_required > 0 && _required <= _owners.length, \"invalid required number of owners\") */\n  tag_10\n  jumpi\n  mload(0x40)\n  0x08c379a000000000000000000000000000000000000000000000000000000000\n  dup2\n  mstore\n  0x04\n  add\n  tag_11\n  swap1\n  tag_12\n  jump\t// in\ntag_11:\n  mload(0x40)\n  dup1\n  swap2\n  sub\n  swap1\n  revert\ntag_10:\n    /* \"contracts/\\xe5\\xa4\\x9a\\xe9\\x92\\xb1\\xe5\\x8c\\x85.sol\":1507:1520  uint256 index */\n  0x00\n    /* \"contracts/\\xe5\\xa4\\x9a\\xe9\\x92\\xb1\\xe5\\x8c\\x85.sol\":1503:1807  for(uint256 index = 0; index < _owners.length; index++) {... */\ntag_13:\n    /* \"contracts/\\xe5\\xa4\\x9a\\xe9\\x92\\xb1\\xe5\\x8c\\x85.sol\":1534:1541  _owners */\n  dup3\n    /* \"contracts/\\xe5\\xa4\\x9a\\xe9\\x92\\xb1\\xe5\\x8c\\x85.sol\":1534:1548  _owners.length */\n  mload\n    /* \"contracts/\\xe5\\xa4\\x9a\\xe9\\x92\\xb1\\xe5\\x8c\\x85.sol\":1526:1531  index */\n  dup2\n    /* \"contracts/\\xe5\\xa4\\x9a\\xe9\\x92\\xb1\\xe5\\x8c\\x85.sol\":1526:1548  index < _owners.length */\n  lt\n    /* \"contracts/\\xe5\\xa4\\x9a\\xe9\\x92\\xb1\\xe5\\x8c\\x85.sol\":1503:1807  for(uint256 index = 0; index < _owners.length; index++) {... */\n  iszero\n  tag_14\n  jumpi\n    /* \"contracts/\\xe5\\xa4\\x9a\\xe9\\x92\\xb1\\xe5\\x8c\\x85.sol\":1574:1587  address owner */\n  0x00\n    /* \"contracts/\\xe5\\xa4\\x9a\\xe9\\x92\\xb1\\xe5\\x8c\\x85.sol\":1590:1597  _owners */\n  dup4\n    /* \"contracts/\\xe5\\xa4\\x9a\\xe9\\x92\\xb1\\xe5\\x8c\\x85.sol\":1598:1603  index */\n  dup3\n    /* \"contracts/\\xe5\\xa4\\x9a\\xe9\\x92\\xb1\\xe5\\x8c\\x85.sol\":1590:1604  _owners[index] */\n  dup2\n  mload\n  dup2\n  lt\n  tag_16\n  jumpi\n  tag_17\n  tag_18\n  jump\t// in\ntag_17:\ntag_16:\n  0x20\n  mul\n  0x20\n  add\n  add\n  mload\n    /* \"contracts/\\xe5\\xa4\\x9a\\xe9\\x92\\xb1\\xe5\\x8c\\x85.sol\":1574:1604  address owner = _owners[index] */\n  swap1\n  pop\n    /* \"contracts/\\xe5\\xa4\\x9a\\xe9\\x92\\xb1\\xe5\\x8c\\x85.sol\":1644:1645  0 */\n  0x00\n    /* \"contracts/\\xe5\\xa4\\x9a\\xe9\\x92\\xb1\\xe5\\x8c\\x85.sol\":1627:1646  owner != address(0) */\n  0xffffffffffffffffffffffffffffffffffffffff\n  and\n    /* \"contracts/\\xe5\\xa4\\x9a\\xe9\\x92\\xb1\\xe5\\x8c\\x85.sol\":1627:1632  owner */\n  dup2\n    /* \"contracts/\\xe5\\xa4\\x9a\\xe9\\x92\\xb1\\xe5\\x8c\\x85.sol\":1627:1646  owner != address(0) */\n  0xffffffffffffffffffffffffffffffffffffffff\n  and\n  sub\n    /* \"contracts/\\xe5\\xa4\\x9a\\xe9\\x92\\xb1\\xe5\\x8c\\x85.sol\":1619:1664  require(owner != address(0), \"invalid owner\") */\n  tag_19\n  jumpi\n  mload(0x40)\n  0x08c379a000000000000000000000000000000000000000000000000000000000\n  dup2\n  mstore\n  0x04\n  add\n  tag_20\n  swap1\n  tag_21\n  jump\t// in\ntag_20:\n  mload(0x40)\n  dup1\n  swap2\n  sub\n  swap1\n  revert\ntag_19:\n    /* \"contracts/\\xe5\\xa4\\x9a\\xe9\\x92\\xb1\\xe5\\x8c\\x85.sol\":1688:1695  isOwner */\n  0x01\n    /* \"contracts/\\xe5\\xa4\\x9a\\xe9\\x92\\xb1\\xe5\\x8c\\x85.sol\":1688:1702  isOwner[owner] */\n  0x00\n    /* \"contracts/\\xe5\\xa4\\x9a\\xe9\\x92\\xb1\\xe5\\x8c\\x85.sol\":1696:1701  owner */\n  dup3\n    /* \"contracts/\\xe5\\xa4\\x9a\\xe9\\x92\\xb1\\xe5\\x8c\\x85.sol\":1688:1702  isOwner[owner] */\n  0xffffffffffffffffffffffffffffffffffffffff\n  and\n  0xffffffffffffffffffffffffffffffffffffffff\n  and\n  dup2\n  mstore\n  0x20\n  add\n  swap1\n  dup2\n  mstore\n  0x20\n  add\n  0x00\n  keccak256\n  0x00\n  swap1\n  sload\n  swap1\n  0x0100\n  exp\n  swap1\n  div\n  0xff\n  and\n    /* \"contracts/\\xe5\\xa4\\x9a\\xe9\\x92\\xb1\\xe5\\x8c\\x85.sol\":1687:1702  !isOwner[owner] */\n  iszero\n    /* \"contracts/\\xe5\\xa4\\x9a\\xe9\\x92\\xb1\\xe5\\x8c\\x85.sol\":1679:1726  require(!isOwner[owner], \"owner is not unique\") */\n  tag_22\n  jumpi\n  mload(0x40)\n  0x08c379a000000000000000000000000000000000000000000000000000000000\n  dup2\n  mstore\n  0x04\n  add\n  tag_23\n  swap1\n  tag_24\n  jump\t// in\ntag_23:\n  mload(0x40)\n  dup1\n  swap2\n  sub\n  swap1\n  revert\ntag_22:\n    /* \"contracts/\\xe5\\xa4\\x9a\\xe9\\x92\\xb1\\xe5\\x8c\\x85.sol\":1758:1762  true */\n  0x01\n    /* \"contracts/\\xe5\\xa4\\x9a\\xe9\\x92\\xb1\\xe5\\x8c\\x85.sol\":1741:1748  isOwner */\n  dup1\n    /* \"contracts/\\xe5\\xa4\\x9a\\xe9\\x92\\xb1\\xe5\\x8c\\x85.sol\":1741:1755  isOwner[owner] */\n  0x00\n    /* \"contracts/\\xe5\\xa4\\x9a\\xe9\\x92\\xb1\\xe5\\x8c\\x85.sol\":1749:1754  owner */\n  dup4\n    /* \"contracts/\\xe5\\xa4\\x9a\\xe9\\x92\\xb1\\xe5\\x8c\\x85.sol\":1741:1755  isOwner[owner] */\n  0xffffffffffffffffffffffffffffffffffffffff\n  and\n  0xffffffffffffffffffffffffffffffffffffffff\n  and\n  dup2\n  mstore\n  0x20\n  add\n  swap1\n  dup2\n  mstore\n  0x20\n  add\n  0x00\n  keccak256\n  0x00\n    /* \"contracts/\\xe5\\xa4\\x9a\\xe9\\x92\\xb1\\xe5\\x8c\\x85.sol\":1741:1762  isOwner[owner] = true */\n  0x0100\n  exp\n  dup2\n  sload\n  dup2\n  0xff\n  mul\n  not\n  and\n  swap1\n  dup4\n  iszero\n  iszero\n  mul\n  or\n  swap1\n  sstore\n  pop\n    /* \"contracts/\\xe5\\xa4\\x9a\\xe9\\x92\\xb1\\xe5\\x8c\\x85.sol\":1777:1783  owners */\n  0x00\n    /* \"contracts/\\xe5\\xa4\\x9a\\xe9\\x92\\xb1\\xe5\\x8c\\x85.sol\":1789:1794  owner */\n  dup2\n    /* \"contracts/\\xe5\\xa4\\x9a\\xe9\\x92\\xb1\\xe5\\x8c\\x85.sol\":1777:1795  owners.push(owner) */\n  swap1\n  dup1\n  0x01\n  dup2\n  sload\n  add\n  dup1\n  dup3\n  sstore\n  dup1\n  swap2\n  pop\n  pop\n  0x01\n  swap1\n  sub\n  swap1\n  0x00\n  mstore\n  keccak256(0x00, 0x20)\n  add\n  0x00\n  swap1\n  swap2\n  swap1\n  swap2\n  swap1\n  swap2\n  0x0100\n  exp\n  dup2\n  sload\n  dup2\n  0xffffffffffffffffffffffffffffffffffffffff\n  mul\n  not\n  and\n  swap1\n  dup4\n  0xffffffffffffffffffffffffffffffffffffffff\n  and\n  mul\n  or\n  swap1\n  sstore\n  pop\n    /* \"contracts/\\xe5\\xa4\\x9a\\xe9\\x92\\xb1\\xe5\\x8c\\x85.sol\":1559:1807  {... */\n  pop\n    /* \"contracts/\\xe5\\xa4\\x9a\\xe9\\x92\\xb1\\xe5\\x8c\\x85.sol\":1550:1557  index++ */\n  dup1\n  dup1\n  0x01\n  add\n  swap2\n  pop\n  pop\n    /* \"contracts/\\xe5\\xa4\\x9a\\xe9\\x92\\xb1\\xe5\\x8c\\x85.sol\":1503:1807  for(uint256 index = 0; index < _owners.length; index++) {... */\n  jump(tag_13)\ntag_14:\n  pop\n    /* \"contracts/\\xe5\\xa4\\x9a\\xe9\\x92\\xb1\\xe5\\x8c\\x85.sol\":1830:1839  _required */\n  dup1\n    /* \"contracts/\\xe5\\xa4\\x9a\\xe9\\x92\\xb1\\xe5\\x8c\\x85.sol\":1819:1827  required */\n  0x02\n    /* \"contracts/\\xe5\\xa4\\x9a\\xe9\\x92\\xb1\\xe5\\x8c\\x85.sol\":1819:1839  required = _required */\n  dup2\n  swap1\n  sstore\n  pop\n    /* \"contracts/\\xe5\\xa4\\x9a\\xe9\\x92\\xb1\\xe5\\x8c\\x85.sol\":1276:1847  constructor(address[] memory _owners, uint256 _required) {... */\n  pop\n  pop\n    /* \"contracts/\\xe5\\xa4\\x9a\\xe9\\x92\\xb1\\xe5\\x8c\\x85.sol\":59:3222  contract MultiSigWallet {... */\n  jump(tag_26)\n    /* \"#utility.yul\":7:82   */\ntag_27:\n    /* \"#utility.yul\":40:46   */\n  0x00\n    /* \"#utility.yul\":73:75   */\n  0x40\n    /* \"#utility.yul\":67:76   */\n  mload\n    /* \"#utility.yul\":57:76   */\n  swap1\n  pop\n    /* \"#utility.yul\":7:82   */\n  swap1\n  jump\t// out\n    /* \"#utility.yul\":88:205   */\ntag_28:\n    /* \"#utility.yul\":197:198   */\n  0x00\n    /* \"#utility.yul\":194:195   */\n  dup1\n    /* \"#utility.yul\":187:199   */\n  revert\n    /* \"#utility.yul\":211:328   */\ntag_29:\n    /* \"#utility.yul\":320:321   */\n  0x00\n    /* \"#utility.yul\":317:318   */\n  dup1\n    /* \"#utility.yul\":310:322   */\n  revert\n    /* \"#utility.yul\":334:451   */\ntag_30:\n    /* \"#utility.yul\":443:444   */\n  0x00\n    /* \"#utility.yul\":440:441   */\n  dup1\n    /* \"#utility.yul\":433:445   */\n  revert\n    /* \"#utility.yul\":457:559   */\ntag_31:\n    /* \"#utility.yul\":498:504   */\n  0x00\n    /* \"#utility.yul\":549:551   */\n  0x1f\n    /* \"#utility.yul\":545:552   */\n  not\n    /* \"#utility.yul\":540:542   */\n  0x1f\n    /* \"#utility.yul\":533:538   */\n  dup4\n    /* \"#utility.yul\":529:543   */\n  add\n    /* \"#utility.yul\":525:553   */\n  and\n    /* \"#utility.yul\":515:553   */\n  swap1\n  pop\n    /* \"#utility.yul\":457:559   */\n  swap2\n  swap1\n  pop\n  jump\t// out\n    /* \"#utility.yul\":565:745   */\ntag_32:\n    /* \"#utility.yul\":613:690   */\n  0x4e487b7100000000000000000000000000000000000000000000000000000000\n    /* \"#utility.yul\":610:611   */\n  0x00\n    /* \"#utility.yul\":603:691   */\n  mstore\n    /* \"#utility.yul\":710:714   */\n  0x41\n    /* \"#utility.yul\":707:708   */\n  0x04\n    /* \"#utility.yul\":700:715   */\n  mstore\n    /* \"#utility.yul\":734:738   */\n  0x24\n    /* \"#utility.yul\":731:732   */\n  0x00\n    /* \"#utility.yul\":724:739   */\n  revert\n    /* \"#utility.yul\":751:1032   */\ntag_33:\n    /* \"#utility.yul\":834:861   */\n  tag_63\n    /* \"#utility.yul\":856:860   */\n  dup3\n    /* \"#utility.yul\":834:861   */\n  tag_31\n  jump\t// in\ntag_63:\n    /* \"#utility.yul\":826:832   */\n  dup2\n    /* \"#utility.yul\":822:862   */\n  add\n    /* \"#utility.yul\":964:970   */\n  dup2\n    /* \"#utility.yul\":952:962   */\n  dup2\n    /* \"#utility.yul\":949:971   */\n  lt\n    /* \"#utility.yul\":928:946   */\n  0xffffffffffffffff\n    /* \"#utility.yul\":916:926   */\n  dup3\n    /* \"#utility.yul\":913:947   */\n  gt\n    /* \"#utility.yul\":910:972   */\n  or\n    /* \"#utility.yul\":907:995   */\n  iszero\n  tag_64\n  jumpi\n    /* \"#utility.yul\":975:993   */\n  tag_65\n  tag_32\n  jump\t// in\ntag_65:\n    /* \"#utility.yul\":907:995   */\ntag_64:\n    /* \"#utility.yul\":1015:1025   */\n  dup1\n    /* \"#utility.yul\":1011:1013   */\n  0x40\n    /* \"#utility.yul\":1004:1026   */\n  mstore\n    /* \"#utility.yul\":794:1032   */\n  pop\n    /* \"#utility.yul\":751:1032   */\n  pop\n  pop\n  jump\t// out\n    /* \"#utility.yul\":1038:1167   */\ntag_34:\n    /* \"#utility.yul\":1072:1078   */\n  0x00\n    /* \"#utility.yul\":1099:1119   */\n  tag_67\n  tag_27\n  jump\t// in\ntag_67:\n    /* \"#utility.yul\":1089:1119   */\n  swap1\n  pop\n    /* \"#utility.yul\":1128:1161   */\n  tag_68\n    /* \"#utility.yul\":1156:1160   */\n  dup3\n    /* \"#utility.yul\":1148:1154   */\n  dup3\n    /* \"#utility.yul\":1128:1161   */\n  tag_33\n  jump\t// in\ntag_68:\n    /* \"#utility.yul\":1038:1167   */\n  swap2\n  swap1\n  pop\n  jump\t// out\n    /* \"#utility.yul\":1173:1484   */\ntag_35:\n    /* \"#utility.yul\":1250:1254   */\n  0x00\n    /* \"#utility.yul\":1340:1358   */\n  0xffffffffffffffff\n    /* \"#utility.yul\":1332:1338   */\n  dup3\n    /* \"#utility.yul\":1329:1359   */\n  gt\n    /* \"#utility.yul\":1326:1382   */\n  iszero\n  tag_70\n  jumpi\n    /* \"#utility.yul\":1362:1380   */\n  tag_71\n  tag_32\n  jump\t// in\ntag_71:\n    /* \"#utility.yul\":1326:1382   */\ntag_70:\n    /* \"#utility.yul\":1412:1416   */\n  0x20\n    /* \"#utility.yul\":1404:1410   */\n  dup3\n    /* \"#utility.yul\":1400:1417   */\n  mul\n    /* \"#utility.yul\":1392:1417   */\n  swap1\n  pop\n    /* \"#utility.yul\":1472:1476   */\n  0x20\n    /* \"#utility.yul\":1466:1470   */\n  dup2\n    /* \"#utility.yul\":1462:1477   */\n  add\n    /* \"#utility.yul\":1454:1477   */\n  swap1\n  pop\n    /* \"#utility.yul\":1173:1484   */\n  swap2\n  swap1\n  pop\n  jump\t// out\n    /* \"#utility.yul\":1490:1607   */\ntag_36:\n    /* \"#utility.yul\":1599:1600   */\n  0x00\n    /* \"#utility.yul\":1596:1597   */\n  dup1\n    /* \"#utility.yul\":1589:1601   */\n  revert\n    /* \"#utility.yul\":1613:1739   */\ntag_37:\n    /* \"#utility.yul\":1650:1657   */\n  0x00\n    /* \"#utility.yul\":1690:1732   */\n  0xffffffffffffffffffffffffffffffffffffffff\n    /* \"#utility.yul\":1683:1688   */\n  dup3\n    /* \"#utility.yul\":1679:1733   */\n  and\n    /* \"#utility.yul\":1668:1733   */\n  swap1\n  pop\n    /* \"#utility.yul\":1613:1739   */\n  swap2\n  swap1\n  pop\n  jump\t// out\n    /* \"#utility.yul\":1745:1841   */\ntag_38:\n    /* \"#utility.yul\":1782:1789   */\n  0x00\n    /* \"#utility.yul\":1811:1835   */\n  tag_75\n    /* \"#utility.yul\":1829:1834   */\n  dup3\n    /* \"#utility.yul\":1811:1835   */\n  tag_37\n  jump\t// in\ntag_75:\n    /* \"#utility.yul\":1800:1835   */\n  swap1\n  pop\n    /* \"#utility.yul\":1745:1841   */\n  swap2\n  swap1\n  pop\n  jump\t// out\n    /* \"#utility.yul\":1847:1969   */\ntag_39:\n    /* \"#utility.yul\":1920:1944   */\n  tag_77\n    /* \"#utility.yul\":1938:1943   */\n  dup2\n    /* \"#utility.yul\":1920:1944   */\n  tag_38\n  jump\t// in\ntag_77:\n    /* \"#utility.yul\":1913:1918   */\n  dup2\n    /* \"#utility.yul\":1910:1945   */\n  eq\n    /* \"#utility.yul\":1900:1963   */\n  tag_78\n  jumpi\n    /* \"#utility.yul\":1959:1960   */\n  0x00\n    /* \"#utility.yul\":1956:1957   */\n  dup1\n    /* \"#utility.yul\":1949:1961   */\n  revert\n    /* \"#utility.yul\":1900:1963   */\ntag_78:\n    /* \"#utility.yul\":1847:1969   */\n  pop\n  jump\t// out\n    /* \"#utility.yul\":1975:2118   */\ntag_40:\n    /* \"#utility.yul\":2032:2037   */\n  0x00\n    /* \"#utility.yul\":2063:2069   */\n  dup2\n    /* \"#utility.yul\":2057:2070   */\n  mload\n    /* \"#utility.yul\":2048:2070   */\n  swap1\n  pop\n    /* \"#utility.yul\":2079:2112   */\n  tag_80\n    /* \"#utility.yul\":2106:2111   */\n  dup2\n    /* \"#utility.yul\":2079:2112   */\n  tag_39\n  jump\t// in\ntag_80:\n    /* \"#utility.yul\":1975:2118   */\n  swap3\n  swap2\n  pop\n  pop\n  jump\t// out\n    /* \"#utility.yul\":2141:2873   */\ntag_41:\n    /* \"#utility.yul\":2248:2253   */\n  0x00\n    /* \"#utility.yul\":2273:2354   */\n  tag_82\n    /* \"#utility.yul\":2289:2353   */\n  tag_83\n    /* \"#utility.yul\":2346:2352   */\n  dup5\n    /* \"#utility.yul\":2289:2353   */\n  tag_35\n  jump\t// in\ntag_83:\n    /* \"#utility.yul\":2273:2354   */\n  tag_34\n  jump\t// in\ntag_82:\n    /* \"#utility.yul\":2264:2354   */\n  swap1\n  pop\n    /* \"#utility.yul\":2374:2379   */\n  dup1\n    /* \"#utility.yul\":2403:2409   */\n  dup4\n    /* \"#utility.yul\":2396:2401   */\n  dup3\n    /* \"#utility.yul\":2389:2410   */\n  mstore\n    /* \"#utility.yul\":2437:2441   */\n  0x20\n    /* \"#utility.yul\":2430:2435   */\n  dup3\n    /* \"#utility.yul\":2426:2442   */\n  add\n    /* \"#utility.yul\":2419:2442   */\n  swap1\n  pop\n    /* \"#utility.yul\":2490:2494   */\n  0x20\n    /* \"#utility.yul\":2482:2488   */\n  dup5\n    /* \"#utility.yul\":2478:2495   */\n  mul\n    /* \"#utility.yul\":2470:2476   */\n  dup4\n    /* \"#utility.yul\":2466:2496   */\n  add\n    /* \"#utility.yul\":2519:2522   */\n  dup6\n    /* \"#utility.yul\":2511:2517   */\n  dup2\n    /* \"#utility.yul\":2508:2523   */\n  gt\n    /* \"#utility.yul\":2505:2627   */\n  iszero\n  tag_84\n  jumpi\n    /* \"#utility.yul\":2538:2617   */\n  tag_85\n  tag_36\n  jump\t// in\ntag_85:\n    /* \"#utility.yul\":2505:2627   */\ntag_84:\n    /* \"#utility.yul\":2653:2659   */\n  dup4\n    /* \"#utility.yul\":2636:2867   */\ntag_86:\n    /* \"#utility.yul\":2670:2676   */\n  dup2\n    /* \"#utility.yul\":2665:2668   */\n  dup2\n    /* \"#utility.yul\":2662:2677   */\n  lt\n    /* \"#utility.yul\":2636:2867   */\n  iszero\n  tag_88\n  jumpi\n    /* \"#utility.yul\":2745:2748   */\n  dup1\n    /* \"#utility.yul\":2774:2822   */\n  tag_89\n    /* \"#utility.yul\":2818:2821   */\n  dup9\n    /* \"#utility.yul\":2806:2816   */\n  dup3\n    /* \"#utility.yul\":2774:2822   */\n  tag_40\n  jump\t// in\ntag_89:\n    /* \"#utility.yul\":2769:2772   */\n  dup5\n    /* \"#utility.yul\":2762:2823   */\n  mstore\n    /* \"#utility.yul\":2852:2856   */\n  0x20\n    /* \"#utility.yul\":2847:2850   */\n  dup5\n    /* \"#utility.yul\":2843:2857   */\n  add\n    /* \"#utility.yul\":2836:2857   */\n  swap4\n  pop\n    /* \"#utility.yul\":2712:2867   */\n  pop\n    /* \"#utility.yul\":2696:2700   */\n  0x20\n    /* \"#utility.yul\":2691:2694   */\n  dup2\n    /* \"#utility.yul\":2687:2701   */\n  add\n    /* \"#utility.yul\":2680:2701   */\n  swap1\n  pop\n    /* \"#utility.yul\":2636:2867   */\n  jump(tag_86)\ntag_88:\n    /* \"#utility.yul\":2640:2661   */\n  pop\n    /* \"#utility.yul\":2254:2873   */\n  pop\n  pop\n    /* \"#utility.yul\":2141:2873   */\n  swap4\n  swap3\n  pop\n  pop\n  pop\n  jump\t// out\n    /* \"#utility.yul\":2896:3281   */\ntag_42:\n    /* \"#utility.yul\":2978:2983   */\n  0x00\n    /* \"#utility.yul\":3027:3030   */\n  dup3\n    /* \"#utility.yul\":3020:3024   */\n  0x1f\n    /* \"#utility.yul\":3012:3018   */\n  dup4\n    /* \"#utility.yul\":3008:3025   */\n  add\n    /* \"#utility.yul\":3004:3031   */\n  slt\n    /* \"#utility.yul\":2994:3116   */\n  tag_91\n  jumpi\n    /* \"#utility.yul\":3035:3114   */\n  tag_92\n  tag_30\n  jump\t// in\ntag_92:\n    /* \"#utility.yul\":2994:3116   */\ntag_91:\n    /* \"#utility.yul\":3145:3151   */\n  dup2\n    /* \"#utility.yul\":3139:3152   */\n  mload\n    /* \"#utility.yul\":3170:3275   */\n  tag_93\n    /* \"#utility.yul\":3271:3274   */\n  dup5\n    /* \"#utility.yul\":3263:3269   */\n  dup3\n    /* \"#utility.yul\":3256:3260   */\n  0x20\n    /* \"#utility.yul\":3248:3254   */\n  dup7\n    /* \"#utility.yul\":3244:3261   */\n  add\n    /* \"#utility.yul\":3170:3275   */\n  tag_41\n  jump\t// in\ntag_93:\n    /* \"#utility.yul\":3161:3275   */\n  swap2\n  pop\n    /* \"#utility.yul\":2984:3281   */\n  pop\n    /* \"#utility.yul\":2896:3281   */\n  swap3\n  swap2\n  pop\n  pop\n  jump\t// out\n    /* \"#utility.yul\":3287:3364   */\ntag_43:\n    /* \"#utility.yul\":3324:3331   */\n  0x00\n    /* \"#utility.yul\":3353:3358   */\n  dup2\n    /* \"#utility.yul\":3342:3358   */\n  swap1\n  pop\n    /* \"#utility.yul\":3287:3364   */\n  swap2\n  swap1\n  pop\n  jump\t// out\n    /* \"#utility.yul\":3370:3492   */\ntag_44:\n    /* \"#utility.yul\":3443:3467   */\n  tag_96\n    /* \"#utility.yul\":3461:3466   */\n  dup2\n    /* \"#utility.yul\":3443:3467   */\n  tag_43\n  jump\t// in\ntag_96:\n    /* \"#utility.yul\":3436:3441   */\n  dup2\n    /* \"#utility.yul\":3433:3468   */\n  eq\n    /* \"#utility.yul\":3423:3486   */\n  tag_97\n  jumpi\n    /* \"#utility.yul\":3482:3483   */\n  0x00\n    /* \"#utility.yul\":3479:3480   */\n  dup1\n    /* \"#utility.yul\":3472:3484   */\n  revert\n    /* \"#utility.yul\":3423:3486   */\ntag_97:\n    /* \"#utility.yul\":3370:3492   */\n  pop\n  jump\t// out\n    /* \"#utility.yul\":3498:3641   */\ntag_45:\n    /* \"#utility.yul\":3555:3560   */\n  0x00\n    /* \"#utility.yul\":3586:3592   */\n  dup2\n    /* \"#utility.yul\":3580:3593   */\n  mload\n    /* \"#utility.yul\":3571:3593   */\n  swap1\n  pop\n    /* \"#utility.yul\":3602:3635   */\n  tag_99\n    /* \"#utility.yul\":3629:3634   */\n  dup2\n    /* \"#utility.yul\":3602:3635   */\n  tag_44\n  jump\t// in\ntag_99:\n    /* \"#utility.yul\":3498:3641   */\n  swap3\n  swap2\n  pop\n  pop\n  jump\t// out\n    /* \"#utility.yul\":3647:4357   */\ntag_3:\n    /* \"#utility.yul\":3751:3757   */\n  0x00\n    /* \"#utility.yul\":3759:3765   */\n  dup1\n    /* \"#utility.yul\":3808:3810   */\n  0x40\n    /* \"#utility.yul\":3796:3805   */\n  dup4\n    /* \"#utility.yul\":3787:3794   */\n  dup6\n    /* \"#utility.yul\":3783:3806   */\n  sub\n    /* \"#utility.yul\":3779:3811   */\n  slt\n    /* \"#utility.yul\":3776:3895   */\n  iszero\n  tag_101\n  jumpi\n    /* \"#utility.yul\":3814:3893   */\n  tag_102\n  tag_28\n  jump\t// in\ntag_102:\n    /* \"#utility.yul\":3776:3895   */\ntag_101:\n    /* \"#utility.yul\":3955:3956   */\n  0x00\n    /* \"#utility.yul\":3944:3953   */\n  dup4\n    /* \"#utility.yul\":3940:3957   */\n  add\n    /* \"#utility.yul\":3934:3958   */\n  mload\n    /* \"#utility.yul\":3985:4003   */\n  0xffffffffffffffff\n    /* \"#utility.yul\":3977:3983   */\n  dup2\n    /* \"#utility.yul\":3974:4004   */\n  gt\n    /* \"#utility.yul\":3971:4088   */\n  iszero\n  tag_103\n  jumpi\n    /* \"#utility.yul\":4007:4086   */\n  tag_104\n  tag_29\n  jump\t// in\ntag_104:\n    /* \"#utility.yul\":3971:4088   */\ntag_103:\n    /* \"#utility.yul\":4112:4201   */\n  tag_105\n    /* \"#utility.yul\":4193:4200   */\n  dup6\n    /* \"#utility.yul\":4184:4190   */\n  dup3\n    /* \"#utility.yul\":4173:4182   */\n  dup7\n    /* \"#utility.yul\":4169:4191   */\n  add\n    /* \"#utility.yul\":4112:4201   */\n  tag_42\n  jump\t// in\ntag_105:\n    /* \"#utility.yul\":4102:4201   */\n  swap3\n  pop\n    /* \"#utility.yul\":3905:4211   */\n  pop\n    /* \"#utility.yul\":4250:4252   */\n  0x20\n    /* \"#utility.yul\":4276:4340   */\n  tag_106\n    /* \"#utility.yul\":4332:4339   */\n  dup6\n    /* \"#utility.yul\":4323:4329   */\n  dup3\n    /* \"#utility.yul\":4312:4321   */\n  dup7\n    /* \"#utility.yul\":4308:4330   */\n  add\n    /* \"#utility.yul\":4276:4340   */\n  tag_45\n  jump\t// in\ntag_106:\n    /* \"#utility.yul\":4266:4340   */\n  swap2\n  pop\n    /* \"#utility.yul\":4221:4350   */\n  pop\n    /* \"#utility.yul\":3647:4357   */\n  swap3\n  pop\n  swap3\n  swap1\n  pop\n  jump\t// out\n    /* \"#utility.yul\":4363:4532   */\ntag_46:\n    /* \"#utility.yul\":4447:4458   */\n  0x00\n    /* \"#utility.yul\":4481:4487   */\n  dup3\n    /* \"#utility.yul\":4476:4479   */\n  dup3\n    /* \"#utility.yul\":4469:4488   */\n  mstore\n    /* \"#utility.yul\":4521:4525   */\n  0x20\n    /* \"#utility.yul\":4516:4519   */\n  dup3\n    /* \"#utility.yul\":4512:4526   */\n  add\n    /* \"#utility.yul\":4497:4526   */\n  swap1\n  pop\n    /* \"#utility.yul\":4363:4532   */\n  swap3\n  swap2\n  pop\n  pop\n  jump\t// out\n    /* \"#utility.yul\":4538:4702   */\ntag_47:\n    /* \"#utility.yul\":4678:4694   */\n  0x6f776e6572207265717569726564000000000000000000000000000000000000\n    /* \"#utility.yul\":4674:4675   */\n  0x00\n    /* \"#utility.yul\":4666:4672   */\n  dup3\n    /* \"#utility.yul\":4662:4676   */\n  add\n    /* \"#utility.yul\":4655:4695   */\n  mstore\n    /* \"#utility.yul\":4538:4702   */\n  pop\n  jump\t// out\n    /* \"#utility.yul\":4708:5074   */\ntag_48:\n    /* \"#utility.yul\":4850:4853   */\n  0x00\n    /* \"#utility.yul\":4871:4938   */\n  tag_110\n    /* \"#utility.yul\":4935:4937   */\n  0x0e\n    /* \"#utility.yul\":4930:4933   */\n  dup4\n    /* \"#utility.yul\":4871:4938   */\n  tag_46\n  jump\t// in\ntag_110:\n    /* \"#utility.yul\":4864:4938   */\n  swap2\n  pop\n    /* \"#utility.yul\":4947:5040   */\n  tag_111\n    /* \"#utility.yul\":5036:5039   */\n  dup3\n    /* \"#utility.yul\":4947:5040   */\n  tag_47\n  jump\t// in\ntag_111:\n    /* \"#utility.yul\":5065:5067   */\n  0x20\n    /* \"#utility.yul\":5060:5063   */\n  dup3\n    /* \"#utility.yul\":5056:5068   */\n  add\n    /* \"#utility.yul\":5049:5068   */\n  swap1\n  pop\n    /* \"#utility.yul\":4708:5074   */\n  swap2\n  swap1\n  pop\n  jump\t// out\n    /* \"#utility.yul\":5080:5499   */\ntag_8:\n    /* \"#utility.yul\":5246:5250   */\n  0x00\n    /* \"#utility.yul\":5284:5286   */\n  0x20\n    /* \"#utility.yul\":5273:5282   */\n  dup3\n    /* \"#utility.yul\":5269:5287   */\n  add\n    /* \"#utility.yul\":5261:5287   */\n  swap1\n  pop\n    /* \"#utility.yul\":5333:5342   */\n  dup2\n    /* \"#utility.yul\":5327:5331   */\n  dup2\n    /* \"#utility.yul\":5323:5343   */\n  sub\n    /* \"#utility.yul\":5319:5320   */\n  0x00\n    /* \"#utility.yul\":5308:5317   */\n  dup4\n    /* \"#utility.yul\":5304:5321   */\n  add\n    /* \"#utility.yul\":5297:5344   */\n  mstore\n    /* \"#utility.yul\":5361:5492   */\n  tag_113\n    /* \"#utility.yul\":5487:5491   */\n  dup2\n    /* \"#utility.yul\":5361:5492   */\n  tag_48\n  jump\t// in\ntag_113:\n    /* \"#utility.yul\":5353:5492   */\n  swap1\n  pop\n    /* \"#utility.yul\":5080:5499   */\n  swap2\n  swap1\n  pop\n  jump\t// out\n    /* \"#utility.yul\":5505:5725   */\ntag_49:\n    /* \"#utility.yul\":5645:5679   */\n  0x696e76616c6964207265717569726564206e756d626572206f66206f776e6572\n    /* \"#utility.yul\":5641:5642   */\n  0x00\n    /* \"#utility.yul\":5633:5639   */\n  dup3\n    /* \"#utility.yul\":5629:5643   */\n  add\n    /* \"#utility.yul\":5622:5680   */\n  mstore\n    /* \"#utility.yul\":5714:5717   */\n  0x7300000000000000000000000000000000000000000000000000000000000000\n    /* \"#utility.yul\":5709:5711   */\n  0x20\n    /* \"#utility.yul\":5701:5707   */\n  dup3\n    /* \"#utility.yul\":5697:5712   */\n  add\n    /* \"#utility.yul\":5690:5718   */\n  mstore\n    /* \"#utility.yul\":5505:5725   */\n  pop\n  jump\t// out\n    /* \"#utility.yul\":5731:6097   */\ntag_50:\n    /* \"#utility.yul\":5873:5876   */\n  0x00\n    /* \"#utility.yul\":5894:5961   */\n  tag_116\n    /* \"#utility.yul\":5958:5960   */\n  0x21\n    /* \"#utility.yul\":5953:5956   */\n  dup4\n    /* \"#utility.yul\":5894:5961   */\n  tag_46\n  jump\t// in\ntag_116:\n    /* \"#utility.yul\":5887:5961   */\n  swap2\n  pop\n    /* \"#utility.yul\":5970:6063   */\n  tag_117\n    /* \"#utility.yul\":6059:6062   */\n  dup3\n    /* \"#utility.yul\":5970:6063   */\n  tag_49\n  jump\t// in\ntag_117:\n    /* \"#utility.yul\":6088:6090   */\n  0x40\n    /* \"#utility.yul\":6083:6086   */\n  dup3\n    /* \"#utility.yul\":6079:6091   */\n  add\n    /* \"#utility.yul\":6072:6091   */\n  swap1\n  pop\n    /* \"#utility.yul\":5731:6097   */\n  swap2\n  swap1\n  pop\n  jump\t// out\n    /* \"#utility.yul\":6103:6522   */\ntag_12:\n    /* \"#utility.yul\":6269:6273   */\n  0x00\n    /* \"#utility.yul\":6307:6309   */\n  0x20\n    /* \"#utility.yul\":6296:6305   */\n  dup3\n    /* \"#utility.yul\":6292:6310   */\n  add\n    /* \"#utility.yul\":6284:6310   */\n  swap1\n  pop\n    /* \"#utility.yul\":6356:6365   */\n  dup2\n    /* \"#utility.yul\":6350:6354   */\n  dup2\n    /* \"#utility.yul\":6346:6366   */\n  sub\n    /* \"#utility.yul\":6342:6343   */\n  0x00\n    /* \"#utility.yul\":6331:6340   */\n  dup4\n    /* \"#utility.yul\":6327:6344   */\n  add\n    /* \"#utility.yul\":6320:6367   */\n  mstore\n    /* \"#utility.yul\":6384:6515   */\n  tag_119\n    /* \"#utility.yul\":6510:6514   */\n  dup2\n    /* \"#utility.yul\":6384:6515   */\n  tag_50\n  jump\t// in\ntag_119:\n    /* \"#utility.yul\":6376:6515   */\n  swap1\n  pop\n    /* \"#utility.yul\":6103:6522   */\n  swap2\n  swap1\n  pop\n  jump\t// out\n    /* \"#utility.yul\":6528:6708   */\ntag_18:\n    /* \"#utility.yul\":6576:6653   */\n  0x4e487b7100000000000000000000000000000000000000000000000000000000\n    /* \"#utility.yul\":6573:6574   */\n  0x00\n    /* \"#utility.yul\":6566:6654   */\n  mstore\n    /* \"#utility.yul\":6673:6677   */\n  0x32\n    /* \"#utility.yul\":6670:6671   */\n  0x04\n    /* \"#utility.yul\":6663:6678   */\n  mstore\n    /* \"#utility.yul\":6697:6701   */\n  0x24\n    /* \"#utility.yul\":6694:6695   */\n  0x00\n    /* \"#utility.yul\":6687:6702   */\n  revert\n    /* \"#utility.yul\":6714:6877   */\ntag_51:\n    /* \"#utility.yul\":6854:6869   */\n  0x696e76616c6964206f776e657200000000000000000000000000000000000000\n    /* \"#utility.yul\":6850:6851   */\n  0x00\n    /* \"#utility.yul\":6842:6848   */\n  dup3\n    /* \"#utility.yul\":6838:6852   */\n  add\n    /* \"#utility.yul\":6831:6870   */\n  mstore\n    /* \"#utility.yul\":6714:6877   */\n  pop\n  jump\t// out\n    /* \"#utility.yul\":6883:7249   */\ntag_52:\n    /* \"#utility.yul\":7025:7028   */\n  0x00\n    /* \"#utility.yul\":7046:7113   */\n  tag_123\n    /* \"#utility.yul\":7110:7112   */\n  0x0d\n    /* \"#utility.yul\":7105:7108   */\n  dup4\n    /* \"#utility.yul\":7046:7113   */\n  tag_46\n  jump\t// in\ntag_123:\n    /* \"#utility.yul\":7039:7113   */\n  swap2\n  pop\n    /* \"#utility.yul\":7122:7215   */\n  tag_124\n    /* \"#utility.yul\":7211:7214   */\n  dup3\n    /* \"#utility.yul\":7122:7215   */\n  tag_51\n  jump\t// in\ntag_124:\n    /* \"#utility.yul\":7240:7242   */\n  0x20\n    /* \"#utility.yul\":7235:7238   */\n  dup3\n    /* \"#utility.yul\":7231:7243   */\n  add\n    /* \"#utility.yul\":7224:7243   */\n  swap1\n  pop\n    /* \"#utility.yul\":6883:7249   */\n  swap2\n  swap1\n  pop\n  jump\t// out\n    /* \"#utility.yul\":7255:7674   */\ntag_21:\n    /* \"#utility.yul\":7421:7425   */\n  0x00\n    /* \"#utility.yul\":7459:7461   */\n  0x20\n    /* \"#utility.yul\":7448:7457   */\n  dup3\n    /* \"#utility.yul\":7444:7462   */\n  add\n    /* \"#utility.yul\":7436:7462   */\n  swap1\n  pop\n    /* \"#utility.yul\":7508:7517   */\n  dup2\n    /* \"#utility.yul\":7502:7506   */\n  dup2\n    /* \"#utility.yul\":7498:7518   */\n  sub\n    /* \"#utility.yul\":7494:7495   */\n  0x00\n    /* \"#utility.yul\":7483:7492   */\n  dup4\n    /* \"#utility.yul\":7479:7496   */\n  add\n    /* \"#utility.yul\":7472:7519   */\n  mstore\n    /* \"#utility.yul\":7536:7667   */\n  tag_126\n    /* \"#utility.yul\":7662:7666   */\n  dup2\n    /* \"#utility.yul\":7536:7667   */\n  tag_52\n  jump\t// in\ntag_126:\n    /* \"#utility.yul\":7528:7667   */\n  swap1\n  pop\n    /* \"#utility.yul\":7255:7674   */\n  swap2\n  swap1\n  pop\n  jump\t// out\n    /* \"#utility.yul\":7680:7849   */\ntag_53:\n    /* \"#utility.yul\":7820:7841   */\n  0x6f776e6572206973206e6f7420756e6971756500000000000000000000000000\n    /* \"#utility.yul\":7816:7817   */\n  0x00\n    /* \"#utility.yul\":7808:7814   */\n  dup3\n    /* \"#utility.yul\":7804:7818   */\n  add\n    /* \"#utility.yul\":7797:7842   */\n  mstore\n    /* \"#utility.yul\":7680:7849   */\n  pop\n  jump\t// out\n    /* \"#utility.yul\":7855:8221   */\ntag_54:\n    /* \"#utility.yul\":7997:8000   */\n  0x00\n    /* \"#utility.yul\":8018:8085   */\n  tag_129\n    /* \"#utility.yul\":8082:8084   */\n  0x13\n    /* \"#utility.yul\":8077:8080   */\n  dup4\n    /* \"#utility.yul\":8018:8085   */\n  tag_46\n  jump\t// in\ntag_129:\n    /* \"#utility.yul\":8011:8085   */\n  swap2\n  pop\n    /* \"#utility.yul\":8094:8187   */\n  tag_130\n    /* \"#utility.yul\":8183:8186   */\n  dup3\n    /* \"#utility.yul\":8094:8187   */\n  tag_53\n  jump\t// in\ntag_130:\n    /* \"#utility.yul\":8212:8214   */\n  0x20\n    /* \"#utility.yul\":8207:8210   */\n  dup3\n    /* \"#utility.yul\":8203:8215   */\n  add\n    /* \"#utility.yul\":8196:8215   */\n  swap1\n  pop\n    /* \"#utility.yul\":7855:8221   */\n  swap2\n  swap1\n  pop\n  jump\t// out\n    /* \"#utility.yul\":8227:8646   */\ntag_24:\n    /* \"#utility.yul\":8393:8397   */\n  0x00\n    /* \"#utility.yul\":8431:8433   */\n  0x20\n    /* \"#utility.yul\":8420:8429   */\n  dup3\n    /* \"#utility.yul\":8416:8434   */\n  add\n    /* \"#utility.yul\":8408:8434   */\n  swap1\n  pop\n    /* \"#utility.yul\":8480:8489   */\n  dup2\n    /* \"#utility.yul\":8474:8478   */\n  dup2\n    /* \"#utility.yul\":8470:8490   */\n  sub\n    /* \"#utility.yul\":8466:8467   */\n  0x00\n    /* \"#utility.yul\":8455:8464   */\n  dup4\n    /* \"#utility.yul\":8451:8468   */\n  add\n    /* \"#utility.yul\":8444:8491   */\n  mstore\n    /* \"#utility.yul\":8508:8639   */\n  tag_132\n    /* \"#utility.yul\":8634:8638   */\n  dup2\n    /* \"#utility.yul\":8508:8639   */\n  tag_54\n  jump\t// in\ntag_132:\n    /* \"#utility.yul\":8500:8639   */\n  swap1\n  pop\n    /* \"#utility.yul\":8227:8646   */\n  swap2\n  swap1\n  pop\n  jump\t// out\n    /* \"contracts/\\xe5\\xa4\\x9a\\xe9\\x92\\xb1\\xe5\\x8c\\x85.sol\":59:3222  contract MultiSigWallet {... */\ntag_26:\n  dataSize(sub_0)\n  dup1\n  dataOffset(sub_0)\n  0x00\n  codecopy\n  0x00\n  return\nstop\n\nsub_0: assembly {\n        /* \"contracts/\\xe5\\xa4\\x9a\\xe9\\x92\\xb1\\xe5\\x8c\\x85.sol\":59:3222  contract MultiSigWallet {... */\n      mstore(0x40, 0x80)\n      jumpi(tag_1, lt(calldatasize, 0x04))\n      shr(0xe0, calldataload(0x00))\n      dup1\n      0x8253951a\n      gt\n      tag_13\n      jumpi\n      dup1\n      0x8253951a\n      eq\n      tag_8\n      jumpi\n      dup1\n      0x9ace38c2\n      eq\n      tag_9\n      jumpi\n      dup1\n      0xb759f954\n      eq\n      tag_10\n      jumpi\n      dup1\n      0xba7e7cab\n      eq\n      tag_11\n      jumpi\n      dup1\n      0xdc8452cd\n      eq\n      tag_12\n      jumpi\n      jump(tag_2)\n    tag_13:\n      dup1\n      0x025e7c27\n      eq\n      tag_3\n      jumpi\n      dup1\n      0x12065fe0\n      eq\n      tag_4\n      jumpi\n      dup1\n      0x14de327f\n      eq\n      tag_5\n      jumpi\n      dup1\n      0x20c5429b\n      eq\n      tag_6\n      jumpi\n      dup1\n      0x2f54bf6e\n      eq\n      tag_7\n      jumpi\n      jump(tag_2)\n    tag_1:\n      jumpi(tag_2, calldatasize)\n        /* \"contracts/\\xe5\\xa4\\x9a\\xe9\\x92\\xb1\\xe5\\x8c\\x85.sol\":756:766  msg.sender */\n      caller\n        /* \"contracts/\\xe5\\xa4\\x9a\\xe9\\x92\\xb1\\xe5\\x8c\\x85.sol\":748:778  Deposit(msg.sender, msg.value) */\n      0xffffffffffffffffffffffffffffffffffffffff\n      and\n      0xe1fffcc4923d04b559f4d29a8bfc6cda04eb5b0d3c460751c2402c5c5cc9109c\n        /* \"contracts/\\xe5\\xa4\\x9a\\xe9\\x92\\xb1\\xe5\\x8c\\x85.sol\":768:777  msg.value */\n      callvalue\n        /* \"contracts/\\xe5\\xa4\\x9a\\xe9\\x92\\xb1\\xe5\\x8c\\x85.sol\":748:778  Deposit(msg.sender, msg.value) */\n      mload(0x40)\n      tag_16\n      swap2\n      swap1\n      tag_17\n      jump\t// in\n    tag_16:\n      mload(0x40)\n      dup1\n      swap2\n      sub\n      swap1\n      log2\n        /* \"contracts/\\xe5\\xa4\\x9a\\xe9\\x92\\xb1\\xe5\\x8c\\x85.sol\":59:3222  contract MultiSigWallet {... */\n      stop\n    tag_2:\n      0x00\n      dup1\n      revert\n        /* \"contracts/\\xe5\\xa4\\x9a\\xe9\\x92\\xb1\\xe5\\x8c\\x85.sol\":90:113  address[] public owners */\n    tag_3:\n      callvalue\n      dup1\n      iszero\n      tag_18\n      jumpi\n      0x00\n      dup1\n      revert\n    tag_18:\n      pop\n      tag_19\n      0x04\n      dup1\n      calldatasize\n      sub\n      dup2\n      add\n      swap1\n      tag_20\n      swap2\n      swap1\n      tag_21\n      jump\t// in\n    tag_20:\n      tag_22\n      jump\t// in\n    tag_19:\n      mload(0x40)\n      tag_23\n      swap2\n      swap1\n      tag_24\n      jump\t// in\n    tag_23:\n      mload(0x40)\n      dup1\n      swap2\n      sub\n      swap1\n      return\n        /* \"contracts/\\xe5\\xa4\\x9a\\xe9\\x92\\xb1\\xe5\\x8c\\x85.sol\":1855:1955  function getBalance() external view returns(uint256) {... */\n    tag_4:\n      callvalue\n      dup1\n      iszero\n      tag_25\n      jumpi\n      0x00\n      dup1\n      revert\n    tag_25:\n      pop\n      tag_26\n      tag_27\n      jump\t// in\n    tag_26:\n      mload(0x40)\n      tag_28\n      swap2\n      swap1\n      tag_17\n      jump\t// in\n    tag_28:\n      mload(0x40)\n      dup1\n      swap2\n      sub\n      swap1\n      return\n        /* \"contracts/\\xe5\\xa4\\x9a\\xe9\\x92\\xb1\\xe5\\x8c\\x85.sol\":1963:2258  function submit(address _to, uint256 _value, bytes calldata _data) external onlyOwner returns(uint256) {... */\n    tag_5:\n      callvalue\n      dup1\n      iszero\n      tag_29\n      jumpi\n      0x00\n      dup1\n      revert\n    tag_29:\n      pop\n      tag_30\n      0x04\n      dup1\n      calldatasize\n      sub\n      dup2\n      add\n      swap1\n      tag_31\n      swap2\n      swap1\n      tag_32\n      jump\t// in\n    tag_31:\n      tag_33\n      jump\t// in\n    tag_30:\n      mload(0x40)\n      tag_34\n      swap2\n      swap1\n      tag_17\n      jump\t// in\n    tag_34:\n      mload(0x40)\n      dup1\n      swap2\n      sub\n      swap1\n      return\n        /* \"contracts/\\xe5\\xa4\\x9a\\xe9\\x92\\xb1\\xe5\\x8c\\x85.sol\":2974:3219  function revoke(uint256 _txId) external onlyOwner txExists(_txId) notExecuted(_txId){... */\n    tag_6:\n      callvalue\n      dup1\n      iszero\n      tag_35\n      jumpi\n      0x00\n      dup1\n      revert\n    tag_35:\n      pop\n      tag_36\n      0x04\n      dup1\n      calldatasize\n      sub\n      dup2\n      add\n      swap1\n      tag_37\n      swap2\n      swap1\n      tag_21\n      jump\t// in\n    tag_37:\n      tag_38\n      jump\t// in\n    tag_36:\n      stop\n        /* \"contracts/\\xe5\\xa4\\x9a\\xe9\\x92\\xb1\\xe5\\x8c\\x85.sol\":120:159  mapping(address => bool) public isOwner */\n    tag_7:\n      callvalue\n      dup1\n      iszero\n      tag_39\n      jumpi\n      0x00\n      dup1\n      revert\n    tag_39:\n      pop\n      tag_40\n      0x04\n      dup1\n      calldatasize\n      sub\n      dup2\n      add\n      swap1\n      tag_41\n      swap2\n      swap1\n      tag_42\n      jump\t// in\n    tag_41:\n      tag_43\n      jump\t// in\n    tag_40:\n      mload(0x40)\n      tag_44\n      swap2\n      swap1\n      tag_45\n      jump\t// in\n    tag_44:\n      mload(0x40)\n      dup1\n      swap2\n      sub\n      swap1\n      return\n        /* \"contracts/\\xe5\\xa4\\x9a\\xe9\\x92\\xb1\\xe5\\x8c\\x85.sol\":360:420  mapping(uint256 => mapping(address => bool)) public approved */\n    tag_8:\n      callvalue\n      dup1\n      iszero\n      tag_46\n      jumpi\n      0x00\n      dup1\n      revert\n    tag_46:\n      pop\n      tag_47\n      0x04\n      dup1\n      calldatasize\n      sub\n      dup2\n      add\n      swap1\n      tag_48\n      swap2\n      swap1\n      tag_49\n      jump\t// in\n    tag_48:\n      tag_50\n      jump\t// in\n    tag_47:\n      mload(0x40)\n      tag_51\n      swap2\n      swap1\n      tag_45\n      jump\t// in\n    tag_51:\n      mload(0x40)\n      dup1\n      swap2\n      sub\n      swap1\n      return\n        /* \"contracts/\\xe5\\xa4\\x9a\\xe9\\x92\\xb1\\xe5\\x8c\\x85.sol\":320:353  Transaction[] public transactions */\n    tag_9:\n      callvalue\n      dup1\n      iszero\n      tag_52\n      jumpi\n      0x00\n      dup1\n      revert\n    tag_52:\n      pop\n      tag_53\n      0x04\n      dup1\n      calldatasize\n      sub\n      dup2\n      add\n      swap1\n      tag_54\n      swap2\n      swap1\n      tag_21\n      jump\t// in\n    tag_54:\n      tag_55\n      jump\t// in\n    tag_53:\n      mload(0x40)\n      tag_56\n      swap5\n      swap4\n      swap3\n      swap2\n      swap1\n      tag_57\n      jump\t// in\n    tag_56:\n      mload(0x40)\n      dup1\n      swap2\n      sub\n      swap1\n      return\n        /* \"contracts/\\xe5\\xa4\\x9a\\xe9\\x92\\xb1\\xe5\\x8c\\x85.sol\":2266:2702  function approve(uint256 _txId) external onlyOwner txExists(_txId) notExecuted(_txId) {... */\n    tag_10:\n      callvalue\n      dup1\n      iszero\n      tag_58\n      jumpi\n      0x00\n      dup1\n      revert\n    tag_58:\n      pop\n      tag_59\n      0x04\n      dup1\n      calldatasize\n      sub\n      dup2\n      add\n      swap1\n      tag_60\n      swap2\n      swap1\n      tag_21\n      jump\t// in\n    tag_60:\n      tag_61\n      jump\t// in\n    tag_59:\n      stop\n        /* \"contracts/\\xe5\\xa4\\x9a\\xe9\\x92\\xb1\\xe5\\x8c\\x85.sol\":2710:2966  function getApprovalCount(uint256 _txId) public view returns (uint256 count) {... */\n    tag_11:\n      callvalue\n      dup1\n      iszero\n      tag_62\n      jumpi\n      0x00\n      dup1\n      revert\n    tag_62:\n      pop\n      tag_63\n      0x04\n      dup1\n      calldatasize\n      sub\n      dup2\n      add\n      swap1\n      tag_64\n      swap2\n      swap1\n      tag_21\n      jump\t// in\n    tag_64:\n      tag_65\n      jump\t// in\n    tag_63:\n      mload(0x40)\n      tag_66\n      swap2\n      swap1\n      tag_17\n      jump\t// in\n    tag_66:\n      mload(0x40)\n      dup1\n      swap2\n      sub\n      swap1\n      return\n        /* \"contracts/\\xe5\\xa4\\x9a\\xe9\\x92\\xb1\\xe5\\x8c\\x85.sol\":166:189  uint256 public required */\n    tag_12:\n      callvalue\n      dup1\n      iszero\n      tag_67\n      jumpi\n      0x00\n      dup1\n      revert\n    tag_67:\n      pop\n      tag_68\n      tag_69\n      jump\t// in\n    tag_68:\n      mload(0x40)\n      tag_70\n      swap2\n      swap1\n      tag_17\n      jump\t// in\n    tag_70:\n      mload(0x40)\n      dup1\n      swap2\n      sub\n      swap1\n      return\n        /* \"contracts/\\xe5\\xa4\\x9a\\xe9\\x92\\xb1\\xe5\\x8c\\x85.sol\":90:113  address[] public owners */\n    tag_22:\n      0x00\n      dup2\n      dup2\n      sload\n      dup2\n      lt\n      tag_71\n      jumpi\n      0x00\n      dup1\n      revert\n    tag_71:\n      swap1\n      0x00\n      mstore\n      keccak256(0x00, 0x20)\n      add\n      0x00\n      swap2\n      pop\n      sload\n      swap1\n      0x0100\n      exp\n      swap1\n      div\n      0xffffffffffffffffffffffffffffffffffffffff\n      and\n      dup2\n      jump\t// out\n        /* \"contracts/\\xe5\\xa4\\x9a\\xe9\\x92\\xb1\\xe5\\x8c\\x85.sol\":1855:1955  function getBalance() external view returns(uint256) {... */\n    tag_27:\n        /* \"contracts/\\xe5\\xa4\\x9a\\xe9\\x92\\xb1\\xe5\\x8c\\x85.sol\":1899:1906  uint256 */\n      0x00\n        /* \"contracts/\\xe5\\xa4\\x9a\\xe9\\x92\\xb1\\xe5\\x8c\\x85.sol\":1926:1947  address(this).balance */\n      selfbalance\n        /* \"contracts/\\xe5\\xa4\\x9a\\xe9\\x92\\xb1\\xe5\\x8c\\x85.sol\":1919:1947  return address(this).balance */\n      swap1\n      pop\n        /* \"contracts/\\xe5\\xa4\\x9a\\xe9\\x92\\xb1\\xe5\\x8c\\x85.sol\":1855:1955  function getBalance() external view returns(uint256) {... */\n      swap1\n      jump\t// out\n        /* \"contracts/\\xe5\\xa4\\x9a\\xe9\\x92\\xb1\\xe5\\x8c\\x85.sol\":1963:2258  function submit(address _to, uint256 _value, bytes calldata _data) external onlyOwner returns(uint256) {... */\n    tag_33:\n        /* \"contracts/\\xe5\\xa4\\x9a\\xe9\\x92\\xb1\\xe5\\x8c\\x85.sol\":2057:2064  uint256 */\n      0x00\n        /* \"contracts/\\xe5\\xa4\\x9a\\xe9\\x92\\xb1\\xe5\\x8c\\x85.sol\":834:841  isOwner */\n      0x01\n        /* \"contracts/\\xe5\\xa4\\x9a\\xe9\\x92\\xb1\\xe5\\x8c\\x85.sol\":834:853  isOwner[msg.sender] */\n      0x00\n        /* \"contracts/\\xe5\\xa4\\x9a\\xe9\\x92\\xb1\\xe5\\x8c\\x85.sol\":842:852  msg.sender */\n      caller\n        /* \"contracts/\\xe5\\xa4\\x9a\\xe9\\x92\\xb1\\xe5\\x8c\\x85.sol\":834:853  isOwner[msg.sender] */\n      0xffffffffffffffffffffffffffffffffffffffff\n      and\n      0xffffffffffffffffffffffffffffffffffffffff\n      and\n      dup2\n      mstore\n      0x20\n      add\n      swap1\n      dup2\n      mstore\n      0x20\n      add\n      0x00\n      keccak256\n      0x00\n      swap1\n      sload\n      swap1\n      0x0100\n      exp\n      swap1\n      div\n      0xff\n      and\n        /* \"contracts/\\xe5\\xa4\\x9a\\xe9\\x92\\xb1\\xe5\\x8c\\x85.sol\":826:867  require(isOwner[msg.sender], \"not owner\") */\n      tag_75\n      jumpi\n      mload(0x40)\n      0x08c379a000000000000000000000000000000000000000000000000000000000\n      dup2\n      mstore\n      0x04\n      add\n      tag_76\n      swap1\n      tag_77\n      jump\t// in\n    tag_76:\n      mload(0x40)\n      dup1\n      swap2\n      sub\n      swap1\n      revert\n    tag_75:\n        /* \"contracts/\\xe5\\xa4\\x9a\\xe9\\x92\\xb1\\xe5\\x8c\\x85.sol\":2077:2089  transactions */\n      0x03\n        /* \"contracts/\\xe5\\xa4\\x9a\\xe9\\x92\\xb1\\xe5\\x8c\\x85.sol\":2095:2161  Transaction({to: _to, value: _value, data: _data, exected: false}) */\n      mload(0x40)\n      dup1\n      0x80\n      add\n      0x40\n      mstore\n      dup1\n        /* \"contracts/\\xe5\\xa4\\x9a\\xe9\\x92\\xb1\\xe5\\x8c\\x85.sol\":2112:2115  _to */\n      dup8\n        /* \"contracts/\\xe5\\xa4\\x9a\\xe9\\x92\\xb1\\xe5\\x8c\\x85.sol\":2095:2161  Transaction({to: _to, value: _value, data: _data, exected: false}) */\n      0xffffffffffffffffffffffffffffffffffffffff\n      and\n      dup2\n      mstore\n      0x20\n      add\n        /* \"contracts/\\xe5\\xa4\\x9a\\xe9\\x92\\xb1\\xe5\\x8c\\x85.sol\":2124:2130  _value */\n      dup7\n        /* \"contracts/\\xe5\\xa4\\x9a\\xe9\\x92\\xb1\\xe5\\x8c\\x85.sol\":2095:2161  Transaction({to: _to, value: _value, data: _data, exected: false}) */\n      dup2\n      mstore\n      0x20\n      add\n        /* \"contracts/\\xe5\\xa4\\x9a\\xe9\\x92\\xb1\\xe5\\x8c\\x85.sol\":2138:2143  _data */\n      dup6\n      dup6\n        /* \"contracts/\\xe5\\xa4\\x9a\\xe9\\x92\\xb1\\xe5\\x8c\\x85.sol\":2095:2161  Transaction({to: _to, value: _value, data: _data, exected: false}) */\n      dup1\n      dup1\n      0x1f\n      add\n      0x20\n      dup1\n      swap2\n      div\n      mul\n      0x20\n      add\n      mload(0x40)\n      swap1\n      dup2\n      add\n      0x40\n      mstore\n      dup1\n      swap4\n      swap3\n      swap2\n      swap1\n      dup2\n      dup2\n      mstore\n      0x20\n      add\n      dup4\n      dup4\n      dup1\n      dup3\n      dup5\n      calldatacopy\n      0x00\n      dup2\n      dup5\n      add\n      mstore\n      not(0x1f)\n      0x1f\n      dup3\n      add\n      and\n      swap1\n      pop\n      dup1\n      dup4\n      add\n      swap3\n      pop\n      pop\n      pop\n      pop\n      pop\n      pop\n      pop\n      dup2\n      mstore\n      0x20\n      add\n        /* \"contracts/\\xe5\\xa4\\x9a\\xe9\\x92\\xb1\\xe5\\x8c\\x85.sol\":2154:2159  false */\n      0x00\n        /* \"contracts/\\xe5\\xa4\\x9a\\xe9\\x92\\xb1\\xe5\\x8c\\x85.sol\":2095:2161  Transaction({to: _to, value: _value, data: _data, exected: false}) */\n      iszero\n      iszero\n      dup2\n      mstore\n      pop\n        /* \"contracts/\\xe5\\xa4\\x9a\\xe9\\x92\\xb1\\xe5\\x8c\\x85.sol\":2077:2162  transactions.push(Transaction({to: _to, value: _value, data: _data, exected: false})) */\n      swap1\n      dup1\n      0x01\n      dup2\n      sload\n      add\n      dup1\n      dup3\n      sstore\n      dup1\n      swap2\n      pop\n      pop\n      0x01\n      swap1\n      sub\n      swap1\n      0x00\n      mstore\n      keccak256(0x00, 0x20)\n      swap1\n      0x04\n      mul\n      add\n      0x00\n      swap1\n      swap2\n      swap1\n      swap2\n      swap1\n      swap2\n      pop\n      0x00\n      dup3\n      add\n      mload\n      dup2\n      0x00\n      add\n      exp(0x0100, 0x00)\n      dup2\n      sload\n      dup2\n      0xffffffffffffffffffffffffffffffffffffffff\n      mul\n      not\n      and\n      swap1\n      dup4\n      0xffffffffffffffffffffffffffffffffffffffff\n      and\n      mul\n      or\n      swap1\n      sstore\n      pop\n      0x20\n      dup3\n      add\n      mload\n      dup2\n      0x01\n      add\n      sstore\n      0x40\n      dup3\n      add\n      mload\n      dup2\n      0x02\n      add\n      swap1\n      dup2\n      tag_80\n      swap2\n      swap1\n      tag_81\n      jump\t// in\n    tag_80:\n      pop\n      0x60\n      dup3\n      add\n      mload\n      dup2\n      0x03\n      add\n      exp(0x0100, 0x00)\n      dup2\n      sload\n      dup2\n      0xff\n      mul\n      not\n      and\n      swap1\n      dup4\n      iszero\n      iszero\n      mul\n      or\n      swap1\n      sstore\n      pop\n      pop\n      pop\n        /* \"contracts/\\xe5\\xa4\\x9a\\xe9\\x92\\xb1\\xe5\\x8c\\x85.sol\":2207:2208  1 */\n      0x01\n        /* \"contracts/\\xe5\\xa4\\x9a\\xe9\\x92\\xb1\\xe5\\x8c\\x85.sol\":2185:2197  transactions */\n      0x03\n        /* \"contracts/\\xe5\\xa4\\x9a\\xe9\\x92\\xb1\\xe5\\x8c\\x85.sol\":2185:2204  transactions.length */\n      dup1\n      sload\n      swap1\n      pop\n        /* \"contracts/\\xe5\\xa4\\x9a\\xe9\\x92\\xb1\\xe5\\x8c\\x85.sol\":2185:2208  transactions.length - 1 */\n      tag_82\n      swap2\n      swap1\n      tag_83\n      jump\t// in\n    tag_82:\n        /* \"contracts/\\xe5\\xa4\\x9a\\xe9\\x92\\xb1\\xe5\\x8c\\x85.sol\":2178:2209  Submit(transactions.length - 1) */\n      0x08324b3d745b914e3abd4ffbfead91e3b78391a98c173202129215ab933adfbe\n      mload(0x40)\n      mload(0x40)\n      dup1\n      swap2\n      sub\n      swap1\n      log2\n        /* \"contracts/\\xe5\\xa4\\x9a\\xe9\\x92\\xb1\\xe5\\x8c\\x85.sol\":2249:2250  1 */\n      0x01\n        /* \"contracts/\\xe5\\xa4\\x9a\\xe9\\x92\\xb1\\xe5\\x8c\\x85.sol\":2227:2239  transactions */\n      0x03\n        /* \"contracts/\\xe5\\xa4\\x9a\\xe9\\x92\\xb1\\xe5\\x8c\\x85.sol\":2227:2246  transactions.length */\n      dup1\n      sload\n      swap1\n      pop\n        /* \"contracts/\\xe5\\xa4\\x9a\\xe9\\x92\\xb1\\xe5\\x8c\\x85.sol\":2227:2250  transactions.length - 1 */\n      tag_84\n      swap2\n      swap1\n      tag_83\n      jump\t// in\n    tag_84:\n        /* \"contracts/\\xe5\\xa4\\x9a\\xe9\\x92\\xb1\\xe5\\x8c\\x85.sol\":2220:2250  return transactions.length - 1 */\n      swap1\n      pop\n        /* \"contracts/\\xe5\\xa4\\x9a\\xe9\\x92\\xb1\\xe5\\x8c\\x85.sol\":1963:2258  function submit(address _to, uint256 _value, bytes calldata _data) external onlyOwner returns(uint256) {... */\n      swap5\n      swap4\n      pop\n      pop\n      pop\n      pop\n      jump\t// out\n        /* \"contracts/\\xe5\\xa4\\x9a\\xe9\\x92\\xb1\\xe5\\x8c\\x85.sol\":2974:3219  function revoke(uint256 _txId) external onlyOwner txExists(_txId) notExecuted(_txId){... */\n    tag_38:\n        /* \"contracts/\\xe5\\xa4\\x9a\\xe9\\x92\\xb1\\xe5\\x8c\\x85.sol\":834:841  isOwner */\n      0x01\n        /* \"contracts/\\xe5\\xa4\\x9a\\xe9\\x92\\xb1\\xe5\\x8c\\x85.sol\":834:853  isOwner[msg.sender] */\n      0x00\n        /* \"contracts/\\xe5\\xa4\\x9a\\xe9\\x92\\xb1\\xe5\\x8c\\x85.sol\":842:852  msg.sender */\n      caller\n        /* \"contracts/\\xe5\\xa4\\x9a\\xe9\\x92\\xb1\\xe5\\x8c\\x85.sol\":834:853  isOwner[msg.sender] */\n      0xffffffffffffffffffffffffffffffffffffffff\n      and\n      0xffffffffffffffffffffffffffffffffffffffff\n      and\n      dup2\n      mstore\n      0x20\n      add\n      swap1\n      dup2\n      mstore\n      0x20\n      add\n      0x00\n      keccak256\n      0x00\n      swap1\n      sload\n      swap1\n      0x0100\n      exp\n      swap1\n      div\n      0xff\n      and\n        /* \"contracts/\\xe5\\xa4\\x9a\\xe9\\x92\\xb1\\xe5\\x8c\\x85.sol\":826:867  require(isOwner[msg.sender], \"not owner\") */\n      tag_86\n      jumpi\n      mload(0x40)\n      0x08c379a000000000000000000000000000000000000000000000000000000000\n      dup2\n      mstore\n      0x04\n      add\n      tag_87\n      swap1\n      tag_77\n      jump\t// in\n    tag_87:\n      mload(0x40)\n      dup1\n      swap2\n      sub\n      swap1\n      revert\n    tag_86:\n        /* \"contracts/\\xe5\\xa4\\x9a\\xe9\\x92\\xb1\\xe5\\x8c\\x85.sol\":3033:3038  _txId */\n      dup1\n        /* \"contracts/\\xe5\\xa4\\x9a\\xe9\\x92\\xb1\\xe5\\x8c\\x85.sol\":955:967  transactions */\n      0x03\n        /* \"contracts/\\xe5\\xa4\\x9a\\xe9\\x92\\xb1\\xe5\\x8c\\x85.sol\":955:974  transactions.length */\n      dup1\n      sload\n      swap1\n      pop\n        /* \"contracts/\\xe5\\xa4\\x9a\\xe9\\x92\\xb1\\xe5\\x8c\\x85.sol\":947:952  _txId */\n      dup2\n        /* \"contracts/\\xe5\\xa4\\x9a\\xe9\\x92\\xb1\\xe5\\x8c\\x85.sol\":947:974  _txId < transactions.length */\n      lt\n        /* \"contracts/\\xe5\\xa4\\x9a\\xe9\\x92\\xb1\\xe5\\x8c\\x85.sol\":939:992  require(_txId < transactions.length, \"doesn't exist\") */\n      tag_89\n      jumpi\n      mload(0x40)\n      0x08c379a000000000000000000000000000000000000000000000000000000000\n      dup2\n      mstore\n      0x04\n      add\n      tag_90\n      swap1\n      tag_91\n      jump\t// in\n    tag_90:\n      mload(0x40)\n      dup1\n      swap2\n      sub\n      swap1\n      revert\n    tag_89:\n        /* \"contracts/\\xe5\\xa4\\x9a\\xe9\\x92\\xb1\\xe5\\x8c\\x85.sol\":3052:3057  _txId */\n      dup2\n        /* \"contracts/\\xe5\\xa4\\x9a\\xe9\\x92\\xb1\\xe5\\x8c\\x85.sol\":1203:1215  transactions */\n      0x03\n        /* \"contracts/\\xe5\\xa4\\x9a\\xe9\\x92\\xb1\\xe5\\x8c\\x85.sol\":1216:1221  _txId */\n      dup2\n        /* \"contracts/\\xe5\\xa4\\x9a\\xe9\\x92\\xb1\\xe5\\x8c\\x85.sol\":1203:1222  transactions[_txId] */\n      dup2\n      sload\n      dup2\n      lt\n      tag_93\n      jumpi\n      tag_94\n      tag_95\n      jump\t// in\n    tag_94:\n    tag_93:\n      swap1\n      0x00\n      mstore\n      keccak256(0x00, 0x20)\n      swap1\n      0x04\n      mul\n      add\n        /* \"contracts/\\xe5\\xa4\\x9a\\xe9\\x92\\xb1\\xe5\\x8c\\x85.sol\":1203:1230  transactions[_txId].exected */\n      0x03\n      add\n      0x00\n      swap1\n      sload\n      swap1\n      0x0100\n      exp\n      swap1\n      div\n      0xff\n      and\n        /* \"contracts/\\xe5\\xa4\\x9a\\xe9\\x92\\xb1\\xe5\\x8c\\x85.sol\":1202:1230  !transactions[_txId].exected */\n      iszero\n        /* \"contracts/\\xe5\\xa4\\x9a\\xe9\\x92\\xb1\\xe5\\x8c\\x85.sol\":1194:1248  require(!transactions[_txId].exected, \"tx is exected\") */\n      tag_97\n      jumpi\n      mload(0x40)\n      0x08c379a000000000000000000000000000000000000000000000000000000000\n      dup2\n      mstore\n      0x04\n      add\n      tag_98\n      swap1\n      tag_99\n      jump\t// in\n    tag_98:\n      mload(0x40)\n      dup1\n      swap2\n      sub\n      swap1\n      revert\n    tag_97:\n        /* \"contracts/\\xe5\\xa4\\x9a\\xe9\\x92\\xb1\\xe5\\x8c\\x85.sol\":3077:3085  approved */\n      0x04\n        /* \"contracts/\\xe5\\xa4\\x9a\\xe9\\x92\\xb1\\xe5\\x8c\\x85.sol\":3077:3092  approved[_txId] */\n      0x00\n        /* \"contracts/\\xe5\\xa4\\x9a\\xe9\\x92\\xb1\\xe5\\x8c\\x85.sol\":3086:3091  _txId */\n      dup5\n        /* \"contracts/\\xe5\\xa4\\x9a\\xe9\\x92\\xb1\\xe5\\x8c\\x85.sol\":3077:3092  approved[_txId] */\n      dup2\n      mstore\n      0x20\n      add\n      swap1\n      dup2\n      mstore\n      0x20\n      add\n      0x00\n      keccak256\n        /* \"contracts/\\xe5\\xa4\\x9a\\xe9\\x92\\xb1\\xe5\\x8c\\x85.sol\":3077:3104  approved[_txId][msg.sender] */\n      0x00\n        /* \"contracts/\\xe5\\xa4\\x9a\\xe9\\x92\\xb1\\xe5\\x8c\\x85.sol\":3093:3103  msg.sender */\n      caller\n        /* \"contracts/\\xe5\\xa4\\x9a\\xe9\\x92\\xb1\\xe5\\x8c\\x85.sol\":3077:3104  approved[_txId][msg.sender] */\n      0xffffffffffffffffffffffffffffffffffffffff\n      and\n      0xffffffffffffffffffffffffffffffffffffffff\n      and\n      dup2\n      mstore\n      0x20\n      add\n      swap1\n      dup2\n      mstore\n      0x20\n      add\n      0x00\n      keccak256\n      0x00\n      swap1\n      sload\n      swap1\n      0x0100\n      exp\n      swap1\n      div\n      0xff\n      and\n        /* \"contracts/\\xe5\\xa4\\x9a\\xe9\\x92\\xb1\\xe5\\x8c\\x85.sol\":3069:3124  require(approved[_txId][msg.sender], \"tx not approved\") */\n      tag_101\n      jumpi\n      mload(0x40)\n      0x08c379a000000000000000000000000000000000000000000000000000000000\n      dup2\n      mstore\n      0x04\n      add\n      tag_102\n      swap1\n      tag_103\n      jump\t// in\n    tag_102:\n      mload(0x40)\n      dup1\n      swap2\n      sub\n      swap1\n      revert\n    tag_101:\n        /* \"contracts/\\xe5\\xa4\\x9a\\xe9\\x92\\xb1\\xe5\\x8c\\x85.sol\":3165:3170  false */\n      0x00\n        /* \"contracts/\\xe5\\xa4\\x9a\\xe9\\x92\\xb1\\xe5\\x8c\\x85.sol\":3135:3143  approved */\n      0x04\n        /* \"contracts/\\xe5\\xa4\\x9a\\xe9\\x92\\xb1\\xe5\\x8c\\x85.sol\":3135:3150  approved[_txId] */\n      0x00\n        /* \"contracts/\\xe5\\xa4\\x9a\\xe9\\x92\\xb1\\xe5\\x8c\\x85.sol\":3144:3149  _txId */\n      dup6\n        /* \"contracts/\\xe5\\xa4\\x9a\\xe9\\x92\\xb1\\xe5\\x8c\\x85.sol\":3135:3150  approved[_txId] */\n      dup2\n      mstore\n      0x20\n      add\n      swap1\n      dup2\n      mstore\n      0x20\n      add\n      0x00\n      keccak256\n        /* \"contracts/\\xe5\\xa4\\x9a\\xe9\\x92\\xb1\\xe5\\x8c\\x85.sol\":3135:3162  approved[_txId][msg.sender] */\n      0x00\n        /* \"contracts/\\xe5\\xa4\\x9a\\xe9\\x92\\xb1\\xe5\\x8c\\x85.sol\":3151:3161  msg.sender */\n      caller\n        /* \"contracts/\\xe5\\xa4\\x9a\\xe9\\x92\\xb1\\xe5\\x8c\\x85.sol\":3135:3162  approved[_txId][msg.sender] */\n      0xffffffffffffffffffffffffffffffffffffffff\n      and\n      0xffffffffffffffffffffffffffffffffffffffff\n      and\n      dup2\n      mstore\n      0x20\n      add\n      swap1\n      dup2\n      mstore\n      0x20\n      add\n      0x00\n      keccak256\n      0x00\n        /* \"contracts/\\xe5\\xa4\\x9a\\xe9\\x92\\xb1\\xe5\\x8c\\x85.sol\":3135:3170  approved[_txId][msg.sender] = false */\n      0x0100\n      exp\n      dup2\n      sload\n      dup2\n      0xff\n      mul\n      not\n      and\n      swap1\n      dup4\n      iszero\n      iszero\n      mul\n      or\n      swap1\n      sstore\n      pop\n        /* \"contracts/\\xe5\\xa4\\x9a\\xe9\\x92\\xb1\\xe5\\x8c\\x85.sol\":3205:3210  _txId */\n      dup3\n        /* \"contracts/\\xe5\\xa4\\x9a\\xe9\\x92\\xb1\\xe5\\x8c\\x85.sol\":3193:3203  msg.sender */\n      caller\n        /* \"contracts/\\xe5\\xa4\\x9a\\xe9\\x92\\xb1\\xe5\\x8c\\x85.sol\":3186:3211  Revoke(msg.sender, _txId) */\n      0xffffffffffffffffffffffffffffffffffffffff\n      and\n      0xec9ab91322523c899ede7830ec9bfc992b5981cdcc27b91162fb23de5791117b\n      mload(0x40)\n      mload(0x40)\n      dup1\n      swap2\n      sub\n      swap1\n      log3\n        /* \"contracts/\\xe5\\xa4\\x9a\\xe9\\x92\\xb1\\xe5\\x8c\\x85.sol\":1003:1004  _ */\n      pop\n        /* \"contracts/\\xe5\\xa4\\x9a\\xe9\\x92\\xb1\\xe5\\x8c\\x85.sol\":878:879  _ */\n      pop\n        /* \"contracts/\\xe5\\xa4\\x9a\\xe9\\x92\\xb1\\xe5\\x8c\\x85.sol\":2974:3219  function revoke(uint256 _txId) external onlyOwner txExists(_txId) notExecuted(_txId){... */\n      pop\n      jump\t// out\n        /* \"contracts/\\xe5\\xa4\\x9a\\xe9\\x92\\xb1\\xe5\\x8c\\x85.sol\":120:159  mapping(address => bool) public isOwner */\n    tag_43:\n      mstore(0x20, 0x01)\n      dup1\n      0x00\n      mstore\n      keccak256(0x00, 0x40)\n      0x00\n      swap2\n      pop\n      sload\n      swap1\n      0x0100\n      exp\n      swap1\n      div\n      0xff\n      and\n      dup2\n      jump\t// out\n        /* \"contracts/\\xe5\\xa4\\x9a\\xe9\\x92\\xb1\\xe5\\x8c\\x85.sol\":360:420  mapping(uint256 => mapping(address => bool)) public approved */\n    tag_50:\n      mstore(0x20, 0x04)\n      dup2\n      0x00\n      mstore\n      mstore(0x20, keccak256(0x00, 0x40))\n      dup1\n      0x00\n      mstore\n      keccak256(0x00, 0x40)\n      0x00\n      swap2\n      pop\n      swap2\n      pop\n      swap1\n      sload\n      swap1\n      0x0100\n      exp\n      swap1\n      div\n      0xff\n      and\n      dup2\n      jump\t// out\n        /* \"contracts/\\xe5\\xa4\\x9a\\xe9\\x92\\xb1\\xe5\\x8c\\x85.sol\":320:353  Transaction[] public transactions */\n    tag_55:\n      0x03\n      dup2\n      dup2\n      sload\n      dup2\n      lt\n      tag_104\n      jumpi\n      0x00\n      dup1\n      revert\n    tag_104:\n      swap1\n      0x00\n      mstore\n      keccak256(0x00, 0x20)\n      swap1\n      0x04\n      mul\n      add\n      0x00\n      swap2\n      pop\n      swap1\n      pop\n      dup1\n      0x00\n      add\n      0x00\n      swap1\n      sload\n      swap1\n      0x0100\n      exp\n      swap1\n      div\n      0xffffffffffffffffffffffffffffffffffffffff\n      and\n      swap1\n      dup1\n      0x01\n      add\n      sload\n      swap1\n      dup1\n      0x02\n      add\n      dup1\n      sload\n      tag_106\n      swap1\n      tag_107\n      jump\t// in\n    tag_106:\n      dup1\n      0x1f\n      add\n      0x20\n      dup1\n      swap2\n      div\n      mul\n      0x20\n      add\n      mload(0x40)\n      swap1\n      dup2\n      add\n      0x40\n      mstore\n      dup1\n      swap3\n      swap2\n      swap1\n      dup2\n      dup2\n      mstore\n      0x20\n      add\n      dup3\n      dup1\n      sload\n      tag_108\n      swap1\n      tag_107\n      jump\t// in\n    tag_108:\n      dup1\n      iszero\n      tag_109\n      jumpi\n      dup1\n      0x1f\n      lt\n      tag_110\n      jumpi\n      0x0100\n      dup1\n      dup4\n      sload\n      div\n      mul\n      dup4\n      mstore\n      swap2\n      0x20\n      add\n      swap2\n      jump(tag_109)\n    tag_110:\n      dup3\n      add\n      swap2\n      swap1\n      0x00\n      mstore\n      keccak256(0x00, 0x20)\n      swap1\n    tag_111:\n      dup2\n      sload\n      dup2\n      mstore\n      swap1\n      0x01\n      add\n      swap1\n      0x20\n      add\n      dup1\n      dup4\n      gt\n      tag_111\n      jumpi\n      dup3\n      swap1\n      sub\n      0x1f\n      and\n      dup3\n      add\n      swap2\n    tag_109:\n      pop\n      pop\n      pop\n      pop\n      pop\n      swap1\n      dup1\n      0x03\n      add\n      0x00\n      swap1\n      sload\n      swap1\n      0x0100\n      exp\n      swap1\n      div\n      0xff\n      and\n      swap1\n      pop\n      dup5\n      jump\t// out\n        /* \"contracts/\\xe5\\xa4\\x9a\\xe9\\x92\\xb1\\xe5\\x8c\\x85.sol\":2266:2702  function approve(uint256 _txId) external onlyOwner txExists(_txId) notExecuted(_txId) {... */\n    tag_61:\n        /* \"contracts/\\xe5\\xa4\\x9a\\xe9\\x92\\xb1\\xe5\\x8c\\x85.sol\":834:841  isOwner */\n      0x01\n        /* \"contracts/\\xe5\\xa4\\x9a\\xe9\\x92\\xb1\\xe5\\x8c\\x85.sol\":834:853  isOwner[msg.sender] */\n      0x00\n        /* \"contracts/\\xe5\\xa4\\x9a\\xe9\\x92\\xb1\\xe5\\x8c\\x85.sol\":842:852  msg.sender */\n      caller\n        /* \"contracts/\\xe5\\xa4\\x9a\\xe9\\x92\\xb1\\xe5\\x8c\\x85.sol\":834:853  isOwner[msg.sender] */\n      0xffffffffffffffffffffffffffffffffffffffff\n      and\n      0xffffffffffffffffffffffffffffffffffffffff\n      and\n      dup2\n      mstore\n      0x20\n      add\n      swap1\n      dup2\n      mstore\n      0x20\n      add\n      0x00\n      keccak256\n      0x00\n      swap1\n      sload\n      swap1\n      0x0100\n      exp\n      swap1\n      div\n      0xff\n      and\n        /* \"contracts/\\xe5\\xa4\\x9a\\xe9\\x92\\xb1\\xe5\\x8c\\x85.sol\":826:867  require(isOwner[msg.sender], \"not owner\") */\n      tag_113\n      jumpi\n      mload(0x40)\n      0x08c379a000000000000000000000000000000000000000000000000000000000\n      dup2\n      mstore\n      0x04\n      add\n      tag_114\n      swap1\n      tag_77\n      jump\t// in\n    tag_114:\n      mload(0x40)\n      dup1\n      swap2\n      sub\n      swap1\n      revert\n    tag_113:\n        /* \"contracts/\\xe5\\xa4\\x9a\\xe9\\x92\\xb1\\xe5\\x8c\\x85.sol\":2326:2331  _txId */\n      dup1\n        /* \"contracts/\\xe5\\xa4\\x9a\\xe9\\x92\\xb1\\xe5\\x8c\\x85.sol\":955:967  transactions */\n      0x03\n        /* \"contracts/\\xe5\\xa4\\x9a\\xe9\\x92\\xb1\\xe5\\x8c\\x85.sol\":955:974  transactions.length */\n      dup1\n      sload\n      swap1\n      pop\n        /* \"contracts/\\xe5\\xa4\\x9a\\xe9\\x92\\xb1\\xe5\\x8c\\x85.sol\":947:952  _txId */\n      dup2\n        /* \"contracts/\\xe5\\xa4\\x9a\\xe9\\x92\\xb1\\xe5\\x8c\\x85.sol\":947:974  _txId < transactions.length */\n      lt\n        /* \"contracts/\\xe5\\xa4\\x9a\\xe9\\x92\\xb1\\xe5\\x8c\\x85.sol\":939:992  require(_txId < transactions.length, \"doesn't exist\") */\n      tag_116\n      jumpi\n      mload(0x40)\n      0x08c379a000000000000000000000000000000000000000000000000000000000\n      dup2\n      mstore\n      0x04\n      add\n      tag_117\n      swap1\n      tag_91\n      jump\t// in\n    tag_117:\n      mload(0x40)\n      dup1\n      swap2\n      sub\n      swap1\n      revert\n    tag_116:\n        /* \"contracts/\\xe5\\xa4\\x9a\\xe9\\x92\\xb1\\xe5\\x8c\\x85.sol\":2345:2350  _txId */\n      dup2\n        /* \"contracts/\\xe5\\xa4\\x9a\\xe9\\x92\\xb1\\xe5\\x8c\\x85.sol\":1203:1215  transactions */\n      0x03\n        /* \"contracts/\\xe5\\xa4\\x9a\\xe9\\x92\\xb1\\xe5\\x8c\\x85.sol\":1216:1221  _txId */\n      dup2\n        /* \"contracts/\\xe5\\xa4\\x9a\\xe9\\x92\\xb1\\xe5\\x8c\\x85.sol\":1203:1222  transactions[_txId] */\n      dup2\n      sload\n      dup2\n      lt\n      tag_119\n      jumpi\n      tag_120\n      tag_95\n      jump\t// in\n    tag_120:\n    tag_119:\n      swap1\n      0x00\n      mstore\n      keccak256(0x00, 0x20)\n      swap1\n      0x04\n      mul\n      add\n        /* \"contracts/\\xe5\\xa4\\x9a\\xe9\\x92\\xb1\\xe5\\x8c\\x85.sol\":1203:1230  transactions[_txId].exected */\n      0x03\n      add\n      0x00\n      swap1\n      sload\n      swap1\n      0x0100\n      exp\n      swap1\n      div\n      0xff\n      and\n        /* \"contracts/\\xe5\\xa4\\x9a\\xe9\\x92\\xb1\\xe5\\x8c\\x85.sol\":1202:1230  !transactions[_txId].exected */\n      iszero\n        /* \"contracts/\\xe5\\xa4\\x9a\\xe9\\x92\\xb1\\xe5\\x8c\\x85.sol\":1194:1248  require(!transactions[_txId].exected, \"tx is exected\") */\n      tag_122\n      jumpi\n      mload(0x40)\n      0x08c379a000000000000000000000000000000000000000000000000000000000\n      dup2\n      mstore\n      0x04\n      add\n      tag_123\n      swap1\n      tag_99\n      jump\t// in\n    tag_123:\n      mload(0x40)\n      dup1\n      swap2\n      sub\n      swap1\n      revert\n    tag_122:\n        /* \"contracts/\\xe5\\xa4\\x9a\\xe9\\x92\\xb1\\xe5\\x8c\\x85.sol\":2398:2406  required */\n      sload(0x02)\n        /* \"contracts/\\xe5\\xa4\\x9a\\xe9\\x92\\xb1\\xe5\\x8c\\x85.sol\":2371:2394  getApprovalCount(_txId) */\n      tag_125\n        /* \"contracts/\\xe5\\xa4\\x9a\\xe9\\x92\\xb1\\xe5\\x8c\\x85.sol\":2388:2393  _txId */\n      dup5\n        /* \"contracts/\\xe5\\xa4\\x9a\\xe9\\x92\\xb1\\xe5\\x8c\\x85.sol\":2371:2387  getApprovalCount */\n      tag_65\n        /* \"contracts/\\xe5\\xa4\\x9a\\xe9\\x92\\xb1\\xe5\\x8c\\x85.sol\":2371:2394  getApprovalCount(_txId) */\n      jump\t// in\n    tag_125:\n        /* \"contracts/\\xe5\\xa4\\x9a\\xe9\\x92\\xb1\\xe5\\x8c\\x85.sol\":2371:2406  getApprovalCount(_txId) >= required */\n      lt\n      iszero\n        /* \"contracts/\\xe5\\xa4\\x9a\\xe9\\x92\\xb1\\xe5\\x8c\\x85.sol\":2363:2431  require(getApprovalCount(_txId) >= required, \"approvals < required\") */\n      tag_126\n      jumpi\n      mload(0x40)\n      0x08c379a000000000000000000000000000000000000000000000000000000000\n      dup2\n      mstore\n      0x04\n      add\n      tag_127\n      swap1\n      tag_128\n      jump\t// in\n    tag_127:\n      mload(0x40)\n      dup1\n      swap2\n      sub\n      swap1\n      revert\n    tag_126:\n        /* \"contracts/\\xe5\\xa4\\x9a\\xe9\\x92\\xb1\\xe5\\x8c\\x85.sol\":2442:2473  Transaction storage transaction */\n      0x00\n        /* \"contracts/\\xe5\\xa4\\x9a\\xe9\\x92\\xb1\\xe5\\x8c\\x85.sol\":2476:2488  transactions */\n      0x03\n        /* \"contracts/\\xe5\\xa4\\x9a\\xe9\\x92\\xb1\\xe5\\x8c\\x85.sol\":2489:2494  _txId */\n      dup5\n        /* \"contracts/\\xe5\\xa4\\x9a\\xe9\\x92\\xb1\\xe5\\x8c\\x85.sol\":2476:2495  transactions[_txId] */\n      dup2\n      sload\n      dup2\n      lt\n      tag_129\n      jumpi\n      tag_130\n      tag_95\n      jump\t// in\n    tag_130:\n    tag_129:\n      swap1\n      0x00\n      mstore\n      keccak256(0x00, 0x20)\n      swap1\n      0x04\n      mul\n      add\n        /* \"contracts/\\xe5\\xa4\\x9a\\xe9\\x92\\xb1\\xe5\\x8c\\x85.sol\":2442:2495  Transaction storage transaction = transactions[_txId] */\n      swap1\n      pop\n        /* \"contracts/\\xe5\\xa4\\x9a\\xe9\\x92\\xb1\\xe5\\x8c\\x85.sol\":2528:2532  true */\n      0x01\n        /* \"contracts/\\xe5\\xa4\\x9a\\xe9\\x92\\xb1\\xe5\\x8c\\x85.sol\":2506:2517  transaction */\n      dup2\n        /* \"contracts/\\xe5\\xa4\\x9a\\xe9\\x92\\xb1\\xe5\\x8c\\x85.sol\":2506:2525  transaction.exected */\n      0x03\n      add\n      0x00\n        /* \"contracts/\\xe5\\xa4\\x9a\\xe9\\x92\\xb1\\xe5\\x8c\\x85.sol\":2506:2532  transaction.exected = true */\n      0x0100\n      exp\n      dup2\n      sload\n      dup2\n      0xff\n      mul\n      not\n      and\n      swap1\n      dup4\n      iszero\n      iszero\n      mul\n      or\n      swap1\n      sstore\n      pop\n        /* \"contracts/\\xe5\\xa4\\x9a\\xe9\\x92\\xb1\\xe5\\x8c\\x85.sol\":2544:2556  bool success */\n      0x00\n        /* \"contracts/\\xe5\\xa4\\x9a\\xe9\\x92\\xb1\\xe5\\x8c\\x85.sol\":2561:2572  transaction */\n      dup2\n        /* \"contracts/\\xe5\\xa4\\x9a\\xe9\\x92\\xb1\\xe5\\x8c\\x85.sol\":2561:2575  transaction.to */\n      0x00\n      add\n      0x00\n      swap1\n      sload\n      swap1\n      0x0100\n      exp\n      swap1\n      div\n      0xffffffffffffffffffffffffffffffffffffffff\n      and\n        /* \"contracts/\\xe5\\xa4\\x9a\\xe9\\x92\\xb1\\xe5\\x8c\\x85.sol\":2561:2580  transaction.to.call */\n      0xffffffffffffffffffffffffffffffffffffffff\n      and\n        /* \"contracts/\\xe5\\xa4\\x9a\\xe9\\x92\\xb1\\xe5\\x8c\\x85.sol\":2588:2599  transaction */\n      dup3\n        /* \"contracts/\\xe5\\xa4\\x9a\\xe9\\x92\\xb1\\xe5\\x8c\\x85.sol\":2588:2605  transaction.value */\n      0x01\n      add\n      sload\n        /* \"contracts/\\xe5\\xa4\\x9a\\xe9\\x92\\xb1\\xe5\\x8c\\x85.sol\":2607:2618  transaction */\n      dup4\n        /* \"contracts/\\xe5\\xa4\\x9a\\xe9\\x92\\xb1\\xe5\\x8c\\x85.sol\":2607:2623  transaction.data */\n      0x02\n      add\n        /* \"contracts/\\xe5\\xa4\\x9a\\xe9\\x92\\xb1\\xe5\\x8c\\x85.sol\":2561:2624  transaction.to.call{value: transaction.value}(transaction.data) */\n      mload(0x40)\n      tag_132\n      swap2\n      swap1\n      tag_133\n      jump\t// in\n    tag_132:\n      0x00\n      mload(0x40)\n      dup1\n      dup4\n      sub\n      dup2\n      dup6\n      dup8\n      gas\n      call\n      swap3\n      pop\n      pop\n      pop\n      returndatasize\n      dup1\n      0x00\n      dup2\n      eq\n      tag_136\n      jumpi\n      mload(0x40)\n      swap2\n      pop\n      and(add(returndatasize, 0x3f), not(0x1f))\n      dup3\n      add\n      0x40\n      mstore\n      returndatasize\n      dup3\n      mstore\n      returndatasize\n      0x00\n      0x20\n      dup5\n      add\n      returndatacopy\n      jump(tag_135)\n    tag_136:\n      0x60\n      swap2\n      pop\n    tag_135:\n      pop\n        /* \"contracts/\\xe5\\xa4\\x9a\\xe9\\x92\\xb1\\xe5\\x8c\\x85.sol\":2543:2624  (bool success,) = transaction.to.call{value: transaction.value}(transaction.data) */\n      pop\n      swap1\n      pop\n        /* \"contracts/\\xe5\\xa4\\x9a\\xe9\\x92\\xb1\\xe5\\x8c\\x85.sol\":2643:2650  success */\n      dup1\n        /* \"contracts/\\xe5\\xa4\\x9a\\xe9\\x92\\xb1\\xe5\\x8c\\x85.sol\":2635:2664  require(success, \"tx failed\") */\n      tag_137\n      jumpi\n      mload(0x40)\n      0x08c379a000000000000000000000000000000000000000000000000000000000\n      dup2\n      mstore\n      0x04\n      add\n      tag_138\n      swap1\n      tag_139\n      jump\t// in\n    tag_138:\n      mload(0x40)\n      dup1\n      swap2\n      sub\n      swap1\n      revert\n    tag_137:\n        /* \"contracts/\\xe5\\xa4\\x9a\\xe9\\x92\\xb1\\xe5\\x8c\\x85.sol\":2688:2693  _txId */\n      dup5\n        /* \"contracts/\\xe5\\xa4\\x9a\\xe9\\x92\\xb1\\xe5\\x8c\\x85.sol\":2680:2694  Execute(_txId) */\n      0xddb556f1d2c1ec821e910b019d3685b229db152a0ecd517ca7e24b8bd7139289\n      mload(0x40)\n      mload(0x40)\n      dup1\n      swap2\n      sub\n      swap1\n      log2\n        /* \"contracts/\\xe5\\xa4\\x9a\\xe9\\x92\\xb1\\xe5\\x8c\\x85.sol\":2352:2702  {... */\n      pop\n      pop\n        /* \"contracts/\\xe5\\xa4\\x9a\\xe9\\x92\\xb1\\xe5\\x8c\\x85.sol\":1003:1004  _ */\n      pop\n        /* \"contracts/\\xe5\\xa4\\x9a\\xe9\\x92\\xb1\\xe5\\x8c\\x85.sol\":878:879  _ */\n      pop\n        /* \"contracts/\\xe5\\xa4\\x9a\\xe9\\x92\\xb1\\xe5\\x8c\\x85.sol\":2266:2702  function approve(uint256 _txId) external onlyOwner txExists(_txId) notExecuted(_txId) {... */\n      pop\n      jump\t// out\n        /* \"contracts/\\xe5\\xa4\\x9a\\xe9\\x92\\xb1\\xe5\\x8c\\x85.sol\":2710:2966  function getApprovalCount(uint256 _txId) public view returns (uint256 count) {... */\n    tag_65:\n        /* \"contracts/\\xe5\\xa4\\x9a\\xe9\\x92\\xb1\\xe5\\x8c\\x85.sol\":2772:2785  uint256 count */\n      0x00\n        /* \"contracts/\\xe5\\xa4\\x9a\\xe9\\x92\\xb1\\xe5\\x8c\\x85.sol\":2802:2815  uint256 index */\n      dup1\n        /* \"contracts/\\xe5\\xa4\\x9a\\xe9\\x92\\xb1\\xe5\\x8c\\x85.sol\":2818:2819  0 */\n      0x00\n        /* \"contracts/\\xe5\\xa4\\x9a\\xe9\\x92\\xb1\\xe5\\x8c\\x85.sol\":2802:2819  uint256 index = 0 */\n      swap1\n      pop\n        /* \"contracts/\\xe5\\xa4\\x9a\\xe9\\x92\\xb1\\xe5\\x8c\\x85.sol\":2798:2959  for(uint256 index = 0; index < owners.length; index++) {... */\n    tag_141:\n        /* \"contracts/\\xe5\\xa4\\x9a\\xe9\\x92\\xb1\\xe5\\x8c\\x85.sol\":2829:2835  owners */\n      0x00\n        /* \"contracts/\\xe5\\xa4\\x9a\\xe9\\x92\\xb1\\xe5\\x8c\\x85.sol\":2829:2842  owners.length */\n      dup1\n      sload\n      swap1\n      pop\n        /* \"contracts/\\xe5\\xa4\\x9a\\xe9\\x92\\xb1\\xe5\\x8c\\x85.sol\":2821:2826  index */\n      dup2\n        /* \"contracts/\\xe5\\xa4\\x9a\\xe9\\x92\\xb1\\xe5\\x8c\\x85.sol\":2821:2842  index < owners.length */\n      lt\n        /* \"contracts/\\xe5\\xa4\\x9a\\xe9\\x92\\xb1\\xe5\\x8c\\x85.sol\":2798:2959  for(uint256 index = 0; index < owners.length; index++) {... */\n      iszero\n      tag_142\n      jumpi\n        /* \"contracts/\\xe5\\xa4\\x9a\\xe9\\x92\\xb1\\xe5\\x8c\\x85.sol\":2871:2879  approved */\n      0x04\n        /* \"contracts/\\xe5\\xa4\\x9a\\xe9\\x92\\xb1\\xe5\\x8c\\x85.sol\":2871:2886  approved[_txId] */\n      0x00\n        /* \"contracts/\\xe5\\xa4\\x9a\\xe9\\x92\\xb1\\xe5\\x8c\\x85.sol\":2880:2885  _txId */\n      dup5\n        /* \"contracts/\\xe5\\xa4\\x9a\\xe9\\x92\\xb1\\xe5\\x8c\\x85.sol\":2871:2886  approved[_txId] */\n      dup2\n      mstore\n      0x20\n      add\n      swap1\n      dup2\n      mstore\n      0x20\n      add\n      0x00\n      keccak256\n        /* \"contracts/\\xe5\\xa4\\x9a\\xe9\\x92\\xb1\\xe5\\x8c\\x85.sol\":2871:2901  approved[_txId][owners[index]] */\n      0x00\n        /* \"contracts/\\xe5\\xa4\\x9a\\xe9\\x92\\xb1\\xe5\\x8c\\x85.sol\":2887:2893  owners */\n      dup1\n        /* \"contracts/\\xe5\\xa4\\x9a\\xe9\\x92\\xb1\\xe5\\x8c\\x85.sol\":2894:2899  index */\n      dup4\n        /* \"contracts/\\xe5\\xa4\\x9a\\xe9\\x92\\xb1\\xe5\\x8c\\x85.sol\":2887:2900  owners[index] */\n      dup2\n      sload\n      dup2\n      lt\n      tag_144\n      jumpi\n      tag_145\n      tag_95\n      jump\t// in\n    tag_145:\n    tag_144:\n      swap1\n      0x00\n      mstore\n      keccak256(0x00, 0x20)\n      add\n      0x00\n      swap1\n      sload\n      swap1\n      0x0100\n      exp\n      swap1\n      div\n      0xffffffffffffffffffffffffffffffffffffffff\n      and\n        /* \"contracts/\\xe5\\xa4\\x9a\\xe9\\x92\\xb1\\xe5\\x8c\\x85.sol\":2871:2901  approved[_txId][owners[index]] */\n      0xffffffffffffffffffffffffffffffffffffffff\n      and\n      0xffffffffffffffffffffffffffffffffffffffff\n      and\n      dup2\n      mstore\n      0x20\n      add\n      swap1\n      dup2\n      mstore\n      0x20\n      add\n      0x00\n      keccak256\n      0x00\n      swap1\n      sload\n      swap1\n      0x0100\n      exp\n      swap1\n      div\n      0xff\n      and\n        /* \"contracts/\\xe5\\xa4\\x9a\\xe9\\x92\\xb1\\xe5\\x8c\\x85.sol\":2868:2948  if(approved[_txId][owners[index]]) {... */\n      iszero\n      tag_147\n      jumpi\n        /* \"contracts/\\xe5\\xa4\\x9a\\xe9\\x92\\xb1\\xe5\\x8c\\x85.sol\":2931:2932  1 */\n      0x01\n        /* \"contracts/\\xe5\\xa4\\x9a\\xe9\\x92\\xb1\\xe5\\x8c\\x85.sol\":2922:2932  count += 1 */\n      dup3\n      tag_148\n      swap2\n      swap1\n      tag_149\n      jump\t// in\n    tag_148:\n      swap2\n      pop\n        /* \"contracts/\\xe5\\xa4\\x9a\\xe9\\x92\\xb1\\xe5\\x8c\\x85.sol\":2868:2948  if(approved[_txId][owners[index]]) {... */\n    tag_147:\n        /* \"contracts/\\xe5\\xa4\\x9a\\xe9\\x92\\xb1\\xe5\\x8c\\x85.sol\":2844:2851  index++ */\n      dup1\n      dup1\n      0x01\n      add\n      swap2\n      pop\n      pop\n        /* \"contracts/\\xe5\\xa4\\x9a\\xe9\\x92\\xb1\\xe5\\x8c\\x85.sol\":2798:2959  for(uint256 index = 0; index < owners.length; index++) {... */\n      jump(tag_141)\n    tag_142:\n      pop\n        /* \"contracts/\\xe5\\xa4\\x9a\\xe9\\x92\\xb1\\xe5\\x8c\\x85.sol\":2710:2966  function getApprovalCount(uint256 _txId) public view returns (uint256 count) {... */\n      swap2\n      swap1\n      pop\n      jump\t// out\n        /* \"contracts/\\xe5\\xa4\\x9a\\xe9\\x92\\xb1\\xe5\\x8c\\x85.sol\":166:189  uint256 public required */\n    tag_69:\n      sload(0x02)\n      dup2\n      jump\t// out\n        /* \"#utility.yul\":7:84   */\n    tag_150:\n        /* \"#utility.yul\":44:51   */\n      0x00\n        /* \"#utility.yul\":73:78   */\n      dup2\n        /* \"#utility.yul\":62:78   */\n      swap1\n      pop\n        /* \"#utility.yul\":7:84   */\n      swap2\n      swap1\n      pop\n      jump\t// out\n        /* \"#utility.yul\":90:208   */\n    tag_151:\n        /* \"#utility.yul\":177:201   */\n      tag_209\n        /* \"#utility.yul\":195:200   */\n      dup2\n        /* \"#utility.yul\":177:201   */\n      tag_150\n      jump\t// in\n    tag_209:\n        /* \"#utility.yul\":172:175   */\n      dup3\n        /* \"#utility.yul\":165:202   */\n      mstore\n        /* \"#utility.yul\":90:208   */\n      pop\n      pop\n      jump\t// out\n        /* \"#utility.yul\":214:436   */\n    tag_17:\n        /* \"#utility.yul\":307:311   */\n      0x00\n        /* \"#utility.yul\":345:347   */\n      0x20\n        /* \"#utility.yul\":334:343   */\n      dup3\n        /* \"#utility.yul\":330:348   */\n      add\n        /* \"#utility.yul\":322:348   */\n      swap1\n      pop\n        /* \"#utility.yul\":358:429   */\n      tag_211\n        /* \"#utility.yul\":426:427   */\n      0x00\n        /* \"#utility.yul\":415:424   */\n      dup4\n        /* \"#utility.yul\":411:428   */\n      add\n        /* \"#utility.yul\":402:408   */\n      dup5\n        /* \"#utility.yul\":358:429   */\n      tag_151\n      jump\t// in\n    tag_211:\n        /* \"#utility.yul\":214:436   */\n      swap3\n      swap2\n      pop\n      pop\n      jump\t// out\n        /* \"#utility.yul\":523:640   */\n    tag_153:\n        /* \"#utility.yul\":632:633   */\n      0x00\n        /* \"#utility.yul\":629:630   */\n      dup1\n        /* \"#utility.yul\":622:634   */\n      revert\n        /* \"#utility.yul\":646:763   */\n    tag_154:\n        /* \"#utility.yul\":755:756   */\n      0x00\n        /* \"#utility.yul\":752:753   */\n      dup1\n        /* \"#utility.yul\":745:757   */\n      revert\n        /* \"#utility.yul\":769:891   */\n    tag_155:\n        /* \"#utility.yul\":842:866   */\n      tag_216\n        /* \"#utility.yul\":860:865   */\n      dup2\n        /* \"#utility.yul\":842:866   */\n      tag_150\n      jump\t// in\n    tag_216:\n        /* \"#utility.yul\":835:840   */\n      dup2\n        /* \"#utility.yul\":832:867   */\n      eq\n        /* \"#utility.yul\":822:885   */\n      tag_217\n      jumpi\n        /* \"#utility.yul\":881:882   */\n      0x00\n        /* \"#utility.yul\":878:879   */\n      dup1\n        /* \"#utility.yul\":871:883   */\n      revert\n        /* \"#utility.yul\":822:885   */\n    tag_217:\n        /* \"#utility.yul\":769:891   */\n      pop\n      jump\t// out\n        /* \"#utility.yul\":897:1036   */\n    tag_156:\n        /* \"#utility.yul\":943:948   */\n      0x00\n        /* \"#utility.yul\":981:987   */\n      dup2\n        /* \"#utility.yul\":968:988   */\n      calldataload\n        /* \"#utility.yul\":959:988   */\n      swap1\n      pop\n        /* \"#utility.yul\":997:1030   */\n      tag_219\n        /* \"#utility.yul\":1024:1029   */\n      dup2\n        /* \"#utility.yul\":997:1030   */\n      tag_155\n      jump\t// in\n    tag_219:\n        /* \"#utility.yul\":897:1036   */\n      swap3\n      swap2\n      pop\n      pop\n      jump\t// out\n        /* \"#utility.yul\":1042:1371   */\n    tag_21:\n        /* \"#utility.yul\":1101:1107   */\n      0x00\n        /* \"#utility.yul\":1150:1152   */\n      0x20\n        /* \"#utility.yul\":1138:1147   */\n      dup3\n        /* \"#utility.yul\":1129:1136   */\n      dup5\n        /* \"#utility.yul\":1125:1148   */\n      sub\n        /* \"#utility.yul\":1121:1153   */\n      slt\n        /* \"#utility.yul\":1118:1237   */\n      iszero\n      tag_221\n      jumpi\n        /* \"#utility.yul\":1156:1235   */\n      tag_222\n      tag_153\n      jump\t// in\n    tag_222:\n        /* \"#utility.yul\":1118:1237   */\n    tag_221:\n        /* \"#utility.yul\":1276:1277   */\n      0x00\n        /* \"#utility.yul\":1301:1354   */\n      tag_223\n        /* \"#utility.yul\":1346:1353   */\n      dup5\n        /* \"#utility.yul\":1337:1343   */\n      dup3\n        /* \"#utility.yul\":1326:1335   */\n      dup6\n        /* \"#utility.yul\":1322:1344   */\n      add\n        /* \"#utility.yul\":1301:1354   */\n      tag_156\n      jump\t// in\n    tag_223:\n        /* \"#utility.yul\":1291:1354   */\n      swap2\n      pop\n        /* \"#utility.yul\":1247:1364   */\n      pop\n        /* \"#utility.yul\":1042:1371   */\n      swap3\n      swap2\n      pop\n      pop\n      jump\t// out\n        /* \"#utility.yul\":1377:1503   */\n    tag_157:\n        /* \"#utility.yul\":1414:1421   */\n      0x00\n        /* \"#utility.yul\":1454:1496   */\n      0xffffffffffffffffffffffffffffffffffffffff\n        /* \"#utility.yul\":1447:1452   */\n      dup3\n        /* \"#utility.yul\":1443:1497   */\n      and\n        /* \"#utility.yul\":1432:1497   */\n      swap1\n      pop\n        /* \"#utility.yul\":1377:1503   */\n      swap2\n      swap1\n      pop\n      jump\t// out\n        /* \"#utility.yul\":1509:1605   */\n    tag_158:\n        /* \"#utility.yul\":1546:1553   */\n      0x00\n        /* \"#utility.yul\":1575:1599   */\n      tag_226\n        /* \"#utility.yul\":1593:1598   */\n      dup3\n        /* \"#utility.yul\":1575:1599   */\n      tag_157\n      jump\t// in\n    tag_226:\n        /* \"#utility.yul\":1564:1599   */\n      swap1\n      pop\n        /* \"#utility.yul\":1509:1605   */\n      swap2\n      swap1\n      pop\n      jump\t// out\n        /* \"#utility.yul\":1611:1729   */\n    tag_159:\n        /* \"#utility.yul\":1698:1722   */\n      tag_228\n        /* \"#utility.yul\":1716:1721   */\n      dup2\n        /* \"#utility.yul\":1698:1722   */\n      tag_158\n      jump\t// in\n    tag_228:\n        /* \"#utility.yul\":1693:1696   */\n      dup3\n        /* \"#utility.yul\":1686:1723   */\n      mstore\n        /* \"#utility.yul\":1611:1729   */\n      pop\n      pop\n      jump\t// out\n        /* \"#utility.yul\":1735:1957   */\n    tag_24:\n        /* \"#utility.yul\":1828:1832   */\n      0x00\n        /* \"#utility.yul\":1866:1868   */\n      0x20\n        /* \"#utility.yul\":1855:1864   */\n      dup3\n        /* \"#utility.yul\":1851:1869   */\n      add\n        /* \"#utility.yul\":1843:1869   */\n      swap1\n      pop\n        /* \"#utility.yul\":1879:1950   */\n      tag_230\n        /* \"#utility.yul\":1947:1948   */\n      0x00\n        /* \"#utility.yul\":1936:1945   */\n      dup4\n        /* \"#utility.yul\":1932:1949   */\n      add\n        /* \"#utility.yul\":1923:1929   */\n      dup5\n        /* \"#utility.yul\":1879:1950   */\n      tag_159\n      jump\t// in\n    tag_230:\n        /* \"#utility.yul\":1735:1957   */\n      swap3\n      swap2\n      pop\n      pop\n      jump\t// out\n        /* \"#utility.yul\":1963:2085   */\n    tag_160:\n        /* \"#utility.yul\":2036:2060   */\n      tag_232\n        /* \"#utility.yul\":2054:2059   */\n      dup2\n        /* \"#utility.yul\":2036:2060   */\n      tag_158\n      jump\t// in\n    tag_232:\n        /* \"#utility.yul\":2029:2034   */\n      dup2\n        /* \"#utility.yul\":2026:2061   */\n      eq\n        /* \"#utility.yul\":2016:2079   */\n      tag_233\n      jumpi\n        /* \"#utility.yul\":2075:2076   */\n      0x00\n        /* \"#utility.yul\":2072:2073   */\n      dup1\n        /* \"#utility.yul\":2065:2077   */\n      revert\n        /* \"#utility.yul\":2016:2079   */\n    tag_233:\n        /* \"#utility.yul\":1963:2085   */\n      pop\n      jump\t// out\n        /* \"#utility.yul\":2091:2230   */\n    tag_161:\n        /* \"#utility.yul\":2137:2142   */\n      0x00\n        /* \"#utility.yul\":2175:2181   */\n      dup2\n        /* \"#utility.yul\":2162:2182   */\n      calldataload\n        /* \"#utility.yul\":2153:2182   */\n      swap1\n      pop\n        /* \"#utility.yul\":2191:2224   */\n      tag_235\n        /* \"#utility.yul\":2218:2223   */\n      dup2\n        /* \"#utility.yul\":2191:2224   */\n      tag_160\n      jump\t// in\n    tag_235:\n        /* \"#utility.yul\":2091:2230   */\n      swap3\n      swap2\n      pop\n      pop\n      jump\t// out\n        /* \"#utility.yul\":2236:2353   */\n    tag_162:\n        /* \"#utility.yul\":2345:2346   */\n      0x00\n        /* \"#utility.yul\":2342:2343   */\n      dup1\n        /* \"#utility.yul\":2335:2347   */\n      revert\n        /* \"#utility.yul\":2359:2476   */\n    tag_163:\n        /* \"#utility.yul\":2468:2469   */\n      0x00\n        /* \"#utility.yul\":2465:2466   */\n      dup1\n        /* \"#utility.yul\":2458:2470   */\n      revert\n        /* \"#utility.yul\":2482:2599   */\n    tag_164:\n        /* \"#utility.yul\":2591:2592   */\n      0x00\n        /* \"#utility.yul\":2588:2589   */\n      dup1\n        /* \"#utility.yul\":2581:2593   */\n      revert\n        /* \"#utility.yul\":2618:3170   */\n    tag_165:\n        /* \"#utility.yul\":2675:2683   */\n      0x00\n        /* \"#utility.yul\":2685:2691   */\n      dup1\n        /* \"#utility.yul\":2735:2738   */\n      dup4\n        /* \"#utility.yul\":2728:2732   */\n      0x1f\n        /* \"#utility.yul\":2720:2726   */\n      dup5\n        /* \"#utility.yul\":2716:2733   */\n      add\n        /* \"#utility.yul\":2712:2739   */\n      slt\n        /* \"#utility.yul\":2702:2824   */\n      tag_240\n      jumpi\n        /* \"#utility.yul\":2743:2822   */\n      tag_241\n      tag_162\n      jump\t// in\n    tag_241:\n        /* \"#utility.yul\":2702:2824   */\n    tag_240:\n        /* \"#utility.yul\":2856:2862   */\n      dup3\n        /* \"#utility.yul\":2843:2863   */\n      calldataload\n        /* \"#utility.yul\":2833:2863   */\n      swap1\n      pop\n        /* \"#utility.yul\":2886:2904   */\n      0xffffffffffffffff\n        /* \"#utility.yul\":2878:2884   */\n      dup2\n        /* \"#utility.yul\":2875:2905   */\n      gt\n        /* \"#utility.yul\":2872:2989   */\n      iszero\n      tag_242\n      jumpi\n        /* \"#utility.yul\":2908:2987   */\n      tag_243\n      tag_163\n      jump\t// in\n    tag_243:\n        /* \"#utility.yul\":2872:2989   */\n    tag_242:\n        /* \"#utility.yul\":3022:3026   */\n      0x20\n        /* \"#utility.yul\":3014:3020   */\n      dup4\n        /* \"#utility.yul\":3010:3027   */\n      add\n        /* \"#utility.yul\":2998:3027   */\n      swap2\n      pop\n        /* \"#utility.yul\":3076:3079   */\n      dup4\n        /* \"#utility.yul\":3068:3072   */\n      0x01\n        /* \"#utility.yul\":3060:3066   */\n      dup3\n        /* \"#utility.yul\":3056:3073   */\n      mul\n        /* \"#utility.yul\":3046:3054   */\n      dup4\n        /* \"#utility.yul\":3042:3074   */\n      add\n        /* \"#utility.yul\":3039:3080   */\n      gt\n        /* \"#utility.yul\":3036:3164   */\n      iszero\n      tag_244\n      jumpi\n        /* \"#utility.yul\":3083:3162   */\n      tag_245\n      tag_164\n      jump\t// in\n    tag_245:\n        /* \"#utility.yul\":3036:3164   */\n    tag_244:\n        /* \"#utility.yul\":2618:3170   */\n      swap3\n      pop\n      swap3\n      swap1\n      pop\n      jump\t// out\n        /* \"#utility.yul\":3176:3993   */\n    tag_32:\n        /* \"#utility.yul\":3264:3270   */\n      0x00\n        /* \"#utility.yul\":3272:3278   */\n      dup1\n        /* \"#utility.yul\":3280:3286   */\n      0x00\n        /* \"#utility.yul\":3288:3294   */\n      dup1\n        /* \"#utility.yul\":3337:3339   */\n      0x60\n        /* \"#utility.yul\":3325:3334   */\n      dup6\n        /* \"#utility.yul\":3316:3323   */\n      dup8\n        /* \"#utility.yul\":3312:3335   */\n      sub\n        /* \"#utility.yul\":3308:3340   */\n      slt\n        /* \"#utility.yul\":3305:3424   */\n      iszero\n      tag_247\n      jumpi\n        /* \"#utility.yul\":3343:3422   */\n      tag_248\n      tag_153\n      jump\t// in\n    tag_248:\n        /* \"#utility.yul\":3305:3424   */\n    tag_247:\n        /* \"#utility.yul\":3463:3464   */\n      0x00\n        /* \"#utility.yul\":3488:3541   */\n      tag_249\n        /* \"#utility.yul\":3533:3540   */\n      dup8\n        /* \"#utility.yul\":3524:3530   */\n      dup3\n        /* \"#utility.yul\":3513:3522   */\n      dup9\n        /* \"#utility.yul\":3509:3531   */\n      add\n        /* \"#utility.yul\":3488:3541   */\n      tag_161\n      jump\t// in\n    tag_249:\n        /* \"#utility.yul\":3478:3541   */\n      swap5\n      pop\n        /* \"#utility.yul\":3434:3551   */\n      pop\n        /* \"#utility.yul\":3590:3592   */\n      0x20\n        /* \"#utility.yul\":3616:3669   */\n      tag_250\n        /* \"#utility.yul\":3661:3668   */\n      dup8\n        /* \"#utility.yul\":3652:3658   */\n      dup3\n        /* \"#utility.yul\":3641:3650   */\n      dup9\n        /* \"#utility.yul\":3637:3659   */\n      add\n        /* \"#utility.yul\":3616:3669   */\n      tag_156\n      jump\t// in\n    tag_250:\n        /* \"#utility.yul\":3606:3669   */\n      swap4\n      pop\n        /* \"#utility.yul\":3561:3679   */\n      pop\n        /* \"#utility.yul\":3746:3748   */\n      0x40\n        /* \"#utility.yul\":3735:3744   */\n      dup6\n        /* \"#utility.yul\":3731:3749   */\n      add\n        /* \"#utility.yul\":3718:3750   */\n      calldataload\n        /* \"#utility.yul\":3777:3795   */\n      0xffffffffffffffff\n        /* \"#utility.yul\":3769:3775   */\n      dup2\n        /* \"#utility.yul\":3766:3796   */\n      gt\n        /* \"#utility.yul\":3763:3880   */\n      iszero\n      tag_251\n      jumpi\n        /* \"#utility.yul\":3799:3878   */\n      tag_252\n      tag_154\n      jump\t// in\n    tag_252:\n        /* \"#utility.yul\":3763:3880   */\n    tag_251:\n        /* \"#utility.yul\":3912:3976   */\n      tag_253\n        /* \"#utility.yul\":3968:3975   */\n      dup8\n        /* \"#utility.yul\":3959:3965   */\n      dup3\n        /* \"#utility.yul\":3948:3957   */\n      dup9\n        /* \"#utility.yul\":3944:3966   */\n      add\n        /* \"#utility.yul\":3912:3976   */\n      tag_165\n      jump\t// in\n    tag_253:\n        /* \"#utility.yul\":3894:3976   */\n      swap3\n      pop\n      swap3\n      pop\n        /* \"#utility.yul\":3689:3986   */\n      pop\n        /* \"#utility.yul\":3176:3993   */\n      swap3\n      swap6\n      swap2\n      swap5\n      pop\n      swap3\n      pop\n      jump\t// out\n        /* \"#utility.yul\":3999:4328   */\n    tag_42:\n        /* \"#utility.yul\":4058:4064   */\n      0x00\n        /* \"#utility.yul\":4107:4109   */\n      0x20\n        /* \"#utility.yul\":4095:4104   */\n      dup3\n        /* \"#utility.yul\":4086:4093   */\n      dup5\n        /* \"#utility.yul\":4082:4105   */\n      sub\n        /* \"#utility.yul\":4078:4110   */\n      slt\n        /* \"#utility.yul\":4075:4194   */\n      iszero\n      tag_255\n      jumpi\n        /* \"#utility.yul\":4113:4192   */\n      tag_256\n      tag_153\n      jump\t// in\n    tag_256:\n        /* \"#utility.yul\":4075:4194   */\n    tag_255:\n        /* \"#utility.yul\":4233:4234   */\n      0x00\n        /* \"#utility.yul\":4258:4311   */\n      tag_257\n        /* \"#utility.yul\":4303:4310   */\n      dup5\n        /* \"#utility.yul\":4294:4300   */\n      dup3\n        /* \"#utility.yul\":4283:4292   */\n      dup6\n        /* \"#utility.yul\":4279:4301   */\n      add\n        /* \"#utility.yul\":4258:4311   */\n      tag_161\n      jump\t// in\n    tag_257:\n        /* \"#utility.yul\":4248:4311   */\n      swap2\n      pop\n        /* \"#utility.yul\":4204:4321   */\n      pop\n        /* \"#utility.yul\":3999:4328   */\n      swap3\n      swap2\n      pop\n      pop\n      jump\t// out\n        /* \"#utility.yul\":4334:4424   */\n    tag_166:\n        /* \"#utility.yul\":4368:4375   */\n      0x00\n        /* \"#utility.yul\":4411:4416   */\n      dup2\n        /* \"#utility.yul\":4404:4417   */\n      iszero\n        /* \"#utility.yul\":4397:4418   */\n      iszero\n        /* \"#utility.yul\":4386:4418   */\n      swap1\n      pop\n        /* \"#utility.yul\":4334:4424   */\n      swap2\n      swap1\n      pop\n      jump\t// out\n        /* \"#utility.yul\":4430:4539   */\n    tag_167:\n        /* \"#utility.yul\":4511:4532   */\n      tag_260\n        /* \"#utility.yul\":4526:4531   */\n      dup2\n        /* \"#utility.yul\":4511:4532   */\n      tag_166\n      jump\t// in\n    tag_260:\n        /* \"#utility.yul\":4506:4509   */\n      dup3\n        /* \"#utility.yul\":4499:4533   */\n      mstore\n        /* \"#utility.yul\":4430:4539   */\n      pop\n      pop\n      jump\t// out\n        /* \"#utility.yul\":4545:4755   */\n    tag_45:\n        /* \"#utility.yul\":4632:4636   */\n      0x00\n        /* \"#utility.yul\":4670:4672   */\n      0x20\n        /* \"#utility.yul\":4659:4668   */\n      dup3\n        /* \"#utility.yul\":4655:4673   */\n      add\n        /* \"#utility.yul\":4647:4673   */\n      swap1\n      pop\n        /* \"#utility.yul\":4683:4748   */\n      tag_262\n        /* \"#utility.yul\":4745:4746   */\n      0x00\n        /* \"#utility.yul\":4734:4743   */\n      dup4\n        /* \"#utility.yul\":4730:4747   */\n      add\n        /* \"#utility.yul\":4721:4727   */\n      dup5\n        /* \"#utility.yul\":4683:4748   */\n      tag_167\n      jump\t// in\n    tag_262:\n        /* \"#utility.yul\":4545:4755   */\n      swap3\n      swap2\n      pop\n      pop\n      jump\t// out\n        /* \"#utility.yul\":4761:5235   */\n    tag_49:\n        /* \"#utility.yul\":4829:4835   */\n      0x00\n        /* \"#utility.yul\":4837:4843   */\n      dup1\n        /* \"#utility.yul\":4886:4888   */\n      0x40\n        /* \"#utility.yul\":4874:4883   */\n      dup4\n        /* \"#utility.yul\":4865:4872   */\n      dup6\n        /* \"#utility.yul\":4861:4884   */\n      sub\n        /* \"#utility.yul\":4857:4889   */\n      slt\n        /* \"#utility.yul\":4854:4973   */\n      iszero\n      tag_264\n      jumpi\n        /* \"#utility.yul\":4892:4971   */\n      tag_265\n      tag_153\n      jump\t// in\n    tag_265:\n        /* \"#utility.yul\":4854:4973   */\n    tag_264:\n        /* \"#utility.yul\":5012:5013   */\n      0x00\n        /* \"#utility.yul\":5037:5090   */\n      tag_266\n        /* \"#utility.yul\":5082:5089   */\n      dup6\n        /* \"#utility.yul\":5073:5079   */\n      dup3\n        /* \"#utility.yul\":5062:5071   */\n      dup7\n        /* \"#utility.yul\":5058:5080   */\n      add\n        /* \"#utility.yul\":5037:5090   */\n      tag_156\n      jump\t// in\n    tag_266:\n        /* \"#utility.yul\":5027:5090   */\n      swap3\n      pop\n        /* \"#utility.yul\":4983:5100   */\n      pop\n        /* \"#utility.yul\":5139:5141   */\n      0x20\n        /* \"#utility.yul\":5165:5218   */\n      tag_267\n        /* \"#utility.yul\":5210:5217   */\n      dup6\n        /* \"#utility.yul\":5201:5207   */\n      dup3\n        /* \"#utility.yul\":5190:5199   */\n      dup7\n        /* \"#utility.yul\":5186:5208   */\n      add\n        /* \"#utility.yul\":5165:5218   */\n      tag_161\n      jump\t// in\n    tag_267:\n        /* \"#utility.yul\":5155:5218   */\n      swap2\n      pop\n        /* \"#utility.yul\":5110:5228   */\n      pop\n        /* \"#utility.yul\":4761:5235   */\n      swap3\n      pop\n      swap3\n      swap1\n      pop\n      jump\t// out\n        /* \"#utility.yul\":5241:5339   */\n    tag_168:\n        /* \"#utility.yul\":5292:5298   */\n      0x00\n        /* \"#utility.yul\":5326:5331   */\n      dup2\n        /* \"#utility.yul\":5320:5332   */\n      mload\n        /* \"#utility.yul\":5310:5332   */\n      swap1\n      pop\n        /* \"#utility.yul\":5241:5339   */\n      swap2\n      swap1\n      pop\n      jump\t// out\n        /* \"#utility.yul\":5345:5513   */\n    tag_169:\n        /* \"#utility.yul\":5428:5439   */\n      0x00\n        /* \"#utility.yul\":5462:5468   */\n      dup3\n        /* \"#utility.yul\":5457:5460   */\n      dup3\n        /* \"#utility.yul\":5450:5469   */\n      mstore\n        /* \"#utility.yul\":5502:5506   */\n      0x20\n        /* \"#utility.yul\":5497:5500   */\n      dup3\n        /* \"#utility.yul\":5493:5507   */\n      add\n        /* \"#utility.yul\":5478:5507   */\n      swap1\n      pop\n        /* \"#utility.yul\":5345:5513   */\n      swap3\n      swap2\n      pop\n      pop\n      jump\t// out\n        /* \"#utility.yul\":5519:5658   */\n    tag_170:\n        /* \"#utility.yul\":5608:5614   */\n      dup3\n        /* \"#utility.yul\":5603:5606   */\n      dup2\n        /* \"#utility.yul\":5598:5601   */\n      dup4\n        /* \"#utility.yul\":5592:5615   */\n      mcopy\n        /* \"#utility.yul\":5649:5650   */\n      0x00\n        /* \"#utility.yul\":5640:5646   */\n      dup4\n        /* \"#utility.yul\":5635:5638   */\n      dup4\n        /* \"#utility.yul\":5631:5647   */\n      add\n        /* \"#utility.yul\":5624:5651   */\n      mstore\n        /* \"#utility.yul\":5519:5658   */\n      pop\n      pop\n      pop\n      jump\t// out\n        /* \"#utility.yul\":5664:5766   */\n    tag_171:\n        /* \"#utility.yul\":5705:5711   */\n      0x00\n        /* \"#utility.yul\":5756:5758   */\n      0x1f\n        /* \"#utility.yul\":5752:5759   */\n      not\n        /* \"#utility.yul\":5747:5749   */\n      0x1f\n        /* \"#utility.yul\":5740:5745   */\n      dup4\n        /* \"#utility.yul\":5736:5750   */\n      add\n        /* \"#utility.yul\":5732:5760   */\n      and\n        /* \"#utility.yul\":5722:5760   */\n      swap1\n      pop\n        /* \"#utility.yul\":5664:5766   */\n      swap2\n      swap1\n      pop\n      jump\t// out\n        /* \"#utility.yul\":5772:6145   */\n    tag_172:\n        /* \"#utility.yul\":5858:5861   */\n      0x00\n        /* \"#utility.yul\":5886:5924   */\n      tag_273\n        /* \"#utility.yul\":5918:5923   */\n      dup3\n        /* \"#utility.yul\":5886:5924   */\n      tag_168\n      jump\t// in\n    tag_273:\n        /* \"#utility.yul\":5940:6010   */\n      tag_274\n        /* \"#utility.yul\":6003:6009   */\n      dup2\n        /* \"#utility.yul\":5998:6001   */\n      dup6\n        /* \"#utility.yul\":5940:6010   */\n      tag_169\n      jump\t// in\n    tag_274:\n        /* \"#utility.yul\":5933:6010   */\n      swap4\n      pop\n        /* \"#utility.yul\":6019:6084   */\n      tag_275\n        /* \"#utility.yul\":6077:6083   */\n      dup2\n        /* \"#utility.yul\":6072:6075   */\n      dup6\n        /* \"#utility.yul\":6065:6069   */\n      0x20\n        /* \"#utility.yul\":6058:6063   */\n      dup7\n        /* \"#utility.yul\":6054:6070   */\n      add\n        /* \"#utility.yul\":6019:6084   */\n      tag_170\n      jump\t// in\n    tag_275:\n        /* \"#utility.yul\":6109:6138   */\n      tag_276\n        /* \"#utility.yul\":6131:6137   */\n      dup2\n        /* \"#utility.yul\":6109:6138   */\n      tag_171\n      jump\t// in\n    tag_276:\n        /* \"#utility.yul\":6104:6107   */\n      dup5\n        /* \"#utility.yul\":6100:6139   */\n      add\n        /* \"#utility.yul\":6093:6139   */\n      swap2\n      pop\n        /* \"#utility.yul\":5862:6145   */\n      pop\n        /* \"#utility.yul\":5772:6145   */\n      swap3\n      swap2\n      pop\n      pop\n      jump\t// out\n        /* \"#utility.yul\":6151:6779   */\n    tag_57:\n        /* \"#utility.yul\":6340:6344   */\n      0x00\n        /* \"#utility.yul\":6378:6381   */\n      0x80\n        /* \"#utility.yul\":6367:6376   */\n      dup3\n        /* \"#utility.yul\":6363:6382   */\n      add\n        /* \"#utility.yul\":6355:6382   */\n      swap1\n      pop\n        /* \"#utility.yul\":6392:6463   */\n      tag_278\n        /* \"#utility.yul\":6460:6461   */\n      0x00\n        /* \"#utility.yul\":6449:6458   */\n      dup4\n        /* \"#utility.yul\":6445:6462   */\n      add\n        /* \"#utility.yul\":6436:6442   */\n      dup8\n        /* \"#utility.yul\":6392:6463   */\n      tag_159\n      jump\t// in\n    tag_278:\n        /* \"#utility.yul\":6473:6545   */\n      tag_279\n        /* \"#utility.yul\":6541:6543   */\n      0x20\n        /* \"#utility.yul\":6530:6539   */\n      dup4\n        /* \"#utility.yul\":6526:6544   */\n      add\n        /* \"#utility.yul\":6517:6523   */\n      dup7\n        /* \"#utility.yul\":6473:6545   */\n      tag_151\n      jump\t// in\n    tag_279:\n        /* \"#utility.yul\":6592:6601   */\n      dup2\n        /* \"#utility.yul\":6586:6590   */\n      dup2\n        /* \"#utility.yul\":6582:6602   */\n      sub\n        /* \"#utility.yul\":6577:6579   */\n      0x40\n        /* \"#utility.yul\":6566:6575   */\n      dup4\n        /* \"#utility.yul\":6562:6580   */\n      add\n        /* \"#utility.yul\":6555:6603   */\n      mstore\n        /* \"#utility.yul\":6620:6696   */\n      tag_280\n        /* \"#utility.yul\":6691:6695   */\n      dup2\n        /* \"#utility.yul\":6682:6688   */\n      dup6\n        /* \"#utility.yul\":6620:6696   */\n      tag_172\n      jump\t// in\n    tag_280:\n        /* \"#utility.yul\":6612:6696   */\n      swap1\n      pop\n        /* \"#utility.yul\":6706:6772   */\n      tag_281\n        /* \"#utility.yul\":6768:6770   */\n      0x60\n        /* \"#utility.yul\":6757:6766   */\n      dup4\n        /* \"#utility.yul\":6753:6771   */\n      add\n        /* \"#utility.yul\":6744:6750   */\n      dup5\n        /* \"#utility.yul\":6706:6772   */\n      tag_167\n      jump\t// in\n    tag_281:\n        /* \"#utility.yul\":6151:6779   */\n      swap6\n      swap5\n      pop\n      pop\n      pop\n      pop\n      pop\n      jump\t// out\n        /* \"#utility.yul\":6785:6954   */\n    tag_173:\n        /* \"#utility.yul\":6869:6880   */\n      0x00\n        /* \"#utility.yul\":6903:6909   */\n      dup3\n        /* \"#utility.yul\":6898:6901   */\n      dup3\n        /* \"#utility.yul\":6891:6910   */\n      mstore\n        /* \"#utility.yul\":6943:6947   */\n      0x20\n        /* \"#utility.yul\":6938:6941   */\n      dup3\n        /* \"#utility.yul\":6934:6948   */\n      add\n        /* \"#utility.yul\":6919:6948   */\n      swap1\n      pop\n        /* \"#utility.yul\":6785:6954   */\n      swap3\n      swap2\n      pop\n      pop\n      jump\t// out\n        /* \"#utility.yul\":6960:7119   */\n    tag_174:\n        /* \"#utility.yul\":7100:7111   */\n      0x6e6f74206f776e65720000000000000000000000000000000000000000000000\n        /* \"#utility.yul\":7096:7097   */\n      0x00\n        /* \"#utility.yul\":7088:7094   */\n      dup3\n        /* \"#utility.yul\":7084:7098   */\n      add\n        /* \"#utility.yul\":7077:7112   */\n      mstore\n        /* \"#utility.yul\":6960:7119   */\n      pop\n      jump\t// out\n        /* \"#utility.yul\":7125:7490   */\n    tag_175:\n        /* \"#utility.yul\":7267:7270   */\n      0x00\n        /* \"#utility.yul\":7288:7354   */\n      tag_285\n        /* \"#utility.yul\":7352:7353   */\n      0x09\n        /* \"#utility.yul\":7347:7350   */\n      dup4\n        /* \"#utility.yul\":7288:7354   */\n      tag_173\n      jump\t// in\n    tag_285:\n        /* \"#utility.yul\":7281:7354   */\n      swap2\n      pop\n        /* \"#utility.yul\":7363:7456   */\n      tag_286\n        /* \"#utility.yul\":7452:7455   */\n      dup3\n        /* \"#utility.yul\":7363:7456   */\n      tag_174\n      jump\t// in\n    tag_286:\n        /* \"#utility.yul\":7481:7483   */\n      0x20\n        /* \"#utility.yul\":7476:7479   */\n      dup3\n        /* \"#utility.yul\":7472:7484   */\n      add\n        /* \"#utility.yul\":7465:7484   */\n      swap1\n      pop\n        /* \"#utility.yul\":7125:7490   */\n      swap2\n      swap1\n      pop\n      jump\t// out\n        /* \"#utility.yul\":7496:7915   */\n    tag_77:\n        /* \"#utility.yul\":7662:7666   */\n      0x00\n        /* \"#utility.yul\":7700:7702   */\n      0x20\n        /* \"#utility.yul\":7689:7698   */\n      dup3\n        /* \"#utility.yul\":7685:7703   */\n      add\n        /* \"#utility.yul\":7677:7703   */\n      swap1\n      pop\n        /* \"#utility.yul\":7749:7758   */\n      dup2\n        /* \"#utility.yul\":7743:7747   */\n      dup2\n        /* \"#utility.yul\":7739:7759   */\n      sub\n        /* \"#utility.yul\":7735:7736   */\n      0x00\n        /* \"#utility.yul\":7724:7733   */\n      dup4\n        /* \"#utility.yul\":7720:7737   */\n      add\n        /* \"#utility.yul\":7713:7760   */\n      mstore\n        /* \"#utility.yul\":7777:7908   */\n      tag_288\n        /* \"#utility.yul\":7903:7907   */\n      dup2\n        /* \"#utility.yul\":7777:7908   */\n      tag_175\n      jump\t// in\n    tag_288:\n        /* \"#utility.yul\":7769:7908   */\n      swap1\n      pop\n        /* \"#utility.yul\":7496:7915   */\n      swap2\n      swap1\n      pop\n      jump\t// out\n        /* \"#utility.yul\":7921:8101   */\n    tag_176:\n        /* \"#utility.yul\":7969:8046   */\n      0x4e487b7100000000000000000000000000000000000000000000000000000000\n        /* \"#utility.yul\":7966:7967   */\n      0x00\n        /* \"#utility.yul\":7959:8047   */\n      mstore\n        /* \"#utility.yul\":8066:8070   */\n      0x41\n        /* \"#utility.yul\":8063:8064   */\n      0x04\n        /* \"#utility.yul\":8056:8071   */\n      mstore\n        /* \"#utility.yul\":8090:8094   */\n      0x24\n        /* \"#utility.yul\":8087:8088   */\n      0x00\n        /* \"#utility.yul\":8080:8095   */\n      revert\n        /* \"#utility.yul\":8107:8287   */\n    tag_177:\n        /* \"#utility.yul\":8155:8232   */\n      0x4e487b7100000000000000000000000000000000000000000000000000000000\n        /* \"#utility.yul\":8152:8153   */\n      0x00\n        /* \"#utility.yul\":8145:8233   */\n      mstore\n        /* \"#utility.yul\":8252:8256   */\n      0x22\n        /* \"#utility.yul\":8249:8250   */\n      0x04\n        /* \"#utility.yul\":8242:8257   */\n      mstore\n        /* \"#utility.yul\":8276:8280   */\n      0x24\n        /* \"#utility.yul\":8273:8274   */\n      0x00\n        /* \"#utility.yul\":8266:8281   */\n      revert\n        /* \"#utility.yul\":8293:8613   */\n    tag_107:\n        /* \"#utility.yul\":8337:8343   */\n      0x00\n        /* \"#utility.yul\":8374:8375   */\n      0x02\n        /* \"#utility.yul\":8368:8372   */\n      dup3\n        /* \"#utility.yul\":8364:8376   */\n      div\n        /* \"#utility.yul\":8354:8376   */\n      swap1\n      pop\n        /* \"#utility.yul\":8421:8422   */\n      0x01\n        /* \"#utility.yul\":8415:8419   */\n      dup3\n        /* \"#utility.yul\":8411:8423   */\n      and\n        /* \"#utility.yul\":8442:8460   */\n      dup1\n        /* \"#utility.yul\":8432:8513   */\n      tag_292\n      jumpi\n        /* \"#utility.yul\":8498:8502   */\n      0x7f\n        /* \"#utility.yul\":8490:8496   */\n      dup3\n        /* \"#utility.yul\":8486:8503   */\n      and\n        /* \"#utility.yul\":8476:8503   */\n      swap2\n      pop\n        /* \"#utility.yul\":8432:8513   */\n    tag_292:\n        /* \"#utility.yul\":8560:8562   */\n      0x20\n        /* \"#utility.yul\":8552:8558   */\n      dup3\n        /* \"#utility.yul\":8549:8563   */\n      lt\n        /* \"#utility.yul\":8529:8547   */\n      dup2\n        /* \"#utility.yul\":8526:8564   */\n      sub\n        /* \"#utility.yul\":8523:8607   */\n      tag_293\n      jumpi\n        /* \"#utility.yul\":8579:8597   */\n      tag_294\n      tag_177\n      jump\t// in\n    tag_294:\n        /* \"#utility.yul\":8523:8607   */\n    tag_293:\n        /* \"#utility.yul\":8344:8613   */\n      pop\n        /* \"#utility.yul\":8293:8613   */\n      swap2\n      swap1\n      pop\n      jump\t// out\n        /* \"#utility.yul\":8619:8759   */\n    tag_178:\n        /* \"#utility.yul\":8667:8671   */\n      0x00\n        /* \"#utility.yul\":8690:8693   */\n      dup2\n        /* \"#utility.yul\":8682:8693   */\n      swap1\n      pop\n        /* \"#utility.yul\":8713:8716   */\n      dup2\n        /* \"#utility.yul\":8710:8711   */\n      0x00\n        /* \"#utility.yul\":8703:8717   */\n      mstore\n        /* \"#utility.yul\":8747:8751   */\n      0x20\n        /* \"#utility.yul\":8744:8745   */\n      0x00\n        /* \"#utility.yul\":8734:8752   */\n      keccak256\n        /* \"#utility.yul\":8726:8752   */\n      swap1\n      pop\n        /* \"#utility.yul\":8619:8759   */\n      swap2\n      swap1\n      pop\n      jump\t// out\n        /* \"#utility.yul\":8765:8858   */\n    tag_179:\n        /* \"#utility.yul\":8802:8808   */\n      0x00\n        /* \"#utility.yul\":8849:8851   */\n      0x20\n        /* \"#utility.yul\":8844:8846   */\n      0x1f\n        /* \"#utility.yul\":8837:8842   */\n      dup4\n        /* \"#utility.yul\":8833:8847   */\n      add\n        /* \"#utility.yul\":8829:8852   */\n      div\n        /* \"#utility.yul\":8819:8852   */\n      swap1\n      pop\n        /* \"#utility.yul\":8765:8858   */\n      swap2\n      swap1\n      pop\n      jump\t// out\n        /* \"#utility.yul\":8864:8971   */\n    tag_180:\n        /* \"#utility.yul\":8908:8916   */\n      0x00\n        /* \"#utility.yul\":8958:8963   */\n      dup3\n        /* \"#utility.yul\":8952:8956   */\n      dup3\n        /* \"#utility.yul\":8948:8964   */\n      shl\n        /* \"#utility.yul\":8927:8964   */\n      swap1\n      pop\n        /* \"#utility.yul\":8864:8971   */\n      swap3\n      swap2\n      pop\n      pop\n      jump\t// out\n        /* \"#utility.yul\":8977:9370   */\n    tag_181:\n        /* \"#utility.yul\":9046:9052   */\n      0x00\n        /* \"#utility.yul\":9096:9097   */\n      0x08\n        /* \"#utility.yul\":9084:9094   */\n      dup4\n        /* \"#utility.yul\":9080:9098   */\n      mul\n        /* \"#utility.yul\":9119:9216   */\n      tag_299\n        /* \"#utility.yul\":9149:9215   */\n      0xffffffffffffffffffffffffffffffffffffffffffffffffffffffffffffffff\n        /* \"#utility.yul\":9138:9147   */\n      dup3\n        /* \"#utility.yul\":9119:9216   */\n      tag_180\n      jump\t// in\n    tag_299:\n        /* \"#utility.yul\":9237:9276   */\n      tag_300\n        /* \"#utility.yul\":9267:9275   */\n      dup7\n        /* \"#utility.yul\":9256:9265   */\n      dup4\n        /* \"#utility.yul\":9237:9276   */\n      tag_180\n      jump\t// in\n    tag_300:\n        /* \"#utility.yul\":9225:9276   */\n      swap6\n      pop\n        /* \"#utility.yul\":9309:9313   */\n      dup1\n        /* \"#utility.yul\":9305:9314   */\n      not\n        /* \"#utility.yul\":9298:9303   */\n      dup5\n        /* \"#utility.yul\":9294:9315   */\n      and\n        /* \"#utility.yul\":9285:9315   */\n      swap4\n      pop\n        /* \"#utility.yul\":9358:9362   */\n      dup1\n        /* \"#utility.yul\":9348:9356   */\n      dup7\n        /* \"#utility.yul\":9344:9363   */\n      and\n        /* \"#utility.yul\":9337:9342   */\n      dup5\n        /* \"#utility.yul\":9334:9364   */\n      or\n        /* \"#utility.yul\":9324:9364   */\n      swap3\n      pop\n        /* \"#utility.yul\":9053:9370   */\n      pop\n      pop\n        /* \"#utility.yul\":8977:9370   */\n      swap4\n      swap3\n      pop\n      pop\n      pop\n      jump\t// out\n        /* \"#utility.yul\":9376:9436   */\n    tag_182:\n        /* \"#utility.yul\":9404:9407   */\n      0x00\n        /* \"#utility.yul\":9425:9430   */\n      dup2\n        /* \"#utility.yul\":9418:9430   */\n      swap1\n      pop\n        /* \"#utility.yul\":9376:9436   */\n      swap2\n      swap1\n      pop\n      jump\t// out\n        /* \"#utility.yul\":9442:9584   */\n    tag_183:\n        /* \"#utility.yul\":9492:9501   */\n      0x00\n        /* \"#utility.yul\":9525:9578   */\n      tag_303\n        /* \"#utility.yul\":9543:9577   */\n      tag_304\n        /* \"#utility.yul\":9552:9576   */\n      tag_305\n        /* \"#utility.yul\":9570:9575   */\n      dup5\n        /* \"#utility.yul\":9552:9576   */\n      tag_150\n      jump\t// in\n    tag_305:\n        /* \"#utility.yul\":9543:9577   */\n      tag_182\n      jump\t// in\n    tag_304:\n        /* \"#utility.yul\":9525:9578   */\n      tag_150\n      jump\t// in\n    tag_303:\n        /* \"#utility.yul\":9512:9578   */\n      swap1\n      pop\n        /* \"#utility.yul\":9442:9584   */\n      swap2\n      swap1\n      pop\n      jump\t// out\n        /* \"#utility.yul\":9590:9665   */\n    tag_184:\n        /* \"#utility.yul\":9633:9636   */\n      0x00\n        /* \"#utility.yul\":9654:9659   */\n      dup2\n        /* \"#utility.yul\":9647:9659   */\n      swap1\n      pop\n        /* \"#utility.yul\":9590:9665   */\n      swap2\n      swap1\n      pop\n      jump\t// out\n        /* \"#utility.yul\":9671:9940   */\n    tag_185:\n        /* \"#utility.yul\":9781:9820   */\n      tag_308\n        /* \"#utility.yul\":9812:9819   */\n      dup4\n        /* \"#utility.yul\":9781:9820   */\n      tag_183\n      jump\t// in\n    tag_308:\n        /* \"#utility.yul\":9842:9933   */\n      tag_309\n        /* \"#utility.yul\":9891:9932   */\n      tag_310\n        /* \"#utility.yul\":9915:9931   */\n      dup3\n        /* \"#utility.yul\":9891:9932   */\n      tag_184\n      jump\t// in\n    tag_310:\n        /* \"#utility.yul\":9883:9889   */\n      dup5\n        /* \"#utility.yul\":9876:9880   */\n      dup5\n        /* \"#utility.yul\":9870:9881   */\n      sload\n        /* \"#utility.yul\":9842:9933   */\n      tag_181\n      jump\t// in\n    tag_309:\n        /* \"#utility.yul\":9836:9840   */\n      dup3\n        /* \"#utility.yul\":9829:9934   */\n      sstore\n        /* \"#utility.yul\":9747:9940   */\n      pop\n        /* \"#utility.yul\":9671:9940   */\n      pop\n      pop\n      pop\n      jump\t// out\n        /* \"#utility.yul\":9946:10019   */\n    tag_186:\n        /* \"#utility.yul\":9991:9994   */\n      0x00\n        /* \"#utility.yul\":9946:10019   */\n      swap1\n      jump\t// out\n        /* \"#utility.yul\":10025:10214   */\n    tag_187:\n        /* \"#utility.yul\":10102:10134   */\n      tag_313\n      tag_186\n      jump\t// in\n    tag_313:\n        /* \"#utility.yul\":10143:10208   */\n      tag_314\n        /* \"#utility.yul\":10201:10207   */\n      dup2\n        /* \"#utility.yul\":10193:10199   */\n      dup5\n        /* \"#utility.yul\":10187:10191   */\n      dup5\n        /* \"#utility.yul\":10143:10208   */\n      tag_185\n      jump\t// in\n    tag_314:\n        /* \"#utility.yul\":10078:10214   */\n      pop\n        /* \"#utility.yul\":10025:10214   */\n      pop\n      pop\n      jump\t// out\n        /* \"#utility.yul\":10220:10406   */\n    tag_188:\n        /* \"#utility.yul\":10280:10400   */\n    tag_316:\n        /* \"#utility.yul\":10297:10300   */\n      dup2\n        /* \"#utility.yul\":10290:10295   */\n      dup2\n        /* \"#utility.yul\":10287:10301   */\n      lt\n        /* \"#utility.yul\":10280:10400   */\n      iszero\n      tag_318\n      jumpi\n        /* \"#utility.yul\":10351:10390   */\n      tag_319\n        /* \"#utility.yul\":10388:10389   */\n      0x00\n        /* \"#utility.yul\":10381:10386   */\n      dup3\n        /* \"#utility.yul\":10351:10390   */\n      tag_187\n      jump\t// in\n    tag_319:\n        /* \"#utility.yul\":10324:10325   */\n      0x01\n        /* \"#utility.yul\":10317:10322   */\n      dup2\n        /* \"#utility.yul\":10313:10326   */\n      add\n        /* \"#utility.yul\":10304:10326   */\n      swap1\n      pop\n        /* \"#utility.yul\":10280:10400   */\n      jump(tag_316)\n    tag_318:\n        /* \"#utility.yul\":10220:10406   */\n      pop\n      pop\n      jump\t// out\n        /* \"#utility.yul\":10412:10953   */\n    tag_189:\n        /* \"#utility.yul\":10512:10514   */\n      0x1f\n        /* \"#utility.yul\":10507:10510   */\n      dup3\n        /* \"#utility.yul\":10504:10515   */\n      gt\n        /* \"#utility.yul\":10501:10946   */\n      iszero\n      tag_321\n      jumpi\n        /* \"#utility.yul\":10546:10583   */\n      tag_322\n        /* \"#utility.yul\":10577:10582   */\n      dup2\n        /* \"#utility.yul\":10546:10583   */\n      tag_178\n      jump\t// in\n    tag_322:\n        /* \"#utility.yul\":10629:10658   */\n      tag_323\n        /* \"#utility.yul\":10647:10657   */\n      dup5\n        /* \"#utility.yul\":10629:10658   */\n      tag_179\n      jump\t// in\n    tag_323:\n        /* \"#utility.yul\":10619:10627   */\n      dup2\n        /* \"#utility.yul\":10615:10659   */\n      add\n        /* \"#utility.yul\":10812:10814   */\n      0x20\n        /* \"#utility.yul\":10800:10810   */\n      dup6\n        /* \"#utility.yul\":10797:10815   */\n      lt\n        /* \"#utility.yul\":10794:10843   */\n      iszero\n      tag_324\n      jumpi\n        /* \"#utility.yul\":10833:10841   */\n      dup2\n        /* \"#utility.yul\":10818:10841   */\n      swap1\n      pop\n        /* \"#utility.yul\":10794:10843   */\n    tag_324:\n        /* \"#utility.yul\":10856:10936   */\n      tag_325\n        /* \"#utility.yul\":10912:10934   */\n      tag_326\n        /* \"#utility.yul\":10930:10933   */\n      dup6\n        /* \"#utility.yul\":10912:10934   */\n      tag_179\n      jump\t// in\n    tag_326:\n        /* \"#utility.yul\":10902:10910   */\n      dup4\n        /* \"#utility.yul\":10898:10935   */\n      add\n        /* \"#utility.yul\":10885:10896   */\n      dup3\n        /* \"#utility.yul\":10856:10936   */\n      tag_188\n      jump\t// in\n    tag_325:\n        /* \"#utility.yul\":10516:10946   */\n      pop\n      pop\n        /* \"#utility.yul\":10501:10946   */\n    tag_321:\n        /* \"#utility.yul\":10412:10953   */\n      pop\n      pop\n      pop\n      jump\t// out\n        /* \"#utility.yul\":10959:11076   */\n    tag_190:\n        /* \"#utility.yul\":11013:11021   */\n      0x00\n        /* \"#utility.yul\":11063:11068   */\n      dup3\n        /* \"#utility.yul\":11057:11061   */\n      dup3\n        /* \"#utility.yul\":11053:11069   */\n      shr\n        /* \"#utility.yul\":11032:11069   */\n      swap1\n      pop\n        /* \"#utility.yul\":10959:11076   */\n      swap3\n      swap2\n      pop\n      pop\n      jump\t// out\n        /* \"#utility.yul\":11082:11251   */\n    tag_191:\n        /* \"#utility.yul\":11126:11132   */\n      0x00\n        /* \"#utility.yul\":11159:11210   */\n      tag_329\n        /* \"#utility.yul\":11207:11208   */\n      0x00\n        /* \"#utility.yul\":11203:11209   */\n      not\n        /* \"#utility.yul\":11195:11200   */\n      dup5\n        /* \"#utility.yul\":11192:11193   */\n      0x08\n        /* \"#utility.yul\":11188:11201   */\n      mul\n        /* \"#utility.yul\":11159:11210   */\n      tag_190\n      jump\t// in\n    tag_329:\n        /* \"#utility.yul\":11155:11211   */\n      not\n        /* \"#utility.yul\":11240:11244   */\n      dup1\n        /* \"#utility.yul\":11234:11238   */\n      dup4\n        /* \"#utility.yul\":11230:11245   */\n      and\n        /* \"#utility.yul\":11220:11245   */\n      swap2\n      pop\n        /* \"#utility.yul\":11133:11251   */\n      pop\n        /* \"#utility.yul\":11082:11251   */\n      swap3\n      swap2\n      pop\n      pop\n      jump\t// out\n        /* \"#utility.yul\":11256:11551   */\n    tag_192:\n        /* \"#utility.yul\":11332:11336   */\n      0x00\n        /* \"#utility.yul\":11478:11507   */\n      tag_331\n        /* \"#utility.yul\":11503:11506   */\n      dup4\n        /* \"#utility.yul\":11497:11501   */\n      dup4\n        /* \"#utility.yul\":11478:11507   */\n      tag_191\n      jump\t// in\n    tag_331:\n        /* \"#utility.yul\":11470:11507   */\n      swap2\n      pop\n        /* \"#utility.yul\":11540:11543   */\n      dup3\n        /* \"#utility.yul\":11537:11538   */\n      0x02\n        /* \"#utility.yul\":11533:11544   */\n      mul\n        /* \"#utility.yul\":11527:11531   */\n      dup3\n        /* \"#utility.yul\":11524:11545   */\n      or\n        /* \"#utility.yul\":11516:11545   */\n      swap1\n      pop\n        /* \"#utility.yul\":11256:11551   */\n      swap3\n      swap2\n      pop\n      pop\n      jump\t// out\n        /* \"#utility.yul\":11556:12946   */\n    tag_81:\n        /* \"#utility.yul\":11671:11707   */\n      tag_333\n        /* \"#utility.yul\":11703:11706   */\n      dup3\n        /* \"#utility.yul\":11671:11707   */\n      tag_168\n      jump\t// in\n    tag_333:\n        /* \"#utility.yul\":11772:11790   */\n      0xffffffffffffffff\n        /* \"#utility.yul\":11764:11770   */\n      dup2\n        /* \"#utility.yul\":11761:11791   */\n      gt\n        /* \"#utility.yul\":11758:11814   */\n      iszero\n      tag_334\n      jumpi\n        /* \"#utility.yul\":11794:11812   */\n      tag_335\n      tag_176\n      jump\t// in\n    tag_335:\n        /* \"#utility.yul\":11758:11814   */\n    tag_334:\n        /* \"#utility.yul\":11838:11876   */\n      tag_336\n        /* \"#utility.yul\":11870:11874   */\n      dup3\n        /* \"#utility.yul\":11864:11875   */\n      sload\n        /* \"#utility.yul\":11838:11876   */\n      tag_107\n      jump\t// in\n    tag_336:\n        /* \"#utility.yul\":11923:11989   */\n      tag_337\n        /* \"#utility.yul\":11982:11988   */\n      dup3\n        /* \"#utility.yul\":11974:11980   */\n      dup3\n        /* \"#utility.yul\":11968:11972   */\n      dup6\n        /* \"#utility.yul\":11923:11989   */\n      tag_189\n      jump\t// in\n    tag_337:\n        /* \"#utility.yul\":12016:12017   */\n      0x00\n        /* \"#utility.yul\":12040:12044   */\n      0x20\n        /* \"#utility.yul\":12027:12044   */\n      swap1\n      pop\n        /* \"#utility.yul\":12072:12074   */\n      0x1f\n        /* \"#utility.yul\":12064:12070   */\n      dup4\n        /* \"#utility.yul\":12061:12075   */\n      gt\n        /* \"#utility.yul\":12089:12090   */\n      0x01\n        /* \"#utility.yul\":12084:12701   */\n      dup2\n      eq\n      tag_339\n      jumpi\n        /* \"#utility.yul\":12745:12746   */\n      0x00\n        /* \"#utility.yul\":12762:12768   */\n      dup5\n        /* \"#utility.yul\":12759:12836   */\n      iszero\n      tag_340\n      jumpi\n        /* \"#utility.yul\":12811:12820   */\n      dup3\n        /* \"#utility.yul\":12806:12809   */\n      dup8\n        /* \"#utility.yul\":12802:12821   */\n      add\n        /* \"#utility.yul\":12796:12822   */\n      mload\n        /* \"#utility.yul\":12787:12822   */\n      swap1\n      pop\n        /* \"#utility.yul\":12759:12836   */\n    tag_340:\n        /* \"#utility.yul\":12862:12929   */\n      tag_341\n        /* \"#utility.yul\":12922:12928   */\n      dup6\n        /* \"#utility.yul\":12915:12920   */\n      dup3\n        /* \"#utility.yul\":12862:12929   */\n      tag_192\n      jump\t// in\n    tag_341:\n        /* \"#utility.yul\":12856:12860   */\n      dup7\n        /* \"#utility.yul\":12849:12930   */\n      sstore\n        /* \"#utility.yul\":12718:12940   */\n      pop\n        /* \"#utility.yul\":12054:12940   */\n      jump(tag_338)\n        /* \"#utility.yul\":12084:12701   */\n    tag_339:\n        /* \"#utility.yul\":12136:12140   */\n      0x1f\n        /* \"#utility.yul\":12132:12141   */\n      not\n        /* \"#utility.yul\":12124:12130   */\n      dup5\n        /* \"#utility.yul\":12120:12142   */\n      and\n        /* \"#utility.yul\":12170:12206   */\n      tag_342\n        /* \"#utility.yul\":12201:12205   */\n      dup7\n        /* \"#utility.yul\":12170:12206   */\n      tag_178\n      jump\t// in\n    tag_342:\n        /* \"#utility.yul\":12228:12229   */\n      0x00\n        /* \"#utility.yul\":12242:12450   */\n    tag_343:\n        /* \"#utility.yul\":12256:12263   */\n      dup3\n        /* \"#utility.yul\":12253:12254   */\n      dup2\n        /* \"#utility.yul\":12250:12264   */\n      lt\n        /* \"#utility.yul\":12242:12450   */\n      iszero\n      tag_345\n      jumpi\n        /* \"#utility.yul\":12335:12344   */\n      dup5\n        /* \"#utility.yul\":12330:12333   */\n      dup10\n        /* \"#utility.yul\":12326:12345   */\n      add\n        /* \"#utility.yul\":12320:12346   */\n      mload\n        /* \"#utility.yul\":12312:12318   */\n      dup3\n        /* \"#utility.yul\":12305:12347   */\n      sstore\n        /* \"#utility.yul\":12386:12387   */\n      0x01\n        /* \"#utility.yul\":12378:12384   */\n      dup3\n        /* \"#utility.yul\":12374:12388   */\n      add\n        /* \"#utility.yul\":12364:12388   */\n      swap2\n      pop\n        /* \"#utility.yul\":12433:12435   */\n      0x20\n        /* \"#utility.yul\":12422:12431   */\n      dup6\n        /* \"#utility.yul\":12418:12436   */\n      add\n        /* \"#utility.yul\":12405:12436   */\n      swap5\n      pop\n        /* \"#utility.yul\":12279:12283   */\n      0x20\n        /* \"#utility.yul\":12276:12277   */\n      dup2\n        /* \"#utility.yul\":12272:12284   */\n      add\n        /* \"#utility.yul\":12267:12284   */\n      swap1\n      pop\n        /* \"#utility.yul\":12242:12450   */\n      jump(tag_343)\n    tag_345:\n        /* \"#utility.yul\":12478:12484   */\n      dup7\n        /* \"#utility.yul\":12469:12476   */\n      dup4\n        /* \"#utility.yul\":12466:12485   */\n      lt\n        /* \"#utility.yul\":12463:12642   */\n      iszero\n      tag_346\n      jumpi\n        /* \"#utility.yul\":12536:12545   */\n      dup5\n        /* \"#utility.yul\":12531:12534   */\n      dup10\n        /* \"#utility.yul\":12527:12546   */\n      add\n        /* \"#utility.yul\":12521:12547   */\n      mload\n        /* \"#utility.yul\":12579:12627   */\n      tag_347\n        /* \"#utility.yul\":12621:12625   */\n      0x1f\n        /* \"#utility.yul\":12613:12619   */\n      dup10\n        /* \"#utility.yul\":12609:12626   */\n      and\n        /* \"#utility.yul\":12598:12607   */\n      dup3\n        /* \"#utility.yul\":12579:12627   */\n      tag_191\n      jump\t// in\n    tag_347:\n        /* \"#utility.yul\":12571:12577   */\n      dup4\n        /* \"#utility.yul\":12564:12628   */\n      sstore\n        /* \"#utility.yul\":12486:12642   */\n      pop\n        /* \"#utility.yul\":12463:12642   */\n    tag_346:\n        /* \"#utility.yul\":12688:12689   */\n      0x01\n        /* \"#utility.yul\":12684:12685   */\n      0x02\n        /* \"#utility.yul\":12676:12682   */\n      dup9\n        /* \"#utility.yul\":12672:12686   */\n      mul\n        /* \"#utility.yul\":12668:12690   */\n      add\n        /* \"#utility.yul\":12662:12666   */\n      dup9\n        /* \"#utility.yul\":12655:12691   */\n      sstore\n        /* \"#utility.yul\":12091:12701   */\n      pop\n      pop\n      pop\n        /* \"#utility.yul\":12054:12940   */\n    tag_338:\n      pop\n        /* \"#utility.yul\":11646:12946   */\n      pop\n      pop\n      pop\n        /* \"#utility.yul\":11556:12946   */\n      pop\n      pop\n      jump\t// out\n        /* \"#utility.yul\":12952:13132   */\n    tag_193:\n        /* \"#utility.yul\":13000:13077   */\n      0x4e487b7100000000000000000000000000000000000000000000000000000000\n        /* \"#utility.yul\":12997:12998   */\n      0x00\n        /* \"#utility.yul\":12990:13078   */\n      mstore\n        /* \"#utility.yul\":13097:13101   */\n      0x11\n        /* \"#utility.yul\":13094:13095   */\n      0x04\n        /* \"#utility.yul\":13087:13102   */\n      mstore\n        /* \"#utility.yul\":13121:13125   */\n      0x24\n        /* \"#utility.yul\":13118:13119   */\n      0x00\n        /* \"#utility.yul\":13111:13126   */\n      revert\n        /* \"#utility.yul\":13138:13332   */\n    tag_83:\n        /* \"#utility.yul\":13178:13182   */\n      0x00\n        /* \"#utility.yul\":13198:13218   */\n      tag_350\n        /* \"#utility.yul\":13216:13217   */\n      dup3\n        /* \"#utility.yul\":13198:13218   */\n      tag_150\n      jump\t// in\n    tag_350:\n        /* \"#utility.yul\":13193:13218   */\n      swap2\n      pop\n        /* \"#utility.yul\":13232:13252   */\n      tag_351\n        /* \"#utility.yul\":13250:13251   */\n      dup4\n        /* \"#utility.yul\":13232:13252   */\n      tag_150\n      jump\t// in\n    tag_351:\n        /* \"#utility.yul\":13227:13252   */\n      swap3\n      pop\n        /* \"#utility.yul\":13276:13277   */\n      dup3\n        /* \"#utility.yul\":13273:13274   */\n      dup3\n        /* \"#utility.yul\":13269:13278   */\n      sub\n        /* \"#utility.yul\":13261:13278   */\n      swap1\n      pop\n        /* \"#utility.yul\":13300:13301   */\n      dup2\n        /* \"#utility.yul\":13294:13298   */\n      dup2\n        /* \"#utility.yul\":13291:13302   */\n      gt\n        /* \"#utility.yul\":13288:13325   */\n      iszero\n      tag_352\n      jumpi\n        /* \"#utility.yul\":13305:13323   */\n      tag_353\n      tag_193\n      jump\t// in\n    tag_353:\n        /* \"#utility.yul\":13288:13325   */\n    tag_352:\n        /* \"#utility.yul\":13138:13332   */\n      swap3\n      swap2\n      pop\n      pop\n      jump\t// out\n        /* \"#utility.yul\":13338:13501   */\n    tag_194:\n        /* \"#utility.yul\":13478:13493   */\n      0x646f65736e277420657869737400000000000000000000000000000000000000\n        /* \"#utility.yul\":13474:13475   */\n      0x00\n        /* \"#utility.yul\":13466:13472   */\n      dup3\n        /* \"#utility.yul\":13462:13476   */\n      add\n        /* \"#utility.yul\":13455:13494   */\n      mstore\n        /* \"#utility.yul\":13338:13501   */\n      pop\n      jump\t// out\n        /* \"#utility.yul\":13507:13873   */\n    tag_195:\n        /* \"#utility.yul\":13649:13652   */\n      0x00\n        /* \"#utility.yul\":13670:13737   */\n      tag_356\n        /* \"#utility.yul\":13734:13736   */\n      0x0d\n        /* \"#utility.yul\":13729:13732   */\n      dup4\n        /* \"#utility.yul\":13670:13737   */\n      tag_173\n      jump\t// in\n    tag_356:\n        /* \"#utility.yul\":13663:13737   */\n      swap2\n      pop\n        /* \"#utility.yul\":13746:13839   */\n      tag_357\n        /* \"#utility.yul\":13835:13838   */\n      dup3\n        /* \"#utility.yul\":13746:13839   */\n      tag_194\n      jump\t// in\n    tag_357:\n        /* \"#utility.yul\":13864:13866   */\n      0x20\n        /* \"#utility.yul\":13859:13862   */\n      dup3\n        /* \"#utility.yul\":13855:13867   */\n      add\n        /* \"#utility.yul\":13848:13867   */\n      swap1\n      pop\n        /* \"#utility.yul\":13507:13873   */\n      swap2\n      swap1\n      pop\n      jump\t// out\n        /* \"#utility.yul\":13879:14298   */\n    tag_91:\n        /* \"#utility.yul\":14045:14049   */\n      0x00\n        /* \"#utility.yul\":14083:14085   */\n      0x20\n        /* \"#utility.yul\":14072:14081   */\n      dup3\n        /* \"#utility.yul\":14068:14086   */\n      add\n        /* \"#utility.yul\":14060:14086   */\n      swap1\n      pop\n        /* \"#utility.yul\":14132:14141   */\n      dup2\n        /* \"#utility.yul\":14126:14130   */\n      dup2\n        /* \"#utility.yul\":14122:14142   */\n      sub\n        /* \"#utility.yul\":14118:14119   */\n      0x00\n        /* \"#utility.yul\":14107:14116   */\n      dup4\n        /* \"#utility.yul\":14103:14120   */\n      add\n        /* \"#utility.yul\":14096:14143   */\n      mstore\n        /* \"#utility.yul\":14160:14291   */\n      tag_359\n        /* \"#utility.yul\":14286:14290   */\n      dup2\n        /* \"#utility.yul\":14160:14291   */\n      tag_195\n      jump\t// in\n    tag_359:\n        /* \"#utility.yul\":14152:14291   */\n      swap1\n      pop\n        /* \"#utility.yul\":13879:14298   */\n      swap2\n      swap1\n      pop\n      jump\t// out\n        /* \"#utility.yul\":14304:14484   */\n    tag_95:\n        /* \"#utility.yul\":14352:14429   */\n      0x4e487b7100000000000000000000000000000000000000000000000000000000\n        /* \"#utility.yul\":14349:14350   */\n      0x00\n        /* \"#utility.yul\":14342:14430   */\n      mstore\n        /* \"#utility.yul\":14449:14453   */\n      0x32\n        /* \"#utility.yul\":14446:14447   */\n      0x04\n        /* \"#utility.yul\":14439:14454   */\n      mstore\n        /* \"#utility.yul\":14473:14477   */\n      0x24\n        /* \"#utility.yul\":14470:14471   */\n      0x00\n        /* \"#utility.yul\":14463:14478   */\n      revert\n        /* \"#utility.yul\":14490:14653   */\n    tag_196:\n        /* \"#utility.yul\":14630:14645   */\n      0x7478206973206578656374656400000000000000000000000000000000000000\n        /* \"#utility.yul\":14626:14627   */\n      0x00\n        /* \"#utility.yul\":14618:14624   */\n      dup3\n        /* \"#utility.yul\":14614:14628   */\n      add\n        /* \"#utility.yul\":14607:14646   */\n      mstore\n        /* \"#utility.yul\":14490:14653   */\n      pop\n      jump\t// out\n        /* \"#utility.yul\":14659:15025   */\n    tag_197:\n        /* \"#utility.yul\":14801:14804   */\n      0x00\n        /* \"#utility.yul\":14822:14889   */\n      tag_363\n        /* \"#utility.yul\":14886:14888   */\n      0x0d\n        /* \"#utility.yul\":14881:14884   */\n      dup4\n        /* \"#utility.yul\":14822:14889   */\n      tag_173\n      jump\t// in\n    tag_363:\n        /* \"#utility.yul\":14815:14889   */\n      swap2\n      pop\n        /* \"#utility.yul\":14898:14991   */\n      tag_364\n        /* \"#utility.yul\":14987:14990   */\n      dup3\n        /* \"#utility.yul\":14898:14991   */\n      tag_196\n      jump\t// in\n    tag_364:\n        /* \"#utility.yul\":15016:15018   */\n      0x20\n        /* \"#utility.yul\":15011:15014   */\n      dup3\n        /* \"#utility.yul\":15007:15019   */\n      add\n        /* \"#utility.yul\":15000:15019   */\n      swap1\n      pop\n        /* \"#utility.yul\":14659:15025   */\n      swap2\n      swap1\n      pop\n      jump\t// out\n        /* \"#utility.yul\":15031:15450   */\n    tag_99:\n        /* \"#utility.yul\":15197:15201   */\n      0x00\n        /* \"#utility.yul\":15235:15237   */\n      0x20\n        /* \"#utility.yul\":15224:15233   */\n      dup3\n        /* \"#utility.yul\":15220:15238   */\n      add\n        /* \"#utility.yul\":15212:15238   */\n      swap1\n      pop\n        /* \"#utility.yul\":15284:15293   */\n      dup2\n        /* \"#utility.yul\":15278:15282   */\n      dup2\n        /* \"#utility.yul\":15274:15294   */\n      sub\n        /* \"#utility.yul\":15270:15271   */\n      0x00\n        /* \"#utility.yul\":15259:15268   */\n      dup4\n        /* \"#utility.yul\":15255:15272   */\n      add\n        /* \"#utility.yul\":15248:15295   */\n      mstore\n        /* \"#utility.yul\":15312:15443   */\n      tag_366\n        /* \"#utility.yul\":15438:15442   */\n      dup2\n        /* \"#utility.yul\":15312:15443   */\n      tag_197\n      jump\t// in\n    tag_366:\n        /* \"#utility.yul\":15304:15443   */\n      swap1\n      pop\n        /* \"#utility.yul\":15031:15450   */\n      swap2\n      swap1\n      pop\n      jump\t// out\n        /* \"#utility.yul\":15456:15621   */\n    tag_198:\n        /* \"#utility.yul\":15596:15613   */\n      0x7478206e6f7420617070726f7665640000000000000000000000000000000000\n        /* \"#utility.yul\":15592:15593   */\n      0x00\n        /* \"#utility.yul\":15584:15590   */\n      dup3\n        /* \"#utility.yul\":15580:15594   */\n      add\n        /* \"#utility.yul\":15573:15614   */\n      mstore\n        /* \"#utility.yul\":15456:15621   */\n      pop\n      jump\t// out\n        /* \"#utility.yul\":15627:15993   */\n    tag_199:\n        /* \"#utility.yul\":15769:15772   */\n      0x00\n        /* \"#utility.yul\":15790:15857   */\n      tag_369\n        /* \"#utility.yul\":15854:15856   */\n      0x0f\n        /* \"#utility.yul\":15849:15852   */\n      dup4\n        /* \"#utility.yul\":15790:15857   */\n      tag_173\n      jump\t// in\n    tag_369:\n        /* \"#utility.yul\":15783:15857   */\n      swap2\n      pop\n        /* \"#utility.yul\":15866:15959   */\n      tag_370\n        /* \"#utility.yul\":15955:15958   */\n      dup3\n        /* \"#utility.yul\":15866:15959   */\n      tag_198\n      jump\t// in\n    tag_370:\n        /* \"#utility.yul\":15984:15986   */\n      0x20\n        /* \"#utility.yul\":15979:15982   */\n      dup3\n        /* \"#utility.yul\":15975:15987   */\n      add\n        /* \"#utility.yul\":15968:15987   */\n      swap1\n      pop\n        /* \"#utility.yul\":15627:15993   */\n      swap2\n      swap1\n      pop\n      jump\t// out\n        /* \"#utility.yul\":15999:16418   */\n    tag_103:\n        /* \"#utility.yul\":16165:16169   */\n      0x00\n        /* \"#utility.yul\":16203:16205   */\n      0x20\n        /* \"#utility.yul\":16192:16201   */\n      dup3\n        /* \"#utility.yul\":16188:16206   */\n      add\n        /* \"#utility.yul\":16180:16206   */\n      swap1\n      pop\n        /* \"#utility.yul\":16252:16261   */\n      dup2\n        /* \"#utility.yul\":16246:16250   */\n      dup2\n        /* \"#utility.yul\":16242:16262   */\n      sub\n        /* \"#utility.yul\":16238:16239   */\n      0x00\n        /* \"#utility.yul\":16227:16236   */\n      dup4\n        /* \"#utility.yul\":16223:16240   */\n      add\n        /* \"#utility.yul\":16216:16263   */\n      mstore\n        /* \"#utility.yul\":16280:16411   */\n      tag_372\n        /* \"#utility.yul\":16406:16410   */\n      dup2\n        /* \"#utility.yul\":16280:16411   */\n      tag_199\n      jump\t// in\n    tag_372:\n        /* \"#utility.yul\":16272:16411   */\n      swap1\n      pop\n        /* \"#utility.yul\":15999:16418   */\n      swap2\n      swap1\n      pop\n      jump\t// out\n        /* \"#utility.yul\":16424:16594   */\n    tag_200:\n        /* \"#utility.yul\":16564:16586   */\n      0x617070726f76616c73203c207265717569726564000000000000000000000000\n        /* \"#utility.yul\":16560:16561   */\n      0x00\n        /* \"#utility.yul\":16552:16558   */\n      dup3\n        /* \"#utility.yul\":16548:16562   */\n      add\n        /* \"#utility.yul\":16541:16587   */\n      mstore\n        /* \"#utility.yul\":16424:16594   */\n      pop\n      jump\t// out\n        /* \"#utility.yul\":16600:16966   */\n    tag_201:\n        /* \"#utility.yul\":16742:16745   */\n      0x00\n        /* \"#utility.yul\":16763:16830   */\n      tag_375\n        /* \"#utility.yul\":16827:16829   */\n      0x14\n        /* \"#utility.yul\":16822:16825   */\n      dup4\n        /* \"#utility.yul\":16763:16830   */\n      tag_173\n      jump\t// in\n    tag_375:\n        /* \"#utility.yul\":16756:16830   */\n      swap2\n      pop\n        /* \"#utility.yul\":16839:16932   */\n      tag_376\n        /* \"#utility.yul\":16928:16931   */\n      dup3\n        /* \"#utility.yul\":16839:16932   */\n      tag_200\n      jump\t// in\n    tag_376:\n        /* \"#utility.yul\":16957:16959   */\n      0x20\n        /* \"#utility.yul\":16952:16955   */\n      dup3\n        /* \"#utility.yul\":16948:16960   */\n      add\n        /* \"#utility.yul\":16941:16960   */\n      swap1\n      pop\n        /* \"#utility.yul\":16600:16966   */\n      swap2\n      swap1\n      pop\n      jump\t// out\n        /* \"#utility.yul\":16972:17391   */\n    tag_128:\n        /* \"#utility.yul\":17138:17142   */\n      0x00\n        /* \"#utility.yul\":17176:17178   */\n      0x20\n        /* \"#utility.yul\":17165:17174   */\n      dup3\n        /* \"#utility.yul\":17161:17179   */\n      add\n        /* \"#utility.yul\":17153:17179   */\n      swap1\n      pop\n        /* \"#utility.yul\":17225:17234   */\n      dup2\n        /* \"#utility.yul\":17219:17223   */\n      dup2\n        /* \"#utility.yul\":17215:17235   */\n      sub\n        /* \"#utility.yul\":17211:17212   */\n      0x00\n        /* \"#utility.yul\":17200:17209   */\n      dup4\n        /* \"#utility.yul\":17196:17213   */\n      add\n        /* \"#utility.yul\":17189:17236   */\n      mstore\n        /* \"#utility.yul\":17253:17384   */\n      tag_378\n        /* \"#utility.yul\":17379:17383   */\n      dup2\n        /* \"#utility.yul\":17253:17384   */\n      tag_201\n      jump\t// in\n    tag_378:\n        /* \"#utility.yul\":17245:17384   */\n      swap1\n      pop\n        /* \"#utility.yul\":16972:17391   */\n      swap2\n      swap1\n      pop\n      jump\t// out\n        /* \"#utility.yul\":17397:17544   */\n    tag_202:\n        /* \"#utility.yul\":17498:17509   */\n      0x00\n        /* \"#utility.yul\":17535:17538   */\n      dup2\n        /* \"#utility.yul\":17520:17538   */\n      swap1\n      pop\n        /* \"#utility.yul\":17397:17544   */\n      swap3\n      swap2\n      pop\n      pop\n      jump\t// out\n        /* \"#utility.yul\":17572:18442   */\n    tag_203:\n        /* \"#utility.yul\":17673:17676   */\n      0x00\n        /* \"#utility.yul\":17710:17715   */\n      dup2\n        /* \"#utility.yul\":17704:17716   */\n      sload\n        /* \"#utility.yul\":17739:17775   */\n      tag_381\n        /* \"#utility.yul\":17765:17774   */\n      dup2\n        /* \"#utility.yul\":17739:17775   */\n      tag_107\n      jump\t// in\n    tag_381:\n        /* \"#utility.yul\":17791:17879   */\n      tag_382\n        /* \"#utility.yul\":17872:17878   */\n      dup2\n        /* \"#utility.yul\":17867:17870   */\n      dup7\n        /* \"#utility.yul\":17791:17879   */\n      tag_202\n      jump\t// in\n    tag_382:\n        /* \"#utility.yul\":17784:17879   */\n      swap5\n      pop\n        /* \"#utility.yul\":17910:17911   */\n      0x01\n        /* \"#utility.yul\":17899:17908   */\n      dup3\n        /* \"#utility.yul\":17895:17912   */\n      and\n        /* \"#utility.yul\":17926:17927   */\n      0x00\n        /* \"#utility.yul\":17921:18087   */\n      dup2\n      eq\n      tag_384\n      jumpi\n        /* \"#utility.yul\":18101:18102   */\n      0x01\n        /* \"#utility.yul\":18096:18436   */\n      dup2\n      eq\n      tag_385\n      jumpi\n        /* \"#utility.yul\":17888:18436   */\n      jump(tag_383)\n        /* \"#utility.yul\":17921:18087   */\n    tag_384:\n        /* \"#utility.yul\":18005:18009   */\n      0xff\n        /* \"#utility.yul\":18001:18010   */\n      not\n        /* \"#utility.yul\":17990:17999   */\n      dup4\n        /* \"#utility.yul\":17986:18011   */\n      and\n        /* \"#utility.yul\":17981:17984   */\n      dup7\n        /* \"#utility.yul\":17974:18012   */\n      mstore\n        /* \"#utility.yul\":18067:18073   */\n      dup2\n        /* \"#utility.yul\":18060:18074   */\n      iszero\n        /* \"#utility.yul\":18053:18075   */\n      iszero\n        /* \"#utility.yul\":18045:18051   */\n      dup3\n        /* \"#utility.yul\":18041:18076   */\n      mul\n        /* \"#utility.yul\":18036:18039   */\n      dup7\n        /* \"#utility.yul\":18032:18077   */\n      add\n        /* \"#utility.yul\":18025:18077   */\n      swap4\n      pop\n        /* \"#utility.yul\":17921:18087   */\n      jump(tag_383)\n        /* \"#utility.yul\":18096:18436   */\n    tag_385:\n        /* \"#utility.yul\":18163:18200   */\n      tag_386\n        /* \"#utility.yul\":18194:18199   */\n      dup6\n        /* \"#utility.yul\":18163:18200   */\n      tag_178\n      jump\t// in\n    tag_386:\n        /* \"#utility.yul\":18222:18223   */\n      0x00\n        /* \"#utility.yul\":18236:18390   */\n    tag_387:\n        /* \"#utility.yul\":18250:18256   */\n      dup4\n        /* \"#utility.yul\":18247:18248   */\n      dup2\n        /* \"#utility.yul\":18244:18257   */\n      lt\n        /* \"#utility.yul\":18236:18390   */\n      iszero\n      tag_389\n      jumpi\n        /* \"#utility.yul\":18324:18331   */\n      dup2\n        /* \"#utility.yul\":18318:18332   */\n      sload\n        /* \"#utility.yul\":18314:18315   */\n      dup2\n        /* \"#utility.yul\":18309:18312   */\n      dup10\n        /* \"#utility.yul\":18305:18316   */\n      add\n        /* \"#utility.yul\":18298:18333   */\n      mstore\n        /* \"#utility.yul\":18374:18375   */\n      0x01\n        /* \"#utility.yul\":18365:18372   */\n      dup3\n        /* \"#utility.yul\":18361:18376   */\n      add\n        /* \"#utility.yul\":18350:18376   */\n      swap2\n      pop\n        /* \"#utility.yul\":18272:18276   */\n      0x20\n        /* \"#utility.yul\":18269:18270   */\n      dup2\n        /* \"#utility.yul\":18265:18277   */\n      add\n        /* \"#utility.yul\":18260:18277   */\n      swap1\n      pop\n        /* \"#utility.yul\":18236:18390   */\n      jump(tag_387)\n    tag_389:\n        /* \"#utility.yul\":18419:18425   */\n      dup4\n        /* \"#utility.yul\":18414:18417   */\n      dup9\n        /* \"#utility.yul\":18410:18426   */\n      add\n        /* \"#utility.yul\":18403:18426   */\n      swap6\n      pop\n        /* \"#utility.yul\":18103:18436   */\n      pop\n      pop\n        /* \"#utility.yul\":17888:18436   */\n    tag_383:\n      pop\n        /* \"#utility.yul\":17677:18442   */\n      pop\n      pop\n        /* \"#utility.yul\":17572:18442   */\n      swap3\n      swap2\n      pop\n      pop\n      jump\t// out\n        /* \"#utility.yul\":18448:18713   */\n    tag_133:\n        /* \"#utility.yul\":18575:18578   */\n      0x00\n        /* \"#utility.yul\":18597:18687   */\n      tag_391\n        /* \"#utility.yul\":18683:18686   */\n      dup3\n        /* \"#utility.yul\":18674:18680   */\n      dup5\n        /* \"#utility.yul\":18597:18687   */\n      tag_203\n      jump\t// in\n    tag_391:\n        /* \"#utility.yul\":18590:18687   */\n      swap2\n      pop\n        /* \"#utility.yul\":18704:18707   */\n      dup2\n        /* \"#utility.yul\":18697:18707   */\n      swap1\n      pop\n        /* \"#utility.yul\":18448:18713   */\n      swap3\n      swap2\n      pop\n      pop\n      jump\t// out\n        /* \"#utility.yul\":18719:18878   */\n    tag_204:\n        /* \"#utility.yul\":18859:18870   */\n      0x7478206661696c65640000000000000000000000000000000000000000000000\n        /* \"#utility.yul\":18855:18856   */\n      0x00\n        /* \"#utility.yul\":18847:18853   */\n      dup3\n        /* \"#utility.yul\":18843:18857   */\n      add\n        /* \"#utility.yul\":18836:18871   */\n      mstore\n        /* \"#utility.yul\":18719:18878   */\n      pop\n      jump\t// out\n        /* \"#utility.yul\":18884:19249   */\n    tag_205:\n        /* \"#utility.yul\":19026:19029   */\n      0x00\n        /* \"#utility.yul\":19047:19113   */\n      tag_394\n        /* \"#utility.yul\":19111:19112   */\n      0x09\n        /* \"#utility.yul\":19106:19109   */\n      dup4\n        /* \"#utility.yul\":19047:19113   */\n      tag_173\n      jump\t// in\n    tag_394:\n        /* \"#utility.yul\":19040:19113   */\n      swap2\n      pop\n        /* \"#utility.yul\":19122:19215   */\n      tag_395\n        /* \"#utility.yul\":19211:19214   */\n      dup3\n        /* \"#utility.yul\":19122:19215   */\n      tag_204\n      jump\t// in\n    tag_395:\n        /* \"#utility.yul\":19240:19242   */\n      0x20\n        /* \"#utility.yul\":19235:19238   */\n      dup3\n        /* \"#utility.yul\":19231:19243   */\n      add\n        /* \"#utility.yul\":19224:19243   */\n      swap1\n      pop\n        /* \"#utility.yul\":18884:19249   */\n      swap2\n      swap1\n      pop\n      jump\t// out\n        /* \"#utility.yul\":19255:19674   */\n    tag_139:\n        /* \"#utility.yul\":19421:19425   */\n      0x00\n        /* \"#utility.yul\":19459:19461   */\n      0x20\n        /* \"#utility.yul\":19448:19457   */\n      dup3\n        /* \"#utility.yul\":19444:19462   */\n      add\n        /* \"#utility.yul\":19436:19462   */\n      swap1\n      pop\n        /* \"#utility.yul\":19508:19517   */\n      dup2\n        /* \"#utility.yul\":19502:19506   */\n      dup2\n        /* \"#utility.yul\":19498:19518   */\n      sub\n        /* \"#utility.yul\":19494:19495   */\n      0x00\n        /* \"#utility.yul\":19483:19492   */\n      dup4\n        /* \"#utility.yul\":19479:19496   */\n      add\n        /* \"#utility.yul\":19472:19519   */\n      mstore\n        /* \"#utility.yul\":19536:19667   */\n      tag_397\n        /* \"#utility.yul\":19662:19666   */\n      dup2\n        /* \"#utility.yul\":19536:19667   */\n      tag_205\n      jump\t// in\n    tag_397:\n        /* \"#utility.yul\":19528:19667   */\n      swap1\n      pop\n        /* \"#utility.yul\":19255:19674   */\n      swap2\n      swap1\n      pop\n      jump\t// out\n        /* \"#utility.yul\":19680:19871   */\n    tag_149:\n        /* \"#utility.yul\":19720:19723   */\n      0x00\n        /* \"#utility.yul\":19739:19759   */\n      tag_399\n        /* \"#utility.yul\":19757:19758   */\n      dup3\n        /* \"#utility.yul\":19739:19759   */\n      tag_150\n      jump\t// in\n    tag_399:\n        /* \"#utility.yul\":19734:19759   */\n      swap2\n      pop\n        /* \"#utility.yul\":19773:19793   */\n      tag_400\n        /* \"#utility.yul\":19791:19792   */\n      dup4\n        /* \"#utility.yul\":19773:19793   */\n      tag_150\n      jump\t// in\n    tag_400:\n        /* \"#utility.yul\":19768:19793   */\n      swap3\n      pop\n        /* \"#utility.yul\":19816:19817   */\n      dup3\n        /* \"#utility.yul\":19813:19814   */\n      dup3\n        /* \"#utility.yul\":19809:19818   */\n      add\n        /* \"#utility.yul\":19802:19818   */\n      swap1\n      pop\n        /* \"#utility.yul\":19837:19840   */\n      dup1\n        /* \"#utility.yul\":19834:19835   */\n      dup3\n        /* \"#utility.yul\":19831:19841   */\n      gt\n        /* \"#utility.yul\":19828:19864   */\n      iszero\n      tag_401\n      jumpi\n        /* \"#utility.yul\":19844:19862   */\n      tag_402\n      tag_193\n      jump\t// in\n    tag_402:\n        /* \"#utility.yul\":19828:19864   */\n    tag_401:\n        /* \"#utility.yul\":19680:19871   */\n      swap3\n      swap2\n      pop\n      pop\n      jump\t// out\n\n    auxdata: 0xa26469706673582212201841d7eca1322cfbac8c715f64d4884812e08930ee90ce57c11035ee08f0c44c64736f6c634300081a0033\n}\n",
				"bytecode": {
					"linkReferences": {},
					"object": "608060405234801561000f575f80fd5b50604051611dfb380380611dfb833981810160405281019061003191906104a2565b5f825111610074576040517f08c379a000000000000000000000000000000000000000000000000000000000815260040161006b90610556565b60405180910390fd5b5f81118015610084575081518111155b6100c3576040517f08c379a00000000000000000000000000000000000000000000000000000000081526004016100ba906105e4565b60405180910390fd5b5f5b82518110156102a5575f8382815181106100e2576100e1610602565b5b602002602001015190505f73ffffffffffffffffffffffffffffffffffffffff168173ffffffffffffffffffffffffffffffffffffffff160361015a576040517f08c379a000000000000000000000000000000000000000000000000000000000815260040161015190610679565b60405180910390fd5b60015f8273ffffffffffffffffffffffffffffffffffffffff1673ffffffffffffffffffffffffffffffffffffffff1681526020019081526020015f205f9054906101000a900460ff16156101e4576040517f08c379a00000000000000000000000000000000000000000000000000000000081526004016101db906106e1565b60405180910390fd5b6001805f8373ffffffffffffffffffffffffffffffffffffffff1673ffffffffffffffffffffffffffffffffffffffff1681526020019081526020015f205f6101000a81548160ff0219169083151502179055505f81908060018154018082558091505060019003905f5260205f20015f9091909190916101000a81548173ffffffffffffffffffffffffffffffffffffffff021916908373ffffffffffffffffffffffffffffffffffffffff1602179055505080806001019150506100c5565b508060028190555050506106ff565b5f604051905090565b5f80fd5b5f80fd5b5f80fd5b5f601f19601f8301169050919050565b7f4e487b71000000000000000000000000000000000000000000000000000000005f52604160045260245ffd5b61030f826102c9565b810181811067ffffffffffffffff8211171561032e5761032d6102d9565b5b80604052505050565b5f6103406102b4565b905061034c8282610306565b919050565b5f67ffffffffffffffff82111561036b5761036a6102d9565b5b602082029050602081019050919050565b5f80fd5b5f73ffffffffffffffffffffffffffffffffffffffff82169050919050565b5f6103a982610380565b9050919050565b6103b98161039f565b81146103c3575f80fd5b50565b5f815190506103d4816103b0565b92915050565b5f6103ec6103e784610351565b610337565b9050808382526020820190506020840283018581111561040f5761040e61037c565b5b835b81811015610438578061042488826103c6565b845260208401935050602081019050610411565b5050509392505050565b5f82601f830112610456576104556102c5565b5b81516104668482602086016103da565b91505092915050565b5f819050919050565b6104818161046f565b811461048b575f80fd5b50565b5f8151905061049c81610478565b92915050565b5f80604083850312156104b8576104b76102bd565b5b5f83015167ffffffffffffffff8111156104d5576104d46102c1565b5b6104e185828601610442565b92505060206104f28582860161048e565b9150509250929050565b5f82825260208201905092915050565b7f6f776e65722072657175697265640000000000000000000000000000000000005f82015250565b5f610540600e836104fc565b915061054b8261050c565b602082019050919050565b5f6020820190508181035f83015261056d81610534565b9050919050565b7f696e76616c6964207265717569726564206e756d626572206f66206f776e65725f8201527f7300000000000000000000000000000000000000000000000000000000000000602082015250565b5f6105ce6021836104fc565b91506105d982610574565b604082019050919050565b5f6020820190508181035f8301526105fb816105c2565b9050919050565b7f4e487b71000000000000000000000000000000000000000000000000000000005f52603260045260245ffd5b7f696e76616c6964206f776e6572000000000000000000000000000000000000005f82015250565b5f610663600d836104fc565b915061066e8261062f565b602082019050919050565b5f6020820190508181035f83015261069081610657565b9050919050565b7f6f776e6572206973206e6f7420756e69717565000000000000000000000000005f82015250565b5f6106cb6013836104fc565b91506106d682610697565b602082019050919050565b5f6020820190508181035f8301526106f8816106bf565b9050919050565b6116ef8061070c5f395ff3fe608060405260043610610094575f3560e01c80638253951a116100585780638253951a146101f35780639ace38c21461022f578063b759f9541461026e578063ba7e7cab14610296578063dc8452cd146102d2576100e9565b8063025e7c27146100ed57806312065fe01461012957806314de327f1461015357806320c5429b1461018f5780632f54bf6e146101b7576100e9565b366100e9573373ffffffffffffffffffffffffffffffffffffffff167fe1fffcc4923d04b559f4d29a8bfc6cda04eb5b0d3c460751c2402c5c5cc9109c346040516100df9190610cc3565b60405180910390a2005b5f80fd5b3480156100f8575f80fd5b50610113600480360381019061010e9190610d0e565b6102fc565b6040516101209190610d78565b60405180910390f35b348015610134575f80fd5b5061013d610336565b60405161014a9190610cc3565b60405180910390f35b34801561015e575f80fd5b5061017960048036038101906101749190610e1c565b61033d565b6040516101869190610cc3565b60405180910390f35b34801561019a575f80fd5b506101b560048036038101906101b09190610d0e565b61054a565b005b3480156101c2575f80fd5b506101dd60048036038101906101d89190610e8d565b6107d0565b6040516101ea9190610ed2565b60405180910390f35b3480156101fe575f80fd5b5061021960048036038101906102149190610eeb565b6107ed565b6040516102269190610ed2565b60405180910390f35b34801561023a575f80fd5b5061025560048036038101906102509190610d0e565b610817565b6040516102659493929190610f99565b60405180910390f35b348015610279575f80fd5b50610294600480360381019061028f9190610d0e565b610903565b005b3480156102a1575f80fd5b506102bc60048036038101906102b79190610d0e565b610bd8565b6040516102c99190610cc3565b60405180910390f35b3480156102dd575f80fd5b506102e6610ca5565b6040516102f39190610cc3565b60405180910390f35b5f818154811061030a575f80fd5b905f5260205f20015f915054906101000a900473ffffffffffffffffffffffffffffffffffffffff1681565b5f47905090565b5f60015f3373ffffffffffffffffffffffffffffffffffffffff1673ffffffffffffffffffffffffffffffffffffffff1681526020019081526020015f205f9054906101000a900460ff166103c7576040517f08c379a00000000000000000000000000000000000000000000000000000000081526004016103be9061103d565b60405180910390fd5b600360405180608001604052808773ffffffffffffffffffffffffffffffffffffffff16815260200186815260200185858080601f0160208091040260200160405190810160405280939291908181526020018383808284375f81840152601f19601f8201169050808301925050505050505081526020015f1515815250908060018154018082558091505060019003905f5260205f2090600402015f909190919091505f820151815f015f6101000a81548173ffffffffffffffffffffffffffffffffffffffff021916908373ffffffffffffffffffffffffffffffffffffffff1602179055506020820151816001015560408201518160020190816104ce9190611282565b506060820151816003015f6101000a81548160ff02191690831515021790555050506001600380549050610502919061137e565b7f08324b3d745b914e3abd4ffbfead91e3b78391a98c173202129215ab933adfbe60405160405180910390a26001600380549050610540919061137e565b9050949350505050565b60015f3373ffffffffffffffffffffffffffffffffffffffff1673ffffffffffffffffffffffffffffffffffffffff1681526020019081526020015f205f9054906101000a900460ff166105d3576040517f08c379a00000000000000000000000000000000000000000000000000000000081526004016105ca9061103d565b60405180910390fd5b80600380549050811061061b576040517f08c379a0000000000000000000000000000000000000000000000000000000008152600401610612906113fb565b60405180910390fd5b81600381815481106106305761062f611419565b5b905f5260205f2090600402016003015f9054906101000a900460ff161561068c576040517f08c379a000000000000000000000000000000000000000000000000000000000815260040161068390611490565b60405180910390fd5b60045f8481526020019081526020015f205f3373ffffffffffffffffffffffffffffffffffffffff1673ffffffffffffffffffffffffffffffffffffffff1681526020019081526020015f205f9054906101000a900460ff16610724576040517f08c379a000000000000000000000000000000000000000000000000000000000815260040161071b906114f8565b60405180910390fd5b5f60045f8581526020019081526020015f205f3373ffffffffffffffffffffffffffffffffffffffff1673ffffffffffffffffffffffffffffffffffffffff1681526020019081526020015f205f6101000a81548160ff021916908315150217905550823373ffffffffffffffffffffffffffffffffffffffff167fec9ab91322523c899ede7830ec9bfc992b5981cdcc27b91162fb23de5791117b60405160405180910390a3505050565b6001602052805f5260405f205f915054906101000a900460ff1681565b6004602052815f5260405f20602052805f5260405f205f915091509054906101000a900460ff1681565b60038181548110610826575f80fd5b905f5260205f2090600402015f91509050805f015f9054906101000a900473ffffffffffffffffffffffffffffffffffffffff1690806001015490806002018054610870906110b5565b80601f016020809104026020016040519081016040528092919081815260200182805461089c906110b5565b80156108e75780601f106108be576101008083540402835291602001916108e7565b820191905f5260205f20905b8154815290600101906020018083116108ca57829003601f168201915b505050505090806003015f9054906101000a900460ff16905084565b60015f3373ffffffffffffffffffffffffffffffffffffffff1673ffffffffffffffffffffffffffffffffffffffff1681526020019081526020015f205f9054906101000a900460ff1661098c576040517f08c379a00000000000000000000000000000000000000000000000000000000081526004016109839061103d565b60405180910390fd5b8060038054905081106109d4576040517f08c379a00000000000000000000000000000000000000000000000000000000081526004016109cb906113fb565b60405180910390fd5b81600381815481106109e9576109e8611419565b5b905f5260205f2090600402016003015f9054906101000a900460ff1615610a45576040517f08c379a0000000000000000000000000000000000000000000000000000000008152600401610a3c90611490565b60405180910390fd5b600254610a5184610bd8565b1015610a92576040517f08c379a0000000000000000000000000000000000000000000000000000000008152600401610a8990611560565b60405180910390fd5b5f60038481548110610aa757610aa6611419565b5b905f5260205f20906004020190506001816003015f6101000a81548160ff0219169083151502179055505f815f015f9054906101000a900473ffffffffffffffffffffffffffffffffffffffff1673ffffffffffffffffffffffffffffffffffffffff16826001015483600201604051610b219190611608565b5f6040518083038185875af1925050503d805f8114610b5b576040519150601f19603f3d011682016040523d82523d5f602084013e610b60565b606091505b5050905080610ba4576040517f08c379a0000000000000000000000000000000000000000000000000000000008152600401610b9b90611668565b60405180910390fd5b847fddb556f1d2c1ec821e910b019d3685b229db152a0ecd517ca7e24b8bd713928960405160405180910390a25050505050565b5f805f90505b5f80549050811015610c9f5760045f8481526020019081526020015f205f808381548110610c0f57610c0e611419565b5b905f5260205f20015f9054906101000a900473ffffffffffffffffffffffffffffffffffffffff1673ffffffffffffffffffffffffffffffffffffffff1673ffffffffffffffffffffffffffffffffffffffff1681526020019081526020015f205f9054906101000a900460ff1615610c9257600182610c8f9190611686565b91505b8080600101915050610bde565b50919050565b60025481565b5f819050919050565b610cbd81610cab565b82525050565b5f602082019050610cd65f830184610cb4565b92915050565b5f80fd5b5f80fd5b610ced81610cab565b8114610cf7575f80fd5b50565b5f81359050610d0881610ce4565b92915050565b5f60208284031215610d2357610d22610cdc565b5b5f610d3084828501610cfa565b91505092915050565b5f73ffffffffffffffffffffffffffffffffffffffff82169050919050565b5f610d6282610d39565b9050919050565b610d7281610d58565b82525050565b5f602082019050610d8b5f830184610d69565b92915050565b610d9a81610d58565b8114610da4575f80fd5b50565b5f81359050610db581610d91565b92915050565b5f80fd5b5f80fd5b5f80fd5b5f8083601f840112610ddc57610ddb610dbb565b5b8235905067ffffffffffffffff811115610df957610df8610dbf565b5b602083019150836001820283011115610e1557610e14610dc3565b5b9250929050565b5f805f8060608587031215610e3457610e33610cdc565b5b5f610e4187828801610da7565b9450506020610e5287828801610cfa565b935050604085013567ffffffffffffffff811115610e7357610e72610ce0565b5b610e7f87828801610dc7565b925092505092959194509250565b5f60208284031215610ea257610ea1610cdc565b5b5f610eaf84828501610da7565b91505092915050565b5f8115159050919050565b610ecc81610eb8565b82525050565b5f602082019050610ee55f830184610ec3565b92915050565b5f8060408385031215610f0157610f00610cdc565b5b5f610f0e85828601610cfa565b9250506020610f1f85828601610da7565b9150509250929050565b5f81519050919050565b5f82825260208201905092915050565b8281835e5f83830152505050565b5f601f19601f8301169050919050565b5f610f6b82610f29565b610f758185610f33565b9350610f85818560208601610f43565b610f8e81610f51565b840191505092915050565b5f608082019050610fac5f830187610d69565b610fb96020830186610cb4565b8181036040830152610fcb8185610f61565b9050610fda6060830184610ec3565b95945050505050565b5f82825260208201905092915050565b7f6e6f74206f776e657200000000000000000000000000000000000000000000005f82015250565b5f611027600983610fe3565b915061103282610ff3565b602082019050919050565b5f6020820190508181035f8301526110548161101b565b9050919050565b7f4e487b71000000000000000000000000000000000000000000000000000000005f52604160045260245ffd5b7f4e487b71000000000000000000000000000000000000000000000000000000005f52602260045260245ffd5b5f60028204905060018216806110cc57607f821691505b6020821081036110df576110de611088565b5b50919050565b5f819050815f5260205f209050919050565b5f6020601f8301049050919050565b5f82821b905092915050565b5f600883026111417fffffffffffffffffffffffffffffffffffffffffffffffffffffffffffffffff82611106565b61114b8683611106565b95508019841693508086168417925050509392505050565b5f819050919050565b5f61118661118161117c84610cab565b611163565b610cab565b9050919050565b5f819050919050565b61119f8361116c565b6111b36111ab8261118d565b848454611112565b825550505050565b5f90565b6111c76111bb565b6111d2818484611196565b505050565b5b818110156111f5576111ea5f826111bf565b6001810190506111d8565b5050565b601f82111561123a5761120b816110e5565b611214846110f7565b81016020851015611223578190505b61123761122f856110f7565b8301826111d7565b50505b505050565b5f82821c905092915050565b5f61125a5f198460080261123f565b1980831691505092915050565b5f611272838361124b565b9150826002028217905092915050565b61128b82610f29565b67ffffffffffffffff8111156112a4576112a361105b565b5b6112ae82546110b5565b6112b98282856111f9565b5f60209050601f8311600181146112ea575f84156112d8578287015190505b6112e28582611267565b865550611349565b601f1984166112f8866110e5565b5f5b8281101561131f578489015182556001820191506020850194506020810190506112fa565b8683101561133c5784890151611338601f89168261124b565b8355505b6001600288020188555050505b505050505050565b7f4e487b71000000000000000000000000000000000000000000000000000000005f52601160045260245ffd5b5f61138882610cab565b915061139383610cab565b92508282039050818111156113ab576113aa611351565b5b92915050565b7f646f65736e2774206578697374000000000000000000000000000000000000005f82015250565b5f6113e5600d83610fe3565b91506113f0826113b1565b602082019050919050565b5f6020820190508181035f830152611412816113d9565b9050919050565b7f4e487b71000000000000000000000000000000000000000000000000000000005f52603260045260245ffd5b7f74782069732065786563746564000000000000000000000000000000000000005f82015250565b5f61147a600d83610fe3565b915061148582611446565b602082019050919050565b5f6020820190508181035f8301526114a78161146e565b9050919050565b7f7478206e6f7420617070726f76656400000000000000000000000000000000005f82015250565b5f6114e2600f83610fe3565b91506114ed826114ae565b602082019050919050565b5f6020820190508181035f83015261150f816114d6565b9050919050565b7f617070726f76616c73203c2072657175697265640000000000000000000000005f82015250565b5f61154a601483610fe3565b915061155582611516565b602082019050919050565b5f6020820190508181035f8301526115778161153e565b9050919050565b5f81905092915050565b5f8154611594816110b5565b61159e818661157e565b9450600182165f81146115b857600181146115cd576115ff565b60ff19831686528115158202860193506115ff565b6115d6856110e5565b5f5b838110156115f7578154818901526001820191506020810190506115d8565b838801955050505b50505092915050565b5f6116138284611588565b915081905092915050565b7f7478206661696c656400000000000000000000000000000000000000000000005f82015250565b5f611652600983610fe3565b915061165d8261161e565b602082019050919050565b5f6020820190508181035f83015261167f81611646565b9050919050565b5f61169082610cab565b915061169b83610cab565b92508282019050808211156116b3576116b2611351565b5b9291505056fea26469706673582212201841d7eca1322cfbac8c715f64d4884812e08930ee90ce57c11035ee08f0c44c64736f6c634300081a0033",
					"opcodes": "PUSH1 0x80 PUSH1 0x40 MSTORE CALLVALUE DUP1 ISZERO PUSH2 0xF JUMPI PUSH0 DUP1 REVERT JUMPDEST POP PUSH1 0x40 MLOAD PUSH2 0x1DFB CODESIZE SUB DUP1 PUSH2 0x1DFB DUP4 CODECOPY DUP2 DUP2 ADD PUSH1 0x40 MSTORE DUP2 ADD SWAP1 PUSH2 0x31 SWAP2 SWAP1 PUSH2 0x4A2 JUMP JUMPDEST PUSH0 DUP3 MLOAD GT PUSH2 0x74 JUMPI PUSH1 0x40 MLOAD PUSH32 0x8C379A000000000000000000000000000000000000000000000000000000000 DUP2 MSTORE PUSH1 0x4 ADD PUSH2 0x6B SWAP1 PUSH2 0x556 JUMP JUMPDEST PUSH1 0x40 MLOAD DUP1 SWAP2 SUB SWAP1 REVERT JUMPDEST PUSH0 DUP2 GT DUP1 ISZERO PUSH2 0x84 JUMPI POP DUP2 MLOAD DUP2 GT ISZERO JUMPDEST PUSH2 0xC3 JUMPI PUSH1 0x40 MLOAD PUSH32 0x8C379A000000000000000000000000000000000000000000000000000000000 DUP2 MSTORE PUSH1 0x4 ADD PUSH2 0xBA SWAP1 PUSH2 0x5E4 JUMP JUMPDEST PUSH1 0x40 MLOAD DUP1 SWAP2 SUB SWAP1 REVERT JUMPDEST PUSH0 JUMPDEST DUP3 MLOAD DUP2 LT ISZERO PUSH2 0x2A5 JUMPI PUSH0 DUP4 DUP3 DUP2 MLOAD DUP2 LT PUSH2 0xE2 JUMPI PUSH2 0xE1 PUSH2 0x602 JUMP JUMPDEST JUMPDEST PUSH1 0x20 MUL PUSH1 0x20 ADD ADD MLOAD SWAP1 POP PUSH0 PUSH20 0xFFFFFFFFFFFFFFFFFFFFFFFFFFFFFFFFFFFFFFFF AND DUP2 PUSH20 0xFFFFFFFFFFFFFFFFFFFFFFFFFFFFFFFFFFFFFFFF AND SUB PUSH2 0x15A JUMPI PUSH1 0x40 MLOAD PUSH32 0x8C379A000000000000000000000000000000000000000000000000000000000 DUP2 MSTORE PUSH1 0x4 ADD PUSH2 0x151 SWAP1 PUSH2 0x679 JUMP JUMPDEST PUSH1 0x40 MLOAD DUP1 SWAP2 SUB SWAP1 REVERT JUMPDEST PUSH1 0x1 PUSH0 DUP3 PUSH20 0xFFFFFFFFFFFFFFFFFFFFFFFFFFFFFFFFFFFFFFFF AND PUSH20 0xFFFFFFFFFFFFFFFFFFFFFFFFFFFFFFFFFFFFFFFF AND DUP2 MSTORE PUSH1 0x20 ADD SWAP1 DUP2 MSTORE PUSH1 0x20 ADD PUSH0 KECCAK256 PUSH0 SWAP1 SLOAD SWAP1 PUSH2 0x100 EXP SWAP1 DIV PUSH1 0xFF AND ISZERO PUSH2 0x1E4 JUMPI PUSH1 0x40 MLOAD PUSH32 0x8C379A000000000000000000000000000000000000000000000000000000000 DUP2 MSTORE PUSH1 0x4 ADD PUSH2 0x1DB SWAP1 PUSH2 0x6E1 JUMP JUMPDEST PUSH1 0x40 MLOAD DUP1 SWAP2 SUB SWAP1 REVERT JUMPDEST PUSH1 0x1 DUP1 PUSH0 DUP4 PUSH20 0xFFFFFFFFFFFFFFFFFFFFFFFFFFFFFFFFFFFFFFFF AND PUSH20 0xFFFFFFFFFFFFFFFFFFFFFFFFFFFFFFFFFFFFFFFF AND DUP2 MSTORE PUSH1 0x20 ADD SWAP1 DUP2 MSTORE PUSH1 0x20 ADD PUSH0 KECCAK256 PUSH0 PUSH2 0x100 EXP DUP2 SLOAD DUP2 PUSH1 0xFF MUL NOT AND SWAP1 DUP4 ISZERO ISZERO MUL OR SWAP1 SSTORE POP PUSH0 DUP2 SWAP1 DUP1 PUSH1 0x1 DUP2 SLOAD ADD DUP1 DUP3 SSTORE DUP1 SWAP2 POP POP PUSH1 0x1 SWAP1 SUB SWAP1 PUSH0 MSTORE PUSH1 0x20 PUSH0 KECCAK256 ADD PUSH0 SWAP1 SWAP2 SWAP1 SWAP2 SWAP1 SWAP2 PUSH2 0x100 EXP DUP2 SLOAD DUP2 PUSH20 0xFFFFFFFFFFFFFFFFFFFFFFFFFFFFFFFFFFFFFFFF MUL NOT AND SWAP1 DUP4 PUSH20 0xFFFFFFFFFFFFFFFFFFFFFFFFFFFFFFFFFFFFFFFF AND MUL OR SWAP1 SSTORE POP POP DUP1 DUP1 PUSH1 0x1 ADD SWAP2 POP POP PUSH2 0xC5 JUMP JUMPDEST POP DUP1 PUSH1 0x2 DUP2 SWAP1 SSTORE POP POP POP PUSH2 0x6FF JUMP JUMPDEST PUSH0 PUSH1 0x40 MLOAD SWAP1 POP SWAP1 JUMP JUMPDEST PUSH0 DUP1 REVERT JUMPDEST PUSH0 DUP1 REVERT JUMPDEST PUSH0 DUP1 REVERT JUMPDEST PUSH0 PUSH1 0x1F NOT PUSH1 0x1F DUP4 ADD AND SWAP1 POP SWAP2 SWAP1 POP JUMP JUMPDEST PUSH32 0x4E487B7100000000000000000000000000000000000000000000000000000000 PUSH0 MSTORE PUSH1 0x41 PUSH1 0x4 MSTORE PUSH1 0x24 PUSH0 REVERT JUMPDEST PUSH2 0x30F DUP3 PUSH2 0x2C9 JUMP JUMPDEST DUP2 ADD DUP2 DUP2 LT PUSH8 0xFFFFFFFFFFFFFFFF DUP3 GT OR ISZERO PUSH2 0x32E JUMPI PUSH2 0x32D PUSH2 0x2D9 JUMP JUMPDEST JUMPDEST DUP1 PUSH1 0x40 MSTORE POP POP POP JUMP JUMPDEST PUSH0 PUSH2 0x340 PUSH2 0x2B4 JUMP JUMPDEST SWAP1 POP PUSH2 0x34C DUP3 DUP3 PUSH2 0x306 JUMP JUMPDEST SWAP2 SWAP1 POP JUMP JUMPDEST PUSH0 PUSH8 0xFFFFFFFFFFFFFFFF DUP3 GT ISZERO PUSH2 0x36B JUMPI PUSH2 0x36A PUSH2 0x2D9 JUMP JUMPDEST JUMPDEST PUSH1 0x20 DUP3 MUL SWAP1 POP PUSH1 0x20 DUP2 ADD SWAP1 POP SWAP2 SWAP1 POP JUMP JUMPDEST PUSH0 DUP1 REVERT JUMPDEST PUSH0 PUSH20 0xFFFFFFFFFFFFFFFFFFFFFFFFFFFFFFFFFFFFFFFF DUP3 AND SWAP1 POP SWAP2 SWAP1 POP JUMP JUMPDEST PUSH0 PUSH2 0x3A9 DUP3 PUSH2 0x380 JUMP JUMPDEST SWAP1 POP SWAP2 SWAP1 POP JUMP JUMPDEST PUSH2 0x3B9 DUP2 PUSH2 0x39F JUMP JUMPDEST DUP2 EQ PUSH2 0x3C3 JUMPI PUSH0 DUP1 REVERT JUMPDEST POP JUMP JUMPDEST PUSH0 DUP2 MLOAD SWAP1 POP PUSH2 0x3D4 DUP2 PUSH2 0x3B0 JUMP JUMPDEST SWAP3 SWAP2 POP POP JUMP JUMPDEST PUSH0 PUSH2 0x3EC PUSH2 0x3E7 DUP5 PUSH2 0x351 JUMP JUMPDEST PUSH2 0x337 JUMP JUMPDEST SWAP1 POP DUP1 DUP4 DUP3 MSTORE PUSH1 0x20 DUP3 ADD SWAP1 POP PUSH1 0x20 DUP5 MUL DUP4 ADD DUP6 DUP2 GT ISZERO PUSH2 0x40F JUMPI PUSH2 0x40E PUSH2 0x37C JUMP JUMPDEST JUMPDEST DUP4 JUMPDEST DUP2 DUP2 LT ISZERO PUSH2 0x438 JUMPI DUP1 PUSH2 0x424 DUP9 DUP3 PUSH2 0x3C6 JUMP JUMPDEST DUP5 MSTORE PUSH1 0x20 DUP5 ADD SWAP4 POP POP PUSH1 0x20 DUP2 ADD SWAP1 POP PUSH2 0x411 JUMP JUMPDEST POP POP POP SWAP4 SWAP3 POP POP POP JUMP JUMPDEST PUSH0 DUP3 PUSH1 0x1F DUP4 ADD SLT PUSH2 0x456 JUMPI PUSH2 0x455 PUSH2 0x2C5 JUMP JUMPDEST JUMPDEST DUP2 MLOAD PUSH2 0x466 DUP5 DUP3 PUSH1 0x20 DUP7 ADD PUSH2 0x3DA JUMP JUMPDEST SWAP2 POP POP SWAP3 SWAP2 POP POP JUMP JUMPDEST PUSH0 DUP2 SWAP1 POP SWAP2 SWAP1 POP JUMP JUMPDEST PUSH2 0x481 DUP2 PUSH2 0x46F JUMP JUMPDEST DUP2 EQ PUSH2 0x48B JUMPI PUSH0 DUP1 REVERT JUMPDEST POP JUMP JUMPDEST PUSH0 DUP2 MLOAD SWAP1 POP PUSH2 0x49C DUP2 PUSH2 0x478 JUMP JUMPDEST SWAP3 SWAP2 POP POP JUMP JUMPDEST PUSH0 DUP1 PUSH1 0x40 DUP4 DUP6 SUB SLT ISZERO PUSH2 0x4B8 JUMPI PUSH2 0x4B7 PUSH2 0x2BD JUMP JUMPDEST JUMPDEST PUSH0 DUP4 ADD MLOAD PUSH8 0xFFFFFFFFFFFFFFFF DUP2 GT ISZERO PUSH2 0x4D5 JUMPI PUSH2 0x4D4 PUSH2 0x2C1 JUMP JUMPDEST JUMPDEST PUSH2 0x4E1 DUP6 DUP3 DUP7 ADD PUSH2 0x442 JUMP JUMPDEST SWAP3 POP POP PUSH1 0x20 PUSH2 0x4F2 DUP6 DUP3 DUP7 ADD PUSH2 0x48E JUMP JUMPDEST SWAP2 POP POP SWAP3 POP SWAP3 SWAP1 POP JUMP JUMPDEST PUSH0 DUP3 DUP3 MSTORE PUSH1 0x20 DUP3 ADD SWAP1 POP SWAP3 SWAP2 POP POP JUMP JUMPDEST PUSH32 0x6F776E6572207265717569726564000000000000000000000000000000000000 PUSH0 DUP3 ADD MSTORE POP JUMP JUMPDEST PUSH0 PUSH2 0x540 PUSH1 0xE DUP4 PUSH2 0x4FC JUMP JUMPDEST SWAP2 POP PUSH2 0x54B DUP3 PUSH2 0x50C JUMP JUMPDEST PUSH1 0x20 DUP3 ADD SWAP1 POP SWAP2 SWAP1 POP JUMP JUMPDEST PUSH0 PUSH1 0x20 DUP3 ADD SWAP1 POP DUP2 DUP2 SUB PUSH0 DUP4 ADD MSTORE PUSH2 0x56D DUP2 PUSH2 0x534 JUMP JUMPDEST SWAP1 POP SWAP2 SWAP1 POP JUMP JUMPDEST PUSH32 0x696E76616C6964207265717569726564206E756D626572206F66206F776E6572 PUSH0 DUP3 ADD MSTORE PUSH32 0x7300000000000000000000000000000000000000000000000000000000000000 PUSH1 0x20 DUP3 ADD MSTORE POP JUMP JUMPDEST PUSH0 PUSH2 0x5CE PUSH1 0x21 DUP4 PUSH2 0x4FC JUMP JUMPDEST SWAP2 POP PUSH2 0x5D9 DUP3 PUSH2 0x574 JUMP JUMPDEST PUSH1 0x40 DUP3 ADD SWAP1 POP SWAP2 SWAP1 POP JUMP JUMPDEST PUSH0 PUSH1 0x20 DUP3 ADD SWAP1 POP DUP2 DUP2 SUB PUSH0 DUP4 ADD MSTORE PUSH2 0x5FB DUP2 PUSH2 0x5C2 JUMP JUMPDEST SWAP1 POP SWAP2 SWAP1 POP JUMP JUMPDEST PUSH32 0x4E487B7100000000000000000000000000000000000000000000000000000000 PUSH0 MSTORE PUSH1 0x32 PUSH1 0x4 MSTORE PUSH1 0x24 PUSH0 REVERT JUMPDEST PUSH32 0x696E76616C6964206F776E657200000000000000000000000000000000000000 PUSH0 DUP3 ADD MSTORE POP JUMP JUMPDEST PUSH0 PUSH2 0x663 PUSH1 0xD DUP4 PUSH2 0x4FC JUMP JUMPDEST SWAP2 POP PUSH2 0x66E DUP3 PUSH2 0x62F JUMP JUMPDEST PUSH1 0x20 DUP3 ADD SWAP1 POP SWAP2 SWAP1 POP JUMP JUMPDEST PUSH0 PUSH1 0x20 DUP3 ADD SWAP1 POP DUP2 DUP2 SUB PUSH0 DUP4 ADD MSTORE PUSH2 0x690 DUP2 PUSH2 0x657 JUMP JUMPDEST SWAP1 POP SWAP2 SWAP1 POP JUMP JUMPDEST PUSH32 0x6F776E6572206973206E6F7420756E6971756500000000000000000000000000 PUSH0 DUP3 ADD MSTORE POP JUMP JUMPDEST PUSH0 PUSH2 0x6CB PUSH1 0x13 DUP4 PUSH2 0x4FC JUMP JUMPDEST SWAP2 POP PUSH2 0x6D6 DUP3 PUSH2 0x697 JUMP JUMPDEST PUSH1 0x20 DUP3 ADD SWAP1 POP SWAP2 SWAP1 POP JUMP JUMPDEST PUSH0 PUSH1 0x20 DUP3 ADD SWAP1 POP DUP2 DUP2 SUB PUSH0 DUP4 ADD MSTORE PUSH2 0x6F8 DUP2 PUSH2 0x6BF JUMP JUMPDEST SWAP1 POP SWAP2 SWAP1 POP JUMP JUMPDEST PUSH2 0x16EF DUP1 PUSH2 0x70C PUSH0 CODECOPY PUSH0 RETURN INVALID PUSH1 0x80 PUSH1 0x40 MSTORE PUSH1 0x4 CALLDATASIZE LT PUSH2 0x94 JUMPI PUSH0 CALLDATALOAD PUSH1 0xE0 SHR DUP1 PUSH4 0x8253951A GT PUSH2 0x58 JUMPI DUP1 PUSH4 0x8253951A EQ PUSH2 0x1F3 JUMPI DUP1 PUSH4 0x9ACE38C2 EQ PUSH2 0x22F JUMPI DUP1 PUSH4 0xB759F954 EQ PUSH2 0x26E JUMPI DUP1 PUSH4 0xBA7E7CAB EQ PUSH2 0x296 JUMPI DUP1 PUSH4 0xDC8452CD EQ PUSH2 0x2D2 JUMPI PUSH2 0xE9 JUMP JUMPDEST DUP1 PUSH4 0x25E7C27 EQ PUSH2 0xED JUMPI DUP1 PUSH4 0x12065FE0 EQ PUSH2 0x129 JUMPI DUP1 PUSH4 0x14DE327F EQ PUSH2 0x153 JUMPI DUP1 PUSH4 0x20C5429B EQ PUSH2 0x18F JUMPI DUP1 PUSH4 0x2F54BF6E EQ PUSH2 0x1B7 JUMPI PUSH2 0xE9 JUMP JUMPDEST CALLDATASIZE PUSH2 0xE9 JUMPI CALLER PUSH20 0xFFFFFFFFFFFFFFFFFFFFFFFFFFFFFFFFFFFFFFFF AND PUSH32 0xE1FFFCC4923D04B559F4D29A8BFC6CDA04EB5B0D3C460751C2402C5C5CC9109C CALLVALUE PUSH1 0x40 MLOAD PUSH2 0xDF SWAP2 SWAP1 PUSH2 0xCC3 JUMP JUMPDEST PUSH1 0x40 MLOAD DUP1 SWAP2 SUB SWAP1 LOG2 STOP JUMPDEST PUSH0 DUP1 REVERT JUMPDEST CALLVALUE DUP1 ISZERO PUSH2 0xF8 JUMPI PUSH0 DUP1 REVERT JUMPDEST POP PUSH2 0x113 PUSH1 0x4 DUP1 CALLDATASIZE SUB DUP2 ADD SWAP1 PUSH2 0x10E SWAP2 SWAP1 PUSH2 0xD0E JUMP JUMPDEST PUSH2 0x2FC JUMP JUMPDEST PUSH1 0x40 MLOAD PUSH2 0x120 SWAP2 SWAP1 PUSH2 0xD78 JUMP JUMPDEST PUSH1 0x40 MLOAD DUP1 SWAP2 SUB SWAP1 RETURN JUMPDEST CALLVALUE DUP1 ISZERO PUSH2 0x134 JUMPI PUSH0 DUP1 REVERT JUMPDEST POP PUSH2 0x13D PUSH2 0x336 JUMP JUMPDEST PUSH1 0x40 MLOAD PUSH2 0x14A SWAP2 SWAP1 PUSH2 0xCC3 JUMP JUMPDEST PUSH1 0x40 MLOAD DUP1 SWAP2 SUB SWAP1 RETURN JUMPDEST CALLVALUE DUP1 ISZERO PUSH2 0x15E JUMPI PUSH0 DUP1 REVERT JUMPDEST POP PUSH2 0x179 PUSH1 0x4 DUP1 CALLDATASIZE SUB DUP2 ADD SWAP1 PUSH2 0x174 SWAP2 SWAP1 PUSH2 0xE1C JUMP JUMPDEST PUSH2 0x33D JUMP JUMPDEST PUSH1 0x40 MLOAD PUSH2 0x186 SWAP2 SWAP1 PUSH2 0xCC3 JUMP JUMPDEST PUSH1 0x40 MLOAD DUP1 SWAP2 SUB SWAP1 RETURN JUMPDEST CALLVALUE DUP1 ISZERO PUSH2 0x19A JUMPI PUSH0 DUP1 REVERT JUMPDEST POP PUSH2 0x1B5 PUSH1 0x4 DUP1 CALLDATASIZE SUB DUP2 ADD SWAP1 PUSH2 0x1B0 SWAP2 SWAP1 PUSH2 0xD0E JUMP JUMPDEST PUSH2 0x54A JUMP JUMPDEST STOP JUMPDEST CALLVALUE DUP1 ISZERO PUSH2 0x1C2 JUMPI PUSH0 DUP1 REVERT JUMPDEST POP PUSH2 0x1DD PUSH1 0x4 DUP1 CALLDATASIZE SUB DUP2 ADD SWAP1 PUSH2 0x1D8 SWAP2 SWAP1 PUSH2 0xE8D JUMP JUMPDEST PUSH2 0x7D0 JUMP JUMPDEST PUSH1 0x40 MLOAD PUSH2 0x1EA SWAP2 SWAP1 PUSH2 0xED2 JUMP JUMPDEST PUSH1 0x40 MLOAD DUP1 SWAP2 SUB SWAP1 RETURN JUMPDEST CALLVALUE DUP1 ISZERO PUSH2 0x1FE JUMPI PUSH0 DUP1 REVERT JUMPDEST POP PUSH2 0x219 PUSH1 0x4 DUP1 CALLDATASIZE SUB DUP2 ADD SWAP1 PUSH2 0x214 SWAP2 SWAP1 PUSH2 0xEEB JUMP JUMPDEST PUSH2 0x7ED JUMP JUMPDEST PUSH1 0x40 MLOAD PUSH2 0x226 SWAP2 SWAP1 PUSH2 0xED2 JUMP JUMPDEST PUSH1 0x40 MLOAD DUP1 SWAP2 SUB SWAP1 RETURN JUMPDEST CALLVALUE DUP1 ISZERO PUSH2 0x23A JUMPI PUSH0 DUP1 REVERT JUMPDEST POP PUSH2 0x255 PUSH1 0x4 DUP1 CALLDATASIZE SUB DUP2 ADD SWAP1 PUSH2 0x250 SWAP2 SWAP1 PUSH2 0xD0E JUMP JUMPDEST PUSH2 0x817 JUMP JUMPDEST PUSH1 0x40 MLOAD PUSH2 0x265 SWAP5 SWAP4 SWAP3 SWAP2 SWAP1 PUSH2 0xF99 JUMP JUMPDEST PUSH1 0x40 MLOAD DUP1 SWAP2 SUB SWAP1 RETURN JUMPDEST CALLVALUE DUP1 ISZERO PUSH2 0x279 JUMPI PUSH0 DUP1 REVERT JUMPDEST POP PUSH2 0x294 PUSH1 0x4 DUP1 CALLDATASIZE SUB DUP2 ADD SWAP1 PUSH2 0x28F SWAP2 SWAP1 PUSH2 0xD0E JUMP JUMPDEST PUSH2 0x903 JUMP JUMPDEST STOP JUMPDEST CALLVALUE DUP1 ISZERO PUSH2 0x2A1 JUMPI PUSH0 DUP1 REVERT JUMPDEST POP PUSH2 0x2BC PUSH1 0x4 DUP1 CALLDATASIZE SUB DUP2 ADD SWAP1 PUSH2 0x2B7 SWAP2 SWAP1 PUSH2 0xD0E JUMP JUMPDEST PUSH2 0xBD8 JUMP JUMPDEST PUSH1 0x40 MLOAD PUSH2 0x2C9 SWAP2 SWAP1 PUSH2 0xCC3 JUMP JUMPDEST PUSH1 0x40 MLOAD DUP1 SWAP2 SUB SWAP1 RETURN JUMPDEST CALLVALUE DUP1 ISZERO PUSH2 0x2DD JUMPI PUSH0 DUP1 REVERT JUMPDEST POP PUSH2 0x2E6 PUSH2 0xCA5 JUMP JUMPDEST PUSH1 0x40 MLOAD PUSH2 0x2F3 SWAP2 SWAP1 PUSH2 0xCC3 JUMP JUMPDEST PUSH1 0x40 MLOAD DUP1 SWAP2 SUB SWAP1 RETURN JUMPDEST PUSH0 DUP2 DUP2 SLOAD DUP2 LT PUSH2 0x30A JUMPI PUSH0 DUP1 REVERT JUMPDEST SWAP1 PUSH0 MSTORE PUSH1 0x20 PUSH0 KECCAK256 ADD PUSH0 SWAP2 POP SLOAD SWAP1 PUSH2 0x100 EXP SWAP1 DIV PUSH20 0xFFFFFFFFFFFFFFFFFFFFFFFFFFFFFFFFFFFFFFFF AND DUP2 JUMP JUMPDEST PUSH0 SELFBALANCE SWAP1 POP SWAP1 JUMP JUMPDEST PUSH0 PUSH1 0x1 PUSH0 CALLER PUSH20 0xFFFFFFFFFFFFFFFFFFFFFFFFFFFFFFFFFFFFFFFF AND PUSH20 0xFFFFFFFFFFFFFFFFFFFFFFFFFFFFFFFFFFFFFFFF AND DUP2 MSTORE PUSH1 0x20 ADD SWAP1 DUP2 MSTORE PUSH1 0x20 ADD PUSH0 KECCAK256 PUSH0 SWAP1 SLOAD SWAP1 PUSH2 0x100 EXP SWAP1 DIV PUSH1 0xFF AND PUSH2 0x3C7 JUMPI PUSH1 0x40 MLOAD PUSH32 0x8C379A000000000000000000000000000000000000000000000000000000000 DUP2 MSTORE PUSH1 0x4 ADD PUSH2 0x3BE SWAP1 PUSH2 0x103D JUMP JUMPDEST PUSH1 0x40 MLOAD DUP1 SWAP2 SUB SWAP1 REVERT JUMPDEST PUSH1 0x3 PUSH1 0x40 MLOAD DUP1 PUSH1 0x80 ADD PUSH1 0x40 MSTORE DUP1 DUP8 PUSH20 0xFFFFFFFFFFFFFFFFFFFFFFFFFFFFFFFFFFFFFFFF AND DUP2 MSTORE PUSH1 0x20 ADD DUP7 DUP2 MSTORE PUSH1 0x20 ADD DUP6 DUP6 DUP1 DUP1 PUSH1 0x1F ADD PUSH1 0x20 DUP1 SWAP2 DIV MUL PUSH1 0x20 ADD PUSH1 0x40 MLOAD SWAP1 DUP2 ADD PUSH1 0x40 MSTORE DUP1 SWAP4 SWAP3 SWAP2 SWAP1 DUP2 DUP2 MSTORE PUSH1 0x20 ADD DUP4 DUP4 DUP1 DUP3 DUP5 CALLDATACOPY PUSH0 DUP2 DUP5 ADD MSTORE PUSH1 0x1F NOT PUSH1 0x1F DUP3 ADD AND SWAP1 POP DUP1 DUP4 ADD SWAP3 POP POP POP POP POP POP POP DUP2 MSTORE PUSH1 0x20 ADD PUSH0 ISZERO ISZERO DUP2 MSTORE POP SWAP1 DUP1 PUSH1 0x1 DUP2 SLOAD ADD DUP1 DUP3 SSTORE DUP1 SWAP2 POP POP PUSH1 0x1 SWAP1 SUB SWAP1 PUSH0 MSTORE PUSH1 0x20 PUSH0 KECCAK256 SWAP1 PUSH1 0x4 MUL ADD PUSH0 SWAP1 SWAP2 SWAP1 SWAP2 SWAP1 SWAP2 POP PUSH0 DUP3 ADD MLOAD DUP2 PUSH0 ADD PUSH0 PUSH2 0x100 EXP DUP2 SLOAD DUP2 PUSH20 0xFFFFFFFFFFFFFFFFFFFFFFFFFFFFFFFFFFFFFFFF MUL NOT AND SWAP1 DUP4 PUSH20 0xFFFFFFFFFFFFFFFFFFFFFFFFFFFFFFFFFFFFFFFF AND MUL OR SWAP1 SSTORE POP PUSH1 0x20 DUP3 ADD MLOAD DUP2 PUSH1 0x1 ADD SSTORE PUSH1 0x40 DUP3 ADD MLOAD DUP2 PUSH1 0x2 ADD SWAP1 DUP2 PUSH2 0x4CE SWAP2 SWAP1 PUSH2 0x1282 JUMP JUMPDEST POP PUSH1 0x60 DUP3 ADD MLOAD DUP2 PUSH1 0x3 ADD PUSH0 PUSH2 0x100 EXP DUP2 SLOAD DUP2 PUSH1 0xFF MUL NOT AND SWAP1 DUP4 ISZERO ISZERO MUL OR SWAP1 SSTORE POP POP POP PUSH1 0x1 PUSH1 0x3 DUP1 SLOAD SWAP1 POP PUSH2 0x502 SWAP2 SWAP1 PUSH2 0x137E JUMP JUMPDEST PUSH32 0x8324B3D745B914E3ABD4FFBFEAD91E3B78391A98C173202129215AB933ADFBE PUSH1 0x40 MLOAD PUSH1 0x40 MLOAD DUP1 SWAP2 SUB SWAP1 LOG2 PUSH1 0x1 PUSH1 0x3 DUP1 SLOAD SWAP1 POP PUSH2 0x540 SWAP2 SWAP1 PUSH2 0x137E JUMP JUMPDEST SWAP1 POP SWAP5 SWAP4 POP POP POP POP JUMP JUMPDEST PUSH1 0x1 PUSH0 CALLER PUSH20 0xFFFFFFFFFFFFFFFFFFFFFFFFFFFFFFFFFFFFFFFF AND PUSH20 0xFFFFFFFFFFFFFFFFFFFFFFFFFFFFFFFFFFFFFFFF AND DUP2 MSTORE PUSH1 0x20 ADD SWAP1 DUP2 MSTORE PUSH1 0x20 ADD PUSH0 KECCAK256 PUSH0 SWAP1 SLOAD SWAP1 PUSH2 0x100 EXP SWAP1 DIV PUSH1 0xFF AND PUSH2 0x5D3 JUMPI PUSH1 0x40 MLOAD PUSH32 0x8C379A000000000000000000000000000000000000000000000000000000000 DUP2 MSTORE PUSH1 0x4 ADD PUSH2 0x5CA SWAP1 PUSH2 0x103D JUMP JUMPDEST PUSH1 0x40 MLOAD DUP1 SWAP2 SUB SWAP1 REVERT JUMPDEST DUP1 PUSH1 0x3 DUP1 SLOAD SWAP1 POP DUP2 LT PUSH2 0x61B JUMPI PUSH1 0x40 MLOAD PUSH32 0x8C379A000000000000000000000000000000000000000000000000000000000 DUP2 MSTORE PUSH1 0x4 ADD PUSH2 0x612 SWAP1 PUSH2 0x13FB JUMP JUMPDEST PUSH1 0x40 MLOAD DUP1 SWAP2 SUB SWAP1 REVERT JUMPDEST DUP2 PUSH1 0x3 DUP2 DUP2 SLOAD DUP2 LT PUSH2 0x630 JUMPI PUSH2 0x62F PUSH2 0x1419 JUMP JUMPDEST JUMPDEST SWAP1 PUSH0 MSTORE PUSH1 0x20 PUSH0 KECCAK256 SWAP1 PUSH1 0x4 MUL ADD PUSH1 0x3 ADD PUSH0 SWAP1 SLOAD SWAP1 PUSH2 0x100 EXP SWAP1 DIV PUSH1 0xFF AND ISZERO PUSH2 0x68C JUMPI PUSH1 0x40 MLOAD PUSH32 0x8C379A000000000000000000000000000000000000000000000000000000000 DUP2 MSTORE PUSH1 0x4 ADD PUSH2 0x683 SWAP1 PUSH2 0x1490 JUMP JUMPDEST PUSH1 0x40 MLOAD DUP1 SWAP2 SUB SWAP1 REVERT JUMPDEST PUSH1 0x4 PUSH0 DUP5 DUP2 MSTORE PUSH1 0x20 ADD SWAP1 DUP2 MSTORE PUSH1 0x20 ADD PUSH0 KECCAK256 PUSH0 CALLER PUSH20 0xFFFFFFFFFFFFFFFFFFFFFFFFFFFFFFFFFFFFFFFF AND PUSH20 0xFFFFFFFFFFFFFFFFFFFFFFFFFFFFFFFFFFFFFFFF AND DUP2 MSTORE PUSH1 0x20 ADD SWAP1 DUP2 MSTORE PUSH1 0x20 ADD PUSH0 KECCAK256 PUSH0 SWAP1 SLOAD SWAP1 PUSH2 0x100 EXP SWAP1 DIV PUSH1 0xFF AND PUSH2 0x724 JUMPI PUSH1 0x40 MLOAD PUSH32 0x8C379A000000000000000000000000000000000000000000000000000000000 DUP2 MSTORE PUSH1 0x4 ADD PUSH2 0x71B SWAP1 PUSH2 0x14F8 JUMP JUMPDEST PUSH1 0x40 MLOAD DUP1 SWAP2 SUB SWAP1 REVERT JUMPDEST PUSH0 PUSH1 0x4 PUSH0 DUP6 DUP2 MSTORE PUSH1 0x20 ADD SWAP1 DUP2 MSTORE PUSH1 0x20 ADD PUSH0 KECCAK256 PUSH0 CALLER PUSH20 0xFFFFFFFFFFFFFFFFFFFFFFFFFFFFFFFFFFFFFFFF AND PUSH20 0xFFFFFFFFFFFFFFFFFFFFFFFFFFFFFFFFFFFFFFFF AND DUP2 MSTORE PUSH1 0x20 ADD SWAP1 DUP2 MSTORE PUSH1 0x20 ADD PUSH0 KECCAK256 PUSH0 PUSH2 0x100 EXP DUP2 SLOAD DUP2 PUSH1 0xFF MUL NOT AND SWAP1 DUP4 ISZERO ISZERO MUL OR SWAP1 SSTORE POP DUP3 CALLER PUSH20 0xFFFFFFFFFFFFFFFFFFFFFFFFFFFFFFFFFFFFFFFF AND PUSH32 0xEC9AB91322523C899EDE7830EC9BFC992B5981CDCC27B91162FB23DE5791117B PUSH1 0x40 MLOAD PUSH1 0x40 MLOAD DUP1 SWAP2 SUB SWAP1 LOG3 POP POP POP JUMP JUMPDEST PUSH1 0x1 PUSH1 0x20 MSTORE DUP1 PUSH0 MSTORE PUSH1 0x40 PUSH0 KECCAK256 PUSH0 SWAP2 POP SLOAD SWAP1 PUSH2 0x100 EXP SWAP1 DIV PUSH1 0xFF AND DUP2 JUMP JUMPDEST PUSH1 0x4 PUSH1 0x20 MSTORE DUP2 PUSH0 MSTORE PUSH1 0x40 PUSH0 KECCAK256 PUSH1 0x20 MSTORE DUP1 PUSH0 MSTORE PUSH1 0x40 PUSH0 KECCAK256 PUSH0 SWAP2 POP SWAP2 POP SWAP1 SLOAD SWAP1 PUSH2 0x100 EXP SWAP1 DIV PUSH1 0xFF AND DUP2 JUMP JUMPDEST PUSH1 0x3 DUP2 DUP2 SLOAD DUP2 LT PUSH2 0x826 JUMPI PUSH0 DUP1 REVERT JUMPDEST SWAP1 PUSH0 MSTORE PUSH1 0x20 PUSH0 KECCAK256 SWAP1 PUSH1 0x4 MUL ADD PUSH0 SWAP2 POP SWAP1 POP DUP1 PUSH0 ADD PUSH0 SWAP1 SLOAD SWAP1 PUSH2 0x100 EXP SWAP1 DIV PUSH20 0xFFFFFFFFFFFFFFFFFFFFFFFFFFFFFFFFFFFFFFFF AND SWAP1 DUP1 PUSH1 0x1 ADD SLOAD SWAP1 DUP1 PUSH1 0x2 ADD DUP1 SLOAD PUSH2 0x870 SWAP1 PUSH2 0x10B5 JUMP JUMPDEST DUP1 PUSH1 0x1F ADD PUSH1 0x20 DUP1 SWAP2 DIV MUL PUSH1 0x20 ADD PUSH1 0x40 MLOAD SWAP1 DUP2 ADD PUSH1 0x40 MSTORE DUP1 SWAP3 SWAP2 SWAP1 DUP2 DUP2 MSTORE PUSH1 0x20 ADD DUP3 DUP1 SLOAD PUSH2 0x89C SWAP1 PUSH2 0x10B5 JUMP JUMPDEST DUP1 ISZERO PUSH2 0x8E7 JUMPI DUP1 PUSH1 0x1F LT PUSH2 0x8BE JUMPI PUSH2 0x100 DUP1 DUP4 SLOAD DIV MUL DUP4 MSTORE SWAP2 PUSH1 0x20 ADD SWAP2 PUSH2 0x8E7 JUMP JUMPDEST DUP3 ADD SWAP2 SWAP1 PUSH0 MSTORE PUSH1 0x20 PUSH0 KECCAK256 SWAP1 JUMPDEST DUP2 SLOAD DUP2 MSTORE SWAP1 PUSH1 0x1 ADD SWAP1 PUSH1 0x20 ADD DUP1 DUP4 GT PUSH2 0x8CA JUMPI DUP3 SWAP1 SUB PUSH1 0x1F AND DUP3 ADD SWAP2 JUMPDEST POP POP POP POP POP SWAP1 DUP1 PUSH1 0x3 ADD PUSH0 SWAP1 SLOAD SWAP1 PUSH2 0x100 EXP SWAP1 DIV PUSH1 0xFF AND SWAP1 POP DUP5 JUMP JUMPDEST PUSH1 0x1 PUSH0 CALLER PUSH20 0xFFFFFFFFFFFFFFFFFFFFFFFFFFFFFFFFFFFFFFFF AND PUSH20 0xFFFFFFFFFFFFFFFFFFFFFFFFFFFFFFFFFFFFFFFF AND DUP2 MSTORE PUSH1 0x20 ADD SWAP1 DUP2 MSTORE PUSH1 0x20 ADD PUSH0 KECCAK256 PUSH0 SWAP1 SLOAD SWAP1 PUSH2 0x100 EXP SWAP1 DIV PUSH1 0xFF AND PUSH2 0x98C JUMPI PUSH1 0x40 MLOAD PUSH32 0x8C379A000000000000000000000000000000000000000000000000000000000 DUP2 MSTORE PUSH1 0x4 ADD PUSH2 0x983 SWAP1 PUSH2 0x103D JUMP JUMPDEST PUSH1 0x40 MLOAD DUP1 SWAP2 SUB SWAP1 REVERT JUMPDEST DUP1 PUSH1 0x3 DUP1 SLOAD SWAP1 POP DUP2 LT PUSH2 0x9D4 JUMPI PUSH1 0x40 MLOAD PUSH32 0x8C379A000000000000000000000000000000000000000000000000000000000 DUP2 MSTORE PUSH1 0x4 ADD PUSH2 0x9CB SWAP1 PUSH2 0x13FB JUMP JUMPDEST PUSH1 0x40 MLOAD DUP1 SWAP2 SUB SWAP1 REVERT JUMPDEST DUP2 PUSH1 0x3 DUP2 DUP2 SLOAD DUP2 LT PUSH2 0x9E9 JUMPI PUSH2 0x9E8 PUSH2 0x1419 JUMP JUMPDEST JUMPDEST SWAP1 PUSH0 MSTORE PUSH1 0x20 PUSH0 KECCAK256 SWAP1 PUSH1 0x4 MUL ADD PUSH1 0x3 ADD PUSH0 SWAP1 SLOAD SWAP1 PUSH2 0x100 EXP SWAP1 DIV PUSH1 0xFF AND ISZERO PUSH2 0xA45 JUMPI PUSH1 0x40 MLOAD PUSH32 0x8C379A000000000000000000000000000000000000000000000000000000000 DUP2 MSTORE PUSH1 0x4 ADD PUSH2 0xA3C SWAP1 PUSH2 0x1490 JUMP JUMPDEST PUSH1 0x40 MLOAD DUP1 SWAP2 SUB SWAP1 REVERT JUMPDEST PUSH1 0x2 SLOAD PUSH2 0xA51 DUP5 PUSH2 0xBD8 JUMP JUMPDEST LT ISZERO PUSH2 0xA92 JUMPI PUSH1 0x40 MLOAD PUSH32 0x8C379A000000000000000000000000000000000000000000000000000000000 DUP2 MSTORE PUSH1 0x4 ADD PUSH2 0xA89 SWAP1 PUSH2 0x1560 JUMP JUMPDEST PUSH1 0x40 MLOAD DUP1 SWAP2 SUB SWAP1 REVERT JUMPDEST PUSH0 PUSH1 0x3 DUP5 DUP2 SLOAD DUP2 LT PUSH2 0xAA7 JUMPI PUSH2 0xAA6 PUSH2 0x1419 JUMP JUMPDEST JUMPDEST SWAP1 PUSH0 MSTORE PUSH1 0x20 PUSH0 KECCAK256 SWAP1 PUSH1 0x4 MUL ADD SWAP1 POP PUSH1 0x1 DUP2 PUSH1 0x3 ADD PUSH0 PUSH2 0x100 EXP DUP2 SLOAD DUP2 PUSH1 0xFF MUL NOT AND SWAP1 DUP4 ISZERO ISZERO MUL OR SWAP1 SSTORE POP PUSH0 DUP2 PUSH0 ADD PUSH0 SWAP1 SLOAD SWAP1 PUSH2 0x100 EXP SWAP1 DIV PUSH20 0xFFFFFFFFFFFFFFFFFFFFFFFFFFFFFFFFFFFFFFFF AND PUSH20 0xFFFFFFFFFFFFFFFFFFFFFFFFFFFFFFFFFFFFFFFF AND DUP3 PUSH1 0x1 ADD SLOAD DUP4 PUSH1 0x2 ADD PUSH1 0x40 MLOAD PUSH2 0xB21 SWAP2 SWAP1 PUSH2 0x1608 JUMP JUMPDEST PUSH0 PUSH1 0x40 MLOAD DUP1 DUP4 SUB DUP2 DUP6 DUP8 GAS CALL SWAP3 POP POP POP RETURNDATASIZE DUP1 PUSH0 DUP2 EQ PUSH2 0xB5B JUMPI PUSH1 0x40 MLOAD SWAP2 POP PUSH1 0x1F NOT PUSH1 0x3F RETURNDATASIZE ADD AND DUP3 ADD PUSH1 0x40 MSTORE RETURNDATASIZE DUP3 MSTORE RETURNDATASIZE PUSH0 PUSH1 0x20 DUP5 ADD RETURNDATACOPY PUSH2 0xB60 JUMP JUMPDEST PUSH1 0x60 SWAP2 POP JUMPDEST POP POP SWAP1 POP DUP1 PUSH2 0xBA4 JUMPI PUSH1 0x40 MLOAD PUSH32 0x8C379A000000000000000000000000000000000000000000000000000000000 DUP2 MSTORE PUSH1 0x4 ADD PUSH2 0xB9B SWAP1 PUSH2 0x1668 JUMP JUMPDEST PUSH1 0x40 MLOAD DUP1 SWAP2 SUB SWAP1 REVERT JUMPDEST DUP5 PUSH32 0xDDB556F1D2C1EC821E910B019D3685B229DB152A0ECD517CA7E24B8BD7139289 PUSH1 0x40 MLOAD PUSH1 0x40 MLOAD DUP1 SWAP2 SUB SWAP1 LOG2 POP POP POP POP POP JUMP JUMPDEST PUSH0 DUP1 PUSH0 SWAP1 POP JUMPDEST PUSH0 DUP1 SLOAD SWAP1 POP DUP2 LT ISZERO PUSH2 0xC9F JUMPI PUSH1 0x4 PUSH0 DUP5 DUP2 MSTORE PUSH1 0x20 ADD SWAP1 DUP2 MSTORE PUSH1 0x20 ADD PUSH0 KECCAK256 PUSH0 DUP1 DUP4 DUP2 SLOAD DUP2 LT PUSH2 0xC0F JUMPI PUSH2 0xC0E PUSH2 0x1419 JUMP JUMPDEST JUMPDEST SWAP1 PUSH0 MSTORE PUSH1 0x20 PUSH0 KECCAK256 ADD PUSH0 SWAP1 SLOAD SWAP1 PUSH2 0x100 EXP SWAP1 DIV PUSH20 0xFFFFFFFFFFFFFFFFFFFFFFFFFFFFFFFFFFFFFFFF AND PUSH20 0xFFFFFFFFFFFFFFFFFFFFFFFFFFFFFFFFFFFFFFFF AND PUSH20 0xFFFFFFFFFFFFFFFFFFFFFFFFFFFFFFFFFFFFFFFF AND DUP2 MSTORE PUSH1 0x20 ADD SWAP1 DUP2 MSTORE PUSH1 0x20 ADD PUSH0 KECCAK256 PUSH0 SWAP1 SLOAD SWAP1 PUSH2 0x100 EXP SWAP1 DIV PUSH1 0xFF AND ISZERO PUSH2 0xC92 JUMPI PUSH1 0x1 DUP3 PUSH2 0xC8F SWAP2 SWAP1 PUSH2 0x1686 JUMP JUMPDEST SWAP2 POP JUMPDEST DUP1 DUP1 PUSH1 0x1 ADD SWAP2 POP POP PUSH2 0xBDE JUMP JUMPDEST POP SWAP2 SWAP1 POP JUMP JUMPDEST PUSH1 0x2 SLOAD DUP2 JUMP JUMPDEST PUSH0 DUP2 SWAP1 POP SWAP2 SWAP1 POP JUMP JUMPDEST PUSH2 0xCBD DUP2 PUSH2 0xCAB JUMP JUMPDEST DUP3 MSTORE POP POP JUMP JUMPDEST PUSH0 PUSH1 0x20 DUP3 ADD SWAP1 POP PUSH2 0xCD6 PUSH0 DUP4 ADD DUP5 PUSH2 0xCB4 JUMP JUMPDEST SWAP3 SWAP2 POP POP JUMP JUMPDEST PUSH0 DUP1 REVERT JUMPDEST PUSH0 DUP1 REVERT JUMPDEST PUSH2 0xCED DUP2 PUSH2 0xCAB JUMP JUMPDEST DUP2 EQ PUSH2 0xCF7 JUMPI PUSH0 DUP1 REVERT JUMPDEST POP JUMP JUMPDEST PUSH0 DUP2 CALLDATALOAD SWAP1 POP PUSH2 0xD08 DUP2 PUSH2 0xCE4 JUMP JUMPDEST SWAP3 SWAP2 POP POP JUMP JUMPDEST PUSH0 PUSH1 0x20 DUP3 DUP5 SUB SLT ISZERO PUSH2 0xD23 JUMPI PUSH2 0xD22 PUSH2 0xCDC JUMP JUMPDEST JUMPDEST PUSH0 PUSH2 0xD30 DUP5 DUP3 DUP6 ADD PUSH2 0xCFA JUMP JUMPDEST SWAP2 POP POP SWAP3 SWAP2 POP POP JUMP JUMPDEST PUSH0 PUSH20 0xFFFFFFFFFFFFFFFFFFFFFFFFFFFFFFFFFFFFFFFF DUP3 AND SWAP1 POP SWAP2 SWAP1 POP JUMP JUMPDEST PUSH0 PUSH2 0xD62 DUP3 PUSH2 0xD39 JUMP JUMPDEST SWAP1 POP SWAP2 SWAP1 POP JUMP JUMPDEST PUSH2 0xD72 DUP2 PUSH2 0xD58 JUMP JUMPDEST DUP3 MSTORE POP POP JUMP JUMPDEST PUSH0 PUSH1 0x20 DUP3 ADD SWAP1 POP PUSH2 0xD8B PUSH0 DUP4 ADD DUP5 PUSH2 0xD69 JUMP JUMPDEST SWAP3 SWAP2 POP POP JUMP JUMPDEST PUSH2 0xD9A DUP2 PUSH2 0xD58 JUMP JUMPDEST DUP2 EQ PUSH2 0xDA4 JUMPI PUSH0 DUP1 REVERT JUMPDEST POP JUMP JUMPDEST PUSH0 DUP2 CALLDATALOAD SWAP1 POP PUSH2 0xDB5 DUP2 PUSH2 0xD91 JUMP JUMPDEST SWAP3 SWAP2 POP POP JUMP JUMPDEST PUSH0 DUP1 REVERT JUMPDEST PUSH0 DUP1 REVERT JUMPDEST PUSH0 DUP1 REVERT JUMPDEST PUSH0 DUP1 DUP4 PUSH1 0x1F DUP5 ADD SLT PUSH2 0xDDC JUMPI PUSH2 0xDDB PUSH2 0xDBB JUMP JUMPDEST JUMPDEST DUP3 CALLDATALOAD SWAP1 POP PUSH8 0xFFFFFFFFFFFFFFFF DUP2 GT ISZERO PUSH2 0xDF9 JUMPI PUSH2 0xDF8 PUSH2 0xDBF JUMP JUMPDEST JUMPDEST PUSH1 0x20 DUP4 ADD SWAP2 POP DUP4 PUSH1 0x1 DUP3 MUL DUP4 ADD GT ISZERO PUSH2 0xE15 JUMPI PUSH2 0xE14 PUSH2 0xDC3 JUMP JUMPDEST JUMPDEST SWAP3 POP SWAP3 SWAP1 POP JUMP JUMPDEST PUSH0 DUP1 PUSH0 DUP1 PUSH1 0x60 DUP6 DUP8 SUB SLT ISZERO PUSH2 0xE34 JUMPI PUSH2 0xE33 PUSH2 0xCDC JUMP JUMPDEST JUMPDEST PUSH0 PUSH2 0xE41 DUP8 DUP3 DUP9 ADD PUSH2 0xDA7 JUMP JUMPDEST SWAP5 POP POP PUSH1 0x20 PUSH2 0xE52 DUP8 DUP3 DUP9 ADD PUSH2 0xCFA JUMP JUMPDEST SWAP4 POP POP PUSH1 0x40 DUP6 ADD CALLDATALOAD PUSH8 0xFFFFFFFFFFFFFFFF DUP2 GT ISZERO PUSH2 0xE73 JUMPI PUSH2 0xE72 PUSH2 0xCE0 JUMP JUMPDEST JUMPDEST PUSH2 0xE7F DUP8 DUP3 DUP9 ADD PUSH2 0xDC7 JUMP JUMPDEST SWAP3 POP SWAP3 POP POP SWAP3 SWAP6 SWAP2 SWAP5 POP SWAP3 POP JUMP JUMPDEST PUSH0 PUSH1 0x20 DUP3 DUP5 SUB SLT ISZERO PUSH2 0xEA2 JUMPI PUSH2 0xEA1 PUSH2 0xCDC JUMP JUMPDEST JUMPDEST PUSH0 PUSH2 0xEAF DUP5 DUP3 DUP6 ADD PUSH2 0xDA7 JUMP JUMPDEST SWAP2 POP POP SWAP3 SWAP2 POP POP JUMP JUMPDEST PUSH0 DUP2 ISZERO ISZERO SWAP1 POP SWAP2 SWAP1 POP JUMP JUMPDEST PUSH2 0xECC DUP2 PUSH2 0xEB8 JUMP JUMPDEST DUP3 MSTORE POP POP JUMP JUMPDEST PUSH0 PUSH1 0x20 DUP3 ADD SWAP1 POP PUSH2 0xEE5 PUSH0 DUP4 ADD DUP5 PUSH2 0xEC3 JUMP JUMPDEST SWAP3 SWAP2 POP POP JUMP JUMPDEST PUSH0 DUP1 PUSH1 0x40 DUP4 DUP6 SUB SLT ISZERO PUSH2 0xF01 JUMPI PUSH2 0xF00 PUSH2 0xCDC JUMP JUMPDEST JUMPDEST PUSH0 PUSH2 0xF0E DUP6 DUP3 DUP7 ADD PUSH2 0xCFA JUMP JUMPDEST SWAP3 POP POP PUSH1 0x20 PUSH2 0xF1F DUP6 DUP3 DUP7 ADD PUSH2 0xDA7 JUMP JUMPDEST SWAP2 POP POP SWAP3 POP SWAP3 SWAP1 POP JUMP JUMPDEST PUSH0 DUP2 MLOAD SWAP1 POP SWAP2 SWAP1 POP JUMP JUMPDEST PUSH0 DUP3 DUP3 MSTORE PUSH1 0x20 DUP3 ADD SWAP1 POP SWAP3 SWAP2 POP POP JUMP JUMPDEST DUP3 DUP2 DUP4 MCOPY PUSH0 DUP4 DUP4 ADD MSTORE POP POP POP JUMP JUMPDEST PUSH0 PUSH1 0x1F NOT PUSH1 0x1F DUP4 ADD AND SWAP1 POP SWAP2 SWAP1 POP JUMP JUMPDEST PUSH0 PUSH2 0xF6B DUP3 PUSH2 0xF29 JUMP JUMPDEST PUSH2 0xF75 DUP2 DUP6 PUSH2 0xF33 JUMP JUMPDEST SWAP4 POP PUSH2 0xF85 DUP2 DUP6 PUSH1 0x20 DUP7 ADD PUSH2 0xF43 JUMP JUMPDEST PUSH2 0xF8E DUP2 PUSH2 0xF51 JUMP JUMPDEST DUP5 ADD SWAP2 POP POP SWAP3 SWAP2 POP POP JUMP JUMPDEST PUSH0 PUSH1 0x80 DUP3 ADD SWAP1 POP PUSH2 0xFAC PUSH0 DUP4 ADD DUP8 PUSH2 0xD69 JUMP JUMPDEST PUSH2 0xFB9 PUSH1 0x20 DUP4 ADD DUP7 PUSH2 0xCB4 JUMP JUMPDEST DUP2 DUP2 SUB PUSH1 0x40 DUP4 ADD MSTORE PUSH2 0xFCB DUP2 DUP6 PUSH2 0xF61 JUMP JUMPDEST SWAP1 POP PUSH2 0xFDA PUSH1 0x60 DUP4 ADD DUP5 PUSH2 0xEC3 JUMP JUMPDEST SWAP6 SWAP5 POP POP POP POP POP JUMP JUMPDEST PUSH0 DUP3 DUP3 MSTORE PUSH1 0x20 DUP3 ADD SWAP1 POP SWAP3 SWAP2 POP POP JUMP JUMPDEST PUSH32 0x6E6F74206F776E65720000000000000000000000000000000000000000000000 PUSH0 DUP3 ADD MSTORE POP JUMP JUMPDEST PUSH0 PUSH2 0x1027 PUSH1 0x9 DUP4 PUSH2 0xFE3 JUMP JUMPDEST SWAP2 POP PUSH2 0x1032 DUP3 PUSH2 0xFF3 JUMP JUMPDEST PUSH1 0x20 DUP3 ADD SWAP1 POP SWAP2 SWAP1 POP JUMP JUMPDEST PUSH0 PUSH1 0x20 DUP3 ADD SWAP1 POP DUP2 DUP2 SUB PUSH0 DUP4 ADD MSTORE PUSH2 0x1054 DUP2 PUSH2 0x101B JUMP JUMPDEST SWAP1 POP SWAP2 SWAP1 POP JUMP JUMPDEST PUSH32 0x4E487B7100000000000000000000000000000000000000000000000000000000 PUSH0 MSTORE PUSH1 0x41 PUSH1 0x4 MSTORE PUSH1 0x24 PUSH0 REVERT JUMPDEST PUSH32 0x4E487B7100000000000000000000000000000000000000000000000000000000 PUSH0 MSTORE PUSH1 0x22 PUSH1 0x4 MSTORE PUSH1 0x24 PUSH0 REVERT JUMPDEST PUSH0 PUSH1 0x2 DUP3 DIV SWAP1 POP PUSH1 0x1 DUP3 AND DUP1 PUSH2 0x10CC JUMPI PUSH1 0x7F DUP3 AND SWAP2 POP JUMPDEST PUSH1 0x20 DUP3 LT DUP2 SUB PUSH2 0x10DF JUMPI PUSH2 0x10DE PUSH2 0x1088 JUMP JUMPDEST JUMPDEST POP SWAP2 SWAP1 POP JUMP JUMPDEST PUSH0 DUP2 SWAP1 POP DUP2 PUSH0 MSTORE PUSH1 0x20 PUSH0 KECCAK256 SWAP1 POP SWAP2 SWAP1 POP JUMP JUMPDEST PUSH0 PUSH1 0x20 PUSH1 0x1F DUP4 ADD DIV SWAP1 POP SWAP2 SWAP1 POP JUMP JUMPDEST PUSH0 DUP3 DUP3 SHL SWAP1 POP SWAP3 SWAP2 POP POP JUMP JUMPDEST PUSH0 PUSH1 0x8 DUP4 MUL PUSH2 0x1141 PUSH32 0xFFFFFFFFFFFFFFFFFFFFFFFFFFFFFFFFFFFFFFFFFFFFFFFFFFFFFFFFFFFFFFFF DUP3 PUSH2 0x1106 JUMP JUMPDEST PUSH2 0x114B DUP7 DUP4 PUSH2 0x1106 JUMP JUMPDEST SWAP6 POP DUP1 NOT DUP5 AND SWAP4 POP DUP1 DUP7 AND DUP5 OR SWAP3 POP POP POP SWAP4 SWAP3 POP POP POP JUMP JUMPDEST PUSH0 DUP2 SWAP1 POP SWAP2 SWAP1 POP JUMP JUMPDEST PUSH0 PUSH2 0x1186 PUSH2 0x1181 PUSH2 0x117C DUP5 PUSH2 0xCAB JUMP JUMPDEST PUSH2 0x1163 JUMP JUMPDEST PUSH2 0xCAB JUMP JUMPDEST SWAP1 POP SWAP2 SWAP1 POP JUMP JUMPDEST PUSH0 DUP2 SWAP1 POP SWAP2 SWAP1 POP JUMP JUMPDEST PUSH2 0x119F DUP4 PUSH2 0x116C JUMP JUMPDEST PUSH2 0x11B3 PUSH2 0x11AB DUP3 PUSH2 0x118D JUMP JUMPDEST DUP5 DUP5 SLOAD PUSH2 0x1112 JUMP JUMPDEST DUP3 SSTORE POP POP POP POP JUMP JUMPDEST PUSH0 SWAP1 JUMP JUMPDEST PUSH2 0x11C7 PUSH2 0x11BB JUMP JUMPDEST PUSH2 0x11D2 DUP2 DUP5 DUP5 PUSH2 0x1196 JUMP JUMPDEST POP POP POP JUMP JUMPDEST JUMPDEST DUP2 DUP2 LT ISZERO PUSH2 0x11F5 JUMPI PUSH2 0x11EA PUSH0 DUP3 PUSH2 0x11BF JUMP JUMPDEST PUSH1 0x1 DUP2 ADD SWAP1 POP PUSH2 0x11D8 JUMP JUMPDEST POP POP JUMP JUMPDEST PUSH1 0x1F DUP3 GT ISZERO PUSH2 0x123A JUMPI PUSH2 0x120B DUP2 PUSH2 0x10E5 JUMP JUMPDEST PUSH2 0x1214 DUP5 PUSH2 0x10F7 JUMP JUMPDEST DUP2 ADD PUSH1 0x20 DUP6 LT ISZERO PUSH2 0x1223 JUMPI DUP2 SWAP1 POP JUMPDEST PUSH2 0x1237 PUSH2 0x122F DUP6 PUSH2 0x10F7 JUMP JUMPDEST DUP4 ADD DUP3 PUSH2 0x11D7 JUMP JUMPDEST POP POP JUMPDEST POP POP POP JUMP JUMPDEST PUSH0 DUP3 DUP3 SHR SWAP1 POP SWAP3 SWAP2 POP POP JUMP JUMPDEST PUSH0 PUSH2 0x125A PUSH0 NOT DUP5 PUSH1 0x8 MUL PUSH2 0x123F JUMP JUMPDEST NOT DUP1 DUP4 AND SWAP2 POP POP SWAP3 SWAP2 POP POP JUMP JUMPDEST PUSH0 PUSH2 0x1272 DUP4 DUP4 PUSH2 0x124B JUMP JUMPDEST SWAP2 POP DUP3 PUSH1 0x2 MUL DUP3 OR SWAP1 POP SWAP3 SWAP2 POP POP JUMP JUMPDEST PUSH2 0x128B DUP3 PUSH2 0xF29 JUMP JUMPDEST PUSH8 0xFFFFFFFFFFFFFFFF DUP2 GT ISZERO PUSH2 0x12A4 JUMPI PUSH2 0x12A3 PUSH2 0x105B JUMP JUMPDEST JUMPDEST PUSH2 0x12AE DUP3 SLOAD PUSH2 0x10B5 JUMP JUMPDEST PUSH2 0x12B9 DUP3 DUP3 DUP6 PUSH2 0x11F9 JUMP JUMPDEST PUSH0 PUSH1 0x20 SWAP1 POP PUSH1 0x1F DUP4 GT PUSH1 0x1 DUP2 EQ PUSH2 0x12EA JUMPI PUSH0 DUP5 ISZERO PUSH2 0x12D8 JUMPI DUP3 DUP8 ADD MLOAD SWAP1 POP JUMPDEST PUSH2 0x12E2 DUP6 DUP3 PUSH2 0x1267 JUMP JUMPDEST DUP7 SSTORE POP PUSH2 0x1349 JUMP JUMPDEST PUSH1 0x1F NOT DUP5 AND PUSH2 0x12F8 DUP7 PUSH2 0x10E5 JUMP JUMPDEST PUSH0 JUMPDEST DUP3 DUP2 LT ISZERO PUSH2 0x131F JUMPI DUP5 DUP10 ADD MLOAD DUP3 SSTORE PUSH1 0x1 DUP3 ADD SWAP2 POP PUSH1 0x20 DUP6 ADD SWAP5 POP PUSH1 0x20 DUP2 ADD SWAP1 POP PUSH2 0x12FA JUMP JUMPDEST DUP7 DUP4 LT ISZERO PUSH2 0x133C JUMPI DUP5 DUP10 ADD MLOAD PUSH2 0x1338 PUSH1 0x1F DUP10 AND DUP3 PUSH2 0x124B JUMP JUMPDEST DUP4 SSTORE POP JUMPDEST PUSH1 0x1 PUSH1 0x2 DUP9 MUL ADD DUP9 SSTORE POP POP POP JUMPDEST POP POP POP POP POP POP JUMP JUMPDEST PUSH32 0x4E487B7100000000000000000000000000000000000000000000000000000000 PUSH0 MSTORE PUSH1 0x11 PUSH1 0x4 MSTORE PUSH1 0x24 PUSH0 REVERT JUMPDEST PUSH0 PUSH2 0x1388 DUP3 PUSH2 0xCAB JUMP JUMPDEST SWAP2 POP PUSH2 0x1393 DUP4 PUSH2 0xCAB JUMP JUMPDEST SWAP3 POP DUP3 DUP3 SUB SWAP1 POP DUP2 DUP2 GT ISZERO PUSH2 0x13AB JUMPI PUSH2 0x13AA PUSH2 0x1351 JUMP JUMPDEST JUMPDEST SWAP3 SWAP2 POP POP JUMP JUMPDEST PUSH32 0x646F65736E277420657869737400000000000000000000000000000000000000 PUSH0 DUP3 ADD MSTORE POP JUMP JUMPDEST PUSH0 PUSH2 0x13E5 PUSH1 0xD DUP4 PUSH2 0xFE3 JUMP JUMPDEST SWAP2 POP PUSH2 0x13F0 DUP3 PUSH2 0x13B1 JUMP JUMPDEST PUSH1 0x20 DUP3 ADD SWAP1 POP SWAP2 SWAP1 POP JUMP JUMPDEST PUSH0 PUSH1 0x20 DUP3 ADD SWAP1 POP DUP2 DUP2 SUB PUSH0 DUP4 ADD MSTORE PUSH2 0x1412 DUP2 PUSH2 0x13D9 JUMP JUMPDEST SWAP1 POP SWAP2 SWAP1 POP JUMP JUMPDEST PUSH32 0x4E487B7100000000000000000000000000000000000000000000000000000000 PUSH0 MSTORE PUSH1 0x32 PUSH1 0x4 MSTORE PUSH1 0x24 PUSH0 REVERT JUMPDEST PUSH32 0x7478206973206578656374656400000000000000000000000000000000000000 PUSH0 DUP3 ADD MSTORE POP JUMP JUMPDEST PUSH0 PUSH2 0x147A PUSH1 0xD DUP4 PUSH2 0xFE3 JUMP JUMPDEST SWAP2 POP PUSH2 0x1485 DUP3 PUSH2 0x1446 JUMP JUMPDEST PUSH1 0x20 DUP3 ADD SWAP1 POP SWAP2 SWAP1 POP JUMP JUMPDEST PUSH0 PUSH1 0x20 DUP3 ADD SWAP1 POP DUP2 DUP2 SUB PUSH0 DUP4 ADD MSTORE PUSH2 0x14A7 DUP2 PUSH2 0x146E JUMP JUMPDEST SWAP1 POP SWAP2 SWAP1 POP JUMP JUMPDEST PUSH32 0x7478206E6F7420617070726F7665640000000000000000000000000000000000 PUSH0 DUP3 ADD MSTORE POP JUMP JUMPDEST PUSH0 PUSH2 0x14E2 PUSH1 0xF DUP4 PUSH2 0xFE3 JUMP JUMPDEST SWAP2 POP PUSH2 0x14ED DUP3 PUSH2 0x14AE JUMP JUMPDEST PUSH1 0x20 DUP3 ADD SWAP1 POP SWAP2 SWAP1 POP JUMP JUMPDEST PUSH0 PUSH1 0x20 DUP3 ADD SWAP1 POP DUP2 DUP2 SUB PUSH0 DUP4 ADD MSTORE PUSH2 0x150F DUP2 PUSH2 0x14D6 JUMP JUMPDEST SWAP1 POP SWAP2 SWAP1 POP JUMP JUMPDEST PUSH32 0x617070726F76616C73203C207265717569726564000000000000000000000000 PUSH0 DUP3 ADD MSTORE POP JUMP JUMPDEST PUSH0 PUSH2 0x154A PUSH1 0x14 DUP4 PUSH2 0xFE3 JUMP JUMPDEST SWAP2 POP PUSH2 0x1555 DUP3 PUSH2 0x1516 JUMP JUMPDEST PUSH1 0x20 DUP3 ADD SWAP1 POP SWAP2 SWAP1 POP JUMP JUMPDEST PUSH0 PUSH1 0x20 DUP3 ADD SWAP1 POP DUP2 DUP2 SUB PUSH0 DUP4 ADD MSTORE PUSH2 0x1577 DUP2 PUSH2 0x153E JUMP JUMPDEST SWAP1 POP SWAP2 SWAP1 POP JUMP JUMPDEST PUSH0 DUP2 SWAP1 POP SWAP3 SWAP2 POP POP JUMP JUMPDEST PUSH0 DUP2 SLOAD PUSH2 0x1594 DUP2 PUSH2 0x10B5 JUMP JUMPDEST PUSH2 0x159E DUP2 DUP7 PUSH2 0x157E JUMP JUMPDEST SWAP5 POP PUSH1 0x1 DUP3 AND PUSH0 DUP2 EQ PUSH2 0x15B8 JUMPI PUSH1 0x1 DUP2 EQ PUSH2 0x15CD JUMPI PUSH2 0x15FF JUMP JUMPDEST PUSH1 0xFF NOT DUP4 AND DUP7 MSTORE DUP2 ISZERO ISZERO DUP3 MUL DUP7 ADD SWAP4 POP PUSH2 0x15FF JUMP JUMPDEST PUSH2 0x15D6 DUP6 PUSH2 0x10E5 JUMP JUMPDEST PUSH0 JUMPDEST DUP4 DUP2 LT ISZERO PUSH2 0x15F7 JUMPI DUP2 SLOAD DUP2 DUP10 ADD MSTORE PUSH1 0x1 DUP3 ADD SWAP2 POP PUSH1 0x20 DUP2 ADD SWAP1 POP PUSH2 0x15D8 JUMP JUMPDEST DUP4 DUP9 ADD SWAP6 POP POP POP JUMPDEST POP POP POP SWAP3 SWAP2 POP POP JUMP JUMPDEST PUSH0 PUSH2 0x1613 DUP3 DUP5 PUSH2 0x1588 JUMP JUMPDEST SWAP2 POP DUP2 SWAP1 POP SWAP3 SWAP2 POP POP JUMP JUMPDEST PUSH32 0x7478206661696C65640000000000000000000000000000000000000000000000 PUSH0 DUP3 ADD MSTORE POP JUMP JUMPDEST PUSH0 PUSH2 0x1652 PUSH1 0x9 DUP4 PUSH2 0xFE3 JUMP JUMPDEST SWAP2 POP PUSH2 0x165D DUP3 PUSH2 0x161E JUMP JUMPDEST PUSH1 0x20 DUP3 ADD SWAP1 POP SWAP2 SWAP1 POP JUMP JUMPDEST PUSH0 PUSH1 0x20 DUP3 ADD SWAP1 POP DUP2 DUP2 SUB PUSH0 DUP4 ADD MSTORE PUSH2 0x167F DUP2 PUSH2 0x1646 JUMP JUMPDEST SWAP1 POP SWAP2 SWAP1 POP JUMP JUMPDEST PUSH0 PUSH2 0x1690 DUP3 PUSH2 0xCAB JUMP JUMPDEST SWAP2 POP PUSH2 0x169B DUP4 PUSH2 0xCAB JUMP JUMPDEST SWAP3 POP DUP3 DUP3 ADD SWAP1 POP DUP1 DUP3 GT ISZERO PUSH2 0x16B3 JUMPI PUSH2 0x16B2 PUSH2 0x1351 JUMP JUMPDEST JUMPDEST SWAP3 SWAP2 POP POP JUMP INVALID LOG2 PUSH5 0x6970667358 0x22 SLT KECCAK256 XOR COINBASE 0xD7 0xEC LOG1 ORIGIN 0x2C 0xFB 0xAC DUP13 PUSH18 0x5F64D4884812E08930EE90CE57C11035EE08 CREATE 0xC4 0x4C PUSH5 0x736F6C6343 STOP ADDMOD BYTE STOP CALLER "
				},
				"gasEstimates": {
					"creation": {
						"codeDepositCost": "1174200",
						"executionCost": "infinite",
						"totalCost": "infinite"
					},
					"external": {
						"approve(uint256)": "infinite",
						"approved(uint256,address)": "3071",
						"getApprovalCount(uint256)": "infinite",
						"getBalance()": "357",
						"isOwner(address)": "2922",
						"owners(uint256)": "4944",
						"required()": "2513",
						"revoke(uint256)": "37479",
						"submit(address,uint256,bytes)": "infinite",
						"transactions(uint256)": "infinite"
					}
				},
				"methodIdentifiers": {
					"approve(uint256)": "b759f954",
					"approved(uint256,address)": "8253951a",
					"getApprovalCount(uint256)": "ba7e7cab",
					"getBalance()": "12065fe0",
					"isOwner(address)": "2f54bf6e",
					"owners(uint256)": "025e7c27",
					"required()": "dc8452cd",
					"revoke(uint256)": "20c5429b",
					"submit(address,uint256,bytes)": "14de327f",
					"transactions(uint256)": "9ace38c2"
				}
			},
			"storageLayout": {
				"storage": [
					{
						"astId": 4,
						"contract": "contracts/多钱包.sol:MultiSigWallet",
						"label": "owners",
						"offset": 0,
						"slot": "0",
						"type": "t_array(t_address)dyn_storage"
					},
					{
						"astId": 8,
						"contract": "contracts/多钱包.sol:MultiSigWallet",
						"label": "isOwner",
						"offset": 0,
						"slot": "1",
						"type": "t_mapping(t_address,t_bool)"
					},
					{
						"astId": 10,
						"contract": "contracts/多钱包.sol:MultiSigWallet",
						"label": "required",
						"offset": 0,
						"slot": "2",
						"type": "t_uint256"
					},
					{
						"astId": 23,
						"contract": "contracts/多钱包.sol:MultiSigWallet",
						"label": "transactions",
						"offset": 0,
						"slot": "3",
						"type": "t_array(t_struct(Transaction)19_storage)dyn_storage"
					},
					{
						"astId": 29,
						"contract": "contracts/多钱包.sol:MultiSigWallet",
						"label": "approved",
						"offset": 0,
						"slot": "4",
						"type": "t_mapping(t_uint256,t_mapping(t_address,t_bool))"
					}
				],
				"types": {
					"t_address": {
						"encoding": "inplace",
						"label": "address",
						"numberOfBytes": "20"
					},
					"t_array(t_address)dyn_storage": {
						"base": "t_address",
						"encoding": "dynamic_array",
						"label": "address[]",
						"numberOfBytes": "32"
					},
					"t_array(t_struct(Transaction)19_storage)dyn_storage": {
						"base": "t_struct(Transaction)19_storage",
						"encoding": "dynamic_array",
						"label": "struct MultiSigWallet.Transaction[]",
						"numberOfBytes": "32"
					},
					"t_bool": {
						"encoding": "inplace",
						"label": "bool",
						"numberOfBytes": "1"
					},
					"t_bytes_storage": {
						"encoding": "bytes",
						"label": "bytes",
						"numberOfBytes": "32"
					},
					"t_mapping(t_address,t_bool)": {
						"encoding": "mapping",
						"key": "t_address",
						"label": "mapping(address => bool)",
						"numberOfBytes": "32",
						"value": "t_bool"
					},
					"t_mapping(t_uint256,t_mapping(t_address,t_bool))": {
						"encoding": "mapping",
						"key": "t_uint256",
						"label": "mapping(uint256 => mapping(address => bool))",
						"numberOfBytes": "32",
						"value": "t_mapping(t_address,t_bool)"
					},
					"t_struct(Transaction)19_storage": {
						"encoding": "inplace",
						"label": "struct MultiSigWallet.Transaction",
						"members": [
							{
								"astId": 12,
								"contract": "contracts/多钱包.sol:MultiSigWallet",
								"label": "to",
								"offset": 0,
								"slot": "0",
								"type": "t_address"
							},
							{
								"astId": 14,
								"contract": "contracts/多钱包.sol:MultiSigWallet",
								"label": "value",
								"offset": 0,
								"slot": "1",
								"type": "t_uint256"
							},
							{
								"astId": 16,
								"contract": "contracts/多钱包.sol:MultiSigWallet",
								"label": "data",
								"offset": 0,
								"slot": "2",
								"type": "t_bytes_storage"
							},
							{
								"astId": 18,
								"contract": "contracts/多钱包.sol:MultiSigWallet",
								"label": "exected",
								"offset": 0,
								"slot": "3",
								"type": "t_bool"
							}
						],
						"numberOfBytes": "128"
					},
					"t_uint256": {
						"encoding": "inplace",
						"label": "uint256",
						"numberOfBytes": "32"
					}
				}
			},
			"userdoc": {
				"kind": "user",
				"methods": {},
				"version": 1
			}
		}
	}
}