{
	"contracts/oo.sol": {
		"Owner": {
			"abi": [
				{
					"inputs": [
						{
							"internalType": "string",
							"name": "name",
							"type": "string"
						}
					],
					"stateMutability": "nonpayable",
					"type": "constructor"
				},
				{
					"anonymous": false,
					"inputs": [
						{
							"indexed": true,
							"internalType": "address",
							"name": "oldOwnerAddr",
							"type": "address"
						}
					],
					"name": "OwnerRemoved",
					"type": "event"
				},
				{
					"anonymous": false,
					"inputs": [
						{
							"indexed": true,
							"internalType": "address",
							"name": "oldOwnerAddr",
							"type": "address"
						},
						{
							"indexed": true,
							"internalType": "address",
							"name": "newOwnerAddr",
							"type": "address"
						}
					],
					"name": "OwnerSet",
					"type": "event"
				},
				{
					"inputs": [
						{
							"internalType": "address",
							"name": "addr",
							"type": "address"
						},
						{
							"internalType": "string",
							"name": "name",
							"type": "string"
						}
					],
					"name": "changeOwner",
					"outputs": [],
					"stateMutability": "nonpayable",
					"type": "function"
				},
				{
					"inputs": [],
					"name": "getOwner",
					"outputs": [
						{
							"internalType": "address",
							"name": "",
							"type": "address"
						},
						{
							"internalType": "string",
							"name": "",
							"type": "string"
						}
					],
					"stateMutability": "view",
					"type": "function"
				},
				{
					"inputs": [],
					"name": "getState",
					"outputs": [
						{
							"internalType": "enum Owner.State",
							"name": "",
							"type": "uint8"
						}
					],
					"stateMutability": "view",
					"type": "function"
				},
				{
					"inputs": [],
					"name": "removeOwner",
					"outputs": [],
					"stateMutability": "nonpayable",
					"type": "function"
				}
			],
			"devdoc": {
				"kind": "dev",
				"methods": {},
				"version": 1
			},
			"evm": {
				"assembly": "    /* \"contracts/oo.sol\":61:1483  contract Owner {... */\n  mstore(0x40, 0x80)\n    /* \"contracts/oo.sol\":681:864  constructor(string memory name) {... */\n  callvalue\n  dup1\n  iszero\n  tag_1\n  jumpi\n  0x00\n  dup1\n  revert\ntag_1:\n  pop\n  mload(0x40)\n  sub(codesize, bytecodeSize)\n  dup1\n  bytecodeSize\n  dup4\n  codecopy\n  dup2\n  dup2\n  add\n  0x40\n  mstore\n  dup2\n  add\n  swap1\n  tag_2\n  swap2\n  swap1\n  tag_3\n  jump\t// in\ntag_2:\n    /* \"contracts/oo.sol\":737:747  msg.sender */\n  caller\n    /* \"contracts/oo.sol\":724:729  owner */\n  0x00\n    /* \"contracts/oo.sol\":724:734  owner.addr */\n  dup1\n  add\n  0x00\n    /* \"contracts/oo.sol\":724:747  owner.addr = msg.sender */\n  0x0100\n  exp\n  dup2\n  sload\n  dup2\n  0xffffffffffffffffffffffffffffffffffffffff\n  mul\n  not\n  and\n  swap1\n  dup4\n  0xffffffffffffffffffffffffffffffffffffffff\n  and\n  mul\n  or\n  swap1\n  sstore\n  pop\n    /* \"contracts/oo.sol\":771:775  name */\n  dup1\n    /* \"contracts/oo.sol\":758:763  owner */\n  0x00\n    /* \"contracts/oo.sol\":758:768  owner.name */\n  0x01\n  add\n    /* \"contracts/oo.sol\":758:775  owner.name = name */\n  swap1\n  dup2\n  tag_6\n  swap2\n  swap1\n  tag_7\n  jump\t// in\ntag_6:\n  pop\n    /* \"contracts/oo.sol\":794:808  State.HasOwner */\n  0x00\n    /* \"contracts/oo.sol\":786:791  state */\n  0x02\n  0x00\n    /* \"contracts/oo.sol\":786:808  state = State.HasOwner */\n  0x0100\n  exp\n  dup2\n  sload\n  dup2\n  0xff\n  mul\n  not\n  and\n  swap1\n  dup4\n  0x01\n  dup2\n  gt\n  iszero\n  tag_8\n  jumpi\n  tag_9\n  tag_10\n  jump\t// in\ntag_9:\ntag_8:\n  mul\n  or\n  swap1\n  sstore\n  pop\n    /* \"contracts/oo.sol\":845:850  owner */\n  0x00\n    /* \"contracts/oo.sol\":845:855  owner.addr */\n  dup1\n  add\n  0x00\n  swap1\n  sload\n  swap1\n  0x0100\n  exp\n  swap1\n  div\n  0xffffffffffffffffffffffffffffffffffffffff\n  and\n    /* \"contracts/oo.sol\":824:856  OwnerSet(address(0), owner.addr) */\n  0xffffffffffffffffffffffffffffffffffffffff\n  and\n    /* \"contracts/oo.sol\":841:842  0 */\n  0x00\n    /* \"contracts/oo.sol\":824:856  OwnerSet(address(0), owner.addr) */\n  0xffffffffffffffffffffffffffffffffffffffff\n  and\n  0x342827c97908e5e2f71151c08502a66d44b6f758e3ac2f1de95f02eb95f0a735\n  mload(0x40)\n  mload(0x40)\n  dup1\n  swap2\n  sub\n  swap1\n  log3\n    /* \"contracts/oo.sol\":681:864  constructor(string memory name) {... */\n  pop\n    /* \"contracts/oo.sol\":61:1483  contract Owner {... */\n  jump(tag_11)\n    /* \"#utility.yul\":7:82   */\ntag_12:\n    /* \"#utility.yul\":40:46   */\n  0x00\n    /* \"#utility.yul\":73:75   */\n  0x40\n    /* \"#utility.yul\":67:76   */\n  mload\n    /* \"#utility.yul\":57:76   */\n  swap1\n  pop\n    /* \"#utility.yul\":7:82   */\n  swap1\n  jump\t// out\n    /* \"#utility.yul\":88:205   */\ntag_13:\n    /* \"#utility.yul\":197:198   */\n  0x00\n    /* \"#utility.yul\":194:195   */\n  dup1\n    /* \"#utility.yul\":187:199   */\n  revert\n    /* \"#utility.yul\":211:328   */\ntag_14:\n    /* \"#utility.yul\":320:321   */\n  0x00\n    /* \"#utility.yul\":317:318   */\n  dup1\n    /* \"#utility.yul\":310:322   */\n  revert\n    /* \"#utility.yul\":334:451   */\ntag_15:\n    /* \"#utility.yul\":443:444   */\n  0x00\n    /* \"#utility.yul\":440:441   */\n  dup1\n    /* \"#utility.yul\":433:445   */\n  revert\n    /* \"#utility.yul\":457:574   */\ntag_16:\n    /* \"#utility.yul\":566:567   */\n  0x00\n    /* \"#utility.yul\":563:564   */\n  dup1\n    /* \"#utility.yul\":556:568   */\n  revert\n    /* \"#utility.yul\":580:682   */\ntag_17:\n    /* \"#utility.yul\":621:627   */\n  0x00\n    /* \"#utility.yul\":672:674   */\n  0x1f\n    /* \"#utility.yul\":668:675   */\n  not\n    /* \"#utility.yul\":663:665   */\n  0x1f\n    /* \"#utility.yul\":656:661   */\n  dup4\n    /* \"#utility.yul\":652:666   */\n  add\n    /* \"#utility.yul\":648:676   */\n  and\n    /* \"#utility.yul\":638:676   */\n  swap1\n  pop\n    /* \"#utility.yul\":580:682   */\n  swap2\n  swap1\n  pop\n  jump\t// out\n    /* \"#utility.yul\":688:868   */\ntag_18:\n    /* \"#utility.yul\":736:813   */\n  0x4e487b7100000000000000000000000000000000000000000000000000000000\n    /* \"#utility.yul\":733:734   */\n  0x00\n    /* \"#utility.yul\":726:814   */\n  mstore\n    /* \"#utility.yul\":833:837   */\n  0x41\n    /* \"#utility.yul\":830:831   */\n  0x04\n    /* \"#utility.yul\":823:838   */\n  mstore\n    /* \"#utility.yul\":857:861   */\n  0x24\n    /* \"#utility.yul\":854:855   */\n  0x00\n    /* \"#utility.yul\":847:862   */\n  revert\n    /* \"#utility.yul\":874:1155   */\ntag_19:\n    /* \"#utility.yul\":957:984   */\n  tag_53\n    /* \"#utility.yul\":979:983   */\n  dup3\n    /* \"#utility.yul\":957:984   */\n  tag_17\n  jump\t// in\ntag_53:\n    /* \"#utility.yul\":949:955   */\n  dup2\n    /* \"#utility.yul\":945:985   */\n  add\n    /* \"#utility.yul\":1087:1093   */\n  dup2\n    /* \"#utility.yul\":1075:1085   */\n  dup2\n    /* \"#utility.yul\":1072:1094   */\n  lt\n    /* \"#utility.yul\":1051:1069   */\n  0xffffffffffffffff\n    /* \"#utility.yul\":1039:1049   */\n  dup3\n    /* \"#utility.yul\":1036:1070   */\n  gt\n    /* \"#utility.yul\":1033:1095   */\n  or\n    /* \"#utility.yul\":1030:1118   */\n  iszero\n  tag_54\n  jumpi\n    /* \"#utility.yul\":1098:1116   */\n  tag_55\n  tag_18\n  jump\t// in\ntag_55:\n    /* \"#utility.yul\":1030:1118   */\ntag_54:\n    /* \"#utility.yul\":1138:1148   */\n  dup1\n    /* \"#utility.yul\":1134:1136   */\n  0x40\n    /* \"#utility.yul\":1127:1149   */\n  mstore\n    /* \"#utility.yul\":917:1155   */\n  pop\n    /* \"#utility.yul\":874:1155   */\n  pop\n  pop\n  jump\t// out\n    /* \"#utility.yul\":1161:1290   */\ntag_20:\n    /* \"#utility.yul\":1195:1201   */\n  0x00\n    /* \"#utility.yul\":1222:1242   */\n  tag_57\n  tag_12\n  jump\t// in\ntag_57:\n    /* \"#utility.yul\":1212:1242   */\n  swap1\n  pop\n    /* \"#utility.yul\":1251:1284   */\n  tag_58\n    /* \"#utility.yul\":1279:1283   */\n  dup3\n    /* \"#utility.yul\":1271:1277   */\n  dup3\n    /* \"#utility.yul\":1251:1284   */\n  tag_19\n  jump\t// in\ntag_58:\n    /* \"#utility.yul\":1161:1290   */\n  swap2\n  swap1\n  pop\n  jump\t// out\n    /* \"#utility.yul\":1296:1604   */\ntag_21:\n    /* \"#utility.yul\":1358:1362   */\n  0x00\n    /* \"#utility.yul\":1448:1466   */\n  0xffffffffffffffff\n    /* \"#utility.yul\":1440:1446   */\n  dup3\n    /* \"#utility.yul\":1437:1467   */\n  gt\n    /* \"#utility.yul\":1434:1490   */\n  iszero\n  tag_60\n  jumpi\n    /* \"#utility.yul\":1470:1488   */\n  tag_61\n  tag_18\n  jump\t// in\ntag_61:\n    /* \"#utility.yul\":1434:1490   */\ntag_60:\n    /* \"#utility.yul\":1508:1537   */\n  tag_62\n    /* \"#utility.yul\":1530:1536   */\n  dup3\n    /* \"#utility.yul\":1508:1537   */\n  tag_17\n  jump\t// in\ntag_62:\n    /* \"#utility.yul\":1500:1537   */\n  swap1\n  pop\n    /* \"#utility.yul\":1592:1596   */\n  0x20\n    /* \"#utility.yul\":1586:1590   */\n  dup2\n    /* \"#utility.yul\":1582:1597   */\n  add\n    /* \"#utility.yul\":1574:1597   */\n  swap1\n  pop\n    /* \"#utility.yul\":1296:1604   */\n  swap2\n  swap1\n  pop\n  jump\t// out\n    /* \"#utility.yul\":1610:1749   */\ntag_22:\n    /* \"#utility.yul\":1699:1705   */\n  dup3\n    /* \"#utility.yul\":1694:1697   */\n  dup2\n    /* \"#utility.yul\":1689:1692   */\n  dup4\n    /* \"#utility.yul\":1683:1706   */\n  mcopy\n    /* \"#utility.yul\":1740:1741   */\n  0x00\n    /* \"#utility.yul\":1731:1737   */\n  dup4\n    /* \"#utility.yul\":1726:1729   */\n  dup4\n    /* \"#utility.yul\":1722:1738   */\n  add\n    /* \"#utility.yul\":1715:1742   */\n  mstore\n    /* \"#utility.yul\":1610:1749   */\n  pop\n  pop\n  pop\n  jump\t// out\n    /* \"#utility.yul\":1755:2189   */\ntag_23:\n    /* \"#utility.yul\":1844:1849   */\n  0x00\n    /* \"#utility.yul\":1869:1935   */\n  tag_65\n    /* \"#utility.yul\":1885:1934   */\n  tag_66\n    /* \"#utility.yul\":1927:1933   */\n  dup5\n    /* \"#utility.yul\":1885:1934   */\n  tag_21\n  jump\t// in\ntag_66:\n    /* \"#utility.yul\":1869:1935   */\n  tag_20\n  jump\t// in\ntag_65:\n    /* \"#utility.yul\":1860:1935   */\n  swap1\n  pop\n    /* \"#utility.yul\":1958:1964   */\n  dup3\n    /* \"#utility.yul\":1951:1956   */\n  dup2\n    /* \"#utility.yul\":1944:1965   */\n  mstore\n    /* \"#utility.yul\":1996:2000   */\n  0x20\n    /* \"#utility.yul\":1989:1994   */\n  dup2\n    /* \"#utility.yul\":1985:2001   */\n  add\n    /* \"#utility.yul\":2034:2037   */\n  dup5\n    /* \"#utility.yul\":2025:2031   */\n  dup5\n    /* \"#utility.yul\":2020:2023   */\n  dup5\n    /* \"#utility.yul\":2016:2032   */\n  add\n    /* \"#utility.yul\":2013:2038   */\n  gt\n    /* \"#utility.yul\":2010:2122   */\n  iszero\n  tag_67\n  jumpi\n    /* \"#utility.yul\":2041:2120   */\n  tag_68\n  tag_16\n  jump\t// in\ntag_68:\n    /* \"#utility.yul\":2010:2122   */\ntag_67:\n    /* \"#utility.yul\":2131:2183   */\n  tag_69\n    /* \"#utility.yul\":2176:2182   */\n  dup5\n    /* \"#utility.yul\":2171:2174   */\n  dup3\n    /* \"#utility.yul\":2166:2169   */\n  dup6\n    /* \"#utility.yul\":2131:2183   */\n  tag_22\n  jump\t// in\ntag_69:\n    /* \"#utility.yul\":1850:2189   */\n  pop\n    /* \"#utility.yul\":1755:2189   */\n  swap4\n  swap3\n  pop\n  pop\n  pop\n  jump\t// out\n    /* \"#utility.yul\":2209:2564   */\ntag_24:\n    /* \"#utility.yul\":2276:2281   */\n  0x00\n    /* \"#utility.yul\":2325:2328   */\n  dup3\n    /* \"#utility.yul\":2318:2322   */\n  0x1f\n    /* \"#utility.yul\":2310:2316   */\n  dup4\n    /* \"#utility.yul\":2306:2323   */\n  add\n    /* \"#utility.yul\":2302:2329   */\n  slt\n    /* \"#utility.yul\":2292:2414   */\n  tag_71\n  jumpi\n    /* \"#utility.yul\":2333:2412   */\n  tag_72\n  tag_15\n  jump\t// in\ntag_72:\n    /* \"#utility.yul\":2292:2414   */\ntag_71:\n    /* \"#utility.yul\":2443:2449   */\n  dup2\n    /* \"#utility.yul\":2437:2450   */\n  mload\n    /* \"#utility.yul\":2468:2558   */\n  tag_73\n    /* \"#utility.yul\":2554:2557   */\n  dup5\n    /* \"#utility.yul\":2546:2552   */\n  dup3\n    /* \"#utility.yul\":2539:2543   */\n  0x20\n    /* \"#utility.yul\":2531:2537   */\n  dup7\n    /* \"#utility.yul\":2527:2544   */\n  add\n    /* \"#utility.yul\":2468:2558   */\n  tag_23\n  jump\t// in\ntag_73:\n    /* \"#utility.yul\":2459:2558   */\n  swap2\n  pop\n    /* \"#utility.yul\":2282:2564   */\n  pop\n    /* \"#utility.yul\":2209:2564   */\n  swap3\n  swap2\n  pop\n  pop\n  jump\t// out\n    /* \"#utility.yul\":2570:3094   */\ntag_3:\n    /* \"#utility.yul\":2650:2656   */\n  0x00\n    /* \"#utility.yul\":2699:2701   */\n  0x20\n    /* \"#utility.yul\":2687:2696   */\n  dup3\n    /* \"#utility.yul\":2678:2685   */\n  dup5\n    /* \"#utility.yul\":2674:2697   */\n  sub\n    /* \"#utility.yul\":2670:2702   */\n  slt\n    /* \"#utility.yul\":2667:2786   */\n  iszero\n  tag_75\n  jumpi\n    /* \"#utility.yul\":2705:2784   */\n  tag_76\n  tag_13\n  jump\t// in\ntag_76:\n    /* \"#utility.yul\":2667:2786   */\ntag_75:\n    /* \"#utility.yul\":2846:2847   */\n  0x00\n    /* \"#utility.yul\":2835:2844   */\n  dup3\n    /* \"#utility.yul\":2831:2848   */\n  add\n    /* \"#utility.yul\":2825:2849   */\n  mload\n    /* \"#utility.yul\":2876:2894   */\n  0xffffffffffffffff\n    /* \"#utility.yul\":2868:2874   */\n  dup2\n    /* \"#utility.yul\":2865:2895   */\n  gt\n    /* \"#utility.yul\":2862:2979   */\n  iszero\n  tag_77\n  jumpi\n    /* \"#utility.yul\":2898:2977   */\n  tag_78\n  tag_14\n  jump\t// in\ntag_78:\n    /* \"#utility.yul\":2862:2979   */\ntag_77:\n    /* \"#utility.yul\":3003:3077   */\n  tag_79\n    /* \"#utility.yul\":3069:3076   */\n  dup5\n    /* \"#utility.yul\":3060:3066   */\n  dup3\n    /* \"#utility.yul\":3049:3058   */\n  dup6\n    /* \"#utility.yul\":3045:3067   */\n  add\n    /* \"#utility.yul\":3003:3077   */\n  tag_24\n  jump\t// in\ntag_79:\n    /* \"#utility.yul\":2993:3077   */\n  swap2\n  pop\n    /* \"#utility.yul\":2796:3087   */\n  pop\n    /* \"#utility.yul\":2570:3094   */\n  swap3\n  swap2\n  pop\n  pop\n  jump\t// out\n    /* \"#utility.yul\":3100:3199   */\ntag_25:\n    /* \"#utility.yul\":3152:3158   */\n  0x00\n    /* \"#utility.yul\":3186:3191   */\n  dup2\n    /* \"#utility.yul\":3180:3192   */\n  mload\n    /* \"#utility.yul\":3170:3192   */\n  swap1\n  pop\n    /* \"#utility.yul\":3100:3199   */\n  swap2\n  swap1\n  pop\n  jump\t// out\n    /* \"#utility.yul\":3205:3385   */\ntag_26:\n    /* \"#utility.yul\":3253:3330   */\n  0x4e487b7100000000000000000000000000000000000000000000000000000000\n    /* \"#utility.yul\":3250:3251   */\n  0x00\n    /* \"#utility.yul\":3243:3331   */\n  mstore\n    /* \"#utility.yul\":3350:3354   */\n  0x22\n    /* \"#utility.yul\":3347:3348   */\n  0x04\n    /* \"#utility.yul\":3340:3355   */\n  mstore\n    /* \"#utility.yul\":3374:3378   */\n  0x24\n    /* \"#utility.yul\":3371:3372   */\n  0x00\n    /* \"#utility.yul\":3364:3379   */\n  revert\n    /* \"#utility.yul\":3391:3711   */\ntag_27:\n    /* \"#utility.yul\":3435:3441   */\n  0x00\n    /* \"#utility.yul\":3472:3473   */\n  0x02\n    /* \"#utility.yul\":3466:3470   */\n  dup3\n    /* \"#utility.yul\":3462:3474   */\n  div\n    /* \"#utility.yul\":3452:3474   */\n  swap1\n  pop\n    /* \"#utility.yul\":3519:3520   */\n  0x01\n    /* \"#utility.yul\":3513:3517   */\n  dup3\n    /* \"#utility.yul\":3509:3521   */\n  and\n    /* \"#utility.yul\":3540:3558   */\n  dup1\n    /* \"#utility.yul\":3530:3611   */\n  tag_83\n  jumpi\n    /* \"#utility.yul\":3596:3600   */\n  0x7f\n    /* \"#utility.yul\":3588:3594   */\n  dup3\n    /* \"#utility.yul\":3584:3601   */\n  and\n    /* \"#utility.yul\":3574:3601   */\n  swap2\n  pop\n    /* \"#utility.yul\":3530:3611   */\ntag_83:\n    /* \"#utility.yul\":3658:3660   */\n  0x20\n    /* \"#utility.yul\":3650:3656   */\n  dup3\n    /* \"#utility.yul\":3647:3661   */\n  lt\n    /* \"#utility.yul\":3627:3645   */\n  dup2\n    /* \"#utility.yul\":3624:3662   */\n  sub\n    /* \"#utility.yul\":3621:3705   */\n  tag_84\n  jumpi\n    /* \"#utility.yul\":3677:3695   */\n  tag_85\n  tag_26\n  jump\t// in\ntag_85:\n    /* \"#utility.yul\":3621:3705   */\ntag_84:\n    /* \"#utility.yul\":3442:3711   */\n  pop\n    /* \"#utility.yul\":3391:3711   */\n  swap2\n  swap1\n  pop\n  jump\t// out\n    /* \"#utility.yul\":3717:3858   */\ntag_28:\n    /* \"#utility.yul\":3766:3770   */\n  0x00\n    /* \"#utility.yul\":3789:3792   */\n  dup2\n    /* \"#utility.yul\":3781:3792   */\n  swap1\n  pop\n    /* \"#utility.yul\":3812:3815   */\n  dup2\n    /* \"#utility.yul\":3809:3810   */\n  0x00\n    /* \"#utility.yul\":3802:3816   */\n  mstore\n    /* \"#utility.yul\":3846:3850   */\n  0x20\n    /* \"#utility.yul\":3843:3844   */\n  0x00\n    /* \"#utility.yul\":3833:3851   */\n  keccak256\n    /* \"#utility.yul\":3825:3851   */\n  swap1\n  pop\n    /* \"#utility.yul\":3717:3858   */\n  swap2\n  swap1\n  pop\n  jump\t// out\n    /* \"#utility.yul\":3864:3957   */\ntag_29:\n    /* \"#utility.yul\":3901:3907   */\n  0x00\n    /* \"#utility.yul\":3948:3950   */\n  0x20\n    /* \"#utility.yul\":3943:3945   */\n  0x1f\n    /* \"#utility.yul\":3936:3941   */\n  dup4\n    /* \"#utility.yul\":3932:3946   */\n  add\n    /* \"#utility.yul\":3928:3951   */\n  div\n    /* \"#utility.yul\":3918:3951   */\n  swap1\n  pop\n    /* \"#utility.yul\":3864:3957   */\n  swap2\n  swap1\n  pop\n  jump\t// out\n    /* \"#utility.yul\":3963:4070   */\ntag_30:\n    /* \"#utility.yul\":4007:4015   */\n  0x00\n    /* \"#utility.yul\":4057:4062   */\n  dup3\n    /* \"#utility.yul\":4051:4055   */\n  dup3\n    /* \"#utility.yul\":4047:4063   */\n  shl\n    /* \"#utility.yul\":4026:4063   */\n  swap1\n  pop\n    /* \"#utility.yul\":3963:4070   */\n  swap3\n  swap2\n  pop\n  pop\n  jump\t// out\n    /* \"#utility.yul\":4076:4469   */\ntag_31:\n    /* \"#utility.yul\":4145:4151   */\n  0x00\n    /* \"#utility.yul\":4195:4196   */\n  0x08\n    /* \"#utility.yul\":4183:4193   */\n  dup4\n    /* \"#utility.yul\":4179:4197   */\n  mul\n    /* \"#utility.yul\":4218:4315   */\n  tag_90\n    /* \"#utility.yul\":4248:4314   */\n  0xffffffffffffffffffffffffffffffffffffffffffffffffffffffffffffffff\n    /* \"#utility.yul\":4237:4246   */\n  dup3\n    /* \"#utility.yul\":4218:4315   */\n  tag_30\n  jump\t// in\ntag_90:\n    /* \"#utility.yul\":4336:4375   */\n  tag_91\n    /* \"#utility.yul\":4366:4374   */\n  dup7\n    /* \"#utility.yul\":4355:4364   */\n  dup4\n    /* \"#utility.yul\":4336:4375   */\n  tag_30\n  jump\t// in\ntag_91:\n    /* \"#utility.yul\":4324:4375   */\n  swap6\n  pop\n    /* \"#utility.yul\":4408:4412   */\n  dup1\n    /* \"#utility.yul\":4404:4413   */\n  not\n    /* \"#utility.yul\":4397:4402   */\n  dup5\n    /* \"#utility.yul\":4393:4414   */\n  and\n    /* \"#utility.yul\":4384:4414   */\n  swap4\n  pop\n    /* \"#utility.yul\":4457:4461   */\n  dup1\n    /* \"#utility.yul\":4447:4455   */\n  dup7\n    /* \"#utility.yul\":4443:4462   */\n  and\n    /* \"#utility.yul\":4436:4441   */\n  dup5\n    /* \"#utility.yul\":4433:4463   */\n  or\n    /* \"#utility.yul\":4423:4463   */\n  swap3\n  pop\n    /* \"#utility.yul\":4152:4469   */\n  pop\n  pop\n    /* \"#utility.yul\":4076:4469   */\n  swap4\n  swap3\n  pop\n  pop\n  pop\n  jump\t// out\n    /* \"#utility.yul\":4475:4552   */\ntag_32:\n    /* \"#utility.yul\":4512:4519   */\n  0x00\n    /* \"#utility.yul\":4541:4546   */\n  dup2\n    /* \"#utility.yul\":4530:4546   */\n  swap1\n  pop\n    /* \"#utility.yul\":4475:4552   */\n  swap2\n  swap1\n  pop\n  jump\t// out\n    /* \"#utility.yul\":4558:4618   */\ntag_33:\n    /* \"#utility.yul\":4586:4589   */\n  0x00\n    /* \"#utility.yul\":4607:4612   */\n  dup2\n    /* \"#utility.yul\":4600:4612   */\n  swap1\n  pop\n    /* \"#utility.yul\":4558:4618   */\n  swap2\n  swap1\n  pop\n  jump\t// out\n    /* \"#utility.yul\":4624:4766   */\ntag_34:\n    /* \"#utility.yul\":4674:4683   */\n  0x00\n    /* \"#utility.yul\":4707:4760   */\n  tag_95\n    /* \"#utility.yul\":4725:4759   */\n  tag_96\n    /* \"#utility.yul\":4734:4758   */\n  tag_97\n    /* \"#utility.yul\":4752:4757   */\n  dup5\n    /* \"#utility.yul\":4734:4758   */\n  tag_32\n  jump\t// in\ntag_97:\n    /* \"#utility.yul\":4725:4759   */\n  tag_33\n  jump\t// in\ntag_96:\n    /* \"#utility.yul\":4707:4760   */\n  tag_32\n  jump\t// in\ntag_95:\n    /* \"#utility.yul\":4694:4760   */\n  swap1\n  pop\n    /* \"#utility.yul\":4624:4766   */\n  swap2\n  swap1\n  pop\n  jump\t// out\n    /* \"#utility.yul\":4772:4847   */\ntag_35:\n    /* \"#utility.yul\":4815:4818   */\n  0x00\n    /* \"#utility.yul\":4836:4841   */\n  dup2\n    /* \"#utility.yul\":4829:4841   */\n  swap1\n  pop\n    /* \"#utility.yul\":4772:4847   */\n  swap2\n  swap1\n  pop\n  jump\t// out\n    /* \"#utility.yul\":4853:5122   */\ntag_36:\n    /* \"#utility.yul\":4963:5002   */\n  tag_100\n    /* \"#utility.yul\":4994:5001   */\n  dup4\n    /* \"#utility.yul\":4963:5002   */\n  tag_34\n  jump\t// in\ntag_100:\n    /* \"#utility.yul\":5024:5115   */\n  tag_101\n    /* \"#utility.yul\":5073:5114   */\n  tag_102\n    /* \"#utility.yul\":5097:5113   */\n  dup3\n    /* \"#utility.yul\":5073:5114   */\n  tag_35\n  jump\t// in\ntag_102:\n    /* \"#utility.yul\":5065:5071   */\n  dup5\n    /* \"#utility.yul\":5058:5062   */\n  dup5\n    /* \"#utility.yul\":5052:5063   */\n  sload\n    /* \"#utility.yul\":5024:5115   */\n  tag_31\n  jump\t// in\ntag_101:\n    /* \"#utility.yul\":5018:5022   */\n  dup3\n    /* \"#utility.yul\":5011:5116   */\n  sstore\n    /* \"#utility.yul\":4929:5122   */\n  pop\n    /* \"#utility.yul\":4853:5122   */\n  pop\n  pop\n  pop\n  jump\t// out\n    /* \"#utility.yul\":5128:5201   */\ntag_37:\n    /* \"#utility.yul\":5173:5176   */\n  0x00\n    /* \"#utility.yul\":5128:5201   */\n  swap1\n  jump\t// out\n    /* \"#utility.yul\":5207:5396   */\ntag_38:\n    /* \"#utility.yul\":5284:5316   */\n  tag_105\n  tag_37\n  jump\t// in\ntag_105:\n    /* \"#utility.yul\":5325:5390   */\n  tag_106\n    /* \"#utility.yul\":5383:5389   */\n  dup2\n    /* \"#utility.yul\":5375:5381   */\n  dup5\n    /* \"#utility.yul\":5369:5373   */\n  dup5\n    /* \"#utility.yul\":5325:5390   */\n  tag_36\n  jump\t// in\ntag_106:\n    /* \"#utility.yul\":5260:5396   */\n  pop\n    /* \"#utility.yul\":5207:5396   */\n  pop\n  pop\n  jump\t// out\n    /* \"#utility.yul\":5402:5588   */\ntag_39:\n    /* \"#utility.yul\":5462:5582   */\ntag_108:\n    /* \"#utility.yul\":5479:5482   */\n  dup2\n    /* \"#utility.yul\":5472:5477   */\n  dup2\n    /* \"#utility.yul\":5469:5483   */\n  lt\n    /* \"#utility.yul\":5462:5582   */\n  iszero\n  tag_110\n  jumpi\n    /* \"#utility.yul\":5533:5572   */\n  tag_111\n    /* \"#utility.yul\":5570:5571   */\n  0x00\n    /* \"#utility.yul\":5563:5568   */\n  dup3\n    /* \"#utility.yul\":5533:5572   */\n  tag_38\n  jump\t// in\ntag_111:\n    /* \"#utility.yul\":5506:5507   */\n  0x01\n    /* \"#utility.yul\":5499:5504   */\n  dup2\n    /* \"#utility.yul\":5495:5508   */\n  add\n    /* \"#utility.yul\":5486:5508   */\n  swap1\n  pop\n    /* \"#utility.yul\":5462:5582   */\n  jump(tag_108)\ntag_110:\n    /* \"#utility.yul\":5402:5588   */\n  pop\n  pop\n  jump\t// out\n    /* \"#utility.yul\":5594:6137   */\ntag_40:\n    /* \"#utility.yul\":5695:5697   */\n  0x1f\n    /* \"#utility.yul\":5690:5693   */\n  dup3\n    /* \"#utility.yul\":5687:5698   */\n  gt\n    /* \"#utility.yul\":5684:6130   */\n  iszero\n  tag_113\n  jumpi\n    /* \"#utility.yul\":5729:5767   */\n  tag_114\n    /* \"#utility.yul\":5761:5766   */\n  dup2\n    /* \"#utility.yul\":5729:5767   */\n  tag_28\n  jump\t// in\ntag_114:\n    /* \"#utility.yul\":5813:5842   */\n  tag_115\n    /* \"#utility.yul\":5831:5841   */\n  dup5\n    /* \"#utility.yul\":5813:5842   */\n  tag_29\n  jump\t// in\ntag_115:\n    /* \"#utility.yul\":5803:5811   */\n  dup2\n    /* \"#utility.yul\":5799:5843   */\n  add\n    /* \"#utility.yul\":5996:5998   */\n  0x20\n    /* \"#utility.yul\":5984:5994   */\n  dup6\n    /* \"#utility.yul\":5981:5999   */\n  lt\n    /* \"#utility.yul\":5978:6027   */\n  iszero\n  tag_116\n  jumpi\n    /* \"#utility.yul\":6017:6025   */\n  dup2\n    /* \"#utility.yul\":6002:6025   */\n  swap1\n  pop\n    /* \"#utility.yul\":5978:6027   */\ntag_116:\n    /* \"#utility.yul\":6040:6120   */\n  tag_117\n    /* \"#utility.yul\":6096:6118   */\n  tag_118\n    /* \"#utility.yul\":6114:6117   */\n  dup6\n    /* \"#utility.yul\":6096:6118   */\n  tag_29\n  jump\t// in\ntag_118:\n    /* \"#utility.yul\":6086:6094   */\n  dup4\n    /* \"#utility.yul\":6082:6119   */\n  add\n    /* \"#utility.yul\":6069:6080   */\n  dup3\n    /* \"#utility.yul\":6040:6120   */\n  tag_39\n  jump\t// in\ntag_117:\n    /* \"#utility.yul\":5699:6130   */\n  pop\n  pop\n    /* \"#utility.yul\":5684:6130   */\ntag_113:\n    /* \"#utility.yul\":5594:6137   */\n  pop\n  pop\n  pop\n  jump\t// out\n    /* \"#utility.yul\":6143:6260   */\ntag_41:\n    /* \"#utility.yul\":6197:6205   */\n  0x00\n    /* \"#utility.yul\":6247:6252   */\n  dup3\n    /* \"#utility.yul\":6241:6245   */\n  dup3\n    /* \"#utility.yul\":6237:6253   */\n  shr\n    /* \"#utility.yul\":6216:6253   */\n  swap1\n  pop\n    /* \"#utility.yul\":6143:6260   */\n  swap3\n  swap2\n  pop\n  pop\n  jump\t// out\n    /* \"#utility.yul\":6266:6435   */\ntag_42:\n    /* \"#utility.yul\":6310:6316   */\n  0x00\n    /* \"#utility.yul\":6343:6394   */\n  tag_121\n    /* \"#utility.yul\":6391:6392   */\n  0x00\n    /* \"#utility.yul\":6387:6393   */\n  not\n    /* \"#utility.yul\":6379:6384   */\n  dup5\n    /* \"#utility.yul\":6376:6377   */\n  0x08\n    /* \"#utility.yul\":6372:6385   */\n  mul\n    /* \"#utility.yul\":6343:6394   */\n  tag_41\n  jump\t// in\ntag_121:\n    /* \"#utility.yul\":6339:6395   */\n  not\n    /* \"#utility.yul\":6424:6428   */\n  dup1\n    /* \"#utility.yul\":6418:6422   */\n  dup4\n    /* \"#utility.yul\":6414:6429   */\n  and\n    /* \"#utility.yul\":6404:6429   */\n  swap2\n  pop\n    /* \"#utility.yul\":6317:6435   */\n  pop\n    /* \"#utility.yul\":6266:6435   */\n  swap3\n  swap2\n  pop\n  pop\n  jump\t// out\n    /* \"#utility.yul\":6440:6735   */\ntag_43:\n    /* \"#utility.yul\":6516:6520   */\n  0x00\n    /* \"#utility.yul\":6662:6691   */\n  tag_123\n    /* \"#utility.yul\":6687:6690   */\n  dup4\n    /* \"#utility.yul\":6681:6685   */\n  dup4\n    /* \"#utility.yul\":6662:6691   */\n  tag_42\n  jump\t// in\ntag_123:\n    /* \"#utility.yul\":6654:6691   */\n  swap2\n  pop\n    /* \"#utility.yul\":6724:6727   */\n  dup3\n    /* \"#utility.yul\":6721:6722   */\n  0x02\n    /* \"#utility.yul\":6717:6728   */\n  mul\n    /* \"#utility.yul\":6711:6715   */\n  dup3\n    /* \"#utility.yul\":6708:6729   */\n  or\n    /* \"#utility.yul\":6700:6729   */\n  swap1\n  pop\n    /* \"#utility.yul\":6440:6735   */\n  swap3\n  swap2\n  pop\n  pop\n  jump\t// out\n    /* \"#utility.yul\":6740:8135   */\ntag_7:\n    /* \"#utility.yul\":6857:6894   */\n  tag_125\n    /* \"#utility.yul\":6890:6893   */\n  dup3\n    /* \"#utility.yul\":6857:6894   */\n  tag_25\n  jump\t// in\ntag_125:\n    /* \"#utility.yul\":6959:6977   */\n  0xffffffffffffffff\n    /* \"#utility.yul\":6951:6957   */\n  dup2\n    /* \"#utility.yul\":6948:6978   */\n  gt\n    /* \"#utility.yul\":6945:7001   */\n  iszero\n  tag_126\n  jumpi\n    /* \"#utility.yul\":6981:6999   */\n  tag_127\n  tag_18\n  jump\t// in\ntag_127:\n    /* \"#utility.yul\":6945:7001   */\ntag_126:\n    /* \"#utility.yul\":7025:7063   */\n  tag_128\n    /* \"#utility.yul\":7057:7061   */\n  dup3\n    /* \"#utility.yul\":7051:7062   */\n  sload\n    /* \"#utility.yul\":7025:7063   */\n  tag_27\n  jump\t// in\ntag_128:\n    /* \"#utility.yul\":7110:7177   */\n  tag_129\n    /* \"#utility.yul\":7170:7176   */\n  dup3\n    /* \"#utility.yul\":7162:7168   */\n  dup3\n    /* \"#utility.yul\":7156:7160   */\n  dup6\n    /* \"#utility.yul\":7110:7177   */\n  tag_40\n  jump\t// in\ntag_129:\n    /* \"#utility.yul\":7204:7205   */\n  0x00\n    /* \"#utility.yul\":7228:7232   */\n  0x20\n    /* \"#utility.yul\":7215:7232   */\n  swap1\n  pop\n    /* \"#utility.yul\":7260:7262   */\n  0x1f\n    /* \"#utility.yul\":7252:7258   */\n  dup4\n    /* \"#utility.yul\":7249:7263   */\n  gt\n    /* \"#utility.yul\":7277:7278   */\n  0x01\n    /* \"#utility.yul\":7272:7890   */\n  dup2\n  eq\n  tag_131\n  jumpi\n    /* \"#utility.yul\":7934:7935   */\n  0x00\n    /* \"#utility.yul\":7951:7957   */\n  dup5\n    /* \"#utility.yul\":7948:8025   */\n  iszero\n  tag_132\n  jumpi\n    /* \"#utility.yul\":8000:8009   */\n  dup3\n    /* \"#utility.yul\":7995:7998   */\n  dup8\n    /* \"#utility.yul\":7991:8010   */\n  add\n    /* \"#utility.yul\":7985:8011   */\n  mload\n    /* \"#utility.yul\":7976:8011   */\n  swap1\n  pop\n    /* \"#utility.yul\":7948:8025   */\ntag_132:\n    /* \"#utility.yul\":8051:8118   */\n  tag_133\n    /* \"#utility.yul\":8111:8117   */\n  dup6\n    /* \"#utility.yul\":8104:8109   */\n  dup3\n    /* \"#utility.yul\":8051:8118   */\n  tag_43\n  jump\t// in\ntag_133:\n    /* \"#utility.yul\":8045:8049   */\n  dup7\n    /* \"#utility.yul\":8038:8119   */\n  sstore\n    /* \"#utility.yul\":7907:8129   */\n  pop\n    /* \"#utility.yul\":7242:8129   */\n  jump(tag_130)\n    /* \"#utility.yul\":7272:7890   */\ntag_131:\n    /* \"#utility.yul\":7324:7328   */\n  0x1f\n    /* \"#utility.yul\":7320:7329   */\n  not\n    /* \"#utility.yul\":7312:7318   */\n  dup5\n    /* \"#utility.yul\":7308:7330   */\n  and\n    /* \"#utility.yul\":7358:7395   */\n  tag_134\n    /* \"#utility.yul\":7390:7394   */\n  dup7\n    /* \"#utility.yul\":7358:7395   */\n  tag_28\n  jump\t// in\ntag_134:\n    /* \"#utility.yul\":7417:7418   */\n  0x00\n    /* \"#utility.yul\":7431:7639   */\ntag_135:\n    /* \"#utility.yul\":7445:7452   */\n  dup3\n    /* \"#utility.yul\":7442:7443   */\n  dup2\n    /* \"#utility.yul\":7439:7453   */\n  lt\n    /* \"#utility.yul\":7431:7639   */\n  iszero\n  tag_137\n  jumpi\n    /* \"#utility.yul\":7524:7533   */\n  dup5\n    /* \"#utility.yul\":7519:7522   */\n  dup10\n    /* \"#utility.yul\":7515:7534   */\n  add\n    /* \"#utility.yul\":7509:7535   */\n  mload\n    /* \"#utility.yul\":7501:7507   */\n  dup3\n    /* \"#utility.yul\":7494:7536   */\n  sstore\n    /* \"#utility.yul\":7575:7576   */\n  0x01\n    /* \"#utility.yul\":7567:7573   */\n  dup3\n    /* \"#utility.yul\":7563:7577   */\n  add\n    /* \"#utility.yul\":7553:7577   */\n  swap2\n  pop\n    /* \"#utility.yul\":7622:7624   */\n  0x20\n    /* \"#utility.yul\":7611:7620   */\n  dup6\n    /* \"#utility.yul\":7607:7625   */\n  add\n    /* \"#utility.yul\":7594:7625   */\n  swap5\n  pop\n    /* \"#utility.yul\":7468:7472   */\n  0x20\n    /* \"#utility.yul\":7465:7466   */\n  dup2\n    /* \"#utility.yul\":7461:7473   */\n  add\n    /* \"#utility.yul\":7456:7473   */\n  swap1\n  pop\n    /* \"#utility.yul\":7431:7639   */\n  jump(tag_135)\ntag_137:\n    /* \"#utility.yul\":7667:7673   */\n  dup7\n    /* \"#utility.yul\":7658:7665   */\n  dup4\n    /* \"#utility.yul\":7655:7674   */\n  lt\n    /* \"#utility.yul\":7652:7831   */\n  iszero\n  tag_138\n  jumpi\n    /* \"#utility.yul\":7725:7734   */\n  dup5\n    /* \"#utility.yul\":7720:7723   */\n  dup10\n    /* \"#utility.yul\":7716:7735   */\n  add\n    /* \"#utility.yul\":7710:7736   */\n  mload\n    /* \"#utility.yul\":7768:7816   */\n  tag_139\n    /* \"#utility.yul\":7810:7814   */\n  0x1f\n    /* \"#utility.yul\":7802:7808   */\n  dup10\n    /* \"#utility.yul\":7798:7815   */\n  and\n    /* \"#utility.yul\":7787:7796   */\n  dup3\n    /* \"#utility.yul\":7768:7816   */\n  tag_42\n  jump\t// in\ntag_139:\n    /* \"#utility.yul\":7760:7766   */\n  dup4\n    /* \"#utility.yul\":7753:7817   */\n  sstore\n    /* \"#utility.yul\":7675:7831   */\n  pop\n    /* \"#utility.yul\":7652:7831   */\ntag_138:\n    /* \"#utility.yul\":7877:7878   */\n  0x01\n    /* \"#utility.yul\":7873:7874   */\n  0x02\n    /* \"#utility.yul\":7865:7871   */\n  dup9\n    /* \"#utility.yul\":7861:7875   */\n  mul\n    /* \"#utility.yul\":7857:7879   */\n  add\n    /* \"#utility.yul\":7851:7855   */\n  dup9\n    /* \"#utility.yul\":7844:7880   */\n  sstore\n    /* \"#utility.yul\":7279:7890   */\n  pop\n  pop\n  pop\n    /* \"#utility.yul\":7242:8129   */\ntag_130:\n  pop\n    /* \"#utility.yul\":6832:8135   */\n  pop\n  pop\n  pop\n    /* \"#utility.yul\":6740:8135   */\n  pop\n  pop\n  jump\t// out\n    /* \"#utility.yul\":8141:8321   */\ntag_10:\n    /* \"#utility.yul\":8189:8266   */\n  0x4e487b7100000000000000000000000000000000000000000000000000000000\n    /* \"#utility.yul\":8186:8187   */\n  0x00\n    /* \"#utility.yul\":8179:8267   */\n  mstore\n    /* \"#utility.yul\":8286:8290   */\n  0x21\n    /* \"#utility.yul\":8283:8284   */\n  0x04\n    /* \"#utility.yul\":8276:8291   */\n  mstore\n    /* \"#utility.yul\":8310:8314   */\n  0x24\n    /* \"#utility.yul\":8307:8308   */\n  0x00\n    /* \"#utility.yul\":8300:8315   */\n  revert\n    /* \"contracts/oo.sol\":61:1483  contract Owner {... */\ntag_11:\n  dataSize(sub_0)\n  dup1\n  dataOffset(sub_0)\n  0x00\n  codecopy\n  0x00\n  return\nstop\n\nsub_0: assembly {\n        /* \"contracts/oo.sol\":61:1483  contract Owner {... */\n      mstore(0x40, 0x80)\n      callvalue\n      dup1\n      iszero\n      tag_1\n      jumpi\n      0x00\n      dup1\n      revert\n    tag_1:\n      pop\n      jumpi(tag_2, lt(calldatasize, 0x04))\n      shr(0xe0, calldataload(0x00))\n      dup1\n      0x1865c57d\n      eq\n      tag_3\n      jumpi\n      dup1\n      0x246f8b96\n      eq\n      tag_4\n      jumpi\n      dup1\n      0x3b710f8c\n      eq\n      tag_5\n      jumpi\n      dup1\n      0x893d20e8\n      eq\n      tag_6\n      jumpi\n    tag_2:\n      0x00\n      dup1\n      revert\n        /* \"contracts/oo.sol\":1400:1480  function getState() external view returns(State) {... */\n    tag_3:\n      tag_7\n      tag_8\n      jump\t// in\n    tag_7:\n      mload(0x40)\n      tag_9\n      swap2\n      swap1\n      tag_10\n      jump\t// in\n    tag_9:\n      mload(0x40)\n      dup1\n      swap2\n      sub\n      swap1\n      return\n        /* \"contracts/oo.sol\":1085:1226  function removeOwner() public isOwner {... */\n    tag_4:\n      tag_11\n      tag_12\n      jump\t// in\n    tag_11:\n      stop\n        /* \"contracts/oo.sol\":893:1077  function changeOwner(address addr, string calldata name) public isOwner {... */\n    tag_5:\n      tag_13\n      0x04\n      dup1\n      calldatasize\n      sub\n      dup2\n      add\n      swap1\n      tag_14\n      swap2\n      swap1\n      tag_15\n      jump\t// in\n    tag_14:\n      tag_16\n      jump\t// in\n    tag_13:\n      stop\n        /* \"contracts/oo.sol\":1255:1371  function getOwner() external view returns(address, string memory) {... */\n    tag_6:\n      tag_17\n      tag_18\n      jump\t// in\n    tag_17:\n      mload(0x40)\n      tag_19\n      swap3\n      swap2\n      swap1\n      tag_20\n      jump\t// in\n    tag_19:\n      mload(0x40)\n      dup1\n      swap2\n      sub\n      swap1\n      return\n        /* \"contracts/oo.sol\":1400:1480  function getState() external view returns(State) {... */\n    tag_8:\n        /* \"contracts/oo.sol\":1442:1447  State */\n      0x00\n        /* \"contracts/oo.sol\":1467:1472  state */\n      0x02\n      0x00\n      swap1\n      sload\n      swap1\n      0x0100\n      exp\n      swap1\n      div\n      0xff\n      and\n        /* \"contracts/oo.sol\":1460:1472  return state */\n      swap1\n      pop\n        /* \"contracts/oo.sol\":1400:1480  function getState() external view returns(State) {... */\n      swap1\n      jump\t// out\n        /* \"contracts/oo.sol\":1085:1226  function removeOwner() public isOwner {... */\n    tag_12:\n        /* \"contracts/oo.sol\":488:493  owner */\n      0x00\n        /* \"contracts/oo.sol\":488:498  owner.addr */\n      dup1\n      add\n      0x00\n      swap1\n      sload\n      swap1\n      0x0100\n      exp\n      swap1\n      div\n      0xffffffffffffffffffffffffffffffffffffffff\n      and\n        /* \"contracts/oo.sol\":474:498  msg.sender == owner.addr */\n      0xffffffffffffffffffffffffffffffffffffffff\n      and\n        /* \"contracts/oo.sol\":474:484  msg.sender */\n      caller\n        /* \"contracts/oo.sol\":474:498  msg.sender == owner.addr */\n      0xffffffffffffffffffffffffffffffffffffffff\n      and\n      eq\n        /* \"contracts/oo.sol\":466:522  require(msg.sender == owner.addr, \"Caller is not owner\") */\n      tag_23\n      jumpi\n      mload(0x40)\n      0x08c379a000000000000000000000000000000000000000000000000000000000\n      dup2\n      mstore\n      0x04\n      add\n      tag_24\n      swap1\n      tag_25\n      jump\t// in\n    tag_24:\n      mload(0x40)\n      dup1\n      swap2\n      sub\n      swap1\n      revert\n    tag_23:\n        /* \"contracts/oo.sol\":1152:1157  owner */\n      0x00\n        /* \"contracts/oo.sol\":1152:1162  owner.addr */\n      dup1\n      add\n      0x00\n      swap1\n      sload\n      swap1\n      0x0100\n      exp\n      swap1\n      div\n      0xffffffffffffffffffffffffffffffffffffffff\n      and\n        /* \"contracts/oo.sol\":1139:1163  OwnerRemoved(owner.addr) */\n      0xffffffffffffffffffffffffffffffffffffffff\n      and\n      0x58619076adf5bb0943d100ef88d52d7c3fd691b19d3a9071b555b651fbf418da\n      mload(0x40)\n      mload(0x40)\n      dup1\n      swap2\n      sub\n      swap1\n      log2\n        /* \"contracts/oo.sol\":1181:1186  owner */\n      0x00\n      dup1\n        /* \"contracts/oo.sol\":1174:1186  delete owner */\n      0x00\n      dup3\n      add\n      exp(0x0100, 0x00)\n      dup2\n      sload\n      swap1\n      0xffffffffffffffffffffffffffffffffffffffff\n      mul\n      not\n      and\n      swap1\n      sstore\n      0x01\n      dup3\n      add\n      0x00\n      tag_27\n      swap2\n      swap1\n      tag_28\n      jump\t// in\n    tag_27:\n      pop\n      pop\n        /* \"contracts/oo.sol\":1205:1218  State.NoOwner */\n      0x01\n        /* \"contracts/oo.sol\":1197:1202  state */\n      0x02\n      0x00\n        /* \"contracts/oo.sol\":1197:1218  state = State.NoOwner */\n      0x0100\n      exp\n      dup2\n      sload\n      dup2\n      0xff\n      mul\n      not\n      and\n      swap1\n      dup4\n      0x01\n      dup2\n      gt\n      iszero\n      tag_29\n      jumpi\n      tag_30\n      tag_31\n      jump\t// in\n    tag_30:\n    tag_29:\n      mul\n      or\n      swap1\n      sstore\n      pop\n        /* \"contracts/oo.sol\":1085:1226  function removeOwner() public isOwner {... */\n      jump\t// out\n        /* \"contracts/oo.sol\":893:1077  function changeOwner(address addr, string calldata name) public isOwner {... */\n    tag_16:\n        /* \"contracts/oo.sol\":488:493  owner */\n      0x00\n        /* \"contracts/oo.sol\":488:498  owner.addr */\n      dup1\n      add\n      0x00\n      swap1\n      sload\n      swap1\n      0x0100\n      exp\n      swap1\n      div\n      0xffffffffffffffffffffffffffffffffffffffff\n      and\n        /* \"contracts/oo.sol\":474:498  msg.sender == owner.addr */\n      0xffffffffffffffffffffffffffffffffffffffff\n      and\n        /* \"contracts/oo.sol\":474:484  msg.sender */\n      caller\n        /* \"contracts/oo.sol\":474:498  msg.sender == owner.addr */\n      0xffffffffffffffffffffffffffffffffffffffff\n      and\n      eq\n        /* \"contracts/oo.sol\":466:522  require(msg.sender == owner.addr, \"Caller is not owner\") */\n      tag_33\n      jumpi\n      mload(0x40)\n      0x08c379a000000000000000000000000000000000000000000000000000000000\n      dup2\n      mstore\n      0x04\n      add\n      tag_34\n      swap1\n      tag_25\n      jump\t// in\n    tag_34:\n      mload(0x40)\n      dup1\n      swap2\n      sub\n      swap1\n      revert\n    tag_33:\n        /* \"contracts/oo.sol\":989:999  msg.sender */\n      caller\n        /* \"contracts/oo.sol\":976:981  owner */\n      0x00\n        /* \"contracts/oo.sol\":976:986  owner.addr */\n      dup1\n      add\n      0x00\n        /* \"contracts/oo.sol\":976:999  owner.addr = msg.sender */\n      0x0100\n      exp\n      dup2\n      sload\n      dup2\n      0xffffffffffffffffffffffffffffffffffffffff\n      mul\n      not\n      and\n      swap1\n      dup4\n      0xffffffffffffffffffffffffffffffffffffffff\n      and\n      mul\n      or\n      swap1\n      sstore\n      pop\n        /* \"contracts/oo.sol\":1023:1027  name */\n      dup2\n      dup2\n        /* \"contracts/oo.sol\":1010:1015  owner */\n      0x00\n        /* \"contracts/oo.sol\":1010:1020  owner.name */\n      0x01\n      add\n        /* \"contracts/oo.sol\":1010:1027  owner.name = name */\n      swap2\n      dup3\n      tag_36\n      swap3\n      swap2\n      swap1\n      tag_37\n      jump\t// in\n    tag_36:\n      pop\n        /* \"contracts/oo.sol\":1064:1068  addr */\n      dup3\n        /* \"contracts/oo.sol\":1043:1069  OwnerSet(owner.addr, addr) */\n      0xffffffffffffffffffffffffffffffffffffffff\n      and\n        /* \"contracts/oo.sol\":1052:1057  owner */\n      0x00\n        /* \"contracts/oo.sol\":1052:1062  owner.addr */\n      dup1\n      add\n      0x00\n      swap1\n      sload\n      swap1\n      0x0100\n      exp\n      swap1\n      div\n      0xffffffffffffffffffffffffffffffffffffffff\n      and\n        /* \"contracts/oo.sol\":1043:1069  OwnerSet(owner.addr, addr) */\n      0xffffffffffffffffffffffffffffffffffffffff\n      and\n      0x342827c97908e5e2f71151c08502a66d44b6f758e3ac2f1de95f02eb95f0a735\n      mload(0x40)\n      mload(0x40)\n      dup1\n      swap2\n      sub\n      swap1\n      log3\n        /* \"contracts/oo.sol\":893:1077  function changeOwner(address addr, string calldata name) public isOwner {... */\n      pop\n      pop\n      pop\n      jump\t// out\n        /* \"contracts/oo.sol\":1255:1371  function getOwner() external view returns(address, string memory) {... */\n    tag_18:\n        /* \"contracts/oo.sol\":1297:1304  address */\n      0x00\n        /* \"contracts/oo.sol\":1306:1319  string memory */\n      0x60\n        /* \"contracts/oo.sol\":1340:1345  owner */\n      0x00\n        /* \"contracts/oo.sol\":1340:1350  owner.addr */\n      dup1\n      add\n      0x00\n      swap1\n      sload\n      swap1\n      0x0100\n      exp\n      swap1\n      div\n      0xffffffffffffffffffffffffffffffffffffffff\n      and\n        /* \"contracts/oo.sol\":1352:1357  owner */\n      0x00\n        /* \"contracts/oo.sol\":1352:1362  owner.name */\n      0x01\n      add\n        /* \"contracts/oo.sol\":1332:1363  return (owner.addr, owner.name) */\n      dup1\n      dup1\n      sload\n      tag_39\n      swap1\n      tag_40\n      jump\t// in\n    tag_39:\n      dup1\n      0x1f\n      add\n      0x20\n      dup1\n      swap2\n      div\n      mul\n      0x20\n      add\n      mload(0x40)\n      swap1\n      dup2\n      add\n      0x40\n      mstore\n      dup1\n      swap3\n      swap2\n      swap1\n      dup2\n      dup2\n      mstore\n      0x20\n      add\n      dup3\n      dup1\n      sload\n      tag_41\n      swap1\n      tag_40\n      jump\t// in\n    tag_41:\n      dup1\n      iszero\n      tag_42\n      jumpi\n      dup1\n      0x1f\n      lt\n      tag_43\n      jumpi\n      0x0100\n      dup1\n      dup4\n      sload\n      div\n      mul\n      dup4\n      mstore\n      swap2\n      0x20\n      add\n      swap2\n      jump(tag_42)\n    tag_43:\n      dup3\n      add\n      swap2\n      swap1\n      0x00\n      mstore\n      keccak256(0x00, 0x20)\n      swap1\n    tag_44:\n      dup2\n      sload\n      dup2\n      mstore\n      swap1\n      0x01\n      add\n      swap1\n      0x20\n      add\n      dup1\n      dup4\n      gt\n      tag_44\n      jumpi\n      dup3\n      swap1\n      sub\n      0x1f\n      and\n      dup3\n      add\n      swap2\n    tag_42:\n      pop\n      pop\n      pop\n      pop\n      pop\n      swap1\n      pop\n      swap2\n      pop\n      swap2\n      pop\n        /* \"contracts/oo.sol\":1255:1371  function getOwner() external view returns(address, string memory) {... */\n      swap1\n      swap2\n      jump\t// out\n    tag_28:\n      pop\n      dup1\n      sload\n      tag_45\n      swap1\n      tag_40\n      jump\t// in\n    tag_45:\n      0x00\n      dup3\n      sstore\n      dup1\n      0x1f\n      lt\n      tag_47\n      jumpi\n      pop\n      jump(tag_46)\n    tag_47:\n      0x1f\n      add\n      0x20\n      swap1\n      div\n      swap1\n      0x00\n      mstore\n      keccak256(0x00, 0x20)\n      swap1\n      dup2\n      add\n      swap1\n      tag_48\n      swap2\n      swap1\n      tag_49\n      jump\t// in\n    tag_48:\n    tag_46:\n      pop\n      jump\t// out\n    tag_49:\n    tag_50:\n      dup1\n      dup3\n      gt\n      iszero\n      tag_51\n      jumpi\n      0x00\n      dup2\n      0x00\n      swap1\n      sstore\n      pop\n      0x01\n      add\n      jump(tag_50)\n    tag_51:\n      pop\n      swap1\n      jump\t// out\n        /* \"#utility.yul\":7:187   */\n    tag_31:\n        /* \"#utility.yul\":55:132   */\n      0x4e487b7100000000000000000000000000000000000000000000000000000000\n        /* \"#utility.yul\":52:53   */\n      0x00\n        /* \"#utility.yul\":45:133   */\n      mstore\n        /* \"#utility.yul\":152:156   */\n      0x21\n        /* \"#utility.yul\":149:150   */\n      0x04\n        /* \"#utility.yul\":142:157   */\n      mstore\n        /* \"#utility.yul\":176:180   */\n      0x24\n        /* \"#utility.yul\":173:174   */\n      0x00\n        /* \"#utility.yul\":166:181   */\n      revert\n        /* \"#utility.yul\":193:305   */\n    tag_52:\n        /* \"#utility.yul\":273:274   */\n      0x02\n        /* \"#utility.yul\":266:271   */\n      dup2\n        /* \"#utility.yul\":263:275   */\n      lt\n        /* \"#utility.yul\":253:299   */\n      tag_97\n      jumpi\n        /* \"#utility.yul\":279:297   */\n      tag_98\n      tag_31\n      jump\t// in\n    tag_98:\n        /* \"#utility.yul\":253:299   */\n    tag_97:\n        /* \"#utility.yul\":193:305   */\n      pop\n      jump\t// out\n        /* \"#utility.yul\":311:436   */\n    tag_53:\n        /* \"#utility.yul\":355:362   */\n      0x00\n        /* \"#utility.yul\":384:389   */\n      dup2\n        /* \"#utility.yul\":373:389   */\n      swap1\n      pop\n        /* \"#utility.yul\":390:430   */\n      tag_100\n        /* \"#utility.yul\":424:429   */\n      dup3\n        /* \"#utility.yul\":390:430   */\n      tag_52\n      jump\t// in\n    tag_100:\n        /* \"#utility.yul\":311:436   */\n      swap2\n      swap1\n      pop\n      jump\t// out\n        /* \"#utility.yul\":442:567   */\n    tag_54:\n        /* \"#utility.yul\":497:506   */\n      0x00\n        /* \"#utility.yul\":530:561   */\n      tag_102\n        /* \"#utility.yul\":555:560   */\n      dup3\n        /* \"#utility.yul\":530:561   */\n      tag_53\n      jump\t// in\n    tag_102:\n        /* \"#utility.yul\":517:561   */\n      swap1\n      pop\n        /* \"#utility.yul\":442:567   */\n      swap2\n      swap1\n      pop\n      jump\t// out\n        /* \"#utility.yul\":573:714   */\n    tag_55:\n        /* \"#utility.yul\":665:707   */\n      tag_104\n        /* \"#utility.yul\":701:706   */\n      dup2\n        /* \"#utility.yul\":665:707   */\n      tag_54\n      jump\t// in\n    tag_104:\n        /* \"#utility.yul\":660:663   */\n      dup3\n        /* \"#utility.yul\":653:708   */\n      mstore\n        /* \"#utility.yul\":573:714   */\n      pop\n      pop\n      jump\t// out\n        /* \"#utility.yul\":720:952   */\n    tag_10:\n        /* \"#utility.yul\":818:822   */\n      0x00\n        /* \"#utility.yul\":856:858   */\n      0x20\n        /* \"#utility.yul\":845:854   */\n      dup3\n        /* \"#utility.yul\":841:859   */\n      add\n        /* \"#utility.yul\":833:859   */\n      swap1\n      pop\n        /* \"#utility.yul\":869:945   */\n      tag_106\n        /* \"#utility.yul\":942:943   */\n      0x00\n        /* \"#utility.yul\":931:940   */\n      dup4\n        /* \"#utility.yul\":927:944   */\n      add\n        /* \"#utility.yul\":918:924   */\n      dup5\n        /* \"#utility.yul\":869:945   */\n      tag_55\n      jump\t// in\n    tag_106:\n        /* \"#utility.yul\":720:952   */\n      swap3\n      swap2\n      pop\n      pop\n      jump\t// out\n        /* \"#utility.yul\":1039:1156   */\n    tag_57:\n        /* \"#utility.yul\":1148:1149   */\n      0x00\n        /* \"#utility.yul\":1145:1146   */\n      dup1\n        /* \"#utility.yul\":1138:1150   */\n      revert\n        /* \"#utility.yul\":1162:1279   */\n    tag_58:\n        /* \"#utility.yul\":1271:1272   */\n      0x00\n        /* \"#utility.yul\":1268:1269   */\n      dup1\n        /* \"#utility.yul\":1261:1273   */\n      revert\n        /* \"#utility.yul\":1285:1411   */\n    tag_59:\n        /* \"#utility.yul\":1322:1329   */\n      0x00\n        /* \"#utility.yul\":1362:1404   */\n      0xffffffffffffffffffffffffffffffffffffffff\n        /* \"#utility.yul\":1355:1360   */\n      dup3\n        /* \"#utility.yul\":1351:1405   */\n      and\n        /* \"#utility.yul\":1340:1405   */\n      swap1\n      pop\n        /* \"#utility.yul\":1285:1411   */\n      swap2\n      swap1\n      pop\n      jump\t// out\n        /* \"#utility.yul\":1417:1513   */\n    tag_60:\n        /* \"#utility.yul\":1454:1461   */\n      0x00\n        /* \"#utility.yul\":1483:1507   */\n      tag_112\n        /* \"#utility.yul\":1501:1506   */\n      dup3\n        /* \"#utility.yul\":1483:1507   */\n      tag_59\n      jump\t// in\n    tag_112:\n        /* \"#utility.yul\":1472:1507   */\n      swap1\n      pop\n        /* \"#utility.yul\":1417:1513   */\n      swap2\n      swap1\n      pop\n      jump\t// out\n        /* \"#utility.yul\":1519:1641   */\n    tag_61:\n        /* \"#utility.yul\":1592:1616   */\n      tag_114\n        /* \"#utility.yul\":1610:1615   */\n      dup2\n        /* \"#utility.yul\":1592:1616   */\n      tag_60\n      jump\t// in\n    tag_114:\n        /* \"#utility.yul\":1585:1590   */\n      dup2\n        /* \"#utility.yul\":1582:1617   */\n      eq\n        /* \"#utility.yul\":1572:1635   */\n      tag_115\n      jumpi\n        /* \"#utility.yul\":1631:1632   */\n      0x00\n        /* \"#utility.yul\":1628:1629   */\n      dup1\n        /* \"#utility.yul\":1621:1633   */\n      revert\n        /* \"#utility.yul\":1572:1635   */\n    tag_115:\n        /* \"#utility.yul\":1519:1641   */\n      pop\n      jump\t// out\n        /* \"#utility.yul\":1647:1786   */\n    tag_62:\n        /* \"#utility.yul\":1693:1698   */\n      0x00\n        /* \"#utility.yul\":1731:1737   */\n      dup2\n        /* \"#utility.yul\":1718:1738   */\n      calldataload\n        /* \"#utility.yul\":1709:1738   */\n      swap1\n      pop\n        /* \"#utility.yul\":1747:1780   */\n      tag_117\n        /* \"#utility.yul\":1774:1779   */\n      dup2\n        /* \"#utility.yul\":1747:1780   */\n      tag_61\n      jump\t// in\n    tag_117:\n        /* \"#utility.yul\":1647:1786   */\n      swap3\n      swap2\n      pop\n      pop\n      jump\t// out\n        /* \"#utility.yul\":1792:1909   */\n    tag_63:\n        /* \"#utility.yul\":1901:1902   */\n      0x00\n        /* \"#utility.yul\":1898:1899   */\n      dup1\n        /* \"#utility.yul\":1891:1903   */\n      revert\n        /* \"#utility.yul\":1915:2032   */\n    tag_64:\n        /* \"#utility.yul\":2024:2025   */\n      0x00\n        /* \"#utility.yul\":2021:2022   */\n      dup1\n        /* \"#utility.yul\":2014:2026   */\n      revert\n        /* \"#utility.yul\":2038:2155   */\n    tag_65:\n        /* \"#utility.yul\":2147:2148   */\n      0x00\n        /* \"#utility.yul\":2144:2145   */\n      dup1\n        /* \"#utility.yul\":2137:2149   */\n      revert\n        /* \"#utility.yul\":2175:2728   */\n    tag_66:\n        /* \"#utility.yul\":2233:2241   */\n      0x00\n        /* \"#utility.yul\":2243:2249   */\n      dup1\n        /* \"#utility.yul\":2293:2296   */\n      dup4\n        /* \"#utility.yul\":2286:2290   */\n      0x1f\n        /* \"#utility.yul\":2278:2284   */\n      dup5\n        /* \"#utility.yul\":2274:2291   */\n      add\n        /* \"#utility.yul\":2270:2297   */\n      slt\n        /* \"#utility.yul\":2260:2382   */\n      tag_122\n      jumpi\n        /* \"#utility.yul\":2301:2380   */\n      tag_123\n      tag_63\n      jump\t// in\n    tag_123:\n        /* \"#utility.yul\":2260:2382   */\n    tag_122:\n        /* \"#utility.yul\":2414:2420   */\n      dup3\n        /* \"#utility.yul\":2401:2421   */\n      calldataload\n        /* \"#utility.yul\":2391:2421   */\n      swap1\n      pop\n        /* \"#utility.yul\":2444:2462   */\n      0xffffffffffffffff\n        /* \"#utility.yul\":2436:2442   */\n      dup2\n        /* \"#utility.yul\":2433:2463   */\n      gt\n        /* \"#utility.yul\":2430:2547   */\n      iszero\n      tag_124\n      jumpi\n        /* \"#utility.yul\":2466:2545   */\n      tag_125\n      tag_64\n      jump\t// in\n    tag_125:\n        /* \"#utility.yul\":2430:2547   */\n    tag_124:\n        /* \"#utility.yul\":2580:2584   */\n      0x20\n        /* \"#utility.yul\":2572:2578   */\n      dup4\n        /* \"#utility.yul\":2568:2585   */\n      add\n        /* \"#utility.yul\":2556:2585   */\n      swap2\n      pop\n        /* \"#utility.yul\":2634:2637   */\n      dup4\n        /* \"#utility.yul\":2626:2630   */\n      0x01\n        /* \"#utility.yul\":2618:2624   */\n      dup3\n        /* \"#utility.yul\":2614:2631   */\n      mul\n        /* \"#utility.yul\":2604:2612   */\n      dup4\n        /* \"#utility.yul\":2600:2632   */\n      add\n        /* \"#utility.yul\":2597:2638   */\n      gt\n        /* \"#utility.yul\":2594:2722   */\n      iszero\n      tag_126\n      jumpi\n        /* \"#utility.yul\":2641:2720   */\n      tag_127\n      tag_65\n      jump\t// in\n    tag_127:\n        /* \"#utility.yul\":2594:2722   */\n    tag_126:\n        /* \"#utility.yul\":2175:2728   */\n      swap3\n      pop\n      swap3\n      swap1\n      pop\n      jump\t// out\n        /* \"#utility.yul\":2734:3408   */\n    tag_15:\n        /* \"#utility.yul\":2814:2820   */\n      0x00\n        /* \"#utility.yul\":2822:2828   */\n      dup1\n        /* \"#utility.yul\":2830:2836   */\n      0x00\n        /* \"#utility.yul\":2879:2881   */\n      0x40\n        /* \"#utility.yul\":2867:2876   */\n      dup5\n        /* \"#utility.yul\":2858:2865   */\n      dup7\n        /* \"#utility.yul\":2854:2877   */\n      sub\n        /* \"#utility.yul\":2850:2882   */\n      slt\n        /* \"#utility.yul\":2847:2966   */\n      iszero\n      tag_129\n      jumpi\n        /* \"#utility.yul\":2885:2964   */\n      tag_130\n      tag_57\n      jump\t// in\n    tag_130:\n        /* \"#utility.yul\":2847:2966   */\n    tag_129:\n        /* \"#utility.yul\":3005:3006   */\n      0x00\n        /* \"#utility.yul\":3030:3083   */\n      tag_131\n        /* \"#utility.yul\":3075:3082   */\n      dup7\n        /* \"#utility.yul\":3066:3072   */\n      dup3\n        /* \"#utility.yul\":3055:3064   */\n      dup8\n        /* \"#utility.yul\":3051:3073   */\n      add\n        /* \"#utility.yul\":3030:3083   */\n      tag_62\n      jump\t// in\n    tag_131:\n        /* \"#utility.yul\":3020:3083   */\n      swap4\n      pop\n        /* \"#utility.yul\":2976:3093   */\n      pop\n        /* \"#utility.yul\":3160:3162   */\n      0x20\n        /* \"#utility.yul\":3149:3158   */\n      dup5\n        /* \"#utility.yul\":3145:3163   */\n      add\n        /* \"#utility.yul\":3132:3164   */\n      calldataload\n        /* \"#utility.yul\":3191:3209   */\n      0xffffffffffffffff\n        /* \"#utility.yul\":3183:3189   */\n      dup2\n        /* \"#utility.yul\":3180:3210   */\n      gt\n        /* \"#utility.yul\":3177:3294   */\n      iszero\n      tag_132\n      jumpi\n        /* \"#utility.yul\":3213:3292   */\n      tag_133\n      tag_58\n      jump\t// in\n    tag_133:\n        /* \"#utility.yul\":3177:3294   */\n    tag_132:\n        /* \"#utility.yul\":3326:3391   */\n      tag_134\n        /* \"#utility.yul\":3383:3390   */\n      dup7\n        /* \"#utility.yul\":3374:3380   */\n      dup3\n        /* \"#utility.yul\":3363:3372   */\n      dup8\n        /* \"#utility.yul\":3359:3381   */\n      add\n        /* \"#utility.yul\":3326:3391   */\n      tag_66\n      jump\t// in\n    tag_134:\n        /* \"#utility.yul\":3308:3391   */\n      swap3\n      pop\n      swap3\n      pop\n        /* \"#utility.yul\":3103:3401   */\n      pop\n        /* \"#utility.yul\":2734:3408   */\n      swap3\n      pop\n      swap3\n      pop\n      swap3\n      jump\t// out\n        /* \"#utility.yul\":3414:3532   */\n    tag_67:\n        /* \"#utility.yul\":3501:3525   */\n      tag_136\n        /* \"#utility.yul\":3519:3524   */\n      dup2\n        /* \"#utility.yul\":3501:3525   */\n      tag_60\n      jump\t// in\n    tag_136:\n        /* \"#utility.yul\":3496:3499   */\n      dup3\n        /* \"#utility.yul\":3489:3526   */\n      mstore\n        /* \"#utility.yul\":3414:3532   */\n      pop\n      pop\n      jump\t// out\n        /* \"#utility.yul\":3538:3637   */\n    tag_68:\n        /* \"#utility.yul\":3590:3596   */\n      0x00\n        /* \"#utility.yul\":3624:3629   */\n      dup2\n        /* \"#utility.yul\":3618:3630   */\n      mload\n        /* \"#utility.yul\":3608:3630   */\n      swap1\n      pop\n        /* \"#utility.yul\":3538:3637   */\n      swap2\n      swap1\n      pop\n      jump\t// out\n        /* \"#utility.yul\":3643:3812   */\n    tag_69:\n        /* \"#utility.yul\":3727:3738   */\n      0x00\n        /* \"#utility.yul\":3761:3767   */\n      dup3\n        /* \"#utility.yul\":3756:3759   */\n      dup3\n        /* \"#utility.yul\":3749:3768   */\n      mstore\n        /* \"#utility.yul\":3801:3805   */\n      0x20\n        /* \"#utility.yul\":3796:3799   */\n      dup3\n        /* \"#utility.yul\":3792:3806   */\n      add\n        /* \"#utility.yul\":3777:3806   */\n      swap1\n      pop\n        /* \"#utility.yul\":3643:3812   */\n      swap3\n      swap2\n      pop\n      pop\n      jump\t// out\n        /* \"#utility.yul\":3818:3957   */\n    tag_70:\n        /* \"#utility.yul\":3907:3913   */\n      dup3\n        /* \"#utility.yul\":3902:3905   */\n      dup2\n        /* \"#utility.yul\":3897:3900   */\n      dup4\n        /* \"#utility.yul\":3891:3914   */\n      mcopy\n        /* \"#utility.yul\":3948:3949   */\n      0x00\n        /* \"#utility.yul\":3939:3945   */\n      dup4\n        /* \"#utility.yul\":3934:3937   */\n      dup4\n        /* \"#utility.yul\":3930:3946   */\n      add\n        /* \"#utility.yul\":3923:3950   */\n      mstore\n        /* \"#utility.yul\":3818:3957   */\n      pop\n      pop\n      pop\n      jump\t// out\n        /* \"#utility.yul\":3963:4065   */\n    tag_71:\n        /* \"#utility.yul\":4004:4010   */\n      0x00\n        /* \"#utility.yul\":4055:4057   */\n      0x1f\n        /* \"#utility.yul\":4051:4058   */\n      not\n        /* \"#utility.yul\":4046:4048   */\n      0x1f\n        /* \"#utility.yul\":4039:4044   */\n      dup4\n        /* \"#utility.yul\":4035:4049   */\n      add\n        /* \"#utility.yul\":4031:4059   */\n      and\n        /* \"#utility.yul\":4021:4059   */\n      swap1\n      pop\n        /* \"#utility.yul\":3963:4065   */\n      swap2\n      swap1\n      pop\n      jump\t// out\n        /* \"#utility.yul\":4071:4448   */\n    tag_72:\n        /* \"#utility.yul\":4159:4162   */\n      0x00\n        /* \"#utility.yul\":4187:4226   */\n      tag_142\n        /* \"#utility.yul\":4220:4225   */\n      dup3\n        /* \"#utility.yul\":4187:4226   */\n      tag_68\n      jump\t// in\n    tag_142:\n        /* \"#utility.yul\":4242:4313   */\n      tag_143\n        /* \"#utility.yul\":4306:4312   */\n      dup2\n        /* \"#utility.yul\":4301:4304   */\n      dup6\n        /* \"#utility.yul\":4242:4313   */\n      tag_69\n      jump\t// in\n    tag_143:\n        /* \"#utility.yul\":4235:4313   */\n      swap4\n      pop\n        /* \"#utility.yul\":4322:4387   */\n      tag_144\n        /* \"#utility.yul\":4380:4386   */\n      dup2\n        /* \"#utility.yul\":4375:4378   */\n      dup6\n        /* \"#utility.yul\":4368:4372   */\n      0x20\n        /* \"#utility.yul\":4361:4366   */\n      dup7\n        /* \"#utility.yul\":4357:4373   */\n      add\n        /* \"#utility.yul\":4322:4387   */\n      tag_70\n      jump\t// in\n    tag_144:\n        /* \"#utility.yul\":4412:4441   */\n      tag_145\n        /* \"#utility.yul\":4434:4440   */\n      dup2\n        /* \"#utility.yul\":4412:4441   */\n      tag_71\n      jump\t// in\n    tag_145:\n        /* \"#utility.yul\":4407:4410   */\n      dup5\n        /* \"#utility.yul\":4403:4442   */\n      add\n        /* \"#utility.yul\":4396:4442   */\n      swap2\n      pop\n        /* \"#utility.yul\":4163:4448   */\n      pop\n        /* \"#utility.yul\":4071:4448   */\n      swap3\n      swap2\n      pop\n      pop\n      jump\t// out\n        /* \"#utility.yul\":4454:4877   */\n    tag_20:\n        /* \"#utility.yul\":4595:4599   */\n      0x00\n        /* \"#utility.yul\":4633:4635   */\n      0x40\n        /* \"#utility.yul\":4622:4631   */\n      dup3\n        /* \"#utility.yul\":4618:4636   */\n      add\n        /* \"#utility.yul\":4610:4636   */\n      swap1\n      pop\n        /* \"#utility.yul\":4646:4717   */\n      tag_147\n        /* \"#utility.yul\":4714:4715   */\n      0x00\n        /* \"#utility.yul\":4703:4712   */\n      dup4\n        /* \"#utility.yul\":4699:4716   */\n      add\n        /* \"#utility.yul\":4690:4696   */\n      dup6\n        /* \"#utility.yul\":4646:4717   */\n      tag_67\n      jump\t// in\n    tag_147:\n        /* \"#utility.yul\":4764:4773   */\n      dup2\n        /* \"#utility.yul\":4758:4762   */\n      dup2\n        /* \"#utility.yul\":4754:4774   */\n      sub\n        /* \"#utility.yul\":4749:4751   */\n      0x20\n        /* \"#utility.yul\":4738:4747   */\n      dup4\n        /* \"#utility.yul\":4734:4752   */\n      add\n        /* \"#utility.yul\":4727:4775   */\n      mstore\n        /* \"#utility.yul\":4792:4870   */\n      tag_148\n        /* \"#utility.yul\":4865:4869   */\n      dup2\n        /* \"#utility.yul\":4856:4862   */\n      dup5\n        /* \"#utility.yul\":4792:4870   */\n      tag_72\n      jump\t// in\n    tag_148:\n        /* \"#utility.yul\":4784:4870   */\n      swap1\n      pop\n        /* \"#utility.yul\":4454:4877   */\n      swap4\n      swap3\n      pop\n      pop\n      pop\n      jump\t// out\n        /* \"#utility.yul\":4883:5052   */\n    tag_73:\n        /* \"#utility.yul\":5023:5044   */\n      0x43616c6c6572206973206e6f74206f776e657200000000000000000000000000\n        /* \"#utility.yul\":5019:5020   */\n      0x00\n        /* \"#utility.yul\":5011:5017   */\n      dup3\n        /* \"#utility.yul\":5007:5021   */\n      add\n        /* \"#utility.yul\":5000:5045   */\n      mstore\n        /* \"#utility.yul\":4883:5052   */\n      pop\n      jump\t// out\n        /* \"#utility.yul\":5058:5424   */\n    tag_74:\n        /* \"#utility.yul\":5200:5203   */\n      0x00\n        /* \"#utility.yul\":5221:5288   */\n      tag_151\n        /* \"#utility.yul\":5285:5287   */\n      0x13\n        /* \"#utility.yul\":5280:5283   */\n      dup4\n        /* \"#utility.yul\":5221:5288   */\n      tag_69\n      jump\t// in\n    tag_151:\n        /* \"#utility.yul\":5214:5288   */\n      swap2\n      pop\n        /* \"#utility.yul\":5297:5390   */\n      tag_152\n        /* \"#utility.yul\":5386:5389   */\n      dup3\n        /* \"#utility.yul\":5297:5390   */\n      tag_73\n      jump\t// in\n    tag_152:\n        /* \"#utility.yul\":5415:5417   */\n      0x20\n        /* \"#utility.yul\":5410:5413   */\n      dup3\n        /* \"#utility.yul\":5406:5418   */\n      add\n        /* \"#utility.yul\":5399:5418   */\n      swap1\n      pop\n        /* \"#utility.yul\":5058:5424   */\n      swap2\n      swap1\n      pop\n      jump\t// out\n        /* \"#utility.yul\":5430:5849   */\n    tag_25:\n        /* \"#utility.yul\":5596:5600   */\n      0x00\n        /* \"#utility.yul\":5634:5636   */\n      0x20\n        /* \"#utility.yul\":5623:5632   */\n      dup3\n        /* \"#utility.yul\":5619:5637   */\n      add\n        /* \"#utility.yul\":5611:5637   */\n      swap1\n      pop\n        /* \"#utility.yul\":5683:5692   */\n      dup2\n        /* \"#utility.yul\":5677:5681   */\n      dup2\n        /* \"#utility.yul\":5673:5693   */\n      sub\n        /* \"#utility.yul\":5669:5670   */\n      0x00\n        /* \"#utility.yul\":5658:5667   */\n      dup4\n        /* \"#utility.yul\":5654:5671   */\n      add\n        /* \"#utility.yul\":5647:5694   */\n      mstore\n        /* \"#utility.yul\":5711:5842   */\n      tag_154\n        /* \"#utility.yul\":5837:5841   */\n      dup2\n        /* \"#utility.yul\":5711:5842   */\n      tag_74\n      jump\t// in\n    tag_154:\n        /* \"#utility.yul\":5703:5842   */\n      swap1\n      pop\n        /* \"#utility.yul\":5430:5849   */\n      swap2\n      swap1\n      pop\n      jump\t// out\n        /* \"#utility.yul\":5855:5952   */\n    tag_75:\n        /* \"#utility.yul\":5914:5920   */\n      0x00\n        /* \"#utility.yul\":5942:5945   */\n      dup3\n        /* \"#utility.yul\":5932:5945   */\n      swap1\n      pop\n        /* \"#utility.yul\":5855:5952   */\n      swap3\n      swap2\n      pop\n      pop\n      jump\t// out\n        /* \"#utility.yul\":5958:6138   */\n    tag_76:\n        /* \"#utility.yul\":6006:6083   */\n      0x4e487b7100000000000000000000000000000000000000000000000000000000\n        /* \"#utility.yul\":6003:6004   */\n      0x00\n        /* \"#utility.yul\":5996:6084   */\n      mstore\n        /* \"#utility.yul\":6103:6107   */\n      0x41\n        /* \"#utility.yul\":6100:6101   */\n      0x04\n        /* \"#utility.yul\":6093:6108   */\n      mstore\n        /* \"#utility.yul\":6127:6131   */\n      0x24\n        /* \"#utility.yul\":6124:6125   */\n      0x00\n        /* \"#utility.yul\":6117:6132   */\n      revert\n        /* \"#utility.yul\":6144:6324   */\n    tag_77:\n        /* \"#utility.yul\":6192:6269   */\n      0x4e487b7100000000000000000000000000000000000000000000000000000000\n        /* \"#utility.yul\":6189:6190   */\n      0x00\n        /* \"#utility.yul\":6182:6270   */\n      mstore\n        /* \"#utility.yul\":6289:6293   */\n      0x22\n        /* \"#utility.yul\":6286:6287   */\n      0x04\n        /* \"#utility.yul\":6279:6294   */\n      mstore\n        /* \"#utility.yul\":6313:6317   */\n      0x24\n        /* \"#utility.yul\":6310:6311   */\n      0x00\n        /* \"#utility.yul\":6303:6318   */\n      revert\n        /* \"#utility.yul\":6330:6650   */\n    tag_40:\n        /* \"#utility.yul\":6374:6380   */\n      0x00\n        /* \"#utility.yul\":6411:6412   */\n      0x02\n        /* \"#utility.yul\":6405:6409   */\n      dup3\n        /* \"#utility.yul\":6401:6413   */\n      div\n        /* \"#utility.yul\":6391:6413   */\n      swap1\n      pop\n        /* \"#utility.yul\":6458:6459   */\n      0x01\n        /* \"#utility.yul\":6452:6456   */\n      dup3\n        /* \"#utility.yul\":6448:6460   */\n      and\n        /* \"#utility.yul\":6479:6497   */\n      dup1\n        /* \"#utility.yul\":6469:6550   */\n      tag_159\n      jumpi\n        /* \"#utility.yul\":6535:6539   */\n      0x7f\n        /* \"#utility.yul\":6527:6533   */\n      dup3\n        /* \"#utility.yul\":6523:6540   */\n      and\n        /* \"#utility.yul\":6513:6540   */\n      swap2\n      pop\n        /* \"#utility.yul\":6469:6550   */\n    tag_159:\n        /* \"#utility.yul\":6597:6599   */\n      0x20\n        /* \"#utility.yul\":6589:6595   */\n      dup3\n        /* \"#utility.yul\":6586:6600   */\n      lt\n        /* \"#utility.yul\":6566:6584   */\n      dup2\n        /* \"#utility.yul\":6563:6601   */\n      sub\n        /* \"#utility.yul\":6560:6644   */\n      tag_160\n      jumpi\n        /* \"#utility.yul\":6616:6634   */\n      tag_161\n      tag_77\n      jump\t// in\n    tag_161:\n        /* \"#utility.yul\":6560:6644   */\n    tag_160:\n        /* \"#utility.yul\":6381:6650   */\n      pop\n        /* \"#utility.yul\":6330:6650   */\n      swap2\n      swap1\n      pop\n      jump\t// out\n        /* \"#utility.yul\":6656:6797   */\n    tag_78:\n        /* \"#utility.yul\":6705:6709   */\n      0x00\n        /* \"#utility.yul\":6728:6731   */\n      dup2\n        /* \"#utility.yul\":6720:6731   */\n      swap1\n      pop\n        /* \"#utility.yul\":6751:6754   */\n      dup2\n        /* \"#utility.yul\":6748:6749   */\n      0x00\n        /* \"#utility.yul\":6741:6755   */\n      mstore\n        /* \"#utility.yul\":6785:6789   */\n      0x20\n        /* \"#utility.yul\":6782:6783   */\n      0x00\n        /* \"#utility.yul\":6772:6790   */\n      keccak256\n        /* \"#utility.yul\":6764:6790   */\n      swap1\n      pop\n        /* \"#utility.yul\":6656:6797   */\n      swap2\n      swap1\n      pop\n      jump\t// out\n        /* \"#utility.yul\":6803:6896   */\n    tag_79:\n        /* \"#utility.yul\":6840:6846   */\n      0x00\n        /* \"#utility.yul\":6887:6889   */\n      0x20\n        /* \"#utility.yul\":6882:6884   */\n      0x1f\n        /* \"#utility.yul\":6875:6880   */\n      dup4\n        /* \"#utility.yul\":6871:6885   */\n      add\n        /* \"#utility.yul\":6867:6890   */\n      div\n        /* \"#utility.yul\":6857:6890   */\n      swap1\n      pop\n        /* \"#utility.yul\":6803:6896   */\n      swap2\n      swap1\n      pop\n      jump\t// out\n        /* \"#utility.yul\":6902:7009   */\n    tag_80:\n        /* \"#utility.yul\":6946:6954   */\n      0x00\n        /* \"#utility.yul\":6996:7001   */\n      dup3\n        /* \"#utility.yul\":6990:6994   */\n      dup3\n        /* \"#utility.yul\":6986:7002   */\n      shl\n        /* \"#utility.yul\":6965:7002   */\n      swap1\n      pop\n        /* \"#utility.yul\":6902:7009   */\n      swap3\n      swap2\n      pop\n      pop\n      jump\t// out\n        /* \"#utility.yul\":7015:7408   */\n    tag_81:\n        /* \"#utility.yul\":7084:7090   */\n      0x00\n        /* \"#utility.yul\":7134:7135   */\n      0x08\n        /* \"#utility.yul\":7122:7132   */\n      dup4\n        /* \"#utility.yul\":7118:7136   */\n      mul\n        /* \"#utility.yul\":7157:7254   */\n      tag_166\n        /* \"#utility.yul\":7187:7253   */\n      0xffffffffffffffffffffffffffffffffffffffffffffffffffffffffffffffff\n        /* \"#utility.yul\":7176:7185   */\n      dup3\n        /* \"#utility.yul\":7157:7254   */\n      tag_80\n      jump\t// in\n    tag_166:\n        /* \"#utility.yul\":7275:7314   */\n      tag_167\n        /* \"#utility.yul\":7305:7313   */\n      dup7\n        /* \"#utility.yul\":7294:7303   */\n      dup4\n        /* \"#utility.yul\":7275:7314   */\n      tag_80\n      jump\t// in\n    tag_167:\n        /* \"#utility.yul\":7263:7314   */\n      swap6\n      pop\n        /* \"#utility.yul\":7347:7351   */\n      dup1\n        /* \"#utility.yul\":7343:7352   */\n      not\n        /* \"#utility.yul\":7336:7341   */\n      dup5\n        /* \"#utility.yul\":7332:7353   */\n      and\n        /* \"#utility.yul\":7323:7353   */\n      swap4\n      pop\n        /* \"#utility.yul\":7396:7400   */\n      dup1\n        /* \"#utility.yul\":7386:7394   */\n      dup7\n        /* \"#utility.yul\":7382:7401   */\n      and\n        /* \"#utility.yul\":7375:7380   */\n      dup5\n        /* \"#utility.yul\":7372:7402   */\n      or\n        /* \"#utility.yul\":7362:7402   */\n      swap3\n      pop\n        /* \"#utility.yul\":7091:7408   */\n      pop\n      pop\n        /* \"#utility.yul\":7015:7408   */\n      swap4\n      swap3\n      pop\n      pop\n      pop\n      jump\t// out\n        /* \"#utility.yul\":7414:7491   */\n    tag_82:\n        /* \"#utility.yul\":7451:7458   */\n      0x00\n        /* \"#utility.yul\":7480:7485   */\n      dup2\n        /* \"#utility.yul\":7469:7485   */\n      swap1\n      pop\n        /* \"#utility.yul\":7414:7491   */\n      swap2\n      swap1\n      pop\n      jump\t// out\n        /* \"#utility.yul\":7497:7557   */\n    tag_83:\n        /* \"#utility.yul\":7525:7528   */\n      0x00\n        /* \"#utility.yul\":7546:7551   */\n      dup2\n        /* \"#utility.yul\":7539:7551   */\n      swap1\n      pop\n        /* \"#utility.yul\":7497:7557   */\n      swap2\n      swap1\n      pop\n      jump\t// out\n        /* \"#utility.yul\":7563:7705   */\n    tag_84:\n        /* \"#utility.yul\":7613:7622   */\n      0x00\n        /* \"#utility.yul\":7646:7699   */\n      tag_171\n        /* \"#utility.yul\":7664:7698   */\n      tag_172\n        /* \"#utility.yul\":7673:7697   */\n      tag_173\n        /* \"#utility.yul\":7691:7696   */\n      dup5\n        /* \"#utility.yul\":7673:7697   */\n      tag_82\n      jump\t// in\n    tag_173:\n        /* \"#utility.yul\":7664:7698   */\n      tag_83\n      jump\t// in\n    tag_172:\n        /* \"#utility.yul\":7646:7699   */\n      tag_82\n      jump\t// in\n    tag_171:\n        /* \"#utility.yul\":7633:7699   */\n      swap1\n      pop\n        /* \"#utility.yul\":7563:7705   */\n      swap2\n      swap1\n      pop\n      jump\t// out\n        /* \"#utility.yul\":7711:7786   */\n    tag_85:\n        /* \"#utility.yul\":7754:7757   */\n      0x00\n        /* \"#utility.yul\":7775:7780   */\n      dup2\n        /* \"#utility.yul\":7768:7780   */\n      swap1\n      pop\n        /* \"#utility.yul\":7711:7786   */\n      swap2\n      swap1\n      pop\n      jump\t// out\n        /* \"#utility.yul\":7792:8061   */\n    tag_86:\n        /* \"#utility.yul\":7902:7941   */\n      tag_176\n        /* \"#utility.yul\":7933:7940   */\n      dup4\n        /* \"#utility.yul\":7902:7941   */\n      tag_84\n      jump\t// in\n    tag_176:\n        /* \"#utility.yul\":7963:8054   */\n      tag_177\n        /* \"#utility.yul\":8012:8053   */\n      tag_178\n        /* \"#utility.yul\":8036:8052   */\n      dup3\n        /* \"#utility.yul\":8012:8053   */\n      tag_85\n      jump\t// in\n    tag_178:\n        /* \"#utility.yul\":8004:8010   */\n      dup5\n        /* \"#utility.yul\":7997:8001   */\n      dup5\n        /* \"#utility.yul\":7991:8002   */\n      sload\n        /* \"#utility.yul\":7963:8054   */\n      tag_81\n      jump\t// in\n    tag_177:\n        /* \"#utility.yul\":7957:7961   */\n      dup3\n        /* \"#utility.yul\":7950:8055   */\n      sstore\n        /* \"#utility.yul\":7868:8061   */\n      pop\n        /* \"#utility.yul\":7792:8061   */\n      pop\n      pop\n      pop\n      jump\t// out\n        /* \"#utility.yul\":8067:8140   */\n    tag_87:\n        /* \"#utility.yul\":8112:8115   */\n      0x00\n        /* \"#utility.yul\":8067:8140   */\n      swap1\n      jump\t// out\n        /* \"#utility.yul\":8146:8335   */\n    tag_88:\n        /* \"#utility.yul\":8223:8255   */\n      tag_181\n      tag_87\n      jump\t// in\n    tag_181:\n        /* \"#utility.yul\":8264:8329   */\n      tag_182\n        /* \"#utility.yul\":8322:8328   */\n      dup2\n        /* \"#utility.yul\":8314:8320   */\n      dup5\n        /* \"#utility.yul\":8308:8312   */\n      dup5\n        /* \"#utility.yul\":8264:8329   */\n      tag_86\n      jump\t// in\n    tag_182:\n        /* \"#utility.yul\":8199:8335   */\n      pop\n        /* \"#utility.yul\":8146:8335   */\n      pop\n      pop\n      jump\t// out\n        /* \"#utility.yul\":8341:8527   */\n    tag_89:\n        /* \"#utility.yul\":8401:8521   */\n    tag_184:\n        /* \"#utility.yul\":8418:8421   */\n      dup2\n        /* \"#utility.yul\":8411:8416   */\n      dup2\n        /* \"#utility.yul\":8408:8422   */\n      lt\n        /* \"#utility.yul\":8401:8521   */\n      iszero\n      tag_186\n      jumpi\n        /* \"#utility.yul\":8472:8511   */\n      tag_187\n        /* \"#utility.yul\":8509:8510   */\n      0x00\n        /* \"#utility.yul\":8502:8507   */\n      dup3\n        /* \"#utility.yul\":8472:8511   */\n      tag_88\n      jump\t// in\n    tag_187:\n        /* \"#utility.yul\":8445:8446   */\n      0x01\n        /* \"#utility.yul\":8438:8443   */\n      dup2\n        /* \"#utility.yul\":8434:8447   */\n      add\n        /* \"#utility.yul\":8425:8447   */\n      swap1\n      pop\n        /* \"#utility.yul\":8401:8521   */\n      jump(tag_184)\n    tag_186:\n        /* \"#utility.yul\":8341:8527   */\n      pop\n      pop\n      jump\t// out\n        /* \"#utility.yul\":8533:9076   */\n    tag_90:\n        /* \"#utility.yul\":8634:8636   */\n      0x1f\n        /* \"#utility.yul\":8629:8632   */\n      dup3\n        /* \"#utility.yul\":8626:8637   */\n      gt\n        /* \"#utility.yul\":8623:9069   */\n      iszero\n      tag_189\n      jumpi\n        /* \"#utility.yul\":8668:8706   */\n      tag_190\n        /* \"#utility.yul\":8700:8705   */\n      dup2\n        /* \"#utility.yul\":8668:8706   */\n      tag_78\n      jump\t// in\n    tag_190:\n        /* \"#utility.yul\":8752:8781   */\n      tag_191\n        /* \"#utility.yul\":8770:8780   */\n      dup5\n        /* \"#utility.yul\":8752:8781   */\n      tag_79\n      jump\t// in\n    tag_191:\n        /* \"#utility.yul\":8742:8750   */\n      dup2\n        /* \"#utility.yul\":8738:8782   */\n      add\n        /* \"#utility.yul\":8935:8937   */\n      0x20\n        /* \"#utility.yul\":8923:8933   */\n      dup6\n        /* \"#utility.yul\":8920:8938   */\n      lt\n        /* \"#utility.yul\":8917:8966   */\n      iszero\n      tag_192\n      jumpi\n        /* \"#utility.yul\":8956:8964   */\n      dup2\n        /* \"#utility.yul\":8941:8964   */\n      swap1\n      pop\n        /* \"#utility.yul\":8917:8966   */\n    tag_192:\n        /* \"#utility.yul\":8979:9059   */\n      tag_193\n        /* \"#utility.yul\":9035:9057   */\n      tag_194\n        /* \"#utility.yul\":9053:9056   */\n      dup6\n        /* \"#utility.yul\":9035:9057   */\n      tag_79\n      jump\t// in\n    tag_194:\n        /* \"#utility.yul\":9025:9033   */\n      dup4\n        /* \"#utility.yul\":9021:9058   */\n      add\n        /* \"#utility.yul\":9008:9019   */\n      dup3\n        /* \"#utility.yul\":8979:9059   */\n      tag_89\n      jump\t// in\n    tag_193:\n        /* \"#utility.yul\":8638:9069   */\n      pop\n      pop\n        /* \"#utility.yul\":8623:9069   */\n    tag_189:\n        /* \"#utility.yul\":8533:9076   */\n      pop\n      pop\n      pop\n      jump\t// out\n        /* \"#utility.yul\":9082:9199   */\n    tag_91:\n        /* \"#utility.yul\":9136:9144   */\n      0x00\n        /* \"#utility.yul\":9186:9191   */\n      dup3\n        /* \"#utility.yul\":9180:9184   */\n      dup3\n        /* \"#utility.yul\":9176:9192   */\n      shr\n        /* \"#utility.yul\":9155:9192   */\n      swap1\n      pop\n        /* \"#utility.yul\":9082:9199   */\n      swap3\n      swap2\n      pop\n      pop\n      jump\t// out\n        /* \"#utility.yul\":9205:9374   */\n    tag_92:\n        /* \"#utility.yul\":9249:9255   */\n      0x00\n        /* \"#utility.yul\":9282:9333   */\n      tag_197\n        /* \"#utility.yul\":9330:9331   */\n      0x00\n        /* \"#utility.yul\":9326:9332   */\n      not\n        /* \"#utility.yul\":9318:9323   */\n      dup5\n        /* \"#utility.yul\":9315:9316   */\n      0x08\n        /* \"#utility.yul\":9311:9324   */\n      mul\n        /* \"#utility.yul\":9282:9333   */\n      tag_91\n      jump\t// in\n    tag_197:\n        /* \"#utility.yul\":9278:9334   */\n      not\n        /* \"#utility.yul\":9363:9367   */\n      dup1\n        /* \"#utility.yul\":9357:9361   */\n      dup4\n        /* \"#utility.yul\":9353:9368   */\n      and\n        /* \"#utility.yul\":9343:9368   */\n      swap2\n      pop\n        /* \"#utility.yul\":9256:9374   */\n      pop\n        /* \"#utility.yul\":9205:9374   */\n      swap3\n      swap2\n      pop\n      pop\n      jump\t// out\n        /* \"#utility.yul\":9379:9674   */\n    tag_93:\n        /* \"#utility.yul\":9455:9459   */\n      0x00\n        /* \"#utility.yul\":9601:9630   */\n      tag_199\n        /* \"#utility.yul\":9626:9629   */\n      dup4\n        /* \"#utility.yul\":9620:9624   */\n      dup4\n        /* \"#utility.yul\":9601:9630   */\n      tag_92\n      jump\t// in\n    tag_199:\n        /* \"#utility.yul\":9593:9630   */\n      swap2\n      pop\n        /* \"#utility.yul\":9663:9666   */\n      dup3\n        /* \"#utility.yul\":9660:9661   */\n      0x02\n        /* \"#utility.yul\":9656:9667   */\n      mul\n        /* \"#utility.yul\":9650:9654   */\n      dup3\n        /* \"#utility.yul\":9647:9668   */\n      or\n        /* \"#utility.yul\":9639:9668   */\n      swap1\n      pop\n        /* \"#utility.yul\":9379:9674   */\n      swap3\n      swap2\n      pop\n      pop\n      jump\t// out\n        /* \"#utility.yul\":9679:11082   */\n    tag_37:\n        /* \"#utility.yul\":9803:9847   */\n      tag_201\n        /* \"#utility.yul\":9843:9846   */\n      dup4\n        /* \"#utility.yul\":9838:9841   */\n      dup4\n        /* \"#utility.yul\":9803:9847   */\n      tag_75\n      jump\t// in\n    tag_201:\n        /* \"#utility.yul\":9912:9930   */\n      0xffffffffffffffff\n        /* \"#utility.yul\":9904:9910   */\n      dup2\n        /* \"#utility.yul\":9901:9931   */\n      gt\n        /* \"#utility.yul\":9898:9954   */\n      iszero\n      tag_202\n      jumpi\n        /* \"#utility.yul\":9934:9952   */\n      tag_203\n      tag_76\n      jump\t// in\n    tag_203:\n        /* \"#utility.yul\":9898:9954   */\n    tag_202:\n        /* \"#utility.yul\":9978:10016   */\n      tag_204\n        /* \"#utility.yul\":10010:10014   */\n      dup3\n        /* \"#utility.yul\":10004:10015   */\n      sload\n        /* \"#utility.yul\":9978:10016   */\n      tag_40\n      jump\t// in\n    tag_204:\n        /* \"#utility.yul\":10063:10130   */\n      tag_205\n        /* \"#utility.yul\":10123:10129   */\n      dup3\n        /* \"#utility.yul\":10115:10121   */\n      dup3\n        /* \"#utility.yul\":10109:10113   */\n      dup6\n        /* \"#utility.yul\":10063:10130   */\n      tag_90\n      jump\t// in\n    tag_205:\n        /* \"#utility.yul\":10157:10158   */\n      0x00\n        /* \"#utility.yul\":10186:10188   */\n      0x1f\n        /* \"#utility.yul\":10178:10184   */\n      dup4\n        /* \"#utility.yul\":10175:10189   */\n      gt\n        /* \"#utility.yul\":10203:10204   */\n      0x01\n        /* \"#utility.yul\":10198:10830   */\n      dup2\n      eq\n      tag_207\n      jumpi\n        /* \"#utility.yul\":10874:10875   */\n      0x00\n        /* \"#utility.yul\":10891:10897   */\n      dup5\n        /* \"#utility.yul\":10888:10972   */\n      iszero\n      tag_208\n      jumpi\n        /* \"#utility.yul\":10947:10956   */\n      dup3\n        /* \"#utility.yul\":10942:10945   */\n      dup8\n        /* \"#utility.yul\":10938:10957   */\n      add\n        /* \"#utility.yul\":10925:10958   */\n      calldataload\n        /* \"#utility.yul\":10916:10958   */\n      swap1\n      pop\n        /* \"#utility.yul\":10888:10972   */\n    tag_208:\n        /* \"#utility.yul\":10998:11065   */\n      tag_209\n        /* \"#utility.yul\":11058:11064   */\n      dup6\n        /* \"#utility.yul\":11051:11056   */\n      dup3\n        /* \"#utility.yul\":10998:11065   */\n      tag_93\n      jump\t// in\n    tag_209:\n        /* \"#utility.yul\":10992:10996   */\n      dup7\n        /* \"#utility.yul\":10985:11066   */\n      sstore\n        /* \"#utility.yul\":10847:11076   */\n      pop\n        /* \"#utility.yul\":10168:11076   */\n      jump(tag_206)\n        /* \"#utility.yul\":10198:10830   */\n    tag_207:\n        /* \"#utility.yul\":10250:10254   */\n      0x1f\n        /* \"#utility.yul\":10246:10255   */\n      not\n        /* \"#utility.yul\":10238:10244   */\n      dup5\n        /* \"#utility.yul\":10234:10256   */\n      and\n        /* \"#utility.yul\":10284:10321   */\n      tag_210\n        /* \"#utility.yul\":10316:10320   */\n      dup7\n        /* \"#utility.yul\":10284:10321   */\n      tag_78\n      jump\t// in\n    tag_210:\n        /* \"#utility.yul\":10343:10344   */\n      0x00\n        /* \"#utility.yul\":10357:10572   */\n    tag_211:\n        /* \"#utility.yul\":10371:10378   */\n      dup3\n        /* \"#utility.yul\":10368:10369   */\n      dup2\n        /* \"#utility.yul\":10365:10379   */\n      lt\n        /* \"#utility.yul\":10357:10572   */\n      iszero\n      tag_213\n      jumpi\n        /* \"#utility.yul\":10457:10466   */\n      dup5\n        /* \"#utility.yul\":10452:10455   */\n      dup10\n        /* \"#utility.yul\":10448:10467   */\n      add\n        /* \"#utility.yul\":10435:10468   */\n      calldataload\n        /* \"#utility.yul\":10427:10433   */\n      dup3\n        /* \"#utility.yul\":10420:10469   */\n      sstore\n        /* \"#utility.yul\":10508:10509   */\n      0x01\n        /* \"#utility.yul\":10500:10506   */\n      dup3\n        /* \"#utility.yul\":10496:10510   */\n      add\n        /* \"#utility.yul\":10486:10510   */\n      swap2\n      pop\n        /* \"#utility.yul\":10555:10557   */\n      0x20\n        /* \"#utility.yul\":10544:10553   */\n      dup6\n        /* \"#utility.yul\":10540:10558   */\n      add\n        /* \"#utility.yul\":10527:10558   */\n      swap5\n      pop\n        /* \"#utility.yul\":10394:10398   */\n      0x20\n        /* \"#utility.yul\":10391:10392   */\n      dup2\n        /* \"#utility.yul\":10387:10399   */\n      add\n        /* \"#utility.yul\":10382:10399   */\n      swap1\n      pop\n        /* \"#utility.yul\":10357:10572   */\n      jump(tag_211)\n    tag_213:\n        /* \"#utility.yul\":10600:10606   */\n      dup7\n        /* \"#utility.yul\":10591:10598   */\n      dup4\n        /* \"#utility.yul\":10588:10607   */\n      lt\n        /* \"#utility.yul\":10585:10771   */\n      iszero\n      tag_214\n      jumpi\n        /* \"#utility.yul\":10665:10674   */\n      dup5\n        /* \"#utility.yul\":10660:10663   */\n      dup10\n        /* \"#utility.yul\":10656:10675   */\n      add\n        /* \"#utility.yul\":10643:10676   */\n      calldataload\n        /* \"#utility.yul\":10708:10756   */\n      tag_215\n        /* \"#utility.yul\":10750:10754   */\n      0x1f\n        /* \"#utility.yul\":10742:10748   */\n      dup10\n        /* \"#utility.yul\":10738:10755   */\n      and\n        /* \"#utility.yul\":10727:10736   */\n      dup3\n        /* \"#utility.yul\":10708:10756   */\n      tag_92\n      jump\t// in\n    tag_215:\n        /* \"#utility.yul\":10700:10706   */\n      dup4\n        /* \"#utility.yul\":10693:10757   */\n      sstore\n        /* \"#utility.yul\":10608:10771   */\n      pop\n        /* \"#utility.yul\":10585:10771   */\n    tag_214:\n        /* \"#utility.yul\":10817:10818   */\n      0x01\n        /* \"#utility.yul\":10813:10814   */\n      0x02\n        /* \"#utility.yul\":10805:10811   */\n      dup9\n        /* \"#utility.yul\":10801:10815   */\n      mul\n        /* \"#utility.yul\":10797:10819   */\n      add\n        /* \"#utility.yul\":10791:10795   */\n      dup9\n        /* \"#utility.yul\":10784:10820   */\n      sstore\n        /* \"#utility.yul\":10205:10830   */\n      pop\n      pop\n      pop\n        /* \"#utility.yul\":10168:11076   */\n    tag_206:\n      pop\n        /* \"#utility.yul\":9778:11082   */\n      pop\n      pop\n      pop\n        /* \"#utility.yul\":9679:11082   */\n      pop\n      pop\n      pop\n      jump\t// out\n\n    auxdata: 0xa2646970667358221220f7f5f7c2afe060379cd1e41f1a082e756a06f9dbca77053c76876cfa83365a2864736f6c634300081a0033\n}\n",
				"bytecode": {
					"linkReferences": {},
					"object": "608060405234801561000f575f80fd5b506040516110703803806110708339818101604052810190610031919061027c565b335f80015f6101000a81548173ffffffffffffffffffffffffffffffffffffffff021916908373ffffffffffffffffffffffffffffffffffffffff160217905550805f600101908161008391906104d0565b505f60025f6101000a81548160ff021916908360018111156100a8576100a761059f565b5b02179055505f80015f9054906101000a900473ffffffffffffffffffffffffffffffffffffffff1673ffffffffffffffffffffffffffffffffffffffff165f73ffffffffffffffffffffffffffffffffffffffff167f342827c97908e5e2f71151c08502a66d44b6f758e3ac2f1de95f02eb95f0a73560405160405180910390a3506105cc565b5f604051905090565b5f80fd5b5f80fd5b5f80fd5b5f80fd5b5f601f19601f8301169050919050565b7f4e487b71000000000000000000000000000000000000000000000000000000005f52604160045260245ffd5b61018e82610148565b810181811067ffffffffffffffff821117156101ad576101ac610158565b5b80604052505050565b5f6101bf61012f565b90506101cb8282610185565b919050565b5f67ffffffffffffffff8211156101ea576101e9610158565b5b6101f382610148565b9050602081019050919050565b8281835e5f83830152505050565b5f61022061021b846101d0565b6101b6565b90508281526020810184848401111561023c5761023b610144565b5b610247848285610200565b509392505050565b5f82601f83011261026357610262610140565b5b815161027384826020860161020e565b91505092915050565b5f6020828403121561029157610290610138565b5b5f82015167ffffffffffffffff8111156102ae576102ad61013c565b5b6102ba8482850161024f565b91505092915050565b5f81519050919050565b7f4e487b71000000000000000000000000000000000000000000000000000000005f52602260045260245ffd5b5f600282049050600182168061031157607f821691505b602082108103610324576103236102cd565b5b50919050565b5f819050815f5260205f209050919050565b5f6020601f8301049050919050565b5f82821b905092915050565b5f600883026103867fffffffffffffffffffffffffffffffffffffffffffffffffffffffffffffffff8261034b565b610390868361034b565b95508019841693508086168417925050509392505050565b5f819050919050565b5f819050919050565b5f6103d46103cf6103ca846103a8565b6103b1565b6103a8565b9050919050565b5f819050919050565b6103ed836103ba565b6104016103f9826103db565b848454610357565b825550505050565b5f90565b610415610409565b6104208184846103e4565b505050565b5b81811015610443576104385f8261040d565b600181019050610426565b5050565b601f821115610488576104598161032a565b6104628461033c565b81016020851015610471578190505b61048561047d8561033c565b830182610425565b50505b505050565b5f82821c905092915050565b5f6104a85f198460080261048d565b1980831691505092915050565b5f6104c08383610499565b9150826002028217905092915050565b6104d9826102c3565b67ffffffffffffffff8111156104f2576104f1610158565b5b6104fc82546102fa565b610507828285610447565b5f60209050601f831160018114610538575f8415610526578287015190505b61053085826104b5565b865550610597565b601f1984166105468661032a565b5f5b8281101561056d57848901518255600182019150602085019450602081019050610548565b8683101561058a5784890151610586601f891682610499565b8355505b6001600288020188555050505b505050505050565b7f4e487b71000000000000000000000000000000000000000000000000000000005f52602160045260245ffd5b610a97806105d95f395ff3fe608060405234801561000f575f80fd5b506004361061004a575f3560e01c80631865c57d1461004e578063246f8b961461006c5780633b710f8c14610076578063893d20e814610092575b5f80fd5b6100566100b1565b604051610063919061050c565b60405180910390f35b6100746100c6565b005b610090600480360381019061008b91906105e8565b61021f565b005b61009a610385565b6040516100a89291906106c4565b60405180910390f35b5f60025f9054906101000a900460ff16905090565b5f80015f9054906101000a900473ffffffffffffffffffffffffffffffffffffffff1673ffffffffffffffffffffffffffffffffffffffff163373ffffffffffffffffffffffffffffffffffffffff1614610156576040517f08c379a000000000000000000000000000000000000000000000000000000000815260040161014d9061073c565b60405180910390fd5b5f80015f9054906101000a900473ffffffffffffffffffffffffffffffffffffffff1673ffffffffffffffffffffffffffffffffffffffff167f58619076adf5bb0943d100ef88d52d7c3fd691b19d3a9071b555b651fbf418da60405160405180910390a25f805f82015f6101000a81549073ffffffffffffffffffffffffffffffffffffffff0219169055600182015f6101f19190610441565b5050600160025f6101000a81548160ff0219169083600181111561021857610217610499565b5b0217905550565b5f80015f9054906101000a900473ffffffffffffffffffffffffffffffffffffffff1673ffffffffffffffffffffffffffffffffffffffff163373ffffffffffffffffffffffffffffffffffffffff16146102af576040517f08c379a00000000000000000000000000000000000000000000000000000000081526004016102a69061073c565b60405180910390fd5b335f80015f6101000a81548173ffffffffffffffffffffffffffffffffffffffff021916908373ffffffffffffffffffffffffffffffffffffffff16021790555081815f6001019182610303929190610994565b508273ffffffffffffffffffffffffffffffffffffffff165f80015f9054906101000a900473ffffffffffffffffffffffffffffffffffffffff1673ffffffffffffffffffffffffffffffffffffffff167f342827c97908e5e2f71151c08502a66d44b6f758e3ac2f1de95f02eb95f0a73560405160405180910390a3505050565b5f60605f80015f9054906101000a900473ffffffffffffffffffffffffffffffffffffffff165f6001018080546103bb906107be565b80601f01602080910402602001604051908101604052809291908181526020018280546103e7906107be565b80156104325780601f1061040957610100808354040283529160200191610432565b820191905f5260205f20905b81548152906001019060200180831161041557829003601f168201915b50505050509050915091509091565b50805461044d906107be565b5f825580601f1061045e575061047b565b601f0160209004905f5260205f209081019061047a919061047e565b5b50565b5b80821115610495575f815f90555060010161047f565b5090565b7f4e487b71000000000000000000000000000000000000000000000000000000005f52602160045260245ffd5b600281106104d7576104d6610499565b5b50565b5f8190506104e7826104c6565b919050565b5f6104f6826104da565b9050919050565b610506816104ec565b82525050565b5f60208201905061051f5f8301846104fd565b92915050565b5f80fd5b5f80fd5b5f73ffffffffffffffffffffffffffffffffffffffff82169050919050565b5f6105568261052d565b9050919050565b6105668161054c565b8114610570575f80fd5b50565b5f813590506105818161055d565b92915050565b5f80fd5b5f80fd5b5f80fd5b5f8083601f8401126105a8576105a7610587565b5b8235905067ffffffffffffffff8111156105c5576105c461058b565b5b6020830191508360018202830111156105e1576105e061058f565b5b9250929050565b5f805f604084860312156105ff576105fe610525565b5b5f61060c86828701610573565b935050602084013567ffffffffffffffff81111561062d5761062c610529565b5b61063986828701610593565b92509250509250925092565b61064e8161054c565b82525050565b5f81519050919050565b5f82825260208201905092915050565b8281835e5f83830152505050565b5f601f19601f8301169050919050565b5f61069682610654565b6106a0818561065e565b93506106b081856020860161066e565b6106b98161067c565b840191505092915050565b5f6040820190506106d75f830185610645565b81810360208301526106e9818461068c565b90509392505050565b7f43616c6c6572206973206e6f74206f776e6572000000000000000000000000005f82015250565b5f61072660138361065e565b9150610731826106f2565b602082019050919050565b5f6020820190508181035f8301526107538161071a565b9050919050565b5f82905092915050565b7f4e487b71000000000000000000000000000000000000000000000000000000005f52604160045260245ffd5b7f4e487b71000000000000000000000000000000000000000000000000000000005f52602260045260245ffd5b5f60028204905060018216806107d557607f821691505b6020821081036107e8576107e7610791565b5b50919050565b5f819050815f5260205f209050919050565b5f6020601f8301049050919050565b5f82821b905092915050565b5f6008830261084a7fffffffffffffffffffffffffffffffffffffffffffffffffffffffffffffffff8261080f565b610854868361080f565b95508019841693508086168417925050509392505050565b5f819050919050565b5f819050919050565b5f61089861089361088e8461086c565b610875565b61086c565b9050919050565b5f819050919050565b6108b18361087e565b6108c56108bd8261089f565b84845461081b565b825550505050565b5f90565b6108d96108cd565b6108e48184846108a8565b505050565b5b81811015610907576108fc5f826108d1565b6001810190506108ea565b5050565b601f82111561094c5761091d816107ee565b61092684610800565b81016020851015610935578190505b61094961094185610800565b8301826108e9565b50505b505050565b5f82821c905092915050565b5f61096c5f1984600802610951565b1980831691505092915050565b5f610984838361095d565b9150826002028217905092915050565b61099e838361075a565b67ffffffffffffffff8111156109b7576109b6610764565b5b6109c182546107be565b6109cc82828561090b565b5f601f8311600181146109f9575f84156109e7578287013590505b6109f18582610979565b865550610a58565b601f198416610a07866107ee565b5f5b82811015610a2e57848901358255600182019150602085019450602081019050610a09565b86831015610a4b5784890135610a47601f89168261095d565b8355505b6001600288020188555050505b5050505050505056fea2646970667358221220f7f5f7c2afe060379cd1e41f1a082e756a06f9dbca77053c76876cfa83365a2864736f6c634300081a0033",
					"opcodes": "PUSH1 0x80 PUSH1 0x40 MSTORE CALLVALUE DUP1 ISZERO PUSH2 0xF JUMPI PUSH0 DUP1 REVERT JUMPDEST POP PUSH1 0x40 MLOAD PUSH2 0x1070 CODESIZE SUB DUP1 PUSH2 0x1070 DUP4 CODECOPY DUP2 DUP2 ADD PUSH1 0x40 MSTORE DUP2 ADD SWAP1 PUSH2 0x31 SWAP2 SWAP1 PUSH2 0x27C JUMP JUMPDEST CALLER PUSH0 DUP1 ADD PUSH0 PUSH2 0x100 EXP DUP2 SLOAD DUP2 PUSH20 0xFFFFFFFFFFFFFFFFFFFFFFFFFFFFFFFFFFFFFFFF MUL NOT AND SWAP1 DUP4 PUSH20 0xFFFFFFFFFFFFFFFFFFFFFFFFFFFFFFFFFFFFFFFF AND MUL OR SWAP1 SSTORE POP DUP1 PUSH0 PUSH1 0x1 ADD SWAP1 DUP2 PUSH2 0x83 SWAP2 SWAP1 PUSH2 0x4D0 JUMP JUMPDEST POP PUSH0 PUSH1 0x2 PUSH0 PUSH2 0x100 EXP DUP2 SLOAD DUP2 PUSH1 0xFF MUL NOT AND SWAP1 DUP4 PUSH1 0x1 DUP2 GT ISZERO PUSH2 0xA8 JUMPI PUSH2 0xA7 PUSH2 0x59F JUMP JUMPDEST JUMPDEST MUL OR SWAP1 SSTORE POP PUSH0 DUP1 ADD PUSH0 SWAP1 SLOAD SWAP1 PUSH2 0x100 EXP SWAP1 DIV PUSH20 0xFFFFFFFFFFFFFFFFFFFFFFFFFFFFFFFFFFFFFFFF AND PUSH20 0xFFFFFFFFFFFFFFFFFFFFFFFFFFFFFFFFFFFFFFFF AND PUSH0 PUSH20 0xFFFFFFFFFFFFFFFFFFFFFFFFFFFFFFFFFFFFFFFF AND PUSH32 0x342827C97908E5E2F71151C08502A66D44B6F758E3AC2F1DE95F02EB95F0A735 PUSH1 0x40 MLOAD PUSH1 0x40 MLOAD DUP1 SWAP2 SUB SWAP1 LOG3 POP PUSH2 0x5CC JUMP JUMPDEST PUSH0 PUSH1 0x40 MLOAD SWAP1 POP SWAP1 JUMP JUMPDEST PUSH0 DUP1 REVERT JUMPDEST PUSH0 DUP1 REVERT JUMPDEST PUSH0 DUP1 REVERT JUMPDEST PUSH0 DUP1 REVERT JUMPDEST PUSH0 PUSH1 0x1F NOT PUSH1 0x1F DUP4 ADD AND SWAP1 POP SWAP2 SWAP1 POP JUMP JUMPDEST PUSH32 0x4E487B7100000000000000000000000000000000000000000000000000000000 PUSH0 MSTORE PUSH1 0x41 PUSH1 0x4 MSTORE PUSH1 0x24 PUSH0 REVERT JUMPDEST PUSH2 0x18E DUP3 PUSH2 0x148 JUMP JUMPDEST DUP2 ADD DUP2 DUP2 LT PUSH8 0xFFFFFFFFFFFFFFFF DUP3 GT OR ISZERO PUSH2 0x1AD JUMPI PUSH2 0x1AC PUSH2 0x158 JUMP JUMPDEST JUMPDEST DUP1 PUSH1 0x40 MSTORE POP POP POP JUMP JUMPDEST PUSH0 PUSH2 0x1BF PUSH2 0x12F JUMP JUMPDEST SWAP1 POP PUSH2 0x1CB DUP3 DUP3 PUSH2 0x185 JUMP JUMPDEST SWAP2 SWAP1 POP JUMP JUMPDEST PUSH0 PUSH8 0xFFFFFFFFFFFFFFFF DUP3 GT ISZERO PUSH2 0x1EA JUMPI PUSH2 0x1E9 PUSH2 0x158 JUMP JUMPDEST JUMPDEST PUSH2 0x1F3 DUP3 PUSH2 0x148 JUMP JUMPDEST SWAP1 POP PUSH1 0x20 DUP2 ADD SWAP1 POP SWAP2 SWAP1 POP JUMP JUMPDEST DUP3 DUP2 DUP4 MCOPY PUSH0 DUP4 DUP4 ADD MSTORE POP POP POP JUMP JUMPDEST PUSH0 PUSH2 0x220 PUSH2 0x21B DUP5 PUSH2 0x1D0 JUMP JUMPDEST PUSH2 0x1B6 JUMP JUMPDEST SWAP1 POP DUP3 DUP2 MSTORE PUSH1 0x20 DUP2 ADD DUP5 DUP5 DUP5 ADD GT ISZERO PUSH2 0x23C JUMPI PUSH2 0x23B PUSH2 0x144 JUMP JUMPDEST JUMPDEST PUSH2 0x247 DUP5 DUP3 DUP6 PUSH2 0x200 JUMP JUMPDEST POP SWAP4 SWAP3 POP POP POP JUMP JUMPDEST PUSH0 DUP3 PUSH1 0x1F DUP4 ADD SLT PUSH2 0x263 JUMPI PUSH2 0x262 PUSH2 0x140 JUMP JUMPDEST JUMPDEST DUP2 MLOAD PUSH2 0x273 DUP5 DUP3 PUSH1 0x20 DUP7 ADD PUSH2 0x20E JUMP JUMPDEST SWAP2 POP POP SWAP3 SWAP2 POP POP JUMP JUMPDEST PUSH0 PUSH1 0x20 DUP3 DUP5 SUB SLT ISZERO PUSH2 0x291 JUMPI PUSH2 0x290 PUSH2 0x138 JUMP JUMPDEST JUMPDEST PUSH0 DUP3 ADD MLOAD PUSH8 0xFFFFFFFFFFFFFFFF DUP2 GT ISZERO PUSH2 0x2AE JUMPI PUSH2 0x2AD PUSH2 0x13C JUMP JUMPDEST JUMPDEST PUSH2 0x2BA DUP5 DUP3 DUP6 ADD PUSH2 0x24F JUMP JUMPDEST SWAP2 POP POP SWAP3 SWAP2 POP POP JUMP JUMPDEST PUSH0 DUP2 MLOAD SWAP1 POP SWAP2 SWAP1 POP JUMP JUMPDEST PUSH32 0x4E487B7100000000000000000000000000000000000000000000000000000000 PUSH0 MSTORE PUSH1 0x22 PUSH1 0x4 MSTORE PUSH1 0x24 PUSH0 REVERT JUMPDEST PUSH0 PUSH1 0x2 DUP3 DIV SWAP1 POP PUSH1 0x1 DUP3 AND DUP1 PUSH2 0x311 JUMPI PUSH1 0x7F DUP3 AND SWAP2 POP JUMPDEST PUSH1 0x20 DUP3 LT DUP2 SUB PUSH2 0x324 JUMPI PUSH2 0x323 PUSH2 0x2CD JUMP JUMPDEST JUMPDEST POP SWAP2 SWAP1 POP JUMP JUMPDEST PUSH0 DUP2 SWAP1 POP DUP2 PUSH0 MSTORE PUSH1 0x20 PUSH0 KECCAK256 SWAP1 POP SWAP2 SWAP1 POP JUMP JUMPDEST PUSH0 PUSH1 0x20 PUSH1 0x1F DUP4 ADD DIV SWAP1 POP SWAP2 SWAP1 POP JUMP JUMPDEST PUSH0 DUP3 DUP3 SHL SWAP1 POP SWAP3 SWAP2 POP POP JUMP JUMPDEST PUSH0 PUSH1 0x8 DUP4 MUL PUSH2 0x386 PUSH32 0xFFFFFFFFFFFFFFFFFFFFFFFFFFFFFFFFFFFFFFFFFFFFFFFFFFFFFFFFFFFFFFFF DUP3 PUSH2 0x34B JUMP JUMPDEST PUSH2 0x390 DUP7 DUP4 PUSH2 0x34B JUMP JUMPDEST SWAP6 POP DUP1 NOT DUP5 AND SWAP4 POP DUP1 DUP7 AND DUP5 OR SWAP3 POP POP POP SWAP4 SWAP3 POP POP POP JUMP JUMPDEST PUSH0 DUP2 SWAP1 POP SWAP2 SWAP1 POP JUMP JUMPDEST PUSH0 DUP2 SWAP1 POP SWAP2 SWAP1 POP JUMP JUMPDEST PUSH0 PUSH2 0x3D4 PUSH2 0x3CF PUSH2 0x3CA DUP5 PUSH2 0x3A8 JUMP JUMPDEST PUSH2 0x3B1 JUMP JUMPDEST PUSH2 0x3A8 JUMP JUMPDEST SWAP1 POP SWAP2 SWAP1 POP JUMP JUMPDEST PUSH0 DUP2 SWAP1 POP SWAP2 SWAP1 POP JUMP JUMPDEST PUSH2 0x3ED DUP4 PUSH2 0x3BA JUMP JUMPDEST PUSH2 0x401 PUSH2 0x3F9 DUP3 PUSH2 0x3DB JUMP JUMPDEST DUP5 DUP5 SLOAD PUSH2 0x357 JUMP JUMPDEST DUP3 SSTORE POP POP POP POP JUMP JUMPDEST PUSH0 SWAP1 JUMP JUMPDEST PUSH2 0x415 PUSH2 0x409 JUMP JUMPDEST PUSH2 0x420 DUP2 DUP5 DUP5 PUSH2 0x3E4 JUMP JUMPDEST POP POP POP JUMP JUMPDEST JUMPDEST DUP2 DUP2 LT ISZERO PUSH2 0x443 JUMPI PUSH2 0x438 PUSH0 DUP3 PUSH2 0x40D JUMP JUMPDEST PUSH1 0x1 DUP2 ADD SWAP1 POP PUSH2 0x426 JUMP JUMPDEST POP POP JUMP JUMPDEST PUSH1 0x1F DUP3 GT ISZERO PUSH2 0x488 JUMPI PUSH2 0x459 DUP2 PUSH2 0x32A JUMP JUMPDEST PUSH2 0x462 DUP5 PUSH2 0x33C JUMP JUMPDEST DUP2 ADD PUSH1 0x20 DUP6 LT ISZERO PUSH2 0x471 JUMPI DUP2 SWAP1 POP JUMPDEST PUSH2 0x485 PUSH2 0x47D DUP6 PUSH2 0x33C JUMP JUMPDEST DUP4 ADD DUP3 PUSH2 0x425 JUMP JUMPDEST POP POP JUMPDEST POP POP POP JUMP JUMPDEST PUSH0 DUP3 DUP3 SHR SWAP1 POP SWAP3 SWAP2 POP POP JUMP JUMPDEST PUSH0 PUSH2 0x4A8 PUSH0 NOT DUP5 PUSH1 0x8 MUL PUSH2 0x48D JUMP JUMPDEST NOT DUP1 DUP4 AND SWAP2 POP POP SWAP3 SWAP2 POP POP JUMP JUMPDEST PUSH0 PUSH2 0x4C0 DUP4 DUP4 PUSH2 0x499 JUMP JUMPDEST SWAP2 POP DUP3 PUSH1 0x2 MUL DUP3 OR SWAP1 POP SWAP3 SWAP2 POP POP JUMP JUMPDEST PUSH2 0x4D9 DUP3 PUSH2 0x2C3 JUMP JUMPDEST PUSH8 0xFFFFFFFFFFFFFFFF DUP2 GT ISZERO PUSH2 0x4F2 JUMPI PUSH2 0x4F1 PUSH2 0x158 JUMP JUMPDEST JUMPDEST PUSH2 0x4FC DUP3 SLOAD PUSH2 0x2FA JUMP JUMPDEST PUSH2 0x507 DUP3 DUP3 DUP6 PUSH2 0x447 JUMP JUMPDEST PUSH0 PUSH1 0x20 SWAP1 POP PUSH1 0x1F DUP4 GT PUSH1 0x1 DUP2 EQ PUSH2 0x538 JUMPI PUSH0 DUP5 ISZERO PUSH2 0x526 JUMPI DUP3 DUP8 ADD MLOAD SWAP1 POP JUMPDEST PUSH2 0x530 DUP6 DUP3 PUSH2 0x4B5 JUMP JUMPDEST DUP7 SSTORE POP PUSH2 0x597 JUMP JUMPDEST PUSH1 0x1F NOT DUP5 AND PUSH2 0x546 DUP7 PUSH2 0x32A JUMP JUMPDEST PUSH0 JUMPDEST DUP3 DUP2 LT ISZERO PUSH2 0x56D JUMPI DUP5 DUP10 ADD MLOAD DUP3 SSTORE PUSH1 0x1 DUP3 ADD SWAP2 POP PUSH1 0x20 DUP6 ADD SWAP5 POP PUSH1 0x20 DUP2 ADD SWAP1 POP PUSH2 0x548 JUMP JUMPDEST DUP7 DUP4 LT ISZERO PUSH2 0x58A JUMPI DUP5 DUP10 ADD MLOAD PUSH2 0x586 PUSH1 0x1F DUP10 AND DUP3 PUSH2 0x499 JUMP JUMPDEST DUP4 SSTORE POP JUMPDEST PUSH1 0x1 PUSH1 0x2 DUP9 MUL ADD DUP9 SSTORE POP POP POP JUMPDEST POP POP POP POP POP POP JUMP JUMPDEST PUSH32 0x4E487B7100000000000000000000000000000000000000000000000000000000 PUSH0 MSTORE PUSH1 0x21 PUSH1 0x4 MSTORE PUSH1 0x24 PUSH0 REVERT JUMPDEST PUSH2 0xA97 DUP1 PUSH2 0x5D9 PUSH0 CODECOPY PUSH0 RETURN INVALID PUSH1 0x80 PUSH1 0x40 MSTORE CALLVALUE DUP1 ISZERO PUSH2 0xF JUMPI PUSH0 DUP1 REVERT JUMPDEST POP PUSH1 0x4 CALLDATASIZE LT PUSH2 0x4A JUMPI PUSH0 CALLDATALOAD PUSH1 0xE0 SHR DUP1 PUSH4 0x1865C57D EQ PUSH2 0x4E JUMPI DUP1 PUSH4 0x246F8B96 EQ PUSH2 0x6C JUMPI DUP1 PUSH4 0x3B710F8C EQ PUSH2 0x76 JUMPI DUP1 PUSH4 0x893D20E8 EQ PUSH2 0x92 JUMPI JUMPDEST PUSH0 DUP1 REVERT JUMPDEST PUSH2 0x56 PUSH2 0xB1 JUMP JUMPDEST PUSH1 0x40 MLOAD PUSH2 0x63 SWAP2 SWAP1 PUSH2 0x50C JUMP JUMPDEST PUSH1 0x40 MLOAD DUP1 SWAP2 SUB SWAP1 RETURN JUMPDEST PUSH2 0x74 PUSH2 0xC6 JUMP JUMPDEST STOP JUMPDEST PUSH2 0x90 PUSH1 0x4 DUP1 CALLDATASIZE SUB DUP2 ADD SWAP1 PUSH2 0x8B SWAP2 SWAP1 PUSH2 0x5E8 JUMP JUMPDEST PUSH2 0x21F JUMP JUMPDEST STOP JUMPDEST PUSH2 0x9A PUSH2 0x385 JUMP JUMPDEST PUSH1 0x40 MLOAD PUSH2 0xA8 SWAP3 SWAP2 SWAP1 PUSH2 0x6C4 JUMP JUMPDEST PUSH1 0x40 MLOAD DUP1 SWAP2 SUB SWAP1 RETURN JUMPDEST PUSH0 PUSH1 0x2 PUSH0 SWAP1 SLOAD SWAP1 PUSH2 0x100 EXP SWAP1 DIV PUSH1 0xFF AND SWAP1 POP SWAP1 JUMP JUMPDEST PUSH0 DUP1 ADD PUSH0 SWAP1 SLOAD SWAP1 PUSH2 0x100 EXP SWAP1 DIV PUSH20 0xFFFFFFFFFFFFFFFFFFFFFFFFFFFFFFFFFFFFFFFF AND PUSH20 0xFFFFFFFFFFFFFFFFFFFFFFFFFFFFFFFFFFFFFFFF AND CALLER PUSH20 0xFFFFFFFFFFFFFFFFFFFFFFFFFFFFFFFFFFFFFFFF AND EQ PUSH2 0x156 JUMPI PUSH1 0x40 MLOAD PUSH32 0x8C379A000000000000000000000000000000000000000000000000000000000 DUP2 MSTORE PUSH1 0x4 ADD PUSH2 0x14D SWAP1 PUSH2 0x73C JUMP JUMPDEST PUSH1 0x40 MLOAD DUP1 SWAP2 SUB SWAP1 REVERT JUMPDEST PUSH0 DUP1 ADD PUSH0 SWAP1 SLOAD SWAP1 PUSH2 0x100 EXP SWAP1 DIV PUSH20 0xFFFFFFFFFFFFFFFFFFFFFFFFFFFFFFFFFFFFFFFF AND PUSH20 0xFFFFFFFFFFFFFFFFFFFFFFFFFFFFFFFFFFFFFFFF AND PUSH32 0x58619076ADF5BB0943D100EF88D52D7C3FD691B19D3A9071B555B651FBF418DA PUSH1 0x40 MLOAD PUSH1 0x40 MLOAD DUP1 SWAP2 SUB SWAP1 LOG2 PUSH0 DUP1 PUSH0 DUP3 ADD PUSH0 PUSH2 0x100 EXP DUP2 SLOAD SWAP1 PUSH20 0xFFFFFFFFFFFFFFFFFFFFFFFFFFFFFFFFFFFFFFFF MUL NOT AND SWAP1 SSTORE PUSH1 0x1 DUP3 ADD PUSH0 PUSH2 0x1F1 SWAP2 SWAP1 PUSH2 0x441 JUMP JUMPDEST POP POP PUSH1 0x1 PUSH1 0x2 PUSH0 PUSH2 0x100 EXP DUP2 SLOAD DUP2 PUSH1 0xFF MUL NOT AND SWAP1 DUP4 PUSH1 0x1 DUP2 GT ISZERO PUSH2 0x218 JUMPI PUSH2 0x217 PUSH2 0x499 JUMP JUMPDEST JUMPDEST MUL OR SWAP1 SSTORE POP JUMP JUMPDEST PUSH0 DUP1 ADD PUSH0 SWAP1 SLOAD SWAP1 PUSH2 0x100 EXP SWAP1 DIV PUSH20 0xFFFFFFFFFFFFFFFFFFFFFFFFFFFFFFFFFFFFFFFF AND PUSH20 0xFFFFFFFFFFFFFFFFFFFFFFFFFFFFFFFFFFFFFFFF AND CALLER PUSH20 0xFFFFFFFFFFFFFFFFFFFFFFFFFFFFFFFFFFFFFFFF AND EQ PUSH2 0x2AF JUMPI PUSH1 0x40 MLOAD PUSH32 0x8C379A000000000000000000000000000000000000000000000000000000000 DUP2 MSTORE PUSH1 0x4 ADD PUSH2 0x2A6 SWAP1 PUSH2 0x73C JUMP JUMPDEST PUSH1 0x40 MLOAD DUP1 SWAP2 SUB SWAP1 REVERT JUMPDEST CALLER PUSH0 DUP1 ADD PUSH0 PUSH2 0x100 EXP DUP2 SLOAD DUP2 PUSH20 0xFFFFFFFFFFFFFFFFFFFFFFFFFFFFFFFFFFFFFFFF MUL NOT AND SWAP1 DUP4 PUSH20 0xFFFFFFFFFFFFFFFFFFFFFFFFFFFFFFFFFFFFFFFF AND MUL OR SWAP1 SSTORE POP DUP2 DUP2 PUSH0 PUSH1 0x1 ADD SWAP2 DUP3 PUSH2 0x303 SWAP3 SWAP2 SWAP1 PUSH2 0x994 JUMP JUMPDEST POP DUP3 PUSH20 0xFFFFFFFFFFFFFFFFFFFFFFFFFFFFFFFFFFFFFFFF AND PUSH0 DUP1 ADD PUSH0 SWAP1 SLOAD SWAP1 PUSH2 0x100 EXP SWAP1 DIV PUSH20 0xFFFFFFFFFFFFFFFFFFFFFFFFFFFFFFFFFFFFFFFF AND PUSH20 0xFFFFFFFFFFFFFFFFFFFFFFFFFFFFFFFFFFFFFFFF AND PUSH32 0x342827C97908E5E2F71151C08502A66D44B6F758E3AC2F1DE95F02EB95F0A735 PUSH1 0x40 MLOAD PUSH1 0x40 MLOAD DUP1 SWAP2 SUB SWAP1 LOG3 POP POP POP JUMP JUMPDEST PUSH0 PUSH1 0x60 PUSH0 DUP1 ADD PUSH0 SWAP1 SLOAD SWAP1 PUSH2 0x100 EXP SWAP1 DIV PUSH20 0xFFFFFFFFFFFFFFFFFFFFFFFFFFFFFFFFFFFFFFFF AND PUSH0 PUSH1 0x1 ADD DUP1 DUP1 SLOAD PUSH2 0x3BB SWAP1 PUSH2 0x7BE JUMP JUMPDEST DUP1 PUSH1 0x1F ADD PUSH1 0x20 DUP1 SWAP2 DIV MUL PUSH1 0x20 ADD PUSH1 0x40 MLOAD SWAP1 DUP2 ADD PUSH1 0x40 MSTORE DUP1 SWAP3 SWAP2 SWAP1 DUP2 DUP2 MSTORE PUSH1 0x20 ADD DUP3 DUP1 SLOAD PUSH2 0x3E7 SWAP1 PUSH2 0x7BE JUMP JUMPDEST DUP1 ISZERO PUSH2 0x432 JUMPI DUP1 PUSH1 0x1F LT PUSH2 0x409 JUMPI PUSH2 0x100 DUP1 DUP4 SLOAD DIV MUL DUP4 MSTORE SWAP2 PUSH1 0x20 ADD SWAP2 PUSH2 0x432 JUMP JUMPDEST DUP3 ADD SWAP2 SWAP1 PUSH0 MSTORE PUSH1 0x20 PUSH0 KECCAK256 SWAP1 JUMPDEST DUP2 SLOAD DUP2 MSTORE SWAP1 PUSH1 0x1 ADD SWAP1 PUSH1 0x20 ADD DUP1 DUP4 GT PUSH2 0x415 JUMPI DUP3 SWAP1 SUB PUSH1 0x1F AND DUP3 ADD SWAP2 JUMPDEST POP POP POP POP POP SWAP1 POP SWAP2 POP SWAP2 POP SWAP1 SWAP2 JUMP JUMPDEST POP DUP1 SLOAD PUSH2 0x44D SWAP1 PUSH2 0x7BE JUMP JUMPDEST PUSH0 DUP3 SSTORE DUP1 PUSH1 0x1F LT PUSH2 0x45E JUMPI POP PUSH2 0x47B JUMP JUMPDEST PUSH1 0x1F ADD PUSH1 0x20 SWAP1 DIV SWAP1 PUSH0 MSTORE PUSH1 0x20 PUSH0 KECCAK256 SWAP1 DUP2 ADD SWAP1 PUSH2 0x47A SWAP2 SWAP1 PUSH2 0x47E JUMP JUMPDEST JUMPDEST POP JUMP JUMPDEST JUMPDEST DUP1 DUP3 GT ISZERO PUSH2 0x495 JUMPI PUSH0 DUP2 PUSH0 SWAP1 SSTORE POP PUSH1 0x1 ADD PUSH2 0x47F JUMP JUMPDEST POP SWAP1 JUMP JUMPDEST PUSH32 0x4E487B7100000000000000000000000000000000000000000000000000000000 PUSH0 MSTORE PUSH1 0x21 PUSH1 0x4 MSTORE PUSH1 0x24 PUSH0 REVERT JUMPDEST PUSH1 0x2 DUP2 LT PUSH2 0x4D7 JUMPI PUSH2 0x4D6 PUSH2 0x499 JUMP JUMPDEST JUMPDEST POP JUMP JUMPDEST PUSH0 DUP2 SWAP1 POP PUSH2 0x4E7 DUP3 PUSH2 0x4C6 JUMP JUMPDEST SWAP2 SWAP1 POP JUMP JUMPDEST PUSH0 PUSH2 0x4F6 DUP3 PUSH2 0x4DA JUMP JUMPDEST SWAP1 POP SWAP2 SWAP1 POP JUMP JUMPDEST PUSH2 0x506 DUP2 PUSH2 0x4EC JUMP JUMPDEST DUP3 MSTORE POP POP JUMP JUMPDEST PUSH0 PUSH1 0x20 DUP3 ADD SWAP1 POP PUSH2 0x51F PUSH0 DUP4 ADD DUP5 PUSH2 0x4FD JUMP JUMPDEST SWAP3 SWAP2 POP POP JUMP JUMPDEST PUSH0 DUP1 REVERT JUMPDEST PUSH0 DUP1 REVERT JUMPDEST PUSH0 PUSH20 0xFFFFFFFFFFFFFFFFFFFFFFFFFFFFFFFFFFFFFFFF DUP3 AND SWAP1 POP SWAP2 SWAP1 POP JUMP JUMPDEST PUSH0 PUSH2 0x556 DUP3 PUSH2 0x52D JUMP JUMPDEST SWAP1 POP SWAP2 SWAP1 POP JUMP JUMPDEST PUSH2 0x566 DUP2 PUSH2 0x54C JUMP JUMPDEST DUP2 EQ PUSH2 0x570 JUMPI PUSH0 DUP1 REVERT JUMPDEST POP JUMP JUMPDEST PUSH0 DUP2 CALLDATALOAD SWAP1 POP PUSH2 0x581 DUP2 PUSH2 0x55D JUMP JUMPDEST SWAP3 SWAP2 POP POP JUMP JUMPDEST PUSH0 DUP1 REVERT JUMPDEST PUSH0 DUP1 REVERT JUMPDEST PUSH0 DUP1 REVERT JUMPDEST PUSH0 DUP1 DUP4 PUSH1 0x1F DUP5 ADD SLT PUSH2 0x5A8 JUMPI PUSH2 0x5A7 PUSH2 0x587 JUMP JUMPDEST JUMPDEST DUP3 CALLDATALOAD SWAP1 POP PUSH8 0xFFFFFFFFFFFFFFFF DUP2 GT ISZERO PUSH2 0x5C5 JUMPI PUSH2 0x5C4 PUSH2 0x58B JUMP JUMPDEST JUMPDEST PUSH1 0x20 DUP4 ADD SWAP2 POP DUP4 PUSH1 0x1 DUP3 MUL DUP4 ADD GT ISZERO PUSH2 0x5E1 JUMPI PUSH2 0x5E0 PUSH2 0x58F JUMP JUMPDEST JUMPDEST SWAP3 POP SWAP3 SWAP1 POP JUMP JUMPDEST PUSH0 DUP1 PUSH0 PUSH1 0x40 DUP5 DUP7 SUB SLT ISZERO PUSH2 0x5FF JUMPI PUSH2 0x5FE PUSH2 0x525 JUMP JUMPDEST JUMPDEST PUSH0 PUSH2 0x60C DUP7 DUP3 DUP8 ADD PUSH2 0x573 JUMP JUMPDEST SWAP4 POP POP PUSH1 0x20 DUP5 ADD CALLDATALOAD PUSH8 0xFFFFFFFFFFFFFFFF DUP2 GT ISZERO PUSH2 0x62D JUMPI PUSH2 0x62C PUSH2 0x529 JUMP JUMPDEST JUMPDEST PUSH2 0x639 DUP7 DUP3 DUP8 ADD PUSH2 0x593 JUMP JUMPDEST SWAP3 POP SWAP3 POP POP SWAP3 POP SWAP3 POP SWAP3 JUMP JUMPDEST PUSH2 0x64E DUP2 PUSH2 0x54C JUMP JUMPDEST DUP3 MSTORE POP POP JUMP JUMPDEST PUSH0 DUP2 MLOAD SWAP1 POP SWAP2 SWAP1 POP JUMP JUMPDEST PUSH0 DUP3 DUP3 MSTORE PUSH1 0x20 DUP3 ADD SWAP1 POP SWAP3 SWAP2 POP POP JUMP JUMPDEST DUP3 DUP2 DUP4 MCOPY PUSH0 DUP4 DUP4 ADD MSTORE POP POP POP JUMP JUMPDEST PUSH0 PUSH1 0x1F NOT PUSH1 0x1F DUP4 ADD AND SWAP1 POP SWAP2 SWAP1 POP JUMP JUMPDEST PUSH0 PUSH2 0x696 DUP3 PUSH2 0x654 JUMP JUMPDEST PUSH2 0x6A0 DUP2 DUP6 PUSH2 0x65E JUMP JUMPDEST SWAP4 POP PUSH2 0x6B0 DUP2 DUP6 PUSH1 0x20 DUP7 ADD PUSH2 0x66E JUMP JUMPDEST PUSH2 0x6B9 DUP2 PUSH2 0x67C JUMP JUMPDEST DUP5 ADD SWAP2 POP POP SWAP3 SWAP2 POP POP JUMP JUMPDEST PUSH0 PUSH1 0x40 DUP3 ADD SWAP1 POP PUSH2 0x6D7 PUSH0 DUP4 ADD DUP6 PUSH2 0x645 JUMP JUMPDEST DUP2 DUP2 SUB PUSH1 0x20 DUP4 ADD MSTORE PUSH2 0x6E9 DUP2 DUP5 PUSH2 0x68C JUMP JUMPDEST SWAP1 POP SWAP4 SWAP3 POP POP POP JUMP JUMPDEST PUSH32 0x43616C6C6572206973206E6F74206F776E657200000000000000000000000000 PUSH0 DUP3 ADD MSTORE POP JUMP JUMPDEST PUSH0 PUSH2 0x726 PUSH1 0x13 DUP4 PUSH2 0x65E JUMP JUMPDEST SWAP2 POP PUSH2 0x731 DUP3 PUSH2 0x6F2 JUMP JUMPDEST PUSH1 0x20 DUP3 ADD SWAP1 POP SWAP2 SWAP1 POP JUMP JUMPDEST PUSH0 PUSH1 0x20 DUP3 ADD SWAP1 POP DUP2 DUP2 SUB PUSH0 DUP4 ADD MSTORE PUSH2 0x753 DUP2 PUSH2 0x71A JUMP JUMPDEST SWAP1 POP SWAP2 SWAP1 POP JUMP JUMPDEST PUSH0 DUP3 SWAP1 POP SWAP3 SWAP2 POP POP JUMP JUMPDEST PUSH32 0x4E487B7100000000000000000000000000000000000000000000000000000000 PUSH0 MSTORE PUSH1 0x41 PUSH1 0x4 MSTORE PUSH1 0x24 PUSH0 REVERT JUMPDEST PUSH32 0x4E487B7100000000000000000000000000000000000000000000000000000000 PUSH0 MSTORE PUSH1 0x22 PUSH1 0x4 MSTORE PUSH1 0x24 PUSH0 REVERT JUMPDEST PUSH0 PUSH1 0x2 DUP3 DIV SWAP1 POP PUSH1 0x1 DUP3 AND DUP1 PUSH2 0x7D5 JUMPI PUSH1 0x7F DUP3 AND SWAP2 POP JUMPDEST PUSH1 0x20 DUP3 LT DUP2 SUB PUSH2 0x7E8 JUMPI PUSH2 0x7E7 PUSH2 0x791 JUMP JUMPDEST JUMPDEST POP SWAP2 SWAP1 POP JUMP JUMPDEST PUSH0 DUP2 SWAP1 POP DUP2 PUSH0 MSTORE PUSH1 0x20 PUSH0 KECCAK256 SWAP1 POP SWAP2 SWAP1 POP JUMP JUMPDEST PUSH0 PUSH1 0x20 PUSH1 0x1F DUP4 ADD DIV SWAP1 POP SWAP2 SWAP1 POP JUMP JUMPDEST PUSH0 DUP3 DUP3 SHL SWAP1 POP SWAP3 SWAP2 POP POP JUMP JUMPDEST PUSH0 PUSH1 0x8 DUP4 MUL PUSH2 0x84A PUSH32 0xFFFFFFFFFFFFFFFFFFFFFFFFFFFFFFFFFFFFFFFFFFFFFFFFFFFFFFFFFFFFFFFF DUP3 PUSH2 0x80F JUMP JUMPDEST PUSH2 0x854 DUP7 DUP4 PUSH2 0x80F JUMP JUMPDEST SWAP6 POP DUP1 NOT DUP5 AND SWAP4 POP DUP1 DUP7 AND DUP5 OR SWAP3 POP POP POP SWAP4 SWAP3 POP POP POP JUMP JUMPDEST PUSH0 DUP2 SWAP1 POP SWAP2 SWAP1 POP JUMP JUMPDEST PUSH0 DUP2 SWAP1 POP SWAP2 SWAP1 POP JUMP JUMPDEST PUSH0 PUSH2 0x898 PUSH2 0x893 PUSH2 0x88E DUP5 PUSH2 0x86C JUMP JUMPDEST PUSH2 0x875 JUMP JUMPDEST PUSH2 0x86C JUMP JUMPDEST SWAP1 POP SWAP2 SWAP1 POP JUMP JUMPDEST PUSH0 DUP2 SWAP1 POP SWAP2 SWAP1 POP JUMP JUMPDEST PUSH2 0x8B1 DUP4 PUSH2 0x87E JUMP JUMPDEST PUSH2 0x8C5 PUSH2 0x8BD DUP3 PUSH2 0x89F JUMP JUMPDEST DUP5 DUP5 SLOAD PUSH2 0x81B JUMP JUMPDEST DUP3 SSTORE POP POP POP POP JUMP JUMPDEST PUSH0 SWAP1 JUMP JUMPDEST PUSH2 0x8D9 PUSH2 0x8CD JUMP JUMPDEST PUSH2 0x8E4 DUP2 DUP5 DUP5 PUSH2 0x8A8 JUMP JUMPDEST POP POP POP JUMP JUMPDEST JUMPDEST DUP2 DUP2 LT ISZERO PUSH2 0x907 JUMPI PUSH2 0x8FC PUSH0 DUP3 PUSH2 0x8D1 JUMP JUMPDEST PUSH1 0x1 DUP2 ADD SWAP1 POP PUSH2 0x8EA JUMP JUMPDEST POP POP JUMP JUMPDEST PUSH1 0x1F DUP3 GT ISZERO PUSH2 0x94C JUMPI PUSH2 0x91D DUP2 PUSH2 0x7EE JUMP JUMPDEST PUSH2 0x926 DUP5 PUSH2 0x800 JUMP JUMPDEST DUP2 ADD PUSH1 0x20 DUP6 LT ISZERO PUSH2 0x935 JUMPI DUP2 SWAP1 POP JUMPDEST PUSH2 0x949 PUSH2 0x941 DUP6 PUSH2 0x800 JUMP JUMPDEST DUP4 ADD DUP3 PUSH2 0x8E9 JUMP JUMPDEST POP POP JUMPDEST POP POP POP JUMP JUMPDEST PUSH0 DUP3 DUP3 SHR SWAP1 POP SWAP3 SWAP2 POP POP JUMP JUMPDEST PUSH0 PUSH2 0x96C PUSH0 NOT DUP5 PUSH1 0x8 MUL PUSH2 0x951 JUMP JUMPDEST NOT DUP1 DUP4 AND SWAP2 POP POP SWAP3 SWAP2 POP POP JUMP JUMPDEST PUSH0 PUSH2 0x984 DUP4 DUP4 PUSH2 0x95D JUMP JUMPDEST SWAP2 POP DUP3 PUSH1 0x2 MUL DUP3 OR SWAP1 POP SWAP3 SWAP2 POP POP JUMP JUMPDEST PUSH2 0x99E DUP4 DUP4 PUSH2 0x75A JUMP JUMPDEST PUSH8 0xFFFFFFFFFFFFFFFF DUP2 GT ISZERO PUSH2 0x9B7 JUMPI PUSH2 0x9B6 PUSH2 0x764 JUMP JUMPDEST JUMPDEST PUSH2 0x9C1 DUP3 SLOAD PUSH2 0x7BE JUMP JUMPDEST PUSH2 0x9CC DUP3 DUP3 DUP6 PUSH2 0x90B JUMP JUMPDEST PUSH0 PUSH1 0x1F DUP4 GT PUSH1 0x1 DUP2 EQ PUSH2 0x9F9 JUMPI PUSH0 DUP5 ISZERO PUSH2 0x9E7 JUMPI DUP3 DUP8 ADD CALLDATALOAD SWAP1 POP JUMPDEST PUSH2 0x9F1 DUP6 DUP3 PUSH2 0x979 JUMP JUMPDEST DUP7 SSTORE POP PUSH2 0xA58 JUMP JUMPDEST PUSH1 0x1F NOT DUP5 AND PUSH2 0xA07 DUP7 PUSH2 0x7EE JUMP JUMPDEST PUSH0 JUMPDEST DUP3 DUP2 LT ISZERO PUSH2 0xA2E JUMPI DUP5 DUP10 ADD CALLDATALOAD DUP3 SSTORE PUSH1 0x1 DUP3 ADD SWAP2 POP PUSH1 0x20 DUP6 ADD SWAP5 POP PUSH1 0x20 DUP2 ADD SWAP1 POP PUSH2 0xA09 JUMP JUMPDEST DUP7 DUP4 LT ISZERO PUSH2 0xA4B JUMPI DUP5 DUP10 ADD CALLDATALOAD PUSH2 0xA47 PUSH1 0x1F DUP10 AND DUP3 PUSH2 0x95D JUMP JUMPDEST DUP4 SSTORE POP JUMPDEST PUSH1 0x1 PUSH1 0x2 DUP9 MUL ADD DUP9 SSTORE POP POP POP JUMPDEST POP POP POP POP POP POP POP JUMP INVALID LOG2 PUSH5 0x6970667358 0x22 SLT KECCAK256 0xF7 CREATE2 0xF7 0xC2 0xAF 0xE0 PUSH1 0x37 SWAP13 0xD1 0xE4 0x1F BYTE ADDMOD 0x2E PUSH22 0x6A06F9DBCA77053C76876CFA83365A2864736F6C6343 STOP ADDMOD BYTE STOP CALLER "
				},
				"gasEstimates": {
					"creation": {
						"codeDepositCost": "542200",
						"executionCost": "infinite",
						"totalCost": "infinite"
					},
					"external": {
						"changeOwner(address,string)": "infinite",
						"getOwner()": "infinite",
						"getState()": "2539",
						"removeOwner()": "infinite"
					}
				},
				"methodIdentifiers": {
					"changeOwner(address,string)": "3b710f8c",
					"getOwner()": "893d20e8",
					"getState()": "1865c57d",
					"removeOwner()": "246f8b96"
				}
			},
			"storageLayout": {
				"storage": [
					{
						"astId": 35,
						"contract": "contracts/oo.sol:Owner",
						"label": "owner",
						"offset": 0,
						"slot": "0",
						"type": "t_struct(Identity)6_storage"
					},
					{
						"astId": 38,
						"contract": "contracts/oo.sol:Owner",
						"label": "state",
						"offset": 0,
						"slot": "2",
						"type": "t_enum(State)9"
					}
				],
				"types": {
					"t_address": {
						"encoding": "inplace",
						"label": "address",
						"numberOfBytes": "20"
					},
					"t_enum(State)9": {
						"encoding": "inplace",
						"label": "enum Owner.State",
						"numberOfBytes": "1"
					},
					"t_string_storage": {
						"encoding": "bytes",
						"label": "string",
						"numberOfBytes": "32"
					},
					"t_struct(Identity)6_storage": {
						"encoding": "inplace",
						"label": "struct Owner.Identity",
						"members": [
							{
								"astId": 3,
								"contract": "contracts/oo.sol:Owner",
								"label": "addr",
								"offset": 0,
								"slot": "0",
								"type": "t_address"
							},
							{
								"astId": 5,
								"contract": "contracts/oo.sol:Owner",
								"label": "name",
								"offset": 0,
								"slot": "1",
								"type": "t_string_storage"
							}
						],
						"numberOfBytes": "64"
					}
				}
			},
			"userdoc": {
				"kind": "user",
				"methods": {},
				"version": 1
			}
		}
	}
}