{
	"data": {
		"bytecode": {
			"linkReferences": {},
			"object": "60a0604052348015600e575f80fd5b503373ffffffffffffffffffffffffffffffffffffffff1660808173ffffffffffffffffffffffffffffffffffffffff168152505060805161074261006f5f395f818160f3015281816101c801528181610301015261032501526107425ff3fe608060405260043610610041575f3560e01c806279efb0146100855780634fa3eeff1461009b5780638da5cb5b146100b1578063ea98847b146100db57610081565b36610081577ff7f75251dee7d7fc22deac3247729ebe7c86541f35930bf10c2a4207479a3b6c3334604051610077929190610510565b60405180910390a1005b5f80fd5b348015610090575f80fd5b506100996100f1565b005b3480156100a6575f80fd5b506100af6101c6565b005b3480156100bc575f80fd5b506100c56102ff565b6040516100d2919061057d565b60405180910390f35b3480156100e6575f80fd5b506100ef610323565b005b7f000000000000000000000000000000000000000000000000000000000000000073ffffffffffffffffffffffffffffffffffffffff163373ffffffffffffffffffffffffffffffffffffffff161461017f576040517f08c379a0000000000000000000000000000000000000000000000000000000008152600401610176906105e0565b60405180910390fd5b3373ffffffffffffffffffffffffffffffffffffffff166108fc606490811502906040515f60405180830381858888f193505050501580156101c3573d5f803e3d5ffd5b50565b7f000000000000000000000000000000000000000000000000000000000000000073ffffffffffffffffffffffffffffffffffffffff163373ffffffffffffffffffffffffffffffffffffffff1614610254576040517f08c379a000000000000000000000000000000000000000000000000000000000815260040161024b906105e0565b60405180910390fd5b5f3373ffffffffffffffffffffffffffffffffffffffff164760405161027990610628565b5f6040518083038185875af1925050503d805f81146102b3576040519150601f19603f3d011682016040523d82523d5f602084013e6102b8565b606091505b50509050806102fc576040517f08c379a00000000000000000000000000000000000000000000000000000000081526004016102f390610686565b60405180910390fd5b50565b7f000000000000000000000000000000000000000000000000000000000000000081565b7f000000000000000000000000000000000000000000000000000000000000000073ffffffffffffffffffffffffffffffffffffffff163373ffffffffffffffffffffffffffffffffffffffff16146103b1576040517f08c379a00000000000000000000000000000000000000000000000000000000081526004016103a8906105e0565b60405180910390fd5b5f3373ffffffffffffffffffffffffffffffffffffffff166108fc60c890811502906040515f60405180830381858888f19350505050905080610429576040517f08c379a0000000000000000000000000000000000000000000000000000000008152600401610420906106ee565b60405180910390fd5b50565b5f82825260208201905092915050565b7f72656365697665000000000000000000000000000000000000000000000000005f82015250565b5f61047060078361042c565b915061047b8261043c565b602082019050919050565b5f73ffffffffffffffffffffffffffffffffffffffff82169050919050565b5f6104af82610486565b9050919050565b6104bf816104a5565b82525050565b5f819050919050565b6104d7816104c5565b82525050565b5f82825260208201905092915050565b50565b5f6104fb5f836104dd565b9150610506826104ed565b5f82019050919050565b5f6080820190508181035f83015261052781610464565b905061053660208301856104b6565b61054360408301846104ce565b8181036060830152610554816104f0565b90509392505050565b5f61056782610486565b9050919050565b6105778161055d565b82525050565b5f6020820190506105905f83018461056e565b92915050565b7f6e6f74206f776e657200000000000000000000000000000000000000000000005f82015250565b5f6105ca60098361042c565b91506105d582610596565b602082019050919050565b5f6020820190508181035f8301526105f7816105be565b9050919050565b5f81905092915050565b5f6106135f836105fe565b915061061e826104ed565b5f82019050919050565b5f61063282610608565b9150819050919050565b7f63616c6c206661696c65640000000000000000000000000000000000000000005f82015250565b5f610670600b8361042c565b915061067b8261063c565b602082019050919050565b5f6020820190508181035f83015261069d81610664565b9050919050565b7f73656e64206661696c65640000000000000000000000000000000000000000005f82015250565b5f6106d8600b8361042c565b91506106e3826106a4565b602082019050919050565b5f6020820190508181035f830152610705816106cc565b905091905056fea26469706673582212205cb38e7ba86e968c5512a7b1b835d2256389d8988c58dcac50ac0f94bd54adb864736f6c634300081a0033",
			"opcodes": "PUSH1 0xA0 PUSH1 0x40 MSTORE CALLVALUE DUP1 ISZERO PUSH1 0xE JUMPI PUSH0 DUP1 REVERT JUMPDEST POP CALLER PUSH20 0xFFFFFFFFFFFFFFFFFFFFFFFFFFFFFFFFFFFFFFFF AND PUSH1 0x80 DUP2 PUSH20 0xFFFFFFFFFFFFFFFFFFFFFFFFFFFFFFFFFFFFFFFF AND DUP2 MSTORE POP POP PUSH1 0x80 MLOAD PUSH2 0x742 PUSH2 0x6F PUSH0 CODECOPY PUSH0 DUP2 DUP2 PUSH1 0xF3 ADD MSTORE DUP2 DUP2 PUSH2 0x1C8 ADD MSTORE DUP2 DUP2 PUSH2 0x301 ADD MSTORE PUSH2 0x325 ADD MSTORE PUSH2 0x742 PUSH0 RETURN INVALID PUSH1 0x80 PUSH1 0x40 MSTORE PUSH1 0x4 CALLDATASIZE LT PUSH2 0x41 JUMPI PUSH0 CALLDATALOAD PUSH1 0xE0 SHR DUP1 PUSH3 0x79EFB0 EQ PUSH2 0x85 JUMPI DUP1 PUSH4 0x4FA3EEFF EQ PUSH2 0x9B JUMPI DUP1 PUSH4 0x8DA5CB5B EQ PUSH2 0xB1 JUMPI DUP1 PUSH4 0xEA98847B EQ PUSH2 0xDB JUMPI PUSH2 0x81 JUMP JUMPDEST CALLDATASIZE PUSH2 0x81 JUMPI PUSH32 0xF7F75251DEE7D7FC22DEAC3247729EBE7C86541F35930BF10C2A4207479A3B6C CALLER CALLVALUE PUSH1 0x40 MLOAD PUSH2 0x77 SWAP3 SWAP2 SWAP1 PUSH2 0x510 JUMP JUMPDEST PUSH1 0x40 MLOAD DUP1 SWAP2 SUB SWAP1 LOG1 STOP JUMPDEST PUSH0 DUP1 REVERT JUMPDEST CALLVALUE DUP1 ISZERO PUSH2 0x90 JUMPI PUSH0 DUP1 REVERT JUMPDEST POP PUSH2 0x99 PUSH2 0xF1 JUMP JUMPDEST STOP JUMPDEST CALLVALUE DUP1 ISZERO PUSH2 0xA6 JUMPI PUSH0 DUP1 REVERT JUMPDEST POP PUSH2 0xAF PUSH2 0x1C6 JUMP JUMPDEST STOP JUMPDEST CALLVALUE DUP1 ISZERO PUSH2 0xBC JUMPI PUSH0 DUP1 REVERT JUMPDEST POP PUSH2 0xC5 PUSH2 0x2FF JUMP JUMPDEST PUSH1 0x40 MLOAD PUSH2 0xD2 SWAP2 SWAP1 PUSH2 0x57D JUMP JUMPDEST PUSH1 0x40 MLOAD DUP1 SWAP2 SUB SWAP1 RETURN JUMPDEST CALLVALUE DUP1 ISZERO PUSH2 0xE6 JUMPI PUSH0 DUP1 REVERT JUMPDEST POP PUSH2 0xEF PUSH2 0x323 JUMP JUMPDEST STOP JUMPDEST PUSH32 0x0 PUSH20 0xFFFFFFFFFFFFFFFFFFFFFFFFFFFFFFFFFFFFFFFF AND CALLER PUSH20 0xFFFFFFFFFFFFFFFFFFFFFFFFFFFFFFFFFFFFFFFF AND EQ PUSH2 0x17F JUMPI PUSH1 0x40 MLOAD PUSH32 0x8C379A000000000000000000000000000000000000000000000000000000000 DUP2 MSTORE PUSH1 0x4 ADD PUSH2 0x176 SWAP1 PUSH2 0x5E0 JUMP JUMPDEST PUSH1 0x40 MLOAD DUP1 SWAP2 SUB SWAP1 REVERT JUMPDEST CALLER PUSH20 0xFFFFFFFFFFFFFFFFFFFFFFFFFFFFFFFFFFFFFFFF AND PUSH2 0x8FC PUSH1 0x64 SWAP1 DUP2 ISZERO MUL SWAP1 PUSH1 0x40 MLOAD PUSH0 PUSH1 0x40 MLOAD DUP1 DUP4 SUB DUP2 DUP6 DUP9 DUP9 CALL SWAP4 POP POP POP POP ISZERO DUP1 ISZERO PUSH2 0x1C3 JUMPI RETURNDATASIZE PUSH0 DUP1 RETURNDATACOPY RETURNDATASIZE PUSH0 REVERT JUMPDEST POP JUMP JUMPDEST PUSH32 0x0 PUSH20 0xFFFFFFFFFFFFFFFFFFFFFFFFFFFFFFFFFFFFFFFF AND CALLER PUSH20 0xFFFFFFFFFFFFFFFFFFFFFFFFFFFFFFFFFFFFFFFF AND EQ PUSH2 0x254 JUMPI PUSH1 0x40 MLOAD PUSH32 0x8C379A000000000000000000000000000000000000000000000000000000000 DUP2 MSTORE PUSH1 0x4 ADD PUSH2 0x24B SWAP1 PUSH2 0x5E0 JUMP JUMPDEST PUSH1 0x40 MLOAD DUP1 SWAP2 SUB SWAP1 REVERT JUMPDEST PUSH0 CALLER PUSH20 0xFFFFFFFFFFFFFFFFFFFFFFFFFFFFFFFFFFFFFFFF AND SELFBALANCE PUSH1 0x40 MLOAD PUSH2 0x279 SWAP1 PUSH2 0x628 JUMP JUMPDEST PUSH0 PUSH1 0x40 MLOAD DUP1 DUP4 SUB DUP2 DUP6 DUP8 GAS CALL SWAP3 POP POP POP RETURNDATASIZE DUP1 PUSH0 DUP2 EQ PUSH2 0x2B3 JUMPI PUSH1 0x40 MLOAD SWAP2 POP PUSH1 0x1F NOT PUSH1 0x3F RETURNDATASIZE ADD AND DUP3 ADD PUSH1 0x40 MSTORE RETURNDATASIZE DUP3 MSTORE RETURNDATASIZE PUSH0 PUSH1 0x20 DUP5 ADD RETURNDATACOPY PUSH2 0x2B8 JUMP JUMPDEST PUSH1 0x60 SWAP2 POP JUMPDEST POP POP SWAP1 POP DUP1 PUSH2 0x2FC JUMPI PUSH1 0x40 MLOAD PUSH32 0x8C379A000000000000000000000000000000000000000000000000000000000 DUP2 MSTORE PUSH1 0x4 ADD PUSH2 0x2F3 SWAP1 PUSH2 0x686 JUMP JUMPDEST PUSH1 0x40 MLOAD DUP1 SWAP2 SUB SWAP1 REVERT JUMPDEST POP JUMP JUMPDEST PUSH32 0x0 DUP2 JUMP JUMPDEST PUSH32 0x0 PUSH20 0xFFFFFFFFFFFFFFFFFFFFFFFFFFFFFFFFFFFFFFFF AND CALLER PUSH20 0xFFFFFFFFFFFFFFFFFFFFFFFFFFFFFFFFFFFFFFFF AND EQ PUSH2 0x3B1 JUMPI PUSH1 0x40 MLOAD PUSH32 0x8C379A000000000000000000000000000000000000000000000000000000000 DUP2 MSTORE PUSH1 0x4 ADD PUSH2 0x3A8 SWAP1 PUSH2 0x5E0 JUMP JUMPDEST PUSH1 0x40 MLOAD DUP1 SWAP2 SUB SWAP1 REVERT JUMPDEST PUSH0 CALLER PUSH20 0xFFFFFFFFFFFFFFFFFFFFFFFFFFFFFFFFFFFFFFFF AND PUSH2 0x8FC PUSH1 0xC8 SWAP1 DUP2 ISZERO MUL SWAP1 PUSH1 0x40 MLOAD PUSH0 PUSH1 0x40 MLOAD DUP1 DUP4 SUB DUP2 DUP6 DUP9 DUP9 CALL SWAP4 POP POP POP POP SWAP1 POP DUP1 PUSH2 0x429 JUMPI PUSH1 0x40 MLOAD PUSH32 0x8C379A000000000000000000000000000000000000000000000000000000000 DUP2 MSTORE PUSH1 0x4 ADD PUSH2 0x420 SWAP1 PUSH2 0x6EE JUMP JUMPDEST PUSH1 0x40 MLOAD DUP1 SWAP2 SUB SWAP1 REVERT JUMPDEST POP JUMP JUMPDEST PUSH0 DUP3 DUP3 MSTORE PUSH1 0x20 DUP3 ADD SWAP1 POP SWAP3 SWAP2 POP POP JUMP JUMPDEST PUSH32 0x7265636569766500000000000000000000000000000000000000000000000000 PUSH0 DUP3 ADD MSTORE POP JUMP JUMPDEST PUSH0 PUSH2 0x470 PUSH1 0x7 DUP4 PUSH2 0x42C JUMP JUMPDEST SWAP2 POP PUSH2 0x47B DUP3 PUSH2 0x43C JUMP JUMPDEST PUSH1 0x20 DUP3 ADD SWAP1 POP SWAP2 SWAP1 POP JUMP JUMPDEST PUSH0 PUSH20 0xFFFFFFFFFFFFFFFFFFFFFFFFFFFFFFFFFFFFFFFF DUP3 AND SWAP1 POP SWAP2 SWAP1 POP JUMP JUMPDEST PUSH0 PUSH2 0x4AF DUP3 PUSH2 0x486 JUMP JUMPDEST SWAP1 POP SWAP2 SWAP1 POP JUMP JUMPDEST PUSH2 0x4BF DUP2 PUSH2 0x4A5 JUMP JUMPDEST DUP3 MSTORE POP POP JUMP JUMPDEST PUSH0 DUP2 SWAP1 POP SWAP2 SWAP1 POP JUMP JUMPDEST PUSH2 0x4D7 DUP2 PUSH2 0x4C5 JUMP JUMPDEST DUP3 MSTORE POP POP JUMP JUMPDEST PUSH0 DUP3 DUP3 MSTORE PUSH1 0x20 DUP3 ADD SWAP1 POP SWAP3 SWAP2 POP POP JUMP JUMPDEST POP JUMP JUMPDEST PUSH0 PUSH2 0x4FB PUSH0 DUP4 PUSH2 0x4DD JUMP JUMPDEST SWAP2 POP PUSH2 0x506 DUP3 PUSH2 0x4ED JUMP JUMPDEST PUSH0 DUP3 ADD SWAP1 POP SWAP2 SWAP1 POP JUMP JUMPDEST PUSH0 PUSH1 0x80 DUP3 ADD SWAP1 POP DUP2 DUP2 SUB PUSH0 DUP4 ADD MSTORE PUSH2 0x527 DUP2 PUSH2 0x464 JUMP JUMPDEST SWAP1 POP PUSH2 0x536 PUSH1 0x20 DUP4 ADD DUP6 PUSH2 0x4B6 JUMP JUMPDEST PUSH2 0x543 PUSH1 0x40 DUP4 ADD DUP5 PUSH2 0x4CE JUMP JUMPDEST DUP2 DUP2 SUB PUSH1 0x60 DUP4 ADD MSTORE PUSH2 0x554 DUP2 PUSH2 0x4F0 JUMP JUMPDEST SWAP1 POP SWAP4 SWAP3 POP POP POP JUMP JUMPDEST PUSH0 PUSH2 0x567 DUP3 PUSH2 0x486 JUMP JUMPDEST SWAP1 POP SWAP2 SWAP1 POP JUMP JUMPDEST PUSH2 0x577 DUP2 PUSH2 0x55D JUMP JUMPDEST DUP3 MSTORE POP POP JUMP JUMPDEST PUSH0 PUSH1 0x20 DUP3 ADD SWAP1 POP PUSH2 0x590 PUSH0 DUP4 ADD DUP5 PUSH2 0x56E JUMP JUMPDEST SWAP3 SWAP2 POP POP JUMP JUMPDEST PUSH32 0x6E6F74206F776E65720000000000000000000000000000000000000000000000 PUSH0 DUP3 ADD MSTORE POP JUMP JUMPDEST PUSH0 PUSH2 0x5CA PUSH1 0x9 DUP4 PUSH2 0x42C JUMP JUMPDEST SWAP2 POP PUSH2 0x5D5 DUP3 PUSH2 0x596 JUMP JUMPDEST PUSH1 0x20 DUP3 ADD SWAP1 POP SWAP2 SWAP1 POP JUMP JUMPDEST PUSH0 PUSH1 0x20 DUP3 ADD SWAP1 POP DUP2 DUP2 SUB PUSH0 DUP4 ADD MSTORE PUSH2 0x5F7 DUP2 PUSH2 0x5BE JUMP JUMPDEST SWAP1 POP SWAP2 SWAP1 POP JUMP JUMPDEST PUSH0 DUP2 SWAP1 POP SWAP3 SWAP2 POP POP JUMP JUMPDEST PUSH0 PUSH2 0x613 PUSH0 DUP4 PUSH2 0x5FE JUMP JUMPDEST SWAP2 POP PUSH2 0x61E DUP3 PUSH2 0x4ED JUMP JUMPDEST PUSH0 DUP3 ADD SWAP1 POP SWAP2 SWAP1 POP JUMP JUMPDEST PUSH0 PUSH2 0x632 DUP3 PUSH2 0x608 JUMP JUMPDEST SWAP2 POP DUP2 SWAP1 POP SWAP2 SWAP1 POP JUMP JUMPDEST PUSH32 0x63616C6C206661696C6564000000000000000000000000000000000000000000 PUSH0 DUP3 ADD MSTORE POP JUMP JUMPDEST PUSH0 PUSH2 0x670 PUSH1 0xB DUP4 PUSH2 0x42C JUMP JUMPDEST SWAP2 POP PUSH2 0x67B DUP3 PUSH2 0x63C JUMP JUMPDEST PUSH1 0x20 DUP3 ADD SWAP1 POP SWAP2 SWAP1 POP JUMP JUMPDEST PUSH0 PUSH1 0x20 DUP3 ADD SWAP1 POP DUP2 DUP2 SUB PUSH0 DUP4 ADD MSTORE PUSH2 0x69D DUP2 PUSH2 0x664 JUMP JUMPDEST SWAP1 POP SWAP2 SWAP1 POP JUMP JUMPDEST PUSH32 0x73656E64206661696C6564000000000000000000000000000000000000000000 PUSH0 DUP3 ADD MSTORE POP JUMP JUMPDEST PUSH0 PUSH2 0x6D8 PUSH1 0xB DUP4 PUSH2 0x42C JUMP JUMPDEST SWAP2 POP PUSH2 0x6E3 DUP3 PUSH2 0x6A4 JUMP JUMPDEST PUSH1 0x20 DUP3 ADD SWAP1 POP SWAP2 SWAP1 POP JUMP JUMPDEST PUSH0 PUSH1 0x20 DUP3 ADD SWAP1 POP DUP2 DUP2 SUB PUSH0 DUP4 ADD MSTORE PUSH2 0x705 DUP2 PUSH2 0x6CC JUMP JUMPDEST SWAP1 POP SWAP2 SWAP1 POP JUMP INVALID LOG2 PUSH5 0x6970667358 0x22 SLT KECCAK256 TLOAD 0xB3 DUP15 PUSH28 0xA86E968C5512A7B1B835D2256389D8988C58DCAC50AC0F94BD54ADB8 PUSH5 0x736F6C6343 STOP ADDMOD BYTE STOP CALLER "
		},
		"gasEstimates": {
			"creation": {
				"codeDepositCost": "371600",
				"executionCost": "infinite",
				"totalCost": "infinite"
			},
			"external": {
				"owner()": "infinite",
				"withdraw1()": "infinite",
				"withdraw2()": "infinite",
				"withdraw3()": "infinite"
			}
		},
		"methodIdentifiers": {
			"owner()": "8da5cb5b",
			"withdraw1()": "0079efb0",
			"withdraw2()": "ea98847b",
			"withdraw3()": "4fa3eeff"
		}
	},
	"abi": [
		{
			"inputs": [],
			"stateMutability": "nonpayable",
			"type": "constructor"
		},
		{
			"anonymous": false,
			"inputs": [
				{
					"indexed": false,
					"internalType": "string",
					"name": "fundName",
					"type": "string"
				},
				{
					"indexed": false,
					"internalType": "address",
					"name": "from",
					"type": "address"
				},
				{
					"indexed": false,
					"internalType": "uint256",
					"name": "value",
					"type": "uint256"
				},
				{
					"indexed": false,
					"internalType": "bytes",
					"name": "data",
					"type": "bytes"
				}
			],
			"name": "Log",
			"type": "event"
		},
		{
			"inputs": [],
			"name": "owner",
			"outputs": [
				{
					"internalType": "address payable",
					"name": "",
					"type": "address"
				}
			],
			"stateMutability": "view",
			"type": "function"
		},
		{
			"inputs": [],
			"name": "withdraw1",
			"outputs": [],
			"stateMutability": "nonpayable",
			"type": "function"
		},
		{
			"inputs": [],
			"name": "withdraw2",
			"outputs": [],
			"stateMutability": "nonpayable",
			"type": "function"
		},
		{
			"inputs": [],
			"name": "withdraw3",
			"outputs": [],
			"stateMutability": "nonpayable",
			"type": "function"
		},
		{
			"stateMutability": "payable",
			"type": "receive"
		}
	]
}